:020000040800F2
:10000000E8070020B5010008653100088D2C0008C4
:100010006131000869060008E533000800000000AF
:100020000000000000000000000000001D32000879
:10003000F506000800000000193200088D320008A3
:10004000CF010008CF010008CF010008CF01000850
:10005000CF010008CF010008CF010008CF01000840
:10006000CF010008CF010008CF010008E906000811
:10007000CF010008CF010008CF010008CF01000820
:10008000CF010008CF010008F1030008CF010008EC
:10009000CF010008CF010008CF010008CF01000800
:1000A00029330008CF010008CF010008CF01000864
:1000B00035330008CF010008CF010008CF01000848
:1000C000CF010008CF010008CF010008CF010008D0
:1000D000CF010008CF010008CF010008CF010008C0
:1000E000CF010008CF010008CF01000800F002F89E
:1000F00000F050F814A696E8000CB244B344DA4578
:1001000001D100F047F8BAE80F000FA696E83000DA
:10011000A5EB040504EB0607AAEB0704A7F101070A
:100120004FEA15154FEA3414A4F10104AC4201D38F
:1001300000F030F813F0010F18BFFB1A43F0010371
:1001400000F001F8DBE71847C03F0000E03F000087
:10015000103A24BF78C878C1FAD8520724BF30C8F3
:1001600030C144BF04680C60704700007047000055
:100170000023002400250026103A28BF78C1FBD8B0
:10018000520728BF30C148BF0B6070471FB51FBD65
:1001900010B510BD00F0C7F81146FFF7F7FF03F0E8
:1001A00025F900F0E5F803B4FFF7F2FF03BC00F017
:1001B000A7F800000948804709480047FEE7FEE726
:1001C000FEE7FEE7FEE7FEE7FEE7FEE7FEE7FEE707
:1001D00004480549054A064B7047000025330008CE
:1001E000ED000008E8010020E8070020E8030020F7
:1001F000E80300200EB5054614460E4613A000F095
:100200006EF8284600F06BF816A000F068F830464B
:1002100000F065F815A000F062F800218DF80B10D1
:100220000A210DF10A008DF80A1008E094FBF1F2A2
:1002300001FB124294FBF1F4303200F8012D002C46
:10024000F4DC00F04CF800F03FF800002A2A2A20E5
:10025000617373657274696F6E206661696C656441
:100260003A2000002C2066696C6520002C206C6907
:100270006E6520004FF0000200B513469446964686
:10028000203922BFA0E80C50A0E80C50B1F12001A9
:10029000BFF4F7AF090728BFA0E80C5048BF0CC057
:1002A0005DF804EB890028BF40F8042B08BF7047B5
:1002B00048BF20F8022B11F0804F18BF00F8012B27
:1002C000704770477047704710B5002000F01EF867
:1002D000FFF75EFFBDE81040012000F011B810B537
:1002E000044602E0641C00F004F820780028F9D1EC
:1002F00010BD08B569468DF800000320ABBE08BDEF
:1003000001491820ABBEFEE72600020010B500F040
:100310003DF8BDE8104000F034B8000000487047D8
:100320002800002070477546FFF7F8FFAE4605002D
:100330006946534620F00700854618B020B5FFF700
:1003400047FFBDE820404FF000064FF000074FF098
:1003500000084FF0000BAC46ACE8C009ACE8C0099F
:10036000ACE8C009ACE8C00921F007018D46704730
:1003700010B50446AFF300802046BDE81040FFF7FB
:1003800012BF002801D0FFF7BBBF704710B5002196
:1003900002A000F013F8012010BD000053494741AE
:1003A0004252543A2041626E6F726D616C207465E6
:1003B000726D696E6174696F6E00000070B50546FC
:1003C0000C460A2000E06D1CFFF793FF35B128783A
:1003D0000028F8D102E0641CFFF78BFF14B12078ED
:1003E0000028F8D1BDE870400A20FFF782BF000066
:1003F00040F2A400C2F2000000F0DABBB0B504463F
:1004000000688168C90709D0816821F00101816015
:1004100001F0B2F821688968C90701D10020B0BD98
:10042000054603E020688068C007F7D001F0A4F813
:10043000401B0328F6D320688068C007F2D0A06A6A
:1004400040F01000A062E06A40F00100E06201208C
:10045000B0BD00000146406A826A12F0500F03D01E
:10046000006A026B084610470168826A42F4007213
:100470008262896801F46021B1F5602F01D1017BAE
:1004800009B100F081BB816A21F480718162816AC7
:10049000C90448BF00F078BB816A41F00101816264
:1004A00000F072BB406A816A41F040018162C16A1A
:1004B00041F00401C16200F079BB0000406A00F025
:1004C00073BB0000B0B582B00446002001902168E3
:1004D0008A68D2073AD1886840F00100886040F20B
:1004E0000000C2F2000000684DF68361C4F21B31C7
:1004F000A0FB0101880C00BF0190019810B1019888
:100500000138F9E701F038F821688968C9071CD17A
:10051000054603E020688068C00716D101F02CF87A
:10052000401B0328F6D320688068C007F2D1A06A78
:1005300040F01000A062E06A40F00100E06200209C
:1005400084F82400012002B0B0BD002002B0B0BD8C
:10055000002804BF0020704780B503F097FB4FF0E0
:10056000665103F00FFC03F0DFFA46F26663C4F253
:100570000A034FF0663203F0D9F949F69A124FF6A2
:100580009913C9F69912C4F26D0303F0CFF903F081
:100590009BF980BD10B502F0E5FF02F025FFE0B148
:1005A00002F0BCFFC8B102F0CBFFB0B100F0C4F85C
:1005B000002480B102F08EFF68B140F28E00C2F2DA
:1005C0000000047040F26010C2F2000001684C624A
:1005D00001F01CFE0124204610BD002010BD0000CB
:1005E00001207047B0B502F0A5FF38B342F2107099
:1005F00002F0E0FF10B3FF2001F0B8F802F094FF22
:10060000E0B102F067FFC8B100F096F8B0B140F277
:10061000BC10C2F2000002F0BDFF40F20405C2F2BD
:10062000000505F108000121012402F07DFD05F11E
:100630001000012102F078FD2046B0BD0020B0BDC1
:10064000012070470120704701207047012070474A
:10065000012070470120704701207047012070473A
:100660000120704701207047FEE70000B0B540F25E
:100670008800C2F200000088E8B103F007FB4FF0E9
:10068000665103F07FFB03F04FFA46F26663C4F253
:100690000A034FF0663203F049F949F69A124FF611
:1006A0009913C9F69912C4F26D0303F03FF903F0F0
:1006B0000BF9044600E0002448F20001C4F289313D
:1006C000204603F071FA48F2000105460028C4F202
:1006D000AC31204618BF012503F06DFA002818BF81
:1006E00001202840B0BD000040F2D400C2F200005A
:1006F00000F0F6BC7047000040F2900CC2F2000C13
:100700009CF80A109CF80B30994211D09CF80B20F1
:100710001CF8022002709CF80B0041F69A1201307E
:100720004243120C02EB8202A0EB42008CF80B0059
:10073000C81A18BF0120704780B540F21810C2F2E5
:10074000000000680022C16841F08001C1601820EB
:10075000002100F093FF182000F080FF012080BDF1
:10076000EFF3108072B600BFFEE70000F0B581B075
:100770000022009290F82420012A02D14FF0020CAE
:10078000D3E083684C68012280F82420B3B1D1F80B
:1007900010E00268B4EB0E0404EB8404D2F838C015
:1007A00004F10F044FF01F0303FA04F32CEA0303D0
:1007B00023F4401C0DD9C2F838C015E0012C40F0DC
:1007C0008B800268936B0C686FF3150343EAC433A4
:1007D00009E000230D68CFF6F07303EB0E53A5403C
:1007E0002B4343EA0C0393634FF0000C03689A68B1
:1007F000D20706D19A6847F201058C69AA432243C1
:100800009A6091F815E0BEF1010F10D18D6900F1E9
:100810002804B5F5E04F4FF0200514BF4FF0010C50
:100820001C1D08BF4FF4806522682A4322600A7DA0
:10083000012A0ED100F128022025BEF1000F14BFBD
:100840004FF0010C1A1D08BF4FF480551468254362
:100850001560D1F800E010240EEB4E02BEF1090F36
:1008600088BF1E3A88BF0C241D5907268F68964002
:10087000B54307FA02F215432EF00102102A1D516A
:1008800003D19C6844F400049C604C68032C08D09D
:10089000022C09D0012C14BF03F1200403F114042D
:1008A00004E003F11C0401E003F11804256840F69C
:1008B000FF76C968B5432943102A216032D142F23C
:1008C0000041C4F201018B420DD0816A4FF0010C4E
:1008D00041F02001816225E0826A4FF0010C42F074
:1008E0002002826282E7896809021BD49968BEF1FE
:1008F000100F41F40001996014D140F20001C2F2DE
:10090000000109684DF68362C4F21B32A1FB02129A
:10091000910C01EB810149000091009911B10099FE
:100920000139F9E7002180F82410604601B0F0BDDC
:10093000016842F20042C4F20102914218BF7047BE
:10094000012100F001B80000022908D003290AD0D3
:100950000068042914BF3C304830006870470068C4
:1009600040300068704700684430006870470000FD
:1009700010B5044690F82400012804BF022010BDE1
:10098000012084F824002046FFF79CFD18B10021C7
:1009900084F8241010BD42F2044C2168A26AC4F20B
:1009A000010C43F201039A430CF57F7302F5805268
:1009B0009942A26203D0A26A22F4801207E0DCF816
:1009C000002012F4702FF6D0A26A42F48012A262C4
:1009D000A26AD2055CBF0022E262002284F82420D1
:1009E0006FF004020A604A6842F080024A604A6876
:1009F000520548BF10BD8A6802F4E042B2F5E04FEC
:100A000006D1994209D1DCF8002012F4702F04D0ED
:100A10008A6842F400428A6010BD8A6842F4021279
:100A20008A6010BD10B5044690F82400012804BF68
:100A3000022010BD012084F82400A06AC00512D451
:100A40002068406840050ED42046FFF7D7FC78B9EF
:100A500021684A6822F080024A60A16A41F20112CC
:100A60009143013103E0A06A40F020010120A1621E
:100A7000002184F8241010BDB0B581B0002200928E
:100A800090F82420012A01D1022179E04A6801234B
:100A9000062A02EB820C80F8243005D8026802F1A5
:100AA000340E6FF004020AE003680C2A87BF03F1DA
:100AB0002C0E6FF0400203F1300E6FF02202624400
:100AC000DEF800C01F230C6893402CEA030304FAED
:100AD00002F21A43CEF80020D1F800E002680EEBD3
:100AE0004E041023BEF1090F88BF1E3C88BF0C23A3
:100AF00052F803C007258968A5402CEA0505A140E6
:100B00002943D1502EF001014FF0000C10294FF075
:100B1000000133D1016842F20042C4F20102914265
:100B200005D0816A41F020018162012126E09268AE
:100B3000120222D48A68BEF1100F42F400028A60C9
:100B40001BD140F20001C2F2000109684DF6836238
:100B5000C4F21B32A1FB0212910C01EB810149008E
:100B60000091009949B100BF0099013900910099A5
:100B700000294FF00001F7D100E0002180F824C0E7
:100B8000084601B0B0BD000040F2A401C2F200016D
:100B900000680968884218BF704740F28E00C2F2B0
:100BA000000001210170704770470000704700008D
:100BB00070B50446006805684668B10627D515F08B
:100BC000020124D0A16AC90603D4A16A41F40071CC
:100BD000A162816801F46021B1F5602F10D1217B01
:100BE00071B9416821F020014160A06A20F4807051
:100BF000A062A06AC00403D4A06A40F00100A06211
:100C00002046FFF7C1FF20686FF012010160300637
:100C100033D515F0040030D0A06AC00603D4A06A12
:100C200040F40050A0622068816801F4E041B1F511
:100C3000E04F0FD1416821F080014160A06A20F4AB
:100C40008050A062A06AC00510D4A06A40F00100E4
:100C5000A0620BE04168490508D4816801F4602175
:100C6000B1F5602F02D1217B0029E3D02046FFF7A8
:100C70005FFE20686FF00C01016070060ED515F064
:100C8000010008BF70BDA06A40F48030A062204619
:100C900000F0B6F820686FF00101016070BD00003F
:100CA000002804BF01207047B0B50446806A30B9FF
:100CB0000020E06284F82400204600F0A3F82068B9
:100CC0008168C90709D0816821F00101816000F0C5
:100CD00053FC21688968C90730D100200121A36A2B
:100CE000A26A31B313F0100123D141F2021122EABA
:100CF00001010231A162E169D4E9013241EA030C48
:100D0000531EB3FA83F35D091346B2F5807F18BF13
:100D10002B02217D257B01294CEA450E31D13DB3C3
:100D2000A56A45F02005A562E56A45F00105E56282
:100D300027E042F01000A0620120B0BD054603E0AC
:100D400020688068C007C8D000F016FC401B03284C
:100D5000F6D320688068C007F2D0A06A002140F076
:100D60001000A062E06A40F00100E0620120B6E7F6
:100D7000D4F818C04EF60005CFF6FF7505EB4C35DC
:100D80002B432568B2F5807F696821F4694141EA07
:100D900003016960A9684FF2FD73CFF6E17301EAC0
:100DA000030141EA0E01A96001D0012A06D121699F
:100DB0000022CFF6F07202EB015200E00022E96A55
:100DC00021F470011143E962A96840F6FE62CFF692
:100DD0001F721140714507D10021E162A16A012211
:100DE00062F30101A162B0BDA06A40F0100020F0E2
:100DF0000200A062E06A40F00100E0620120B0BDA4
:100E00007047000070B586B0044640F60000C4F29A
:100E10000100216800F5E052002691420596CDE9D7
:100E20000366029601D006B070BD41F21801C4F20B
:100E300002010A6842F400720A600A6802F4007251
:100E40000192019A0A6842F004020A60096801F0FE
:100E50000401019101990F2102910321039102A93B
:100E600000F084FA40F2D4050820C2F20005C4F272
:100E700002004FF48072C5E9000605F110008021E0
:100E80004FF480634FF0200C4FF4805E80E80C50EC
:100E90002846C5E9026100F0D7F9002818BFFFF71E
:100EA0005FFC12200021002225626C6200F0E6FB4C
:100EB000122000F0D3FB06B070BD00002DE9F04118
:100EC0000546006842F60006C4F201069046B042AC
:100ED0000F4605D042F20041C4F2010188420AD116
:100EE00042F20440C4F20100006810F4702F1CBFED
:100EF0000120BDE8F08195F82400012804BF0220FC
:100F0000BDE8F081012085F824002846FFF7DAFAD1
:100F1000044628B1002085F824002046BDE8F08171
:100F200042F204402968AA6AC4F2010040F6017343
:100F30009A4300F57F7302F580729942AA6207D046
:100F4000A86A20F48010A8624868400513D417E00E
:100F5000026812F4702FF3D0AA6AB14242F48012F0
:100F6000AA6205D042F20042C4F20102914207D1C6
:100F70000068400504D5A86A012262F30D30A8621A
:100F8000AA6A0020D2044FF0000244BFEA6A22F0AD
:100F90000602EA6285F82400286A40F25542C0F64B
:100FA000000240F2BD4340F2A54600F1280CC0F615
:100FB0000003C0F600068CE84C006FF002020A60E5
:100FC0008A68434642F480728A604C313A4600F0A7
:100FD0007FF92868816801F460228168B2F5602F8A
:100FE0000CBF41F4A00141F4801181602046BDE8AE
:100FF000F0810000B0B5044690F82400012804BF39
:101000000220B0BD0121206884F824108268D20734
:1010100002D1002041BB3FE0816821F001018160E5
:1010200000F0AAFA21688968C90703D100200121CC
:10103000D1B931E0054603E020688068C007F5D0EB
:1010400000F09AFA401B0328F6D320688068C00796
:10105000F2D0A06A002140F01000A062E06A40F0E7
:101060000100E0620120B9B12268216A936823F48B
:101070008073936091F82120022A0DD1084600F078
:101080000FF8A16A41F2011221EA020241F0400187
:10109000002808BF511CA162002184F82410B0BDB3
:1010A000014690F82100022813D10868D1E90FC346
:1010B000026822F00E020260026822F00102026061
:1010C000012000FA03F2CCF8042081F8210000206E
:1010D00002E0042088630120002281F8202070476C
:1010E00010B5D0E90FCE0168DCF800300A6823FAA9
:1010F0000EF35C0724D512F0040421D00A6892068E
:1011000003D40A6822F004020A602F22C4F2020209
:10111000914240F20402C4F202024FDD3023C4F2D5
:101120000203994262D04423C4F20203994260D080
:101130005823C4F20203994260D14FF4802365E042
:101140009C0727D512F0020424D00A68920606D420
:101150000A6822F00A020A60012280F821202F2268
:10116000C4F20202914240F20402C4F2020231DDF2
:101170003023C4F2020399424ED04423C4F2020346
:1011800099424CD05823C4F2020399424CD14FF4F7
:10119000003351E01B0756D512F0080208BF10BDFE
:1011A0000A6822F00E020A60012101FA0EF2CCF860
:1011B0000420816380F82110016B3FE00823C4F212
:1011C0000203994218D01C23C4F20203994215D19C
:1011D00040231BE00823C4F20203994222D01C23BF
:1011E000C4F2020399421FD1202325E04FF480630B
:1011F0000CE04FF4804309E0042307E002F16804A7
:101200004FF08063A14208BF4FF480031360C16AAE
:10121000C9B1BDE8104008474FF400730CE04FF42B
:10122000005309E0022307E002F168044FF0007365
:10123000A14208BF4FF400131360816A0022002905
:1012400080F82020E5D110BD014600284FF00100B4
:1012500008BF70472DE9F0470A684FF6F873CBF6E0
:10126000FD7302EB030C4CF6CD43CCF6CC43ACFB48
:10127000033C6FF00307002607EA9C07C4F202064E
:1012800001F10C0AC1E90F670227D1E9013E9AE892
:101290003004D1E9069881F82170176843F6F0769A
:1012A000B7433B4343EA0E0323432B4343EA0A037A
:1012B00043EA090343EA0803136000228A6381F8C2
:1012C000210081F820200020BDE8F0477047000091
:1012D00090F820C0BCF1010F04BF02207047F0B5A8
:1012E0004FF0010E80F820E090F821C0BCF1010F12
:1012F00023D14FF0020C80F821C04FF0000CC0F851
:1013000038C0D0E900C4C56AC66BDCF80070102C88
:1013100027F00107CCF80070006C0EFA00F0706046
:101320000846CCF8043004BF10460A46CCF8080042
:10133000CCF80C2035B10E200BE0002180F82010F5
:101340000220F0BDDCF8000020F00400CCF8000022
:101350000A20DCF800100843CCF80000DCF800009C
:1013600040F00100CCF800000020F0BD2DE9F04F66
:1013700082B00E68002E00F0F68041F20042C4F206
:101380000102042340F2004E904208BF03234FF6AF
:10139000FF7CC4F2010E009300240123C1F2100C63
:1013A0004FF0000A4FF0000943E0012704F00C035E
:1013B0000F229A402BEA020207FA03F34FEA9A053A
:1013C0001A4346F825204E6840F20C45F202DEF83A
:1013D000082054BF22EA080242EA0802C4F20105CA
:1013E000CEF808202A68B30254BF22EA080242EA73
:1013F00008022A60B303DEF8042054BF22EA080280
:1014000042EA0802F303CEF80420DEF800204FF091
:10141000010354BF22EA080242EA0802CEF8002083
:101420000E680AF1010A36FA0AF204F1040400F027
:101430009A8003FA0AFB16EA0B08F1D04E6866455B
:1014400010DC122E50D8DFE806F0330A41454F4F2A
:101450004F4F4F4F4F4F4F4F4F4F4F484C00D1F8CA
:101460000C9041E04FF6FF72C1F2210296420FDC70
:101470000022C1F2110296421AD00022C1F21202D9
:10148000964215D00022C1F22102964210D02BE0E4
:101490000022C1F2220296420AD00022C1F2310299
:1014A000964205D00022C1F2320296421CD100BF02
:1014B0008A6842B1012A14BFC0F814B0C0F810B055
:1014C0004FF0080910E04FF004090DE0CA6802F17E
:1014D000080909E04FF0000906E0CA6802F10409B2
:1014E00002E0CA6802F10C0922460646B8F5807F80
:1014F00024BF203A043637680F25954027EA0505B2
:1015000009FA02F22A433260CA79D2067FF588AF1F
:1015100041F21803C4F202031A68AEF57E7642F077
:1015200001021A601A6802F001020192019A2AF07F
:10153000030256F802B040F60002C4F201029042E3
:101540000FD040F60042C4F2010290423FF42DAFAA
:1015500041F20002C4F20102009F904208BF02273C
:1015600024E7002722E702B0BDE8F08F002A08BF79
:10157000090401617047000040F2E010C2F200006F
:101580000068704740F21C0040F2E011C2F2000017
:10159000C2F2000100780A68104408607047000039
:1015A00080B542F20000C4F20200016841F010016F
:1015B0000160032000F08EF80F2000F005F800F025
:1015C0002BF8002080BD0000B0B540F21C02C2F232
:1015D000000240F200011278C2F200014FF47A7367
:1015E0000968B3FBF2F20446B1FBF2F1084600F0E1
:1015F00019FC0F2C4FF001050CD858B94FF0FF30F3
:1016000021460022002500F039F840F22000C2F205
:10161000000004602846B0BD82B041F21800C4F258
:1016200002000168022241F001010160016801F03D
:10163000010101910199416841F080514160406888
:1016400000F08050009000980420C4F2010001686E
:1016500062F31A61016002B070470000002848BFC1
:10166000704700F01F01012202FA01F14EF2001250
:101670004009CEF2000242F82010704710B54EF635
:101680000C5CCEF2000CDCF80030C3F3022E8EF0BE
:101690000704042C28BF0424BEF103034FF0FF3ECF
:1016A0000EFA04F438BF0023A14399400EFA03F365
:1016B0009A43114300F1604200F00F03090102F563
:1016C0006442043B6344002848BF03F10C021170DC
:1016D00010BD00004EF60C51CEF200010A684FF624
:1016E000FF031A4060F30A2242F0806040F0FD7070
:1016F000086070474AF200214000C0F24A41B1FB45
:10170000F0F040F21811C2F200010A68431E4008CE
:10171000D362CB60506390637047000040F21810B2
:10172000C2F20000006800214162704708280CD016
:10173000042812D0002840F21810C2F200000068FD
:1017400014BF403034300160704740F21810C2F2CC
:10175000000000683C300160704740F21810C2F28F
:1017600000000068383001607047000040F2181136
:10177000C2F2000109684A6C22F0FF02104448647A
:101780007047000010B540F21814C2F2000420683F
:1017900000214162204601F091F92046002100F02D
:1017A000C1FB2046042101F089F920460421BDE84F
:1017B000104000F0B7BB000010B540F21814C2F2A0
:1017C00000042046002101F0D9F92046002100F054
:1017D00001FC2046042101F0D1F920460421BDE896
:1017E000104000F0F7BB000040F21810C2F20000F9
:1017F000006841F21112016A114200D07047016A7B
:1018000040F24442114218BF7047016821F00101C3
:101810000160704740F21810C2F2000000680168D1
:1018200041F00101016070472DE9F04182B00446AA
:10183000007841F21C06C007C4F202064AD03068A4
:101840005FEAC00808D4306840F0805030603068EB
:1018500000F080500190019847F20007C4F20007A1
:101860003868C00512D4386840F480703860FFF7DB
:1018700083FE05463868C00508D4FFF77DFE401B8F
:101880006428F7D9032002B0BDE8F081706810F435
:10189000407012D0616801F4407188420DD07068C8
:1018A00040F24042C4F24222012320F4407113600E
:1018B0000023C0071360716025D17068616820F44F
:1018C00040700843B8F1000F706003D4306820F016
:1018D000805030602068810707D556F8181CA26830
:1018E00021F44041114346F8181CC00607D556F8AC
:1018F000180CE16820F48000084346F8180C00201A
:1019000002B0BDE8F081FFF737FE054641F28837A7
:1019100070688007D1D4FFF72FFE401BB8424FF00C
:101920000300F5D9ECE70000002804BF0120704750
:101930002DE9F04381B042F20008C4F202080446E7
:10194000D8F800000D4600F0070088420CD2D8F805
:10195000000020F007002843C8F80000D8F8000075
:1019600000F00700A8426BD1206841F2040981070A
:10197000C4F2020917D5410705D5D9F8001041F482
:10198000E061C9F80010010705D5D9F8001041F44D
:101990006051C9F80010D9F80010A26821F0F001D8
:1019A0001143C9F80010C00741D1D8F8000000F079
:1019B0000700A8420CD9D8F8000020F007002843FF
:1019C000C8F80000D8F8000000F00700A84237D19E
:1019D0002068410707D5D9F80010E26821F4E061DA
:1019E0001143C9F80010000708D5D9F80000216993
:1019F00020F4605040EAC100C9F80000D9F8002086
:101A000002F00C00082841F20020C0F27A004DD10B
:101A100043F62E73C2F38341C0F60003595CD20330
:101A200038D440F60010C0F23D0048433EE0606804
:101A3000022809D0012828D159F8041C890307D4A9
:101A4000012001B0BDE8F08359F8041C8901F7D5E5
:101A5000D9F8001021F003010843C9F80000FFF78E
:101A60008BFD064641F28837D9F80000616800F026
:101A70000C00B0EB810F98D0FFF77EFD801BB842C1
:101A8000F2D9032001B0BDE8F08359F8041C89079E
:101A9000D6D5DDE7D9F8002043F62C73C2F34042D7
:101AA000C0F600039A5C4843B0FBF2F0D9F800108E
:101AB00043F61C72C1F30311C0F60002515C40F200
:101AC000000220FA01F140F22000C2F2000000689A
:101AD000C2F200021160FFF777FD002001B0BDE8FF
:101AE000F0830000002804BF012070472DE9F04179
:101AF00082B00446007841F20006C007C4F2020634
:101B000049D0706800F00C00042809D130688003C7
:101B100041D5606800283ED1012002B0BDE8F081C7
:101B2000706800F00C00082802D17068C003EDD482
:101B300065682DB1B5F5A02F0AD0B5F5803F0BD063
:101B4000306820F480303060306820F4802006E077
:101B5000306840F480203060306840F4803030607D
:101B6000FFF70AFD002D054612D000BF3068800344
:101B700011D4FFF701FD401B6428F7D918E100BF1D
:101B8000FFF7FAFC401B64284FF0030000F2D880F6
:101B900030688003F4D42078800719D5706810F07D
:101BA0000C0F07D0706800F00C00082827D170686F
:101BB000C00324D43068800703D52069012840F091
:101BC000A6803068616920F0F80040EAC10030600A
:101BD000207800074ED5A06938B30020C4F2422017
:101BE0000121C0F88014FFF7C7FC0546706A800722
:101BF0002DD4FFF7C1FC401B0228F7D9D8E020699B
:101C0000002840F20000C4F2422000F0A880012128
:101C10000160FFF7B1FC054630688007D1D4FFF7BB
:101C2000ABFC401B0228F7D9C2E00020C4F24220DE
:101C30000021C0F88014FFF79FFC0546706A8007FA
:101C400018D5FFF799FC401B0228F7D9B0E040F205
:101C50000000C2F20000006844F6D351C1F26201F4
:101C6000A0FB0101480A019000BF0198411E002815
:101C70000191F9D12078400717D4E5698DB17068DA
:101C800000F00C00082846D1012D40D07068216A70
:101C900000F480328A423AD1616A00F470108842BE
:101CA00035D1002002B0BDE8F081F0695FEAC008DC
:101CB00008D4F06940F08050F061F06900F0805085
:101CC0000090009847F20007C4F200073868C0058A
:101CD0000FD4386840F480703860FFF74DFC05463B
:101CE0003868C00505D4FFF747FC401B6428F7D9C6
:101CF0005EE0E5681DB1052D42D0012D44D0306A6B
:101D000020F001003062306A20F004003FE0012042
:101D100002B0BDE8F0810027C4F2422700203866F7
:101D2000FFF72AFC022D05460ED100BF3068800166
:101D300055D5FFF721FC401B02284FF00300F5D9D1
:101D400002B0BDE8F08100BF30688001A9D5FFF77F
:101D500013FC401B02284FF00300F5D9F0E70021E7
:101D60000160FFF709FC0546306880077FF530AF5A
:101D7000FFF702FC401B02284FF00300F4D9DFE715
:101D8000306A40F004003062306A40F00100306296
:101D9000FFF7F2FB002D054641F2883713D000BF54
:101DA000306A800712D4FFF7E7FB401BB842F7D92F
:101DB000032002B0BDE8F081FFF7DEFB401BB84214
:101DC0004FF00300BCD8306A8007F5D4B8F1000F9B
:101DD0003FF553AFF06920F08050F0614DE7206A85
:101DE000B0F5803F05D17168A26821F4003111433C
:101DF00071607168626A21F4741111430843706064
:101E000001203866FFF7B8FB044600BF3068800148
:101E10003FF547AFFFF7B0FB001B02284FF0030070
:101E2000F4D98DE7411E0020B0EB116F1CBF0120DB
:101E300070474EF21002CEF2000251604EF623516E
:101E4000CEF20001F0230B70072190601160704703
:101E5000704700007047000090F83C20012A04BF42
:101E600002207047B0B501F108053CCDD1E900CEA4
:101E700023F47C5322F470521A432EF4F0431A4395
:101E80002CF4E0431A4324F4C0431A432A43C9699B
:101E900022F48042036811435964002180F83C1009
:101EA000BDE8B0400846704790F83C20012A4FF04A
:101EB000020234D010B5012380F83C3080F83D2078
:101EC0000268D2F804E0D2F808C00C682EF0700363
:101ED000234340F2FF74C4F20004A242536005DCC5
:101EE000B2F1804F0ED040F2004307E042F60043CB
:101EF000C4F201039A4205D040F60003C4F2000385
:101F00009A4204D149682CF0800319439160012161
:101F1000002280F83D1080F83C20BDE810401046BB
:101F20007047000041B1082909D0042914BF00F10D
:101F3000450200F1430204E000F1420201E000F139
:101F400044021278012A1CBF01207047022241B1CD
:101F5000082909D0042914BF80F8452080F84320BF
:101F600004E080F8422001E080F84420006801F09D
:101F70000F010422036A02FA01F123EA010202625C
:101F8000026A11430162416C40F2FF72C4F2000226
:101F900041F400419042416405DCB0F1804F0ED025
:101FA00040F2004107E042F60041C4F201018842DC
:101FB00005D040F60001C4F20001884204D18168D6
:101FC00001F00701062903D0016841F00101016019
:101FD0000020704710B5026801F00F0E4FF0040C9E
:101FE000146A0CFA0EF324EA03031362136A1362F1
:101FF000146A41F211131C420AD1D2F820C040F2F7
:1020000044441CEA040F03D1546C24F40044546487
:10201000146A1C4204D1136A40F24444234212D091
:10202000082916D0042909D000294FF0010114BF56
:1020300080F8451080F84210002010BD012180F882
:102040004310002010BD136823F00103136008291A
:10205000E8D1012180F84410002010BD002804BF01
:102060000120704710B5044690F83D0028B90020C3
:1020700084F83C00204600F065F8022084F83D001A
:10208000206840F2FF730268C4F2000342F6004C7D
:102090009842C4F2010C05DCB0F1804F0AD040F246
:1020A000004103E0604505D040F60001C4F20001A4
:1020B000884203D1A16822F070020A43984205DCED
:1020C000B0F1804F0AD040F2004103E0604505D0F6
:1020D00040F60001C4F20001884203D1216922F4D4
:1020E00040720A43A36922F08001D4F804E0E26858
:1020F000194360450160C262C0F828E002D16169FD
:10210000CCF83010012141610269D20703D0026985
:1021100022F001020261002084F8461084F83E108B
:1021200084F83F1084F8401084F8411084F842107D
:1021300084F8431084F8441084F8451084F83D1066
:1021400010BD000070B586B000680021B0F1804F6E
:10215000CDE90411039102913FD042F60041C4F24F
:10216000010188424FD141F21800C4F20200016817
:1021700040F6000441F4006101600168C4F201040A
:1021800001F4006101910199016802AD41F008017B
:1021900001600168002601F00801019101990168C0
:1021A00041F0040101600068294600F0040001903C
:1021B00001984FF48050029004F58060CDE90366E9
:1021C000FFF7D4F84FF44060CDE9020620462946D7
:1021D0000496FFF7CBF818240DE041F21800C4F282
:1021E000020041681C2441F001014160406800F098
:1021F000010001900198204600210022FFF73EFADD
:102200002046FFF72BFA06B070BD000090F83D1095
:1022100001291CBF01207047022180F83D10006891
:1022200040F2FF72C168C4F20002904241F0010125
:10223000C16005DCB0F1804F0ED040F2004107E0F4
:1022400042F60041C4F20101884205D040F6000187
:10225000C4F20001884206D1816801F00701062915
:1022600004BF00207047016841F0010101600020B7
:102270007047000090F83C20012A4FF0020200F065
:10228000C68080B5012380F83C3080F83D20D0F82E
:1022900000C04FF67772DCF8083023EA0202CCF86F
:1022A00008200B684F2B28DC1F2B44DD202B45D04A
:1022B000302B43D0402B40F0AC80D1F804E0C9680B
:1022C000DCF82030DCF8202022F00102CCF82020BD
:1022D000DCF8182022F0F00242EA011123F00A0291
:1022E00042EA0E02CCF81810CCF82020DCF80810D6
:1022F00041F0470121F030017EE06F2B26DDB3F580
:10230000005F47D0B3F5805F78D0702B40F08180BC
:10231000D1E901E3C968DCF8082043EA0E0322F49E
:102320007F4243EA01211143CCF80810DCF8081081
:1023300041F0770160E00BB1102B6AD1DCF8081096
:1023400021F07001194341F0070155E0502B34D0C2
:10235000602B5ED1D1F804E0C968DCF82030DCF8ED
:10236000202022F01002CCF82020DCF8182022F4E3
:10237000704242EA013123F0A00242EA0E12CCF888
:102380001810CCF82020DCF8081041F0670121F08B
:10239000100131E0D1E901E3C968DCF8082043EA23
:1023A0000E0322F47F4243EA01211143CCF80810C6
:1023B000DCF8081041F480411EE0D1F804E0C9685F
:1023C000DCF82030DCF8202022F00102CCF82020BC
:1023D000DCF8182022F0F00242EA011123F00A0290
:1023E00042EA0E02CCF81810CCF82020DCF80810D5
:1023F00041F0570121F02001CCF808100022012102
:1024000080F83D10002180F83C10BDE88040104667
:1024100070470122F3E700007047000090F83C305D
:10242000012B04BF022070474FEAB2020123032AA6
:1024300080F83C3000F2A380F0B5DFE802F0021B28
:102440003B590368D1E900C5D1F80CE01C6A1A6A4F
:1024500040F2FF7722F001021A621A4652F8186F12
:10246000C4F20007BB4267DCB3F1804F70D040F28A
:10247000004769E00368D1E900E6D1E902C11C6ABE
:102480001A6A360222F010021A621A4652F8185FCF
:102490004FF2FF07BE4325F4734561F30F3624F076
:1024A000A0040EF00A0746EA050144EA0717116086
:1024B0001F623AE00768D1E900C5D1E902313C6A00
:1024C0003A6A61F3071522F480723A623A4652F88A
:1024D0001C6F26F0F30645EA06014FEA5C0666F338
:1024E000492411603C62116821F00C01116040E048
:1024F0000368D1E900E6D1E902C11C6A1A6A360212
:1025000022F480521A621A4652F81C5F4FF2FF07FB
:10251000BE4325F4734561F30F364FEA5E0746EA82
:10252000050167F34D3411601C6211684FEA0C23FA
:1025300021F4406111601CE042F60047C4F201073B
:10254000BB4205D040F60007C4F20007BB421BD1D6
:1025500026F00306354324F00A070CF00A066EF352
:10256000071537449D611F629F6927F00C079F6123
:102570008B681168194300231160BDE8F040002109
:1025800080F83C101846704746F00105E3E700006C
:10259000002804BF0120704710B5044690F83D00A4
:1025A00028B9002084F83C00204600F065F802209D
:1025B00084F83D00206840F2FF730268C4F2000313
:1025C00042F6004C9842C4F2010C05DCB0F1804F99
:1025D0000AD040F2004103E0604505D040F600011A
:1025E000C4F20001884203D1A16822F070020A43BC
:1025F000984205DCB0F1804F0AD040F2004103E080
:10260000604505D040F60001C4F20001884203D1C4
:10261000216922F440720A43A36922F08001D4F8B0
:1026200004E0E268194360450160C262C0F828E036
:1026300002D16169CCF83010012141610269D207F1
:1026400003D0026922F001020261002084F84610E2
:1026500084F83E1084F83F1084F8401084F841104C
:1026600084F8421084F8431084F8441084F845102C
:1026700084F83D1010BD00007047000070B504469E
:102680000068C5680669B10716D515F0020113D0B8
:102690006FF002010161012121778069800703D079
:1026A0002046FFF7B9FE05E0204600F08DF82046F1
:1026B00000F002FA00202077700718D515F004000A
:1026C00015D020686FF00401016102212177806933
:1026D00010F4407F03D02046FFF79EFE05E0204621
:1026E00000F072F8204600F0E7F90020207730076C
:1026F00017D515F0080014D020686FF008010161AB
:1027000004212177C069800703D02046FFF784FEAB
:1027100005E0204600F058F8204600F0CDF90020F2
:102720002077F00618D515F0100015D020686FF04E
:102730001001016108212177C06910F4407F03D0A6
:102740002046FFF769FE05E0204600F03DF82046F0
:1027500000F0B2F900202077F00718BF15F0010053
:1027600002D1300609D412E020686FF00101016146
:10277000204600F055FA300609D515F0800006D045
:1027800020686FF0800101612046FFF761FB700651
:1027900009D515F0400006D020686FF040010161B6
:1027A000204600F071FAB00658BF70BD15F0200049
:1027B00008D021686FF0200220460A61BDE8704011
:1027C000FFF748BB70BD00007047000090F83C3038
:1027D000012B04BF022070474FEAB2020123032AF3
:1027E00080F83C3000F2EC802DE9F041DFE802F0A7
:1027F000023B77B2036842F600451C6A1A6AC4F2CB
:10280000010522F001021A621A46D3F804C052F8F8
:1028100018EF8E6824F00204AB4244EA060405D1A6
:10282000CE6824F00C0426F0040634430E68AB4254
:1028300006D1D1E905582CF440772F4347EA080C1C
:102840002EF073073743C3F804C09F614F680969CE
:102850005F631C629F6947F008079F619F6927F0CB
:1028600004079F61A6E0036842F600451C6A1A6AE5
:10287000C4F2010522F010021A621A46D3F804C00D
:1028800052F818EF8E6824F02004AB4244EA061494
:1028900007D1CE686FF0400724F0C00407EA06169F
:1028A00034430E68AB4206D1D1E905572CF4406C95
:1028B0003D434CEA850C2EF4E64747EA0627C3F869
:1028C00004C09F614F6809699F631C629F6947F458
:1028D00000679F619F6927F480679F6169E00368D3
:1028E00042F600451C6A1A6AC4F2010522F480729D
:1028F0001A621A46D3F804C052F81CEF8E6824F40A
:102900000074AB4244EA062407D1CE6840F2FF4788
:10291000360224F44064BE4334430E68AB4206D111
:10292000D1E905572CF4405C3D434CEA051C2EF0E0
:1029300073073743C3F804C0DF614F680969DF6379
:102940001C62DF6947F00807DF61DF6927F00407D1
:10295000DF612FE0036842F60047D3F820C01A6A0F
:10296000C4F2010722F480521A621A465C6852F8D7
:102970001C5FD1F800E08E68BB4204D14F6924F49B
:10298000804444EA87142CF4005747EA063725F4BC
:10299000E64646EA0E265C60DE614E6809691E6402
:1029A0001F62DF6947F40067DF61DF6927F4806732
:1029B000DF6109021368194300231160BDE8F0418B
:1029C000002180F83C10184670470000002804BF22
:1029D0000120704710B5044690F83D0028B900204A
:1029E00084F83C00204600F065F8022084F83D00A1
:1029F000206840F2FF730268C4F2000342F6004C04
:102A00009842C4F2010C05DCB0F1804F0AD040F2CC
:102A1000004103E0604505D040F60001C4F200012A
:102A2000884203D1A16822F070020A43984205DC73
:102A3000B0F1804F0AD040F2004103E0604505D07C
:102A400040F60001C4F20001884203D1216922F45A
:102A500040720A43A36922F08001D4F804E0E268DE
:102A6000194360450160C262C0F828E002D1616983
:102A7000CCF83010012141610269D20703D002690C
:102A800022F001020261002084F8461084F83E1012
:102A900084F83F1084F8401084F8411084F8421004
:102AA00084F8431084F8441084F8451084F83D10ED
:102AB00010BD0000704700007047000041B10829B8
:102AC00009D0042914BF00F1410200F13F0204E0E3
:102AD00000F13E0201E000F140021278012A1CBF21
:102AE00001207047022241B1082909D0042914BFEE
:102AF00080F8412080F83F2004E080F83E2001E08B
:102B000080F84020006801F01F010122036A8A401A
:102B100023EA02010162036A42F64441C4F2010160
:102B20001A43A1F144039842026203D10A6842F4B5
:102B300000420A6040F2FF71C4F20001884205DCE5
:102B4000B0F1804F0ED040F2004107E042F6004164
:102B5000C4F20101884205D040F60001C4F2000130
:102B6000884204D1816801F00701062903D0016879
:102B700041F00101016000207047000080B502684B
:102B800001F01F0C012303FA0CFE136A42F6004CFD
:102B900023EA0E031362C4F2010C136A6245136246
:102BA00011D1DCF820C041F211131CEA030F0AD145
:102BB000D2F820C040F244431CEA030F03D1536C07
:102BC00023F400435364D2F820C041F211131CEAED
:102BD000030F06D1D2F820C040F244431CEA030F91
:102BE00012D0082916D0042909D000294FF001017C
:102BF00014BF80F8411080F83E10002080BD0121F4
:102C000080F83F10002080BD136823F0010313609B
:102C10000829E8D1012180F84010002080BD000083
:102C20000068B0F1804F00D0704740F2BC12C2F291
:102C3000000240F2A000127843F68073C2F2000056
:102C4000C0F60003016853F822204B1C9142036038
:102C500007D30021016040F2DC10C2F20000012124
:102C6000017040F2A810C2F2000001884A1C32290B
:102C7000028038BF70470021018040F2AA10C2F2E2
:102C8000000001210170704770470000FEE700005E
:102C9000002908BF7047083850F8082F013990F80C
:102CA00006C0926883881A4018BF01226CF3410263
:102CB0000B048271F0D1704710B58AB040F2A400C5
:102CC00042F200420021C2F20000C4F20102CDE94A
:102CD0000811CDE90611CDE90411CDE90211CDE9C4
:102CE00000114FF4807301730175C161C0E90021C7
:102CF000032183600161FDF7D3FF002818BFFDF7B2
:102D00002FFD0120CDE9070040F2A4000224C2F209
:102D1000000007A90994FDF7AFFE002818BFFDF7D2
:102D20001FFD40F2A400C2F2000007A9CDE907444C
:102D3000FDF7A2FE002818BFFDF712FD0320CDE924
:102D4000070040F2A400C2F2000007A9FDF794FEBC
:102D5000002818BFFDF704FD00200121009001911B
:102D6000049102210690ADF81400039040F2A400F3
:102D70000291C2F200006946FDF7F8FC002818BF76
:102D8000FDF7EEFC0AB010BD80B582B041F2140030
:102D9000C4F202000168002241F0010101600068F4
:102DA000002100F00100019001980B20FEF766FC65
:102DB0000B2002B0BDE88040FEF750BC2DE9F04F7B
:102DC00085B04FF0000841F21800CDE90388CDE945
:102DD0000188C4F20200016840F6004A41F0100187
:102DE00001600168C4F2010A01F01001009100992C
:102DF00001680AF5806641F0200101600168002247
:102E000001F020010091009901684FF4005441F055
:102E100004010160016801F004010091009901685A
:102E200041F00801016000684FF4005100F0080013
:102E3000009000983046FEF799FBAAF58065284679
:102E400049F2F001002249F2F009FEF78FFB5046EB
:102E50004FF47F610022FEF789FB01AF01944FF030
:102E6000010B022430463946CDF808B0CDE90344C1
:102E7000FEF77CFA28463946CDE9019BCDE90344AB
:102E8000FEF774FA0320CDE9010850463946CDF823
:102E90000C80FEF76BFA4FF47F60CDE9010B5046D2
:102EA0003946CDE90344FEF761FA05B0BDE8F08F7D
:102EB00070B5A0B042F6004540F21810C4F201050A
:102EC0000021C2F20000402240F60F638026CDE9C7
:102ED0001911CDE917111591CDE91311CDE9111192
:102EE000CDE90F11CDE90D11CDE90B11CDE9091196
:102EF000CDE90711CDE90511CDE90311CDE90111A6
:102F0000C0E90051C0E90223C0E904118661FFF75E
:102F1000A5F8002818BFFDF723FC4FF48050179048
:102F200040F21810C2F2000017A9FFF7A3F9002819
:102F300018BFFDF715FC40F21810C2F20000FFF7B1
:102F400045FD002818BFFDF70BFC40F21810C2F237
:102F50000000FFF71DFB002818BFFDF701FC402013
:102F600014908020159040F21810C2F2000014A9AD
:102F7000FEF79AFF002818BFFDF7F2FB60200D90C6
:102F80004FF4E1600E900020CDE90F00CDE9110073
:102F9000139040F21810C2F200000DA90022FFF7B2
:102FA00015FC002818BFFDF7DBFB40F21810C2F239
:102FB00000000DA90422FFF709FC002818BFFDF747
:102FC000CFFB002001210990CDE90A100C9040F2BE
:102FD0001810C2F2000009A90822FFF71FFA002802
:102FE00018BFFDF7BDFB40F21810C2F2000009A99E
:102FF0000C22FFF713FA002818BFFDF7B1FB4FF4BE
:10300000006001904FF480600290FF2004904FF424
:10301000805005904FF4005040F2181406904FF481
:103020008040C2F200040026089001A920460396C1
:10303000FEF712FF002818BFFDF792FB2068CDE9CC
:103040001E66A8421D961C9601D020B070BD41F2AC
:103050001800C4F2020001681CAC41F008010160D4
:103060000168022601F008011B911B99016841F0DB
:10307000040101600068214600F004001B901B98C9
:103080004FF4C0401C90A5F500501D961F96FEF70A
:103090006DF94FF44070CDE91C06A5F5105021469E
:1030A0001F96FEF763F920B070BD000080B586B0B2
:1030B00040F260100021C2F2000040F2E73CCDE98E
:1030C0000411CDE90211CDE900114FF080424723F0
:1030D000C0E9021C01618021C0E900238161FEF783
:1030E000BDFF002818BFFDF73BFB4FF48050029056
:1030F00040F26010C2F2000002A9FFF7BBF80028FE
:1031000018BFFDF72DFB0020CDE9000040F2601054
:10311000C2F200006946FEF7C7FE002818BFFDF79F
:103120001FFB06B080BD000003460A460068998870
:103130009A71FEF71BBA0000002908BF7047B0B5AE
:103140000C46A0F1080500BF55F8080F013CA988FE
:10315000AA79FEF70BFA2004F6D1BDE8B04070471B
:10316000FEE70000FEE700002DE9F04743F6D077C8
:1031700040F2BC1540F28F09824600F10A08002691
:10318000C0F60007C2F20005C2F2000906E000BF67
:103190000121B1B10C36B6F59C7F16D0B95D2A7805
:1031A0009142F5D1BC1961785145F1D160688047F1
:1031B00000280EBF89F80080217A2970002100299B
:1031C000E8D100F00100BDE8F087002000F0010028
:1031D000BDE8F087B0B540F2BC10C2F20000002498
:1031E000047040F2DC1540F29000C2F20005C2F219
:1031F00000002C708472C47240F26010C2F20000B1
:1032000001684C62FFF702F80120287040F2A0002C
:10321000C2F200000460B0BD7047000070470000BB
:1032200070B540B340F60001C4F2010140F2100E47
:10323000402240F2001340F2004C01F580648025EA
:103240002026C0F2200EC0F28002C0F20023C0F699
:10325000000CC0F24005C0F21006C0E90041002198
:10326000C0E902E2C0E9043CC0E9065680F820103B
:10327000C0F8211070BD43F6A07043F6B971C0F6D6
:103280000000C0F600011322FCF7B4FFFEF77AB984
:1032900070B594B00AAC20462821FCF7EBFF012062
:1032A0000A900E904FF4E01000254FF48031022672
:1032B000139020460995CDE90755CDE90555CDE98F
:1032C0000355CDE90155CDE90B15CDE91161FEF7A7
:1032D00009FC20B1EFF3108072B600BFFEE70F20AB
:1032E000CDE905064FF48060CDE9080505A8022167
:1032F0000795FEF719FB20B1EFF3108072B600BFFF
:10330000FEE7022001904FF40040039001A8FEF771
:103310008BFA20B1EFF3108072B600BFFEE714B055
:1033200070BD00007047000040F21810C2F20000AB
:10333000FFF7A4B940F26010C2F20000FFF79EB997
:10334000B0B540F28805C2F200056888C8B100F047
:103350009DFC4FF0665100F015FD00F0E5FB46F2D4
:103360006663C4F20A034FF0663200F0DFFA00230E
:10337000C4F23403002200F0D9FA00F0A5FA0446A2
:1033800000E00024A88808B300F080FC4FF06651EC
:1033900000F0F8FC00F0C8FB46F26663C4F20A03D2
:1033A0004FF0663200F0C2FA0023C4F23403002268
:1033B00000F0BCFA00F088FA0021C4F2962100F077
:1033C000FAFB0546002818BF012500E00125002171
:1033D000C4F29621204600F0EEFB002818BF012021
:1033E0002840B0BDFEE70000012070478AB0FEF71C
:1033F000D7F8FFF74DFFFFF7E1FCFFF7C5FCFFF73C
:103400005BFCFFF755FDFFF751FE40F20400C2F2EE
:10341000000003210324FFF78FFEFFF7DBFE40F2DD
:10342000AC1040F60041C2F20000C4F2010101609C
:103430000121818084716846FFF7F2FE40F29C040E
:1034400040F2DC1540F2AA1640F2BC1743F6407970
:1034500043F6607AC2F20004C2F20005C2F200062E
:103460004FF00008C2F20007C0F60009C0F6000ADB
:1034700003E000BF2078FFF777FE2046FDF73CF918
:103480000028F7D1287828B185F8008038785AF8D4
:103490002000804730780128EFD1387886F8008006
:1034A00059F820008047E8E780B540F2A400C2F256
:1034B0000000FDF79FFD00281CBF002080BD40F2EA
:1034C000A400C2F20000FDF7ADFAB0FA80F04009A6
:1034D00080BD000080B540F2A40040F28801C2F235
:1034E0000000C2F200010322FDF7E8FC60B940F2DF
:1034F000A400C2F20000FDF73BFA68B140F2A4005C
:10350000C2F20000FDF78EFA40F2A400C2F2000001
:10351000FDF770FD002080BD012080BD80B5FEF765
:103520004BF9012080BD000080B5FEF72BF901208A
:1035300080BD000080B5FEF76DF9012080BD000060
:1035400080B5FEF739F9FEF7E9F800200021FEF713
:10355000EDF804200021FEF7E9F8FEF745F9012017
:1035600080BD000040F2BC11C2F20001C8788A7828
:1035700000F0FE00C87002F0800001308870002268
:1035800001208A83C1E90122C1E903224A610A8339
:1035900070470000014642F2107044F62062C1E913
:1035A00004024DF6FF7088834FF47A7201200A837B
:1035B0007047000080B5FEF79DF8012080BD000037
:1035C000704700007047000040F28E00C2F2000019
:1035D0000078002808BF704780B5FDF747F8D8B1DC
:1035E000FFF7AEFEC0B1FFF75FFF40F29000C2F2FE
:1035F0000000817A49F69A120131C1F69912A1FBB5
:10360000022303EB8302C37AA1EB4201994203D068
:10361000827A032383548172BDE8804070470000A2
:1036200010B540F2AC14C2F2000420460121FFF7AD
:103630002FFBA079022819D10320A07140F290003D
:10364000C2F20000817A49F69A120131C1F699124C
:10365000A1FB022303EB8302C37AA1EB420199424F
:1036600008BF10BD827A02238354817210BD00000E
:103670007047000010B540F2AC14C2F200042046BE
:103680000121FFF705FBA079022819D10320A071C1
:1036900040F29000C2F20000817A49F69A1201319C
:1036A000C1F69912A1FB022303EB8302C37AA1EBBB
:1036B0004201994208BF10BD827A0223835481726D
:1036C00010BD00007047000010B540F2AC14C2F20B
:1036D000000420460121FFF7DBFAA079022819D166
:1036E0000320A07140F29000C2F20000817A49F6F6
:1036F0009A120131C1F69912A1FB022303EB830256
:10370000C37AA1EB4201994208BF10BD827A02231D
:103710008354817210BD00007047000010B540F264
:10372000AC14C2F2000420460121FFF7B1FAA079DF
:10373000022819D10320A07140F29000C2F20000CB
:10374000817A49F69A120131C1F69912A1FB02233E
:1037500003EB8302C37AA1EB4201994208BF10BD7B
:10376000827A02238354817210BD000010B540F2AA
:103770008800C2F200000088FCF7EAFE40F2BC14A8
:10378000C2F20004E168A06000F0FCFA00F062FA06
:10379000217FB0F57A7F608303D9DF2901D2012030
:1037A00003E0607F814205D9FF2008442077C0B242
:1037B000FDF7DCFF207F42F2107180F0FF004843EC
:1037C00001EB5010216980B2814205D061698142CC
:1037D00002D32061FFF7EEFE207F617F88421BD875
:1037E000D4E90401884217D340F29000C2F20000ED
:1037F000817A49F69A120131C1F69912A1FB02238E
:1038000003EB8302C37AA1EB4201994208BF10BDCA
:10381000827A04238354817210BD000010B540F2F7
:10382000AC14C2F2000420460121FFF731FAA0795E
:10383000022819D10320A07140F29000C2F20000CA
:10384000817A49F69A120131C1F69912A1FB02233D
:1038500003EB8302C37AA1EB4201994208BF10BD7A
:10386000827A02238354817210BD000070470000E9
:10387000704700007047000010B540F2AC14C2F26F
:10388000000420460121FFF703FAA079022819D18C
:103890000320A07140F29000C2F20000817A49F644
:1038A0009A120131C1F69912A1FB022303EB8302A4
:1038B000C37AA1EB4201994208BF10BD827A01236D
:1038C0008354817210BD000021F0004201F00043DA
:1038D000A2F16052B2F5801F28BFD2F17F6C0BD9E4
:1038E0005FEA001C43EAC20242EB507018BF704707
:1038F00028BF20F001007047B2F5801FBCBF1846FA
:1039000070474FEA410C1CF5001F02D2084600F038
:1039100000BB70B500F0B4F800000089FFF7F6BFF7
:103920004FF00040A0F580007047000070B5DFF850
:1039300048C11CEA111E1EBF1CEA13159EEA0C0F9B
:1039400095EA0C0F00F06F8081EA03044EEAD47E02
:10395000AE4421EA4C1123EA4C1341F4801143F4A4
:103960008013AEF17F7EA1FB024CA0FB03653619EC
:1039700055EB0C05A1FB034C4CF10003A0FB021C12
:1039800016EB0C06654153F10003094218BF46F0DF
:10399000010613F4007F0BD14FEA03314FEA0530E3
:1039A00041EA155140EA165034036FF003020AE071
:1039B0004FEAC3214FEAC52041EA555140EA56502B
:1039C000F4026FF0020202EB2E4201EB025585EA8F
:1039D000CE710AD05FEA440C18BF24F0004450F1C5
:1039E000000041F1000120EAD47040F2FE7C624503
:1039F00000D270BDA84214BF4FF080444FF0404445
:103A0000002E08BF0024BEF1806FA8BFA1F1C04105
:103A1000BDE8704080F2828001F1C04101F00041B8
:103A20004FF0000070470CEA13159EEA0C0F18BF08
:103A300095EA0C0F06D081EA030E4FF000000EF05D
:103A4000004170BD00F01CF88900013E00F007B88D
:103A500000F009B84FEA430C5FEA5C5C08D081EAE9
:103A6000030100F05BB84FEA410C5FEA5C5CF6D101
:103A700002494FF0000070470000FF070000F87F88
:103A80000EF1020E2EF0030E5EF8046B364205D4E2
:103A9000012A43EB030515F5001F12D8012841EB5D
:103AA000010C1CF5001F0CD80ED14FEAD17C0CEB99
:103AB0004C0C0CF1020C15F5001F08BF4CEBD37C2D
:103AC00004E04FF0080C01E04FEAD37C0CEB4C050E
:103AD00026FA05F606F00706B6F1040C06D20EEB40
:103AE000860CBDE870404CF0010C6047DFE80CF03C
:103AF000090B02024FF00041A1F500214FF0000038
:103B000070BD19461046012851EB010418BFD4F5C9
:103B1000001484BF002001F0004170BD0808A0F52A
:103B200000114FEA3101704743004FEAD30C4FEACE
:103B30003C0C43401FBF40070CF1605113F0FE4F97
:103B400070471CF0006F03D10CF00041002070475B
:103B50000CF0004343EA507040EACC0010B500F08E
:103B600092F900BF000000924FEA0001FFF7D6BFB4
:103B70004FF00041A1F500214FF00000704710B553
:103B800000F034F80CBF0120002010BD10B500F08B
:103B90002DF814BF0120002010BD10B500F08AF8E8
:103BA0008CBF0120002010BD10B500F083F82CBFA1
:103BB0000120002010BD10B500F0B0F894BF012026
:103BC000002010BD10B500F0A9F834BF012000207E
:103BD00010BD401058BFC0F14040491058BFC1F15E
:103BE00040418142EFF300807047000050EA010C31
:103BF00000F113801CF5000F58BFBCF5000F01D475
:103C00008842704707D710F5000F58BF11F5000F15
:103C100015D488427047894270471CF5000F04D5BF
:103C2000BCF5000FF7D5814270474FF0807C1CEB4C
:103C3000400F38BF1CEB410F01D28142704710B5D5
:103C400000F021F9922449004FF000504FF08051CC
:103C5000FFF7BFBF41000B0ED3F19E0208D950F40D
:103C600000034FEA032323FA02F048BF40427047A3
:103C700010B500F008F900BF499224800020704779
:103C80006FF0004282EA200070470000B0FA80F333
:103C900010FA03F2C3F19D030AD0D90501EB1220FB
:103CA000530638BF704700F1010008BF20F0010043
:103CB0007047000050EA010C00F113801CF5000F62
:103CC00058BFBCF5000F01D48842704707D710F5E4
:103CD000000F58BF11F5000F15D488427047894274
:103CE00070471CF5000F04D5BCF5000FF7D58142D5
:103CF00070474FF0807C1CEB400F38BF1CEB410F2E
:103D000001D28142704710B500F0BDF892244900FD
:103D10004FF080504FF00051FFF75BBF50EA010CAD
:103D200000F113801CF5000F58BFBCF5000F01D443
:103D30008842704707D710F5000F58BF11F5000FE4
:103D400015D488427047894270471CF5000F04D58E
:103D5000BCF5000FF7D5814270474FF0807C1CEB1B
:103D6000400F38BF1CEB410F01D28142704710B5A4
:103D700000F089F8922449004FF000504FF0805134
:103D8000FFF727BF4FF47F0C1CEAD0121EBF1CEABE
:103D9000D11392EA0C0F93EA0C0F00F0478090EADF
:103DA000010F48BF42F480724FF0004C4CEA0020F3
:103DB0004CEA012102EB0302A0FB0113A2F5000271
:103DC000002918BF43F001035B0028BF4FEA33030B
:103DD00042EB22425FEA132C4CEBC2502EBFBCEBED
:103DE000436FB2F57C0F70474FEA036CBCF1004F94
:103DF00008BF20F00100B2F57C0F38BF70470BD52B
:103E000082F0FF0212F5803FC8BF704700F1C0404A
:103E1000D8BF00F00040704700F5000C5FEA4C0C82
:103E200048BF7047B0F1C04000F073B80CEAD1133E
:103E300090EA010F48BF42F48072624538BF634583
:103E400004D280EA010000F00040704710B500F095
:103E50001AF800BF8900013E00F007B800F009B869
:103E60005FEA410C5FEA1C6C08D080EA010000F0B8
:103E700050B85FEA400C5FEA1C6CF6D14FF000408E
:103E8000A0F5800070470EF1020E2EF0030E5EF8D2
:103E9000044B244204D44FEA4102B2F17F4F11D8BF
:103EA0004FEA4003B3F17F4F0CD80ED14FEAD07CDC
:103EB0000CEB4C0C0CF1020CB2F17F4F08BF4CEB39
:103EC000D17C04E04FF0080C01E04FEAD17C0CEB10
:103ED0004C0324FA03F404F00704B4F1040C06D2F2
:103EE0000EEB840CBDE810404CF0010C6047DFE89D
:103EF0000CF0070802024FF00040A0F5800010BD52
:103F00000846420018BFD2F1807288BF00F000401E
:103F100010BDFF2141EAD050C005704700000000ED
:103F20000000000001020304060708090102020361
:103F30000405060708090A0B0C0D0E0F10100000EF
:103F400079380008213600081D380008C9360008F5
:103F50001D3700087536000871380008C53500089F
:103F600075380008C93500086D370008C5360008E7
:103F700019370008713600086D380008C13500088F
:103F800050C30000E8030000E803000050C3000035
:103F900050C3000050C3000050C3000050C30000D5
:103FA0006873656720213D204E554C4C0073747238
:103FB00020213D204E554C4C002E2E2F436F726514
:103FC0002F5372632F736576656E7365672E63007A
:103FD0000001000095050008010000000103000039
:103FE000E50500080200000001020000410600088B
:103FF0000000000002040000610600080300000049
:10400000020200005D060008060000000210000029
:10401000550600080700000003060000E10500083F
:104020000400000003080000450600080600000028
:10403000030200004506000806000000031000000F
:1040400055060008070000000407000049060008A4
:1040500004000000040200005D06000806000000E5
:10406000040800004D06000805000000040B0000D5
:104070004D06000805000000040C00004D06000875
:1040800005000000040D00004D06000805000000BA
:10409000040E00004D06000805000000040F00009B
:1040A000550600080700000004110000550600082E
:1040B0000700000005090000650600080400000074
:1040C000050200005D060008060000000510000063
:1040D00055060008070000000512000055060008FC
:1040E0000700000005130000590600080200000048
:1040F000060500004106000800000000071300004C
:1041000051060008000000002841000800000020BF
:10411000280000005001000850410008280000203D
:10412000C00700007001000800127A000010014072
:1041300000200000000801400010000000080140BD
:1041400000800000010000001000000000000000DE
:04000005080000ED02
:00000001FF
