:020000040800F2
:10000000B00B0020D5010008D1470008B541000819
:10001000CD47000889120008354D00080000000097
:1000200000000000000000000000000095480008EB
:10003000511500080000000091480008714C0008AC
:10004000EF010008EF010008EF010008EF010008D0
:10005000EF010008EF010008EF010008EF010008C0
:10006000EF010008EF010008EF0100088D140008FF
:10007000EF010008EF010008EF010008EF010008A0
:10008000EF010008EF010008350E0008EF0100083D
:10009000EF010008EF010008EF010008EF01000880
:1000A000114D0008EF010008EF0100081D4D000888
:1000B000294D0008EF010008EF010008EF010008DA
:1000C000EF010008EF010008EF010008EF01000850
:1000D000EF010008EF010008EF010008EF01000840
:1000E000EF010008EF010008EF01000800F002F83E
:1000F00000F060F814A696E8000CB244B344DA4568
:1001000001D100F057F8BAE80F000FA696E83000CA
:10011000A5EB040504EB0607AAEB0704A7F101070A
:100120004FEA15154FEA3414A4F10104AC4201D38F
:1001300000F040F813F0010F18BFFB1A43F0010361
:1001400000F001F8DBE71847006F0000206F0000A7
:10015000103A24BF78C878C1FAD8520724BF30C8F3
:1001600030C144BF04680C60704700007047000055
:100170000023002400250026103A28BF78C1FBD8B0
:10018000520728BF30C148BF0B607047662906F090
:10019000EC84642900F08680002070471FB500F0D1
:1001A00097FC04000020002105F0E0FEE0601FBD88
:1001B00010B510BD00F099FD1146FFF7EFFF04F0F8
:1001C00033FE00F0B7FD03B4FFF7F2FF03BC00F00D
:1001D00079FC00000948804709480047FEE7FEE730
:1001E000FEE7FEE7FEE7FEE7FEE7FEE7FEE7FEE7E7
:1001F00004480549054A064B704700000D4D0008AC
:10020000ED000008B0050020B00B0020B007002072
:10021000B00700200FB41CB50C0007AA009007D04F
:100220004142A14202D32044401E01E04FF0FF3082
:10023000074B7B4469460190069800F00CFC0020B7
:10024000002C01D0009908701CBC5DF814FB000064
:100250004708000070B5044685690068C10601D5ED
:10026000302600E02026C00707D070BDD4E9012168
:1002700030469047206A401C20626D1EF6D570BD46
:1002800070B5044685690078C00707D170BDD4E910
:10029000012120209047206A401C20626D1EF6D567
:1002A00070BD00002DE9F041064600241068752954
:1002B000314616A510D0AFF30080002802DA404284
:1002C00013A507E031688A0701D512A502E04907A6
:1002D00004D511A5012401E0AFF3008000210A221A
:1002E00006F1240709E0B0FBF2FCB0FBF2F302FBDD
:1002F0001C00303078541846491C0028F3D123469E
:100300002A463046BDE8F04100F038B90000000050
:100310002D0000002B000000200000002DE9F05F00
:10032000894604464FF0000ADFF824B1FB44C0F8C8
:1003300020A02046E168884700287DD0252806D0E7
:10034000D4E901219047206A401C2062F1E7002592
:100350005F462046E16888472028064607DB312EA5
:1003600005D2B81910F8200C08B10543F1E7A80729
:1003700001D525F00405C4F81CA00027C4F818A076
:100380002A2E09D0304605F0FBFC38B304EB870871
:10039000303EC8F8186019E059F8041B204604EBF9
:1003A00087029161E1688847012F064618D1E0690C
:1003B000002820DA25F020051DE0D8F8180000EB11
:1003C000800006EB40003038C8F818002046E1688D
:1003D0008847064605F0D4FC0028EED1012F0AD04C
:1003E0002E2E08D12046E16888477F1C0646022F42
:1003F00045F02005C4DBA069002803DA404245F03F
:100400000105A061E80701D025F01005A6B1A6F10D
:100410004100192802D8203645F400654A46314685
:10042000204625604D46FFF7B1FE60B1012807D098
:10043000ED1D25F0070000E007E000F1080978E76E
:1004400005F1040975E730467AE7206ABDE8F09FB8
:100450001E6900000EB5054614460E4613A000F0B6
:1004600020FB284600F01DFB16A000F01AFB3046CA
:1004700000F017FB15A000F014FB00218DF80B1005
:100480000A210DF10A008DF80A1008E094FBF1F240
:1004900001FB124294FBF1F4303200F8012D002CE4
:1004A000F4DC00F0FEFA00F0F1FA00002A2A2A201B
:1004B000617373657274696F6E206661696C6564DF
:1004C0003A2000002C2066696C6520002C206C69A5
:1004D0006E65200010B5431C02E010F8011B71B1DD
:1004E0008107FAD14FF0013202C88C1A8C4314EA0A
:1004F000C211F9D0C01A0A0603D0C01E10BDC01A1E
:1005000010BD0A0401D0801E10BD0902FCD0401E9F
:1005100010BD4FF0000200B51346944696462039B0
:1005200022BFA0E80C50A0E80C50B1F12001BFF4AC
:10053000F7AF090728BFA0E80C5048BF0CC05DF812
:1005400004EB890028BF40F8042B08BF704748BF60
:1005500020F8022B11F0804F18BF00F8012B7047D4
:1005600070477047704710B500F0B6FA006810BDCC
:1005700010B5044600F0B0FA046010BD2DE9F04754
:100580000D4699469246044600F124080168880603
:1005900004D5E06921F01001216000E00120A842AB
:1005A00001DD471B00E00027A1697A1902EB090071
:1005B000081AA0612078C00602D42046FFF74AFE40
:1005C000002608E0D4E901211AF806009047206AC5
:1005D000401C761C20624E45F4DB2078C0060AD50C
:1005E0002046FFF737FE06E0D4E90121302090478E
:1005F000206A401C2062381EA7F10107F4DC07E0E6
:10060000D4E9012118F805009047206A401C2062B7
:10061000281EA5F10105F3DC2046FFF731FE207806
:10062000000602D50220BDE8F0870120FBE72DE996
:10063000FF4F0C461E464FF0FF378BB0D2E900014A
:10064000DDF860800A908A46C1F30A5505B93D4637
:10065000002108464FF00000BAF1000F00F44000FE
:1006600005DA00EB80004FF4400101EA50004FEA48
:100670009059B9F1010F00DDB9460A9850EA4A00D5
:100680000ED044F61050A5F2FF3545432F14B8F1B3
:10069000000F1ED07542291E1EDDC9F100021CE0AC
:1006A000B8F1010F4FF0000001D0302103E0F24318
:1006B00005E02154401CB042FBDB30460022002103
:1006C00021540B99C1F80880C1E900200FB0BDE8A2
:1006D000F08FBD1B6D1CDEE74A4600DA694206A8B2
:1006E00000F084FA06AB93E8070003AB83E8070049
:1006F00050460A9904F05BFF8DE80700A0F5005012
:100700001F3800900398002D0ADD42F21F014A466F
:100710000844002303A90390684605F0C5F909E0E1
:10072000A0F500504A461F38002303A903906846ED
:1007300005F0CFF98DE807000004000C03D04FF05E
:10074000FF30410800E01046B8F1000F03D000224E
:10075000009215461EE0751E05D400F0C1F9303236
:1007600062556D1EF9D5B3460122084302D000221E
:100770007F1C04E02078302801D100227F1E002A4F
:10078000099784D01DE0112D07DA00F0A9F9303265
:1007900062556D1C50EA0102F5D1084302D0009861
:1007A000C8B10EE00021681E05E0235C625C635462
:1007B0002254401E491C8142F7DBAB46A81B401E59
:1007C0000990002004F80B000B98099AC0F80880E3
:1007D000C0E9002B7AE711264FF0000857E72DE912
:1007E000F04F88460446D21D22F0070191B0D1E9AE
:1007F0000001CDE90A0105F0A3FA02460B98C00FEB
:1008000001D02D2007E02068810701D52B2002E0D0
:10081000202101EAC000032A099001D0072A05DB44
:1008200003464146204600F0A1F90BE120788006FE
:1008300001D5E06900E00620B8F1650F814606D0D9
:10084000B8F1660F18D0B8F1670F70D131E0002011
:10085000B9F1110F009001DB112301E009F101034F
:100860000AAA01A90CA8FFF7E2FEDDE90C70002638
:1008700009F10105834647E001204B4600904FF007
:1008800000470AAA01A90CA8FFF7D1FEDDE90DB0C7
:100890000C995D46002610B909F101000D18B9EB5D
:1008A000050003D4C0F1FF3609F10105A5EB0900ED
:1008B0002BE0B9F1010F01DA4FF001090020B9F185
:1008C000110F0090484601DD112300E003460AAAFB
:1008D00001A90CA8FFF7ABFEDDE90C704D46002620
:1008E0008346207800070AD4AB4500DA5D4601A8AC
:1008F000012D04DD411911F8011C302907D04F45A5
:1009000002DA17F1040F04DA012082460FE06D1EAF
:10091000EEE7002F02DCED1B3E4403E0781CA8420A
:1009200000DD7D1CB81B00F1010A4FF00047207864
:10093000000703D4AA4501DB4FF0FF3A0021B7F1CD
:10094000004F0DF143088DF8431024D002202B23D3
:10095000002F01DA7F422D230A21021EA0F101009F
:1009600000DC5FB197FBF1FC97FBF1F201FB1C7C13
:1009700017460CF1300C08F801CDEEE7A8F10100A4
:1009800003702188090501D5452100E06521A0F10A
:10099000010800F8011C09980FA9A1EB0807FF1D29
:1009A00000B10120411901EBEA70A1693844081A2D
:1009B000401EA0612078C00602D42046FFF74AFC02
:1009C000099828B1D4E901219047206A401C20628F
:1009D0002078C00622D52046FFF73CFC1EE0002E02
:1009E00004DBB34502DD01A8805D00E03020D4E9DE
:1009F00001219047206A401C2062761CAAF1010068
:100A00005FEA000A0AD100F063F8C0680168405C40
:100A1000D4E901219047206A401C2062281EA5F1DC
:100A20000105DCDC07E0D4E9012118F8010B90474F
:100A3000206A401C2062381EA7F10107F3DC204623
:100A4000FFF71EFC032011B041E6000001694A1CBB
:100A500002610878704700B58FB0CDE901310021FF
:100A6000059105497944CDE9031011466846FFF721
:100A700055FC0FB000BD0000E5FFFFFFD1E90023EA
:100A80009A4202D2531C0B601070704710B50020C0
:100A900000F01EF9FFF78CFBBDE81040012000F0CC
:100AA00011B810B5044602E0641C00F004F8207888
:100AB0000028F9D110BD08B569468DF80000032063
:100AC000ABBE08BD01491820ABBEFEE72600020000
:100AD0000048704770000020004870475000002018
:100AE00030B5B0F10A0271F100034FEA900E4EEA00
:100AF000817EB0EB0E0061EB91014FEA101E4EEAD1
:100B0000017E10EB0E0041EB11114FEA102E4EEA60
:100B1000016E10EB0E0041EB11214FEA104E4EEA30
:100B2000014E10EB0E0041EB1141401841F1000164
:100B30004FEAD00040EA41704FEAD1014FEA810408
:100B400044EA907410EB800544EB01046D1944EB0A
:100B50000404521BA3414FF0000348BF0A3200D5E2
:100B600030BD401C41F1000130BD00002DE9F041D5
:100B70001F46044603260168072A01F4006004DBCF
:100B800008B116A505E016A503E008B115A500E01B
:100B900015A521F010002060A069C01EA0610FB152
:100BA000401EA0612046FFF755FB4FB1D4E901215B
:100BB00038469047206A401C2062C01C206206E034
:100BC000206AFAE7D4E9012115F8010B9047761E57
:100BD000F8D22046FFF754FBBDE8F0814E414E00AD
:100BE0006E616E00494E4600696E66002DE9F04761
:100BF000814616468AB0354878440DC88DE80D0008
:100C000032487844801C03AC0DC884E80D0041F6DE
:100C10009B300844372190FBF1F290FBF1F5A5F1F0
:100C2000800501FB12041B3C02D56442012000E058
:100C30000020DFF898A080460027FA44AAF1BE0AF7
:100C40000EE0E0070AD03246684607EB4701012371
:100C50000AEB810104F03DFF8DE8070064107F1C62
:100C6000002CEED1194F7F44AE3F19E0E80715D0B4
:100C700007EB04100DF1180A90E80E008AE80E0048
:100C8000C068F04201D1981908903246012306A9A4
:100C900003A804F01EFF03AB83E807006D10641C7B
:100CA000002DE3D14FF0010332466946B8F1000F41
:100CB00003A802D004F0F8FE01E004F00AFFC9E93D
:100CC0000001C9F808200AB0BDE8F08720610000E3
:100CD00010B500F03DF8BDE8104000F034B8000059
:100CE000004870475000002070477546FFF7F8FF36
:100CF000AE4605006946534620F00700854618B009
:100D000020B5FFF775FABDE820404FF000064FF020
:100D100000074FF000084FF0000BAC46ACE8C009EC
:100D2000ACE8C009ACE8C009ACE8C00921F0070193
:100D30008D46704710B50446AFF300802046BDE8ED
:100D40001040FFF740BA002801D0FFF7BBBE704744
:100D500010B5002102A000F053F8012010BD0000E2
:100D6000534947414252543A2041626E6F726D615D
:100D70006C207465726D696E6174696F6E0000003D
:100D80004FF0013C50F8042B51F8043B9A4221D11A
:100D9000A2EB0C03934313EACC1317D150F8042BA6
:100DA00051F8043B9A4215D1A2EB0C03934313EA8A
:100DB000CC130BD150F8042B51F8043B9A4209D1C3
:100DC000A2EB0C03934313EACC13DBD04FF00000EB
:100DD000704700BFD01A01BAB1FA81F101F01801D1
:100DE00022FA01F0CB40DBB2C0B2C01AC1F120013F
:100DF0002CFA01F3D11A914311EAC311E6D17047DD
:100E000070B505460C460A2000E06D1CFFF753FE46
:100E100035B128780028F8D102E0641CFFF74BFEBA
:100E200014B120780028F8D1BDE870400A20FFF7FF
:100E300042BE000040F25040C2F2000000F0C8BEC6
:100E400010B5044640F25040C2F200002060201D60
:100E500040F2A511FFF75DFB94F8A90100F0FE0038
:100E600084F8A90194F8A90100F0FD0084F8A90113
:100E700010BD0000B0B5044600688168C90709D0FC
:100E8000816821F00101816001F00CFC2168896812
:100E9000C90701D10020B0BD054603E02068806885
:100EA000C007F7D001F0FEFB401B0328F6D32068F3
:100EB0008068C007F2D0A06A40F01000A062E06A2B
:100EC00040F00100E0620120B0BD00000146406A30
:100ED000826A12F0500F03D0006A026B0846104776
:100EE0000168826A42F400728262896801F46021BA
:100EF000B1F5602F01D1017B09B100F02DBE816AEF
:100F000021F480718162816AC90448BF00F024BE67
:100F1000816A41F00101816200F01EBE406A816A6F
:100F200041F040018162C16A41F00401C16200F0F8
:100F30004DBE0000406A00F047BE0000B0B582B070
:100F400004460020019021688A68D2073AD1886857
:100F500040F00100886040F20000C2F2000000682A
:100F60004DF68361C4F21B31A0FB0101880C00BF68
:100F70000190019810B101980138F9E701F092FB56
:100F800021688968C9071CD1054603E0206880688C
:100F9000C00716D101F086FB401B0328F6D320685A
:100FA0008068C007F2D1A06A40F01000A062E06A39
:100FB00040F00100E062002084F82400012002B02B
:100FC000B0BD002002B0B0BDB0B5044600F10A01CA
:100FD00000206FF0010200BF8B185B880232262AC6
:100FE0001844F9D14CF6CD45CCF6CC45A0FB050113
:100FF000080905F0E5FB4FF07C5105F007FA05F014
:10100000C3FBA4F89A0100206C2100BF621852882B
:10101000023194291044F9D1A0FB0501080905F01B
:10102000CFFB4FF07C5105F0F1F905F0ADFBA4F8D2
:101030009C010020D02100BF621852880231F8299B
:101040001044F9D1A0FB0501080905F0B9FB4FF0E8
:101050007C5105F0DBF905F097FBA4F89E01002018
:101060004FF49A71621852880231B1F5AE7F104484
:10107000F8D1A0FB0501080905F0A2FB4FF07C5157
:1010800005F0C4F905F080FB01460120A4F8A01189
:10109000B0BD0000002804BF0020704780B540F2BA
:1010A000B401C2F20001B1F8A211401A05F088FBA8
:1010B0004FF07C5105F0AAF905F066FB05F098FBAE
:1010C00043F23331C4F2530105F00EFC4CF6CE412D
:1010D000C4F2233105F062FA80BD0000002804BF8D
:1010E0000020704770B505F083FB44F20005C4F2A0
:1010F0001C652946044605F0F7FB06464FF2000042
:10110000C4F27F50214605F0BBFC0146304605F095
:1011100045FA294605F042FA04F03AFE4BF62C3126
:10112000C3F6841105F0E0FB4CF60F71C3F65B319A
:1011300005F06CF901464FF07E5005F02FFA49F2A8
:101140003331CCF2883105F061F970BD10B5044639
:1011500005F04EFB43F23331C4F2530105F0C4FBFA
:101160000021C4F2F42105F0BFFB4FF20001C4F2EC
:101170007F5105F013FA002C08BF204610BD000077
:1011800010B503F02DFF03F0FFFDD8B103F004FF0D
:10119000C0B103F013FFA8B140F2B400C2F20000E6
:1011A00003F0DCFE002458B100F0F4F940B140F245
:1011B0001850C2F2000001684C6202F097F9012455
:1011C000204610BD002010BD01207047B0B503F0CF
:1011D000EFFE20B342F2107003F0A8FFF8B1FF2039
:1011E00001F09AFB03F0DEFEC8B100F0D3F9B0B114
:1011F00040F27850C2F2000003F084FF40F2300564
:10120000C2F2000505F108000121012403F0D6FA1D
:1012100005F11000012103F0D1FA2046B0BD0020F5
:10122000B0BD0000012070470120704701207047C9
:10123000012070470120704701207047012070474E
:101240000120704780B502F0B7FF40F2D040C2F2F3
:10125000000001684EF2E772CFF6FF720A610821C2
:1012600002F0E0FB00281CBF002080BD40F2D0400F
:10127000C2F200000C2102F0D5FBB0FA80F0400968
:1012800080BD000001207047FEE7000070470000AD
:10129000006840F2B0010068C2F20001806800F40A
:1012A000E040086040F26020C2F2000001210170BD
:1012B00070470000B0F8A2C100F10A0200206FF0F0
:1012C000010300BFD11849880233A1EB0C0101FBD7
:1012D0000100262BF6D180B580B24DF295714843BE
:1012E000000D04F0A1FE04F01BFE0023C4F208036D
:1012F000002205F001F9002840F260204FF00601BD
:10130000C2F2000018BF0221017080BD10B5044672
:1013100000F10A0100206FF0010200BF8B185B880A
:101320000232262A1844F9D14CF6CD41CCF6CC41F4
:10133000A0FB0101080905F05BFA4FF07C5105F0B4
:1013400065F805F021FAA4F8A20140F26020C2F28B
:1013500000000521017010BDB0B5046840F2B00076
:10136000C2F200000568204600F01AFB204600F09B
:10137000C3FE204600F07AFE2068816821F4E04137
:1013800029438160816801F4E041A94218BFB0BDE2
:101390008168B5F5E04F21F4004118BF01F5004127
:1013A000816040F26020C2F2000007210170B0BDF0
:1013B00010B5B0F8A4110446006814290ED300F04B
:1013C000EFFA002818BF10BD0020A4F8A40140F2D5
:1013D0006020C2F200000421017010BDBDE8104081
:1013E00000F084BAB0F8A211A1F6A15292B2B2F5FF
:1013F000704F1AD9006890F82420012A08BF70475E
:10140000012201F25F2180F82420006889B2416244
:1014100040F25040C2F20000002180F8241040F257
:101420006020C2F2000008210170704710B5046806
:10143000204600F0B5FA204600F05EFE204600F09F
:1014400015FE2068816841F4E0418160816801F403
:10145000E041B1F5E04F18BF10BD816821F40041B3
:10146000816040F26020C2F200000221017010BDD4
:1014700080B5006800F03AFA002818BF80BD40F23D
:101480006020C2F200000321017080BD40F2804064
:10149000C2F2000000F0A6BEB0B5044600206C21E8
:1014A00062185288023194291044F9D14CF6CD4586
:1014B000CCF6CC45A0FB0501080905F099F94FF0E1
:1014C0007C5104F0A3FF05F05FF9A4F89C01002013
:1014D000D02100BF621852880231F8291044F9D196
:1014E000A0FB0501080905F083F94FF07C5104F0D9
:1014F0008DFF05F049F9A4F89E0100204FF49A7180
:10150000621852880231B1F5AE7F1044F8D1A0FBC9
:101510000501080905F06CF94FF07C5104F076FFE5
:1015200005F032F901460120A4F8A011B0BD000079
:10153000B0F8A611142905D390F8A92142F00102B0
:1015400080F8A9210020132988BF012070470000DE
:101550007047000040F2154CC2F2000C9CF80A10D3
:101560009CF80B30994211D09CF80B201CF80220FB
:1015700002709CF80B0041F69A1201304243120CA3
:1015800002EB8202A0EB42008CF80B00C81A18BFD5
:101590000120704780B540F2D040C2F200000068E0
:1015A0000022C16841F08001C1601820002101F0D3
:1015B0002BF9182001F018F9012080BDEFF31080FD
:1015C00072B600BFFEE7000070B582B0044600208E
:1015D000019094F82400012801D1022566E0012041
:1015E00084F824002046FFF745FC2046FFF7A6FCC0
:1015F0000546002857D1A06A41F202118843023003
:10160000A06240F20000C2F200000668022001F071
:10161000E1F9B6FBF0F040000190019810B101989B
:101620000138F9E72068816841F00801816001F024
:1016300039F821688A6812070DD4886840F00400E0
:10164000886001F02FF821688968490714D40120C7
:101650006FF0030123E0064604E000BF21688868BC
:101660000007EAD501F01EF8801B0B28F6D320688E
:1016700080680007F2D50EE0064603E02068806827
:101680004007E4D501F00EF8801B0B28F6D3206844
:1016900080684007F2D5012510206FF01201A26A80
:1016A00011400843A062002084F82400284602B0BC
:1016B00070BD0000F0B581B00022009290F82420A7
:1016C000012A02D14FF0020CD3E083684C6801225A
:1016D00080F82420B3B1D1F810E00268B4EB0E0416
:1016E00004EB8404D2F838C004F10F044FF01F0358
:1016F00003FA04F32CEA030323F4401C0DD9C2F8C7
:1017000038C015E0012C40F08B800268936B0C68A8
:101710006FF3150343EAC43309E000230D68CFF6E5
:10172000F07303EB0E53A5402B4343EA0C03936382
:101730004FF0000C03689A68D20706D19A6847F206
:1017400001058C69AA4322439A6091F815E0BEF125
:10175000010F10D18D6900F12804B5F5E04F4FF06D
:10176000200514BF4FF0010C1C1D08BF4FF480650D
:1017700022682A4322600A7D012A0ED100F1280244
:101780002025BEF1000F14BF4FF0010C1A1D08BF39
:101790004FF48055146825431560D1F800E01024FB
:1017A0000EEB4E02BEF1090F88BF1E3A88BF0C2413
:1017B0001D5907268F689640B54307FA02F2154374
:1017C0002EF00102102A1D5103D19C6844F400043C
:1017D0009C604C68032C08D0022C09D0012C14BF4B
:1017E00003F1200403F1140404E003F11C0401E0FC
:1017F00003F11804256840F6FF76C968B54329430C
:10180000102A216032D142F20041C4F201018B4220
:101810000DD0816A4FF0010C41F02001816225E07A
:10182000826A4FF0010C42F02002826282E78968EE
:1018300009021BD49968BEF1100F41F400019960B0
:1018400014D140F20001C2F2000109684DF6836232
:10185000C4F21B32A1FB0212910C01EB8101490081
:101860000091009911B100990139F9E7002180F840
:101870002410604601B0F0BD006842F20041C4F29D
:101880000101884218BF704710B540F2B404C2F29B
:101890000004B4F8A401132810D840F25040C2F25A
:1018A0000000012100F00EF8B4F8A41104EB41018E
:1018B0004881B4F8A4010130A4F8A401BDE81040A7
:1018C00070470000022908D003290AD000680429C3
:1018D00014BF3C30483000687047006840300068F2
:1018E00070470068443000687047000010B5044637
:1018F00090F82400012804BF022010BD012084F8C4
:1019000024002046FFF71AFB18B1002184F82410A8
:1019100010BD42F2044C2168A26AC4F2010C43F2E9
:1019200001039A430CF57F7302F580529942A2623B
:1019300003D0A26A22F4801207E0DCF8002012F43F
:10194000702FF6D0A26A42F48012A262A26AD20577
:101950005CBF0022E262002284F824206FF00402BF
:101960000A604A6842F080024A604A68520548BFED
:1019700010BD8A6802F4E042B2F5E04F06D1994208
:1019800009D1DCF8002012F4702F04D08A6842F4E8
:1019900000428A6010BD8A6842F402128A6010BD5B
:1019A00010B5044690F82400012804BF022010BDA1
:1019B000012084F82400A06AC00512D42068406881
:1019C00040050ED42046FFF755FA78B921684A68D9
:1019D00022F080024A60A16A41F201129143013172
:1019E00003E0A06A40F020010120A162002184F8F8
:1019F000241010BD90F82420012A04BF0220704753
:101A0000B0B5026891F808C05368BCF1010F23F02B
:101A1000400308BF40335360D2F804E04FF6E05C67
:101A2000CFF63F7CD1E900350EEA0C0423432B436B
:101A30005360CB68536209699162002180F82410D9
:101A4000BDE8B04008467047B0B581B000220092B2
:101A500090F82420012A01D1022179E04A6801236B
:101A6000062A02EB820C80F8243005D8026802F1C5
:101A7000340E6FF004020AE003680C2A87BF03F1FA
:101A80002C0E6FF0400203F1300E6FF02202624420
:101A9000DEF800C01F230C6893402CEA030304FA0D
:101AA00002F21A43CEF80020D1F800E002680EEBF3
:101AB0004E041023BEF1090F88BF1E3C88BF0C23C3
:101AC00052F803C007258968A5402CEA0505A14006
:101AD0002943D1502EF001014FF0000C10294FF096
:101AE000000133D1016842F20042C4F20102914286
:101AF00005D0816A41F020018162012126E09268CF
:101B0000120222D48A68BEF1100F42F400028A60E9
:101B10001BD140F20001C2F2000109684DF6836258
:101B2000C4F21B32A1FB0212910C01EB81014900AE
:101B30000091009949B100BF0099013900910099C5
:101B400000294FF00001F7D100E0002180F824C007
:101B5000084601B0B0BD000040F25041C2F20001A1
:101B600000680968884218BF704710B583B040F21A
:101B7000B40CC2F2000C0CF16E01BCF8A62100916D
:101B80000CF1D2010191132A0CF59B71029116D828
:101B90000CF102016FF00302EE4600BF0EEB0203F0
:101BA00031F8020F5B68BCF8A6410432082A23F81A
:101BB0001400F3D1BCF8A6110131ACF8A61103B0A2
:101BC000BDE81040704700007047000070470000FB
:101BD00070B50446006805684668B10627D515F05B
:101BE000020124D0A16AC90603D4A16A41F400719C
:101BF000A162816801F46021B1F5602F10D1217BD1
:101C000071B9416821F020014160A06A20F4807020
:101C1000A062A06AC00403D4A06A40F00100A062E0
:101C20002046FFF799FF20686FF01201016030062F
:101C300033D515F0040030D0A06AC00603D4A06AE2
:101C400040F40050A0622068816801F4E041B1F5E1
:101C5000E04F0FD1416821F080014160A06A20F47B
:101C60008050A062A06AC00510D4A06A40F00100B4
:101C7000A0620BE04168490508D4816801F4602145
:101C8000B1F5602F02D1217B0029E3D02046FFF778
:101C9000F3FD20686FF00C01016070060ED515F0A1
:101CA000010008BF70BDA06A40F48030A0622046E9
:101CB00000F0B6F820686FF00101016070BD00000F
:101CC000002804BF01207047B0B50446806A30B9CF
:101CD0000020E06284F82400204600F0CFF820685D
:101CE0008168C90709D0816821F00101816000F095
:101CF000D9FC21688968C90730D100200121A36A75
:101D0000A26A31B313F0100123D141F2021122EA89
:101D100001010231A162E169D4E9013241EA030C17
:101D2000531EB3FA83F35D091346B2F5807F18BFE3
:101D30002B02217D257B01294CEA450E31D13DB393
:101D4000A56A45F02005A562E56A45F00105E56252
:101D500027E042F01000A0620120B0BD054603E07C
:101D600020688068C007C8D000F09CFC401B032896
:101D7000F6D320688068C007F2D0A06A002140F046
:101D80001000A062E06A40F00100E0620120B6E7C6
:101D9000D4F818C04EF60005CFF6FF7505EB4C35AC
:101DA0002B432568B2F5807F696821F4694141EAD7
:101DB00003016960A9684FF2FD73CFF6E17301EA90
:101DC000030141EA0E01A96001D0012A06D121696F
:101DD0000022CFF6F07202EB015200E00022E96A25
:101DE00021F470011143E962A96840F6FE62CFF662
:101DF0001F721140714507D10021E162A16A0122E1
:101E000062F30101A162B0BDA06A40F0100020F0B1
:101E10000200A062E06A40F00100E0620120B0BD73
:101E200010B50446006842F20041C4F20101884244
:101E300000D010BD20460121FFF744FD216882B289
:101E40004B6A98B2824240F2B400C2F2000009D953
:101E500090F8A8110131CAB2022A88BF002180F887
:101E6000A81110BD496A14326FF31F318A4228BF8E
:101E700010BD002180F8A81110BD000070B586B01B
:101E8000044640F60000C4F20100216800F5E0526B
:101E9000002691420596CDE90366029601D006B070
:101EA00070BD41F21801C4F202010A6842F40072E6
:101EB0000A600A6802F400720192019A0A6842F00C
:101EC00004020A60096801F00401019101990F21DF
:101ED00002910321039102A900F0DEFA40F280454D
:101EE0000820C2F20005C4F202004FF48072C5E976
:101EF000000605F1100080214FF480634FF0200CA4
:101F00004FF4805E80E80C502846C5E9026100F07D
:101F10001DFA002818BFFFF751FB122000210022F4
:101F200025626C6200F070FC122000F05DFC06B0CF
:101F300070BD00002DE9F0410546006842F600063C
:101F4000C4F201069046B0420F4605D042F200416D
:101F5000C4F2010188420AD142F20440C4F20100F5
:101F6000006810F4702F1CBF0120BDE8F08195F8C7
:101F70002400012804BF0220BDE8F081012085F87B
:101F800024002846FEF7DAFF044628B1002085F831
:101F900024002046BDE8F08142F204402968AA6A84
:101FA000C4F2010040F601739A4300F57F7302F515
:101FB00080729942AA6207D0A86A20F48010A862B1
:101FC0004868400513D417E0026812F4702FF3D06C
:101FD000AA6AB14242F48012AA6205D042F20042DB
:101FE000C4F20102914207D10068400504D5A86AF5
:101FF000012262F30D30A862AA6A0020D2044FF0D9
:10200000000244BFEA6A22F00602EA6285F8240070
:10201000286A40F6CD62C0F6000240F6357340F6FD
:102020001D7600F1280CC0F60003C0F600068CE80F
:102030004C006FF002020A608A68434642F48072E4
:102040008A604C313A4600F0C5F92868816801F48D
:1020500060228168B2F5602F0CBF41F4A00141F409
:10206000801181602046BDE8F0810000B0B50446D3
:1020700090F82400012804BF0220B0BD012120688F
:1020800084F824108268D20702D1002069B912E0D6
:10209000816821F00101816000F004FB21688968FA
:1020A000C9070CD10020012129B1A16A41F2011216
:1020B00091430131A162002184F82410B0BD05468E
:1020C00004E000BF20688068C007EBD000F0EAFAA7
:1020D000401B0328F6D320688068C007F2D0A06AAE
:1020E000002140F01000A062E06A40F00100E062D0
:1020F00001200029D9D1DEE7B0B5044690F82400CC
:10210000012804BF0220B0BD0121206884F82410FA
:102110008268D20702D1002041BB3FE0816821F0F4
:102120000101816000F0BEFA21688968C90703D106
:1021300000200121D1B931E0054603E02068806824
:10214000C007F5D000F0AEFA401B0328F6D3206894
:102150008068C007F2D0A06A002140F01000A062A1
:10216000E06A40F00100E0620120B9B12268216A12
:10217000936823F48073936091F82120022A0DD193
:10218000084600F00FF8A16A41F2011221EA0202AA
:1021900041F04001002808BF511CA162002184F8D1
:1021A0002410B0BD014690F82100022813D1086820
:1021B000D1E90FC3026822F00E020260026822F029
:1021C00001020260012000FA03F2CCF8042081F839
:1021D0002100002002E0042088630120002281F811
:1021E0002020704710B5D0E90FCE0168DCF8003030
:1021F0000A6823FA0EF35C0724D512F0040421D0F8
:102200000A68920603D40A6822F004020A602F22A8
:10221000C4F20202914240F20402C4F202024FDD13
:102220003023C4F20203994262D04423C4F2020371
:10223000994260D05823C4F20203994260D14FF40E
:10224000802365E09C0727D512F0020424D00A6899
:10225000920606D40A6822F00A020A60012280F877
:1022600021202F22C4F20202914240F20402C4F261
:10227000020231DD3023C4F2020399424ED04423DE
:10228000C4F2020399424CD05823C4F2020399428B
:102290004CD14FF4003351E01B0756D512F0080221
:1022A00008BF10BD0A6822F00E020A60012101FA7F
:1022B0000EF2CCF80420816380F82110016B3FE01E
:1022C0000823C4F20203994218D01C23C4F202036B
:1022D000994215D140231BE00823C4F2020399421E
:1022E00022D01C23C4F2020399421FD1202325E0EF
:1022F0004FF480630CE04FF4804309E0042307E0CF
:1023000002F168044FF08063A14208BF4FF48003DC
:102310001360C16AC9B1BDE8104008474FF40073AB
:102320000CE04FF4005309E0022307E002F16804D7
:102330004FF00073A14208BF4FF400131360816A8D
:102340000022002980F82020E5D110BD0146002898
:102350004FF0010008BF70472DE9F0470A684FF6BB
:10236000F873CBF6FD7302EB030C4CF6CD43CCF6C1
:10237000CC43ACFB033C6FF00307002607EA9C0745
:10238000C4F2020601F10C0AC1E90F670227D1E984
:10239000013E9AE83004D1E9069881F82170176867
:1023A00043F6F076B7433B4343EA0E0323432B4304
:1023B00043EA0A0343EA090343EA080313600022DD
:1023C0008A6381F8210081F820200020BDE8F047D1
:1023D0007047000090F820C0BCF1010F04BF02203C
:1023E0007047F0B54FF0010E80F820E090F821C062
:1023F000BCF1010F23D14FF0020C80F821C04FF047
:10240000000CC0F838C0D0E900C4C56AC66BDCF85F
:102410000070102C27F00107CCF80070006C0EFA49
:1024200000F070600846CCF8043004BF10460A463D
:10243000CCF80800CCF80C2035B10E200BE00021C0
:1024400080F820100220F0BDDCF8000020F004002D
:10245000CCF800000A20DCF800100843CCF800009B
:10246000DCF8000040F00100CCF800000020F0BDD6
:10247000B0B5044600F016F9054640F24900C2F234
:1024800000000078611C18BF044400BF00F00AF986
:10249000401BA042FAD3B0BD2DE9F04F82B00E68C8
:1024A000002E00F0F68041F20042C4F20102042343
:1024B00040F2004E904208BF03234FF6FF7CC4F267
:1024C000010E009300240123C1F2100C4FF0000A0A
:1024D0004FF0000943E0012704F00C030F229A405B
:1024E0002BEA020207FA03F34FEA9A051A4346F869
:1024F00025204E6840F20C45F202DEF8082054BF59
:1025000022EA080242EA0802C4F20105CEF80820D5
:102510002A68B30254BF22EA080242EA08022A608B
:10252000B303DEF8042054BF22EA080242EA08029C
:10253000F303CEF80420DEF800204FF0010354BF6F
:1025400022EA080242EA0802CEF800200E680AF1E8
:10255000010A36FA0AF204F1040400F09A8003FA40
:102560000AFB16EA0B08F1D04E68664510DC122E05
:1025700050D8DFE806F0330A41454F4F4F4F4F4FD9
:102580004F4F4F4F4F4F4F484C00D1F80C9041E008
:102590004FF6FF72C1F2210296420FDC0022C1F217
:1025A000110296421AD00022C1F21202964215D0B0
:1025B0000022C1F22102964210D02BE00022C1F28B
:1025C000220296420AD00022C1F23102964205D080
:1025D0000022C1F2320296421CD100BF8A6842B189
:1025E000012A14BFC0F814B0C0F810B04FF00809A9
:1025F00010E04FF004090DE0CA6802F1080909E093
:102600004FF0000906E0CA6802F1040902E0CA6856
:1026100002F10C0922460646B8F5807F24BF203A15
:10262000043637680F25954027EA050509FA02F2B6
:102630002A433260CA79D2067FF588AF41F2180387
:10264000C4F202031A68AEF57E7642F001021A6007
:102650001A6802F001020192019A2AF0030256F868
:1026600002B040F60002C4F2010290420FD040F6E0
:102670000042C4F2010290423FF42DAF41F2000249
:10268000C4F20102009F904208BF022724E70027FE
:1026900022E702B0BDE8F08F002A08BF09040161FB
:1026A0007047000040F2AC50C2F200000068704772
:1026B000002804BF0120704770B504460068D4E9C3
:1026C00001124CF6CC43036045F255530360416060
:1026D0008260FFF7E7FF2168CA68920713D00546BA
:1026E00041F23D3604E000BF2168C86880070AD087
:1026F000FFF7D8FF401BB042F6D32068C0688007C0
:10270000F2D0032070BD4AF6AA200860002070BDF8
:1027100040F2490040F2AC51C2F20000C2F20001A6
:1027200000780A68104408607047000080B542F2E3
:102730000000C4F20200016841F0100101600320B2
:1027400000F08EF80F2000F005F800F02BF80020C4
:1027500080BD0000B0B540F24902C2F2000240F272
:1027600000011278C2F200014FF47A730968B3FBDA
:10277000F2F20446B1FBF2F1084600F0BBFC0F2C6C
:102780004FF001050CD858B94FF0FF302146002218
:10279000002500F039F840F24C00C2F2000004605D
:1027A0002846B0BD82B041F21800C4F202000168B0
:1027B000022241F001010160016801F00101019173
:1027C0000199416841F080514160406800F08050BB
:1027D000009000980420C4F20100016862F31A61BD
:1027E000016002B070470000002848BF704700F049
:1027F0001F01012202FA01F14EF200124009CEF24D
:10280000000242F82010704710B54EF60C5CCEF274
:10281000000CDCF80030C3F3022E8EF00704042C09
:1028200028BF0424BEF103034FF0FF3E0EFA04F468
:1028300038BF0023A14399400EFA03F39A43114392
:1028400000F1604200F00F03090102F56442043B0D
:102850006344002848BF03F10C02117010BD000052
:102860004EF60C51CEF200010A684FF6FF031A40F3
:1028700060F30A2242F0806040F0FD70086070470B
:1028800040F2D040C2F200000068C06A7047000009
:102890004AF200214000C0F24A41B1FBF0F040F2A0
:1028A000D041C2F200010A68431E4008D362CB60E7
:1028B000506390637047000040F2D040C2F20000C5
:1028C000006800214162704740F2D041C2F200012D
:1028D0000A68D062C860704708280CD0042812D05B
:1028E000002840F2D040C2F20000006814BF40301F
:1028F00034300160704740F2D040C2F200000068FE
:102900003C300160704740F2D040C2F200000068E5
:10291000383001607047000040F2D041C2F200013F
:1029200009684A6C22F0FF021044486470470000B6
:1029300010B540F2D044C2F2000420680021416288
:10294000204601F023FB2046002100F053FC2046E6
:10295000042101F01BFB20460421BDE8104000F0DB
:1029600049BC000010B540F2D044C2F20004204639
:10297000002101F06BFB2046002100F093FC204673
:10298000042101F063FB20460421BDE8104000F063
:1029900089BC000040F2D040C2F20000006841F261
:1029A0001112016A114200D07047016A40F244429C
:1029B000114218BF7047016821F0010101607047A2
:1029C00040F2D040C2F200000068016841F001010D
:1029D0000160704701280ED0022837D0102808D196
:1029E00041F20401C4F202010A6851F8040CC0016A
:1029F0003ED40020704741F20400C4F20200C169D5
:102A000040F202320A40B2F5817F04BF4FF4004029
:102A1000704701F44071B1F5407F0FD0B1F5007FF0
:102A20001CBF00207047026A920744BF49F640402D
:102A30007047B1F5407F1CBF0020704750F8040C70
:102A40004FF22441800301EAE070704780B500F046
:102A50009DF941F20401C4F2020109680222C1F3A6
:102A6000813102EB4101B0FBF1F0BDE880407047DD
:102A7000C2F3834011A3185CD20305D440F60012C0
:102A8000C0F23D0250430BE00A6810A3C2F340427B
:102A90009A5C41F20023C0F27A03B3FBF2F2504396
:102AA0000968490248BF70474AF6AB214000CAF6A0
:102AB000AA21A0FB01014808704700BF02030405DA
:102AC000060708090A0B0C0D0E0F1010010200007A
:102AD0002DE9F04182B00446007841F21C06C0079F
:102AE000C4F202064AD030685FEAC00808D43068F1
:102AF00040F080503060306800F0805001900198C4
:102B000047F20007C4F200073868C00512D43868DD
:102B100040F480703860FFF7C5FD05463868C00591
:102B200008D4FFF7BFFD401B6428F7D9032002B08B
:102B3000BDE8F081706810F4407012D0616801F453
:102B4000407188420DD0706840F24042C4F2422287
:102B5000012320F4407113600023C00713607160EB
:102B600025D17068616820F440700843B8F1000F07
:102B7000706003D4306820F0805030602068810796
:102B800007D556F8181CA26821F44041114346F8B5
:102B9000181CC00607D556F8180CE16820F4800010
:102BA000084346F8180C002002B0BDE8F081FFF79A
:102BB00079FD054641F2883770688007D1D4FFF768
:102BC00071FD401BB8424FF00300F5D9ECE700005F
:102BD000002804BF012070472DE9F04381B042F284
:102BE0000008C4F202080446D8F800000D4600F0C0
:102BF000070088420CD2D8F8000020F007002843D4
:102C0000C8F80000D8F8000000F00700A8426BD117
:102C1000206841F204098107C4F2020917D541076F
:102C200005D5D9F8001041F4E061C9F8001001079A
:102C300005D5D9F8001041F46051C9F80010D9F851
:102C40000010A26821F0F0011143C9F80010C0077C
:102C500041D1D8F8000000F00700A8420CD9D8F8FC
:102C6000000020F007002843C8F80000D8F8000052
:102C700000F00700A84237D12068410707D5D9F8EE
:102C80000010E26821F4E0611143C9F80010000768
:102C900008D5D9F80000216920F4605040EAC1004D
:102CA000C9F80000D9F8002002F00C00082841F211
:102CB0000020C0F27A004DD146F64E53C2F3834154
:102CC000C0F60003595CD20338D440F60010C0F2BD
:102CD0003D0048433EE06068022809D0012828D121
:102CE00059F8041C890307D4012001B0BDE8F08322
:102CF00059F8041C8901F7D5D9F8001021F0030117
:102D00000843C9F80000FFF7CDFC064641F28837BA
:102D1000D9F80000616800F00C00B0EB810F98D08A
:102D2000FFF7C0FC801BB842F2D9032001B0BDE818
:102D3000F08359F8041C8907D6D5DDE7D9F80020BF
:102D400046F64C53C2F34042C0F600039A5C484337
:102D5000B0FBF2F0D9F8001046F63452C1F303117B
:102D6000C0F60002515C40F2000220FA01F140F28C
:102D70004C00C2F200000068C2F200021160FFF7CE
:102D8000E9FC002001B0BDE8F083000040F2000043
:102D900041F20401C2F20000C4F2020100680968B5
:102DA00046F64452C1F3C221C0F60002515CC8404D
:102DB00070470000002804BF012070472DE9F04152
:102DC00082B00446007841F20006C007C4F2020651
:102DD00049D0706800F00C00042809D130688003E5
:102DE00041D5606800283ED1012002B0BDE8F081E5
:102DF000706800F00C00082802D17068C003EDD4A0
:102E000065682DB1B5F5A02F0AD0B5F5803F0BD080
:102E1000306820F480303060306820F4802006E094
:102E2000306840F480203060306840F4803030609A
:102E3000FFF738FC002D054612D000BF3068800334
:102E400011D4FFF72FFC401B6428F7D918E100BF0D
:102E5000FFF728FC401B64284FF0030000F2D880E5
:102E600030688003F4D42078800719D5706810F09A
:102E70000C0F07D0706800F00C00082827D170688C
:102E8000C00324D43068800703D52069012840F0AE
:102E9000A6803068616920F0F80040EAC100306027
:102EA000207800074ED5A06938B30020C4F2422034
:102EB0000121C0F88014FFF7F5FB0546706A800712
:102EC0002DD4FFF7EFFB401B0228F7D9D8E020698B
:102ED000002840F20000C4F2422000F0A880012146
:102EE0000160FFF7DFFB054630688007D1D4FFF7AC
:102EF000D9FB401B0228F7D9C2E00020C4F24220CF
:102F00000021C0F88014FFF7CDFB0546706A8007EA
:102F100018D5FFF7C7FB401B0228F7D9B0E040F2F5
:102F20000000C2F20000006844F6D351C1F2620111
:102F3000A0FB0101480A019000BF0198411E002832
:102F40000191F9D12078400717D4E5698DB17068F7
:102F500000F00C00082846D1012D40D07068216A8D
:102F600000F480328A423AD1616A00F470108842DB
:102F700035D1002002B0BDE8F081F0695FEAC008F9
:102F800008D4F06940F08050F061F06900F08050A2
:102F90000090009847F20007C4F200073868C005A7
:102FA0000FD4386840F480703860FFF77BFB05462B
:102FB0003868C00505D4FFF775FB401B6428F7D9B6
:102FC0005EE0E5681DB1052D42D0012D44D0306A88
:102FD00020F001003062306A20F004003FE0012060
:102FE00002B0BDE8F0810027C4F242270020386615
:102FF000FFF758FB022D05460ED100BF3068800157
:1030000055D5FFF74FFB401B02284FF00300F5D9C1
:1030100002B0BDE8F08100BF30688001A9D5FFF79C
:1030200041FB401B02284FF00300F5D9F0E70021D7
:103030000160FFF737FB0546306880077FF530AF4A
:10304000FFF730FB401B02284FF00300F4D9DFE705
:10305000306A40F004003062306A40F001003062B3
:10306000FFF720FB002D054641F2883713D000BF43
:10307000306A800712D4FFF715FB401BB842F7D91E
:10308000032002B0BDE8F081FFF70CFB401BB84203
:103090004FF00300BCD8306A8007F5D4B8F1000FB8
:1030A0003FF553AFF06920F08050F0614DE7206AA2
:1030B000B0F5803F05D17168A26821F40031114359
:1030C00071607168626A21F4741111430843706081
:1030D00001203866FFF7E6FA044600BF3068800139
:1030E0003FF547AFFFF7DEFA001B02284FF0030061
:1030F000F4D98DE7411E0020B0EB116F1CBF0120F9
:1031000070474EF21002CEF2000251604EF623518B
:10311000CEF20001F0230B70072190601160704720
:10312000704700007047000090F83C20012A04BF5F
:1031300002207047B0B501F108053CCDD1E900CEC1
:1031400023F47C5322F470521A432EF4F0431A43B2
:103150002CF4E0431A4324F4C0431A432A43C969B8
:1031600022F48042036811435964002180F83C1026
:10317000BDE8B0400846704790F83C20012A4FF067
:10318000020234D010B5012380F83C3080F83D2095
:103190000268D2F804E0D2F808C00C682EF0700380
:1031A000234340F2FF74C4F20004A242536005DCE2
:1031B000B2F1804F0ED040F2004307E042F60043E8
:1031C000C4F201039A4205D040F60003C4F20003A2
:1031D0009A4204D149682CF080031943916001217F
:1031E000002280F83D1080F83C20BDE810401046D9
:1031F0007047000041B1082909D0042914BF00F12B
:10320000450200F1430204E000F1420201E000F156
:1032100044021278012A1CBF01207047022241B1EA
:10322000082909D0042914BF80F8452080F84320DC
:1032300004E080F8422001E080F84420006801F0BA
:103240000F010422036A02FA01F123EA0102026279
:10325000026A11430162416C40F2FF72C4F2000243
:1032600041F400419042416405DCB0F1804F0ED042
:1032700040F2004107E042F60041C4F201018842F9
:1032800005D040F60001C4F20001884204D18168F3
:1032900001F00701062903D0016841F00101016036
:1032A0000020704710B5026801F00F0E4FF0040CBB
:1032B000146A0CFA0EF324EA03031362136A13620E
:1032C000146A41F211131C420AD1D2F820C040F214
:1032D00044441CEA040F03D1546C24F400445464A5
:1032E000146A1C4204D1136A40F24444234212D0AF
:1032F000082916D0042909D000294FF0010114BF74
:1033000080F8451080F84210002010BD012180F89F
:103310004310002010BD136823F001031360082937
:10332000E8D1012180F84410002010BD002804BF1E
:103330000120704710B5044690F83D0028B90020E0
:1033400084F83C00204600F065F8022084F83D0037
:10335000206840F2FF730268C4F2000342F6004C9A
:103360009842C4F2010C05DCB0F1804F0AD040F263
:10337000004103E0604505D040F60001C4F20001C1
:10338000884203D1A16822F070020A43984205DC0A
:10339000B0F1804F0AD040F2004103E0604505D013
:1033A00040F60001C4F20001884203D1216922F4F1
:1033B00040720A43A36922F08001D4F804E0E26875
:1033C000194360450160C262C0F828E002D161691A
:1033D000CCF83010012141610269D20703D00269A3
:1033E00022F001020261002084F8461084F83E10A9
:1033F00084F83F1084F8401084F8411084F842109B
:1034000084F8431084F8441084F8451084F83D1083
:1034100010BD000070B586B000680021B0F1804F8B
:10342000CDE904110391029147D042F60041C4F264
:103430000101884257D141F21800C4F2020001682C
:1034400040F6000441F4006101600168C4F2010427
:1034500001F4006101910199016802AD41F0080198
:1034600001600168002601F00801019101990168DD
:1034700041F0040101600068294600F00400019059
:1034800001984FF48050029004F58060CDE9036606
:10349000FFF702F84FF44060CDE9020620462946C6
:1034A0000496FEF7F9FF182000210022FFF7ACF97F
:1034B0001820FFF799F91B240DE041F21800C4F21F
:1034C000020041681C2441F001014160406800F0A5
:1034D000010001900198204600210022FFF794F995
:1034E0002046FFF781F906B070BD000090F83D104E
:1034F00001291CBF01207047022180F83D1000689F
:1035000040F2FF72C168C4F20002904241F0010132
:10351000C16005DCB0F1804F0ED040F2004107E001
:1035200042F60041C4F20101884205D040F6000194
:10353000C4F20001884206D1816801F00701062922
:1035400004BF00207047016841F0010101600020C4
:103550007047000090F83C20012A4FF0020200F072
:10356000C68080B5012380F83C3080F83D20D0F83B
:1035700000C04FF67772DCF8083023EA0202CCF87C
:1035800008200B684F2B28DC1F2B44DD202B45D057
:10359000302B43D0402B40F0AC80D1F804E0C96818
:1035A000DCF82030DCF8202022F00102CCF82020CA
:1035B000DCF8182022F0F00242EA011123F00A029E
:1035C00042EA0E02CCF81810CCF82020DCF80810E3
:1035D00041F0470121F030017EE06F2B26DDB3F58D
:1035E000005F47D0B3F5805F78D0702B40F08180CA
:1035F000D1E901E3C968DCF8082043EA0E0322F4AC
:103600007F4243EA01211143CCF80810DCF808108E
:1036100041F0770160E00BB1102B6AD1DCF80810A3
:1036200021F07001194341F0070155E0502B34D0CF
:10363000602B5ED1D1F804E0C968DCF82030DCF8FA
:10364000202022F01002CCF82020DCF8182022F4F0
:10365000704242EA013123F0A00242EA0E12CCF895
:103660001810CCF82020DCF8081041F0670121F098
:10367000100131E0D1E901E3C968DCF8082043EA30
:103680000E0322F47F4243EA01211143CCF80810D3
:10369000DCF8081041F480411EE0D1F804E0C9686C
:1036A000DCF82030DCF8202022F00102CCF82020C9
:1036B000DCF8182022F0F00242EA011123F00A029D
:1036C00042EA0E02CCF81810CCF82020DCF80810E2
:1036D00041F0570121F02001CCF80810002201210F
:1036E00080F83D10002180F83C10BDE88040104675
:1036F00070470122F3E70000B0B50446006842F6C7
:103700000041C4F20101884200D0B0BD207F40F2E8
:1037100064250428C2F2000526D195F8D400C0071C
:1037200022D0B5F8D00013281ED82046082100F07A
:1037300025FDB5F8D0104A1C05EB8101A5F8D02075
:103740008860B5F8D00014280ED395F8D40000F0A6
:10375000FE0085F8D40095F8D40040F0020085F80A
:10376000D4000020A5F8D000207F0828CDD195F8FE
:10377000AC01C007C9D0B5F8A8011328C5D82046A8
:103780000C2100F0FBFCB5F8A81105EB810201311A
:10379000A5F8A811C2F8E000B5F8A801142838BFB0
:1037A000B0BD95F8AC0100F0FE0085F8AC0195F8CD
:1037B000AC0140F0020085F8AC010020A5F8A8019A
:1037C000B0BD000090F83C30012B04BF02207047D0
:1037D0004FEAB2020123032A80F83C3000F2A380B2
:1037E000F0B5DFE802F0021B3B590368D1E900C5E0
:1037F000D1F80CE01C6A1A6A40F2FF7722F001024D
:103800001A621A4652F8186FC4F20007BB4267DC0E
:10381000B3F1804F70D040F2004769E00368D1E90E
:1038200000E6D1E902C11C6A1A6A360222F01002CF
:103830001A621A4652F8185F4FF2FF07BE4325F48A
:10384000734561F30F3624F0A0040EF00A0746EA30
:10385000050144EA071711601F623AE00768D1E9E1
:1038600000C5D1E902313C6A3A6A61F3071522F4D6
:1038700080723A623A4652F81C6F26F0F30645EA27
:1038800006014FEA5C0666F3492411603C62116848
:1038900021F00C01116040E00368D1E900E6D1E9B4
:1038A00002C11C6A1A6A360222F480521A621A464F
:1038B00052F81C5F4FF2FF07BE4325F4734561F3D6
:1038C0000F364FEA5E0746EA050167F34D34116093
:1038D0001C6211684FEA0C2321F4406111601CE066
:1038E00042F60047C4F20107BB4205D040F600078C
:1038F000C4F20007BB421BD126F00306354324F077
:103900000A070CF00A066EF3071537449D611F6223
:103910009F6927F00C079F618B681168194300238A
:103920001160BDE8F040002180F83C101846704757
:1039300046F00105E3E70000002804BF01207047BE
:1039400010B5044690F83D0028B9002084F83C00EA
:10395000204600F065F8022084F83D00206840F21F
:10396000FF730268C4F2000342F6004C9842C4F2AE
:10397000010C05DCB0F1804F0AD040F2004103E0B9
:10398000604505D040F60001C4F20001884203D131
:10399000A16822F070020A43984205DCB0F1804F22
:1039A0000AD040F2004103E0604505D040F6000136
:1039B000C4F20001884203D1216922F440720A4313
:1039C000A36922F08001D4F804E0E268194360455D
:1039D0000160C262C0F828E002D16169CCF8301001
:1039E000012141610269D20703D0026922F001027C
:1039F0000261002084F8461084F83E1084F83F10DD
:103A000084F8401084F8411084F8421084F8431080
:103A100084F8441084F8451084F83D1010BD00006F
:103A20007047000041B1082909D0042914BF00F1F2
:103A3000410200F13F0204E000F13E0201E000F12A
:103A40004002127841B1082909D0042914BF00F1BD
:103A5000450300F1430304E000F1420301E000F1FB
:103A6000440380B5012A4FF001021B7808BF012BE7
:103A700001D0104680BD022249B1082913D0042983
:103A800014BF80F8412080F83F2019B90FE080F87A
:103A90003E2061B108290DD0042914BF80F84520CB
:103AA00080F8432008E080F840200029F2D180F817
:103AB000422001E080F844204FEAB103032B11D8E3
:103AC00046F6605CD0F800E0C0F6000C5CF823C05D
:103AD000DEF80C2042EA0C02CEF80C200022032B68
:103AE000C7D802E00122032BC3D8006801F01F01F0
:103AF0004FF0010C036A0CFA01F18B430362036A75
:103B0000194340F2FF73C4F200039842016205DCDE
:103B1000B0F1804F0ED040F2004107E042F6004184
:103B2000C4F20101884205D040F60001C4F2000150
:103B3000884204D1816801F00701062999D0016803
:103B400041F001010160104680BD000070B50446DF
:103B50000068C5680669B10716D515F0020113D0D3
:103B60006FF002010161012121778069800703D094
:103B70002046FFF7C1FD05E0204600F08DF8204605
:103B800000F002FA00202077700718D515F0040025
:103B900015D020686FF0040101610221217780694E
:103BA00010F4407F03D02046FFF7A6FD05E0204635
:103BB00000F072F8204600F0E7F900202077300787
:103BC00017D515F0080014D020686FF008010161C6
:103BD00004212177C069800703D02046FFF78CFDC0
:103BE00005E0204600F058F8204600F0CDF900200E
:103BF0002077F00618D515F0100015D020686FF06A
:103C00001001016108212177C06910F4407F03D0C1
:103C10002046FFF771FD05E0204600F03DF8204604
:103C200000F0B2F900202077F00718BF15F001006E
:103C300002D1300609D412E020686FF00101016161
:103C4000204600F055FA300609D515F0800006D060
:103C500020686FF0800101612046FFF761FA70066D
:103C600009D515F0400006D020686FF040010161D1
:103C7000204600F09DFAB00658BF70BD15F0200038
:103C800008D021686FF0200220460A61BDE870402C
:103C9000FFF748BA70BD00007047000090F83C3054
:103CA000012B04BF022070474FEAB2020123032A0E
:103CB00080F83C3000F2EC802DE9F041DFE802F0C2
:103CC000023B77B2036842F600451C6A1A6AC4F2E6
:103CD000010522F001021A621A46D3F804C052F814
:103CE00018EF8E6824F00204AB4244EA060405D1C2
:103CF000CE6824F00C0426F0040634430E68AB4270
:103D000006D1D1E905582CF440772F4347EA080C37
:103D10002EF073073743C3F804C09F614F680969E9
:103D20005F631C629F6947F008079F619F6927F0E6
:103D300004079F61A6E0036842F600451C6A1A6A00
:103D4000C4F2010522F010021A621A46D3F804C028
:103D500052F818EF8E6824F02004AB4244EA0614AF
:103D600007D1CE686FF0400724F0C00407EA0616BA
:103D700034430E68AB4206D1D1E905572CF4406CB0
:103D80003D434CEA850C2EF4E64747EA0627C3F884
:103D900004C09F614F6809699F631C629F6947F473
:103DA00000679F619F6927F480679F6169E00368EE
:103DB00042F600451C6A1A6AC4F2010522F48072B8
:103DC0001A621A46D3F804C052F81CEF8E6824F425
:103DD0000074AB4244EA062407D1CE6840F2FF47A4
:103DE000360224F44064BE4334430E68AB4206D12D
:103DF000D1E905572CF4405C3D434CEA051C2EF0FC
:103E000073073743C3F804C0DF614F680969DF6394
:103E10001C62DF6947F00807DF61DF6927F00407EC
:103E2000DF612FE0036842F60047D3F820C01A6A2A
:103E3000C4F2010722F480521A621A465C6852F8F2
:103E40001C5FD1F800E08E68BB4204D14F6924F4B6
:103E5000804444EA87142CF4005747EA063725F4D7
:103E6000E64646EA0E265C60DE614E6809691E641D
:103E70001F62DF6947F40067DF61DF6927F480674D
:103E8000DF6109021368194300231160BDE8F041A6
:103E9000002180F83C10184670470000002804BF3D
:103EA0000120704710B5044690F83D0028B9002065
:103EB00084F83C00204600F065F8022084F83D00BC
:103EC000206840F2FF730268C4F2000342F6004C1F
:103ED0009842C4F2010C05DCB0F1804F0AD040F2E8
:103EE000004103E0604505D040F60001C4F2000146
:103EF000884203D1A16822F070020A43984205DC8F
:103F0000B0F1804F0AD040F2004103E0604505D097
:103F100040F60001C4F20001884203D1216922F475
:103F200040720A43A36922F08001D4F804E0E268F9
:103F3000194360450160C262C0F828E002D161699E
:103F4000CCF83010012141610269D20703D0026927
:103F500022F001020261002084F8461084F83E102D
:103F600084F83F1084F8401084F8411084F842101F
:103F700084F8431084F8441084F8451084F83D1008
:103F800010BD0000704700007047000041B10829D3
:103F900009D0042914BF00F1410200F13F0204E0FE
:103FA00000F13E0201E000F140021278012A1CBF3C
:103FB00001207047022241B1082909D0042914BF09
:103FC00080F8412080F83F2004E080F83E2001E0A6
:103FD00080F84020006801F01F010122036A8A4036
:103FE00023EA02010162036A42F64441C4F201017C
:103FF0001A43A1F144039842026203D10A6842F4D1
:1040000000420A6040F2FF71C4F20001884205DC00
:10401000B0F1804F0ED040F2004107E042F600417F
:10402000C4F20101884205D040F60001C4F200014B
:10403000884204D1816801F00701062903D0016894
:1040400041F00101016000207047000080B5026866
:1040500001F01F0C012303FA0CFE136A42F6004C18
:1040600023EA0E031362C4F2010C136A6245136261
:1040700011D1DCF820C041F211131CEA030F0AD160
:10408000D2F820C040F244431CEA030F03D1536C22
:1040900023F400435364D2F820C041F211131CEA08
:1040A000030F06D1D2F820C040F244431CEA030FAC
:1040B00012D0082916D0042909D000294FF0010197
:1040C00014BF80F8411080F83E10002080BD01210F
:1040D00080F83F10002080BD136823F001031360B7
:1040E0000829E8D1012180F84010002080BD00009F
:1040F0000068B0F1804F00D0704740F27852C2F2B1
:10410000000240F22440127846F6A863C2F2000092
:10411000C0F60003016853F822204B1C9142036053
:1041200007D30021016040F2A850C2F20000012133
:10413000017040F26250C2F2000001884A1C32292C
:10414000028007D30021018040F26450C2F20000D7
:104150000121017040F2A250C2F2000001884A1C05
:104160000429028038BF70470021018040F2A4502A
:10417000C2F2000001210170704700004FEAB10156
:10418000032984BF00207047DFE801F0020E060A11
:10419000006834300068704700683C300068704741
:1041A0000068403000687047006838300068704729
:1041B00070470000FEE7000070B540F2642440F252
:1041C000D045C2F20004C2F200050820C4E9005044
:1041D00094F8D400002640F0010084F8D40094F84C
:1041E000D400C82100F0FD0084F8D40004F10800D8
:1041F000A4F8D060A4F8D260FCF78BF90C20C4E9D5
:10420000365094F8AC01C82140F0010084F8AC01AC
:1042100094F8AC0100F0FD0084F8AC0104F1E0007A
:10422000A4F8A861A4F8AA61FCF773F970BD0000B6
:10423000B0F8A411142905D390F8A92142F0020284
:1042400080F8A9210020132988BF012070470000B1
:10425000484344F6D351C1F26201A0FB01014FF083
:10426000FF3000EB113200EB913040F6FF718842D5
:1042700038BF0146100B4FF0040340F2C44014BF96
:1042800006231146C2F2000043F20002C4F200020B
:10429000816042F20401C0E90023CEF204010A6801
:1042A00042F480720A60FEF703BA0000002908BFDA
:1042B0007047083850F8082F013990F806C0926806
:1042C00083881A4018BF01226CF341020B048271EB
:1042D000F0D17047B0B590B040F2504042F200418A
:1042E0000024C2F20000C4F201014FF480720125E3
:1042F0004FF46023C0E900140321CDE90E44CDE959
:104300000C44CDE90A44CDE90844CDE90644CDE9A1
:104310000444CDE90244CDE9004405730475C3614A
:1043200082600161FDF7CCFC002818BFFDF746F95B
:1043300040F20020C0F240000A9040F6FF70CDE944
:104340000D0440F25040C2F200000AA90B948DF80F
:104350003050FDF74FFB002818BFFDF72FF9012063
:10436000CDE907000520099040F25040C2F200005C
:1043700007A9FDF769FB002818BFFDF71FF9022008
:10438000CDE9070040F25040C2F2000007A9FDF756
:104390005BFB002818BFFDF711F90320CDE90700EA
:1043A00040F25040C2F2000007A9FDF74DFB002883
:1043B00018BFFDF703F9002000900121069003903B
:1043C00040F25040019104910222ADF81410C2F263
:1043D000000069460292FDF76DF9002818BFFDF74D
:1043E000EDF810B0B0BD000080B582B041F214000D
:1043F000C4F202000168002241F00101016000687E
:10440000002100F00100019001980B20FEF7FCF95B
:104410000B2002B0BDE88040FEF7E6B92DE9F04F71
:1044200085B04FF0000841F21800CDE90388CDE9CE
:104430000188C4F20200016840F6004A41F0100110
:1044400001600168C4F2010A01F0100100910099B5
:1044500001680AF5806641F02001016001680022D0
:1044600001F020010091009901684FF4005441F0DF
:1044700004010160016801F00401009100990168E4
:1044800041F00801016000684FF4005100F008009D
:10449000009000983046FEF7FFF8AAF580652846A0
:1044A00049F2F001002249F2F009FEF7F5F8504612
:1044B0004FF47F610022FEF7EFF801AF01944FF057
:1044C000010B022430463946CDF808B0CDE903444B
:1044D000FDF7E2FF28463946CDE9019BCDE90344CB
:1044E000FDF7DAFF48F20300CDE9010850463946EE
:1044F000CDF80C80FDF7D0FF4FF47F60CDE9010BC4
:1045000050463946CDE90344FDF7C6FF05B0BDE886
:10451000F08F000080B540F2C44043F20001C2F2C7
:104520000000C4F2000104224FF41C7380E80E0066
:10453000FEF7BEF8002808BF80BDBDE88040FDF74B
:104540003DB8000070B5A0B042F6004540F2D04042
:10455000C4F201050021C2F20000402240F60F63C0
:104560008026CDE91911CDE917111591CDE9131167
:10457000CDE91111CDE90F11CDE90D11CDE90B11E7
:10458000CDE90911CDE90711CDE90511CDE90311F7
:10459000CDE90111C0E90051C0E90223C0E90411CD
:1045A0008661FEF7C3FE002818BFFDF707F84FF439
:1045B0008050179040F2D040C2F2000017A9FEF7D9
:1045C000C9FF002818BFFCF7F9FF40F2D040C2F243
:1045D0000000FFF763FC002818BFFCF7EFFF40F274
:1045E000D040C2F20000FFF7A7F9002818BFFCF77F
:1045F000E5FF402014908020159040F2D040C2F298
:10460000000014A9FEF7B8FD002818BFFCF7D6FF7C
:1046100060200D904FF4E1600E900020CDE90F0076
:10462000CDE91100139040F2D040C2F200000DA974
:104630000022FFF733FB002818BFFCF7BFFF40F252
:10464000D040C2F200000DA90422FFF727FB00288A
:1046500018BFFCF7B3FF002001210990CDE90A1033
:104660000C9040F2D040C2F2000009A90822FFF7E6
:10467000A9F8002818BFFCF7A1FF40F2D040C2F211
:10468000000009A90C22FFF79DF8002818BFFCF7CD
:1046900095FF4FF4006001904FF480600290FF207E
:1046A00004904FF4805005904FF4005040F2D044F5
:1046B00006904FF48040C2F200040026089001A941
:1046C00020460396FEF730FD002818BFFCF776FF62
:1046D0002068CDE91E66A8421D961C9601D020B028
:1046E00070BD41F21800C4F2020001681CAC41F038
:1046F000080101600168022601F008011B911B9965
:10470000016841F0040101600068214600F00400E6
:104710001B901B984FF4C0401C90A5F500501D96AF
:104720001F96FDF7B9FE4FF44070CDE91C06A5F5C4
:10473000105021461F96FDF7AFFE20B070BD00005F
:1047400080B586B040F218500021C2F2000040F25D
:10475000E73CCDE90411CDE90211CDE900114FF09C
:1047600080424723C0E9021C01618021C0E9002387
:104770008161FEF7DBFD002818BFFCF71FFF4FF437
:104780008050029040F21850C2F2000002A9FEF7D9
:10479000E1FE002818BFFCF711FF0020CDE9000062
:1047A00040F21850C2F200006946FEF7E5FC00280E
:1047B00018BFFCF703FF06B080BD000003460A46A1
:1047C000006899889A71FDF767BF0000FEE7000056
:1047D000FEE700002DE9F04746F6047740F27855F1
:1047E00040F21449824600F10A080026C0F600078C
:1047F000C2F20005C2F2000906E000BF0121B1B11A
:104800000C36B6F5A27F16D0B95D2A789142F5D163
:10481000BC1961785145F1D16068804700280EBF0E
:1048200089F80080217A297000210029E8D100F060
:104830000100BDE8F087002000F00100BDE8F0872E
:10484000B0B540F2B400C2F20000FCF7F9FA40F251
:104850007850C2F200000024047040F2A85540F2E3
:104860001540C2F20005C2F200002C708472C472BE
:1048700040F21850C2F2000001684C62FEF736FEAA
:104880000120287040F22440C2F200000460B0BD54
:10489000704700007047000070B5C0B30D46002996
:1048A00040D006462846FBF715FE98B146F6C85C90
:1048B0000021C0F6000C0023EA5C2E2A05D01CF86B
:1048C00002207418013184F821200133834201D27F
:1048D0000429F1D3002000BF42B2A95C49B12E29BE
:1048E00001D00130F8E74FF0FF31002AC8BF411E68
:1048F00000E0FF21C8B2042828BF70BD48B2304490
:1049000090F8211041F0800180F8211070BD46F62A
:10491000C86046F6E161C0F60000C0F600016A22F8
:10492000FBF798FD46F6D56046F6E161C0F600005B
:10493000C0F600016B22FBF78DFD000070B540B39F
:1049400040F60001C4F2010140F2100E402240F294
:10495000001340F2004C01F5806480252026C0F24F
:10496000200EC0F28002C0F20023C0F6000CC0F29C
:104970004005C0F21006C0E900410021C0E902E292
:10498000C0E9043CC0E9065680F82010C0F82110A8
:1049900070BD46F6C86046F6E161C0F60000C0F69C
:1049A00000011322FBF756FD70470000704700001E
:1049B000F0B583B08F680646384601F0FBFC0D4623
:1049C00000210446CCF22011384601F0BFFD48B961
:1049D00046F6F862C0F6000230460521CDE90045F2
:1049E000FBF718FC3846002101F0B7FD58B900214B
:1049F000CCF22011384601F0B7FD20B946F6FE6230
:104A0000C0F600020CE00021C4F22011384601F08B
:104A1000A4FD68B93846002101F0ADFD40B914A2EB
:104A200030460621CDE90045FBF7F4FB03B0F0BDAD
:104A30000021C4F2C821384601F08FFD38B90021A9
:104A4000C4F22011384601F096FD0028D6D000218E
:104A5000C4F2C821384601F08EFD00281CBF03B007
:104A6000F0BD46F6F862C0F6000230460521D9E7EF
:104A7000252E32664300000080B570B340F60C0E60
:104A8000C4F2010EDEF8002022F0F002CEF8002081
:104A9000DEF8002422F47F62CEF8002490F8202073
:104AA000831893F821C0DEF8003423F47F6343EACF
:104AB0000C13CEF8003400EB4203B3F818C0DEF854
:104AC00000304FEA1C1161F30713511C01F0030180
:104AD000CEF8003080F8201080BD46F6C86046F65B
:104AE000E161C0F60000C0F600014222FBF7B2FC13
:104AF00070B582B00D6904462846002101F03BFDE7
:104B000040B90021C4F22011284601F034FD08B15B
:104B10000BA607E00021C4F22011284601F02BFD6E
:104B200060B909A6284601F045FC03460D4620461B
:104B300006213246CDE90035FBF76CFB02B070BDB3
:104B400025312E326641000025322E3166410000AB
:104B5000B0B591F822400546092C05D808A2284690
:104B600005212346FBF756FB0A2C38BFB0BD06A231
:104B7000284605212346BDE8B040FBF74BBB00BFEC
:104B80004572722530316400457225303264000070
:104B9000B0B582B049690546084601F029FE0021FA
:104BA000C4F27A4101F0FAFC01F004FC03460C4621
:104BB00004A228460621CDE90034FBF72BFB02B006
:104BC000B0BD00BF25322E3166480000B0B582B0BE
:104BD000D1E903210546104601F086FE0021C4F20A
:104BE0007A4101F0DBFC01F0E5FB03460C4604A230
:104BF00028460621CDE90034FBF70CFB02B0B0BD1E
:104C000025312E32665000000B7802A20521FBF7F9
:104C100001BB00BF537425303264000080B582B000
:104C2000B1F824C0CB8C04A20621CDF800C0FBF75C
:104C3000F1FA02B080BD00BF253032642E2530323B
:104C400064000000B0B582B0C9680546084601F0AE
:104C5000B1FB03460C4604A228460621CDE90034E8
:104C6000FBF7D8FA02B0B0BD25332E3066550000F0
:104C7000FDF74EBD70B594B00AAC20462821FBF775
:104C800048FC092000250A904FF480300226CDE927
:104C90000B05CDE911604FF4E0100121139020467F
:104CA0000995CDE90755CDE90555CDE90355CDE980
:104CB00001550E911091FEF77DF820B1EFF31080B1
:104CC00072B600BFFEE70F20CDE905064FF4806005
:104CD000CDE9080505A802210795FDF779FF20B168
:104CE000EFF3108072B600BFFEE7022001904FF490
:104CF0000040039001A8FDF7EBFE20B1EFF3108018
:104D000072B600BFFEE714B070BD0000704700002F
:104D100040F2D040C2F20000FEF718BF40F2D0408F
:104D2000C2F20000FEF712BF40F21850C2F20000BB
:104D3000FEF70CBFFEE7000010B504460068FDF763
:104D4000DBF900281CBF002010BD2068FCF728FEFE
:104D5000B0FA80F0400910BD10B540F26024C2F2F4
:104D60000004207840F20C01C2F2000151F820103A
:104D700040F2B400C2F20000884720780838B0FA48
:104D800080F0400910BD00000120704780B540F25E
:104D9000B400C2F20000FCF77FFB002808BF80BD12
:104DA00040F26050C2F200000221017080BD00009C
:104DB00080B540F2B400C2F20000FCF7B9FB002855
:104DC00008BF80BD40F26050C2F2000001210170B6
:104DD00080BD000040F2B400C2F20000FFF7ACBF9B
:104DE00080B540F2B400C2F20000FFF7B5FF002822
:104DF00008BF80BD40F26050C2F200000421017083
:104E000080BD000080B540F2B400C2F2000000F0A6
:104E10002BF9002808BF80BD40F26050C2F20000AC
:104E20000321017080BD0000FDF780FCFFF722FF29
:104E30000A20FDF71DFBFFF7F1FAFFF7D5FAFFF7A0
:104E400049FAFFF77FFBFFF77BFCFFF763FB41F2BB
:104E50002400C4F202000168016801680168016869
:104E6000006840F2E040C4F2422001240460FFF7F1
:104E7000E7FC40F22848C2F200084046FFF75EFD1A
:104E800040F2685040F60041C2F20000C4F2010155
:104E900001600321848081714FF47A7049F64041AA
:104EA000FFF7D6F94046FFF749FD40F2214540F2B1
:104EB000A85440F2A45A40F2040940F2785740F254
:104EC000645BC2F20005C2F20004C2F2000A0026CE
:104ED000C2F20009C2F20007C2F2000B03E000BFF9
:104EE0002878FFF777FC2846FCF734FB0028F7D139
:104EF000207840B12670387846F68861C0F6000107
:104F000051F8200080479AF80000012816D140F29D
:104F10004800C2F20000007846F64861C0F6000181
:104F200051F82020484639468AF8006090474046AC
:104F30004946FFF7B1FC4046FFF79EFD9BF8000095
:104F40000128D0D1387846F69451C0F6000151F8C6
:104F500020008BF800608047C5E7000010B50446CC
:104F60000068FCF731FB08B1002010BD2068211D4E
:104F70000322FCF7DFFF0146206831B9FCF7B6FCDD
:104F800038B12068FCF70CFD2068FDF7B5F800206B
:104F900010BD012010BD000080B5FDF7E3FC01202D
:104FA00080BD000080B5FDF7C3FC012080BD00007E
:104FB00080B5FDF705FD012080BD000080B5FDF73F
:104FC000D1FCFDF779FC00200021FDF785FC0420D1
:104FD0000021FDF781FCFDF7DDFC012080BD000014
:104FE00040F27851C2F200010879002200F0FC0082
:104FF000087101200A84C1E90222C1E904228A6100
:105000008A837047704700007047000070470000B7
:1050100010B540F2B404C2F200042046FCF788FA4E
:105020002046FFF705F940F26420C2F2000090F834
:10503000D410890744BF90F8AC015FEA807000D4B7
:1050400010BD94F8A901C007FAD094F8A90180070F
:1050500058BF10BD40F2A050C2F200000121017003
:1050600010BD00007047000070B5B0F89C510446B8
:10507000284601F0BDFB43F23331C4F2530101F085
:1050800033FC0021C4F2F42101F02EFC4FF20001A8
:10509000C4F27F5101F082FA06460021002D08BFBC
:1050A0002E46C4F27A31304601F065FA4FF0000521
:1050B00030BB48F20001C4F2AC31304601F046FA90
:1050C000F0B9B4F89E01FCF709F8B4F8A011044651
:1050D0000846FCF703F80026C4F29626054620464B
:1050E000314601F041FA044600282846314618BFEF
:1050F000012401F039FA002818BF012004EA000554
:10510000284670BD014642F2107044F62062C1E9A3
:1051100005024DF6FF700A7908844FF47A7088838F
:1051200002F0FE0201200A717047000080B5FDF711
:10513000AFFB012080BD000080B540F2B400C2F298
:105140000000FBF741FF40F2A550C2F2000003212E
:10515000017080BD7047000080B540F2B400C2F21B
:105160000000FFF781FF002808BF80BD40F2A55076
:10517000C2F200000421017080BD000010B540F2B1
:10518000B404C2F200042046FCF7D2F92046FFF72F
:105190004FF894F8A901C0070AD094F8A901800734
:1051A00058BF10BD40F2A550C2F2000002210170AC
:1051B00010BD0000B0B5FDF763FBC10840F27855A3
:1051C000E029C2F2000513D895F82010DF290FD886
:1051D00040F2B400C2F20000FFF7C0FE002808BF92
:1051E000B0BD40F2A550C2F2000001210170B0BD77
:1051F0000638B0F5E16F38BF40F20770411C4AF243
:1052000000234A00C0F24A43B3FBF2F24C086A6141
:10521000FDF75AFB00202146FDF75EFB04202146E6
:10522000FDF75AFB40F2A654C2F200042088382849
:105230000AD395F8201095F8212038389142208023
:1052400084BF481E85F8200095F82000FDF764FB18
:10525000208806302080B0BDB0B540F2B405C2F25F
:105260000005B5F89C01FBF771FF40F27854B5F8E2
:105270009A11C2F20004E0600846FBF70BFFE168F8
:10528000206101F031FB01F07FFAA0F2F51189B243
:10529000B1F5F97FE08301D8052012E0B0F5FA7F7F
:1052A00001D2FF2003E0B0F57A7F05D9012094F800
:1052B0002010084484F8200094F82000FDF72CFB0F
:1052C000012040F2A551C2F200010870B0BD0000FB
:1052D000704700007047000080B540F26050C2F295
:1052E0000000007846F68051C0F6000151F8200019
:1052F000804740F21540C2F20000817A49F69A12C6
:105300000131C1F69912A1FB022303EB8302C37A98
:10531000A1EB4201994208BF80BD827A03238354E6
:10532000817280BD10B540F26854C2F2000420467C
:105330000121FEF7BBFFA079022819D10320A0713B
:1053400040F21540C2F20000817A49F69A1201310A
:10535000C1F69912A1FB022303EB8302C37AA1EBEE
:105360004201994208BF10BD827A022383548172A0
:1053700010BD00007047000010B540F26854C2F242
:10538000000420460121FEF791FFA079022819D1DF
:105390000320A07140F21540C2F20000817A49F664
:1053A0009A120131C1F69912A1FB022303EB830289
:1053B000C37AA1EB4201994208BF10BD827A022351
:1053C0008354817210BD000080B540F2A050C2F23B
:1053D0000000007846F6B451C0F6000151F82000F4
:1053E000804740F21540C2F20000817A49F69A12D5
:1053F0000131C1F69912A1FB022303EB8302C37AA8
:10540000A1EB4201994208BF80BD827A06238354F2
:10541000817280BD10B540F26854C2F2000420468B
:105420000121FEF743FFA079022819D10320A071C2
:1054300040F21540C2F20000817A49F69A12013119
:10544000C1F69912A1FB022303EB8302C37AA1EBFD
:105450004201994208BF10BD827A022383548172AF
:1054600010BD00007047000010B540F26854C2F251
:10547000000420460121FEF719FFA079022819D166
:105480000320A07140F21540C2F20000817A49F673
:105490009A120131C1F69912A1FB022303EB830298
:1054A000C37AA1EB4201994208BF10BD827A022360
:1054B0008354817210BD000080B540F2A550C2F245
:1054C0000000007846F67061C0F6000151F8200037
:1054D000804740F21540C2F20000817A49F69A12E4
:1054E0000131C1F69912A1FB022303EB8302C37AB7
:1054F000A1EB4201994208BF80BD827A0423835404
:10550000817280BD10B540F26854C2F2000420469A
:105510000121FEF7CBFEA079022819D10320A0714A
:1055200040F21540C2F20000817A49F69A12013128
:10553000C1F69912A1FB022303EB8302C37AA1EB0C
:105540004201994208BF10BD827A022383548172BE
:1055500010BD000070470000704700007047000059
:1055600010B540F26854C2F2000420460121FEF753
:105570009DFEA079022819D10320A07140F21540A8
:10558000C2F20000817A49F69A120131C1F69912ED
:10559000A1FB022303EB8302C37AA1EB42019942F0
:1055A00008BF10BD827A01238354817210BD5FEA67
:1055B000400C08BF91F0000F4FEA8C234FEAC12244
:1055C00043EA51514FEA1C5018BF00F5F0404FEA32
:1055D000300018BF41F000415FEA6C5C00F02980A8
:1055E000BCF1FF3F08BF40F080407047130C06BF7E
:1055F00012044FF0100C4FF0000C130E04BF1202F7
:105600000CF1080C130F04BF12010CF1040C930FE2
:1056100004BF92000CF1020CD30F04BF52000CF136
:10562000010C11464FF00002A0F11F00A0EB0C008E
:10563000704711F0004F08BF704731F000413FF450
:10564000D5AF0B0C06BF09044FF0100C4FF0000C47
:105650000B0E04BF09020CF1080C0B0F04BF09016B
:105660000CF1040C8B0F04BF89000CF1020CCB0F62
:1056700004BF49000CF1010CCCF1200322FA03F322
:1056800041EA030102FA0CF2A0EB0C0000F1010068
:105690007047000023F07F4720F07F4C80EA030032
:1056A00000F00040ACEB070303F57C5303F1FF036C
:1056B0002DE9804909B44FEA144324EA03484FEA2C
:1056C000154B25EA0B4E0FF2042606EB13273E7806
:1056D00003FB0667C7F5000707FB06F64FEAD64649
:1056E00006F102064FEA543707FB066CCCF1005C6A
:1056F0004FEA1C472CEA074C0CFB06F507FB06F4A7
:1057000004EB15464FEA961649085FEA320234BFA9
:1057100000204FF000404FEAD13706FB07FC4FEA6C
:105720001C4C0CFB0BF7D21B03FB0CF761EB0701C6
:105730000CFB0EF7B0EB074072EB17420CFB08F7BF
:1057400034BFA2EB0742B2EB074261EB17414FEACD
:105750000C444FEA910706FB07FC4FEA1C4C0CFB7C
:105760000BF7B0EBC74072EB573203FB0CF734BFBB
:10577000A2EBC742B2EBC74261EB57310CFB0EF70D
:10578000B0EBC70072EB57720CFB08F734BFA2EB0B
:10579000C702B2EBC70261EB57714FEA816141EA80
:1057A00092114FEA826242EA90124FEA806004EB63
:1057B000CC04039F4FEAD13706FB07FC4FEA1C4C91
:1057C0000CFB0BF7D21B03FB0CF761EB07010CFB87
:1057D0000EF7B0EB074072EB17420CFB08F734BF33
:1057E000A2EB0742B2EB074261EB17414FEA8C553F
:1057F00004EB9C244FEA910706FB07FC4FEA1C4C84
:105800000CFB0BF7B0EBC74072EB573203FB0CF706
:1058100034BFA2EBC742B2EBC74261EB57310CFB7E
:105820000EF7B0EBC70072EB57720CFB08F734BFF2
:10583000A2EBC702B2EBC70261EB57714FEA81617D
:1058400041EA92114FEA826242EA90124FEA806086
:1058500015EB4C2544F100044FEAD13706FB07FC59
:105860004FEA1C4C0CFB0BF7D21B03FB0CF761EB54
:1058700007010CFB0EF7B0EB074072EB17420CFB75
:1058800008F734BFA2EB0742B2EB074261EB1741C6
:105890004FEA813141EA92414FEA823242EA904234
:1058A0004FEA80304FEA0C7615EB1C1544F10004EA
:1058B00048EA03434EEA0B484FF0000EB2EB080CE7
:1058C00071EB030724BF624639464EEB0E0E4FF0D4
:1058D000000B0018524149414BEB0B0BB2EB080C8B
:1058E00071EB03077BF1000B24BF624639464EEB98
:1058F0000E0E4FF0000B0018524149414BEB0B0BC1
:10590000B2EB080C71EB03077BF1000B24BF62467E
:1059100039464EEB0E0E51EA020718BF46F001065B
:1059200016EB0E7655F1000254F1000103D5BDE8E7
:105930008901BDE80088BDE88901BDE80048B619C5
:10594000524141EB0101A3F10103704780807F7E4A
:105950007D7C7B7A797877767675747372717170E5
:105960006F6E6E6D6C6C6B6A6A6968686766666597
:105970006464636362616160605F5F5E5E5D5D5C25
:105980005C5B5B5A5A595958585757565655555596
:105990005454535352525251515050504F4F4F4EF6
:1059A0004E4D4D4D4C4C4C4B4B4B4A4A4A49494944
:1059B0004848484747474746464645454544444486
:1059C0004443434343424242424141419C46002BAF
:1059D00030D477002BD04FEA37071CB503B44FF013
:1059E00010004FF01001BAF1000F06D0BCF1000F0B
:1059F000DCBF40F0080040F008014FF000000FBC91
:105A0000BDE810400BF1010BBBF1010F08BF5FEACD
:105A1000170722BF12F1010211F101014FF00041FD
:105A200043F1000300F0004043EA00007047F9D35F
:105A30005708D0E746EA06464FEA164613F1400FEC
:105A40001FDD13F1200FDFBF16430A46002120336C
:105A50005B42BED0C3F1200746EA06464FEA16462F
:105A600002FA07F746EA070622FA03F2C3F1200713
:105A700001FA07F742EA070221FA03F14FF00003A7
:105A8000A7E746EA020646EA06464FEA164646EA0F
:105A90000106BCBF46EA0646360C4FF000034FF045
:105AA00000024FF0000194E72DE9804C70B49A4653
:105AB000934691E8380007C831EA400C48BF34EA01
:105AC000430C03D5FFF7E6FDFFF780FFF0BCBDE810
:105AD000008C2DE9804C70B49A46934691E83800CA
