:020000040800F2
:10000000F0080020D5010008353F00083D3A0008FF
:10001000313F00088D120008D9430008000000009D
:100020000000000000000000000000003D3F00084C
:100030009D12000800000000393F00081943000825
:10004000EF010008EF010008EF010008EF010008D0
:10005000EF010008EF010008EF010008EF010008C0
:10006000EF010008EF010008EF01000891120008FD
:10007000EF010008EF010008EF010008EF010008A0
:10008000EF010008EF010008350E0008EF0100083D
:10009000EF010008EF010008EF010008EF01000880
:1000A000B5430008EF010008EF010008C143000854
:1000B000CD430008EF010008EF010008EF01000840
:1000C000EF010008EF010008EF010008EF01000850
:1000D000EF010008EF010008EF010008EF01000840
:1000E000EF010008EF010008EF01000800F002F83E
:1000F00000F060F814A696E8000CB244B344DA4568
:1001000001D100F057F8BAE80F000FA696E83000CA
:10011000A5EB040504EB0607AAEB0704A7F101070A
:100120004FEA15154FEA3414A4F10104AC4201D38F
:1001300000F040F813F0010F18BFFB1A43F0010361
:1001400000F001F8DBE71847585A0000785A000021
:10015000103A24BF78C878C1FAD8520724BF30C8F3
:1001600030C144BF04680C60704700007047000055
:100170000023002400250026103A28BF78C1FBD8B0
:10018000520728BF30C148BF0B607047662905F091
:100190001684642900F08680002070471FB500F0A7
:1001A00097FC04000020002104F024FEE0601FBD45
:1001B00010B510BD00F099FD1146FFF7EFFF04F0F8
:1001C0000DF900F0B7FD03B4FFF7F2FF03BC00F038
:1001D00079FC00000948804709480047FEE7FEE730
:1001E000FEE7FEE7FEE7FEE7FEE7FEE7FEE7FEE7E7
:1001F00004480549054A064B70470000B143000812
:10020000ED000008F0020020F0080020F0040020BB
:10021000F00400200FB41CB50C0007AA009007D012
:100220004142A14202D32044401E01E04FF0FF3082
:10023000074B7B4469460190069800F00CFC0020B7
:10024000002C01D0009908701CBC5DF814FB000064
:100250004708000070B5044685690068C10601D5ED
:10026000302600E02026C00707D070BDD4E9012168
:1002700030469047206A401C20626D1EF6D570BD46
:1002800070B5044685690078C00707D170BDD4E910
:10029000012120209047206A401C20626D1EF6D567
:1002A00070BD00002DE9F041064600241068752954
:1002B000314616A510D0AFF30080002802DA404284
:1002C00013A507E031688A0701D512A502E04907A6
:1002D00004D511A5012401E0AFF3008000210A221A
:1002E00006F1240709E0B0FBF2FCB0FBF2F302FBDD
:1002F0001C00303078541846491C0028F3D123469E
:100300002A463046BDE8F04100F038B90000000050
:100310002D0000002B000000200000002DE9F05F00
:10032000894604464FF0000ADFF824B1FB44C0F8C8
:1003300020A02046E168884700287DD0252806D0E7
:10034000D4E901219047206A401C2062F1E7002592
:100350005F462046E16888472028064607DB312EA5
:1003600005D2B81910F8200C08B10543F1E7A80729
:1003700001D525F00405C4F81CA00027C4F818A076
:100380002A2E09D0304604F007FD38B304EB870865
:10039000303EC8F8186019E059F8041B204604EBF9
:1003A00087029161E1688847012F064618D1E0690C
:1003B000002820DA25F020051DE0D8F8180000EB11
:1003C000800006EB40003038C8F818002046E1688D
:1003D0008847064604F0E0FC0028EED1012F0AD041
:1003E0002E2E08D12046E16888477F1C0646022F42
:1003F00045F02005C4DBA069002803DA404245F03F
:100400000105A061E80701D025F01005A6B1A6F10D
:100410004100192802D8203645F400654A46314685
:10042000204625604D46FFF7B1FE60B1012807D098
:10043000ED1D25F0070000E007E000F1080978E76E
:1004400005F1040975E730467AE7206ABDE8F09FB8
:10045000925600000EB5054614460E4613A000F055
:1004600020FB284600F01DFB16A000F01AFB3046CA
:1004700000F017FB15A000F014FB00218DF80B1005
:100480000A210DF10A008DF80A1008E094FBF1F240
:1004900001FB124294FBF1F4303200F8012D002CE4
:1004A000F4DC00F0FEFA00F0F1FA00002A2A2A201B
:1004B000617373657274696F6E206661696C6564DF
:1004C0003A2000002C2066696C6520002C206C69A5
:1004D0006E65200010B5431C02E010F8011B71B1DD
:1004E0008107FAD14FF0013202C88C1A8C4314EA0A
:1004F000C211F9D0C01A0A0603D0C01E10BDC01A1E
:1005000010BD0A0401D0801E10BD0902FCD0401E9F
:1005100010BD4FF0000200B51346944696462039B0
:1005200022BFA0E80C50A0E80C50B1F12001BFF4AC
:10053000F7AF090728BFA0E80C5048BF0CC05DF812
:1005400004EB890028BF40F8042B08BF704748BF60
:1005500020F8022B11F0804F18BF00F8012B7047D4
:1005600070477047704710B500F0B6FA006810BDCC
:1005700010B5044600F0B0FA046010BD2DE9F04754
:100580000D4699469246044600F124080168880603
:1005900004D5E06921F01001216000E00120A842AB
:1005A00001DD471B00E00027A1697A1902EB090071
:1005B000081AA0612078C00602D42046FFF74AFE40
:1005C000002608E0D4E901211AF806009047206AC5
:1005D000401C761C20624E45F4DB2078C0060AD50C
:1005E0002046FFF737FE06E0D4E90121302090478E
:1005F000206A401C2062381EA7F10107F4DC07E0E6
:10060000D4E9012118F805009047206A401C2062B7
:10061000281EA5F10105F3DC2046FFF731FE207806
:10062000000602D50220BDE8F0870120FBE72DE996
:10063000FF4F0C461E464FF0FF378BB0D2E900014A
:10064000DDF860800A908A46C1F30A5505B93D4637
:10065000002108464FF00000BAF1000F00F44000FE
:1006600005DA00EB80004FF4400101EA50004FEA48
:100670009059B9F1010F00DDB9460A9850EA4A00D5
:100680000ED044F61050A5F2FF3545432F14B8F1B3
:10069000000F1ED07542291E1EDDC9F100021CE0AC
:1006A000B8F1010F4FF0000001D0302103E0F24318
:1006B00005E02154401CB042FBDB30460022002103
:1006C00021540B99C1F80880C1E900200FB0BDE8A2
:1006D000F08FBD1B6D1CDEE74A4600DA694206A8B2
:1006E00000F084FA06AB93E8070003AB83E8070049
:1006F00050460A9903F073FF8DE80700A0F50050FB
:100700001F3800900398002D0ADD42F21F014A466F
:100710000844002303A90390684604F0DDF909E0CA
:10072000A0F500504A461F38002303A903906846ED
:1007300004F0E7F98DE807000004000C03D04FF047
:10074000FF30410800E01046B8F1000F03D000224E
:10075000009215461EE0751E05D400F0C1F9303236
:1007600062556D1EF9D5B3460122084302D000221E
:100770007F1C04E02078302801D100227F1E002A4F
:10078000099784D01DE0112D07DA00F0A9F9303265
:1007900062556D1C50EA0102F5D1084302D0009861
:1007A000C8B10EE00021681E05E0235C625C635462
:1007B0002254401E491C8142F7DBAB46A81B401E59
:1007C0000990002004F80B000B98099AC0F80880E3
:1007D000C0E9002B7AE711264FF0000857E72DE912
:1007E000F04F88460446D21D22F0070191B0D1E9AE
:1007F0000001CDE90A0104F0BBFA02460B98C00FD4
:1008000001D02D2007E02068810701D52B2002E0D0
:10081000202101EAC000032A099001D0072A05DB44
:1008200003464146204600F0A1F90BE120788006FE
:1008300001D5E06900E00620B8F1650F814606D0D9
:10084000B8F1660F18D0B8F1670F70D131E0002011
:10085000B9F1110F009001DB112301E009F101034F
:100860000AAA01A90CA8FFF7E2FEDDE90C70002638
:1008700009F10105834647E001204B4600904FF007
:1008800000470AAA01A90CA8FFF7D1FEDDE90DB0C7
:100890000C995D46002610B909F101000D18B9EB5D
:1008A000050003D4C0F1FF3609F10105A5EB0900ED
:1008B0002BE0B9F1010F01DA4FF001090020B9F185
:1008C000110F0090484601DD112300E003460AAAFB
:1008D00001A90CA8FFF7ABFEDDE90C704D46002620
:1008E0008346207800070AD4AB4500DA5D4601A8AC
:1008F000012D04DD411911F8011C302907D04F45A5
:1009000002DA17F1040F04DA012082460FE06D1EAF
:10091000EEE7002F02DCED1B3E4403E0781CA8420A
:1009200000DD7D1CB81B00F1010A4FF00047207864
:10093000000703D4AA4501DB4FF0FF3A0021B7F1CD
:10094000004F0DF143088DF8431024D002202B23D3
:10095000002F01DA7F422D230A21021EA0F101009F
:1009600000DC5FB197FBF1FC97FBF1F201FB1C7C13
:1009700017460CF1300C08F801CDEEE7A8F10100A4
:1009800003702188090501D5452100E06521A0F10A
:10099000010800F8011C09980FA9A1EB0807FF1D29
:1009A00000B10120411901EBEA70A1693844081A2D
:1009B000401EA0612078C00602D42046FFF74AFC02
:1009C000099828B1D4E901219047206A401C20628F
:1009D0002078C00622D52046FFF73CFC1EE0002E02
:1009E00004DBB34502DD01A8805D00E03020D4E9DE
:1009F00001219047206A401C2062761CAAF1010068
:100A00005FEA000A0AD100F063F8C0680168405C40
:100A1000D4E901219047206A401C2062281EA5F1DC
:100A20000105DCDC07E0D4E9012118F8010B90474F
:100A3000206A401C2062381EA7F10107F3DC204623
:100A4000FFF71EFC032011B041E6000001694A1CBB
:100A500002610878704700B58FB0CDE901310021FF
:100A6000059105497944CDE9031011466846FFF721
:100A700055FC0FB000BD0000E5FFFFFFD1E90023EA
:100A80009A4202D2531C0B601070704710B50020C0
:100A900000F01EF9FFF78CFBBDE81040012000F0CC
:100AA00011B810B5044602E0641C00F004F8207888
:100AB0000028F9D110BD08B569468DF80000032063
:100AC000ABBE08BD01491820ABBEFEE72600020000
:100AD0000048704758000020004870473800002048
:100AE00030B5B0F10A0271F100034FEA900E4EEA00
:100AF000817EB0EB0E0061EB91014FEA101E4EEAD1
:100B0000017E10EB0E0041EB11114FEA102E4EEA60
:100B1000016E10EB0E0041EB11214FEA104E4EEA30
:100B2000014E10EB0E0041EB1141401841F1000164
:100B30004FEAD00040EA41704FEAD1014FEA810408
:100B400044EA907410EB800544EB01046D1944EB0A
:100B50000404521BA3414FF0000348BF0A3200D5E2
:100B600030BD401C41F1000130BD00002DE9F041D5
:100B70001F46044603260168072A01F4006004DBCF
:100B800008B116A505E016A503E008B115A500E01B
:100B900015A521F010002060A069C01EA0610FB152
:100BA000401EA0612046FFF755FB4FB1D4E901215B
:100BB00038469047206A401C2062C01C206206E034
:100BC000206AFAE7D4E9012115F8010B9047761E57
:100BD000F8D22046FFF754FBBDE8F0814E414E00AD
:100BE0006E616E00494E4600696E66002DE9F04761
:100BF000814616468AB0354878440DC88DE80D0008
:100C000032487844801C03AC0DC884E80D0041F6DE
:100C10009B300844372190FBF1F290FBF1F5A5F1F0
:100C2000800501FB12041B3C02D56442012000E058
:100C30000020DFF898A080460027FA44AAF1BE0AF7
:100C40000EE0E0070AD03246684607EB4701012371
:100C50000AEB810103F055FF8DE8070064107F1C4B
:100C6000002CEED1194F7F44AE3F19E0E80715D0B4
:100C700007EB04100DF1180A90E80E008AE80E0048
:100C8000C068F04201D1981908903246012306A9A4
:100C900003A803F036FF03AB83E807006D10641C64
:100CA000002DE3D14FF0010332466946B8F1000F41
:100CB00003A802D003F010FF01E003F022FFC9E90E
:100CC0000001C9F808200AB0BDE8F087544E0000C2
:100CD00010B500F03DF8BDE8104000F034B8000059
:100CE000004870473800002070477546FFF7F8FF4E
:100CF000AE4605006946534620F00700854618B009
:100D000020B5FFF775FABDE820404FF000064FF020
:100D100000074FF000084FF0000BAC46ACE8C009EC
:100D2000ACE8C009ACE8C009ACE8C00921F0070193
:100D30008D46704710B50446AFF300802046BDE8ED
:100D40001040FFF740BA002801D0FFF7BBBE704744
:100D500010B5002102A000F053F8012010BD0000E2
:100D6000534947414252543A2041626E6F726D615D
:100D70006C207465726D696E6174696F6E0000003D
:100D80004FF0013C50F8042B51F8043B9A4221D11A
:100D9000A2EB0C03934313EACC1317D150F8042BA6
:100DA00051F8043B9A4215D1A2EB0C03934313EA8A
:100DB000CC130BD150F8042B51F8043B9A4209D1C3
:100DC000A2EB0C03934313EACC13DBD04FF00000EB
:100DD000704700BFD01A01BAB1FA81F101F01801D1
:100DE00022FA01F0CB40DBB2C0B2C01AC1F120013F
:100DF0002CFA01F3D11A914311EAC311E6D17047DD
:100E000070B505460C460A2000E06D1CFFF753FE46
:100E100035B128780028F8D102E0641CFFF74BFEBA
:100E200014B120780028F8D1BDE870400A20FFF7FF
:100E300042BE000040F2B810C2F2000000F020BD37
:100E4000B0B5044600688168C90709D0816821F0FF
:100E50000101816001F03EFA21688968C90701D16A
:100E60000020B0BD054603E020688068C007F7D0C9
:100E700001F030FA401B0328F6D320688068C007D1
:100E8000F2D0A06A40F01000A062E06A40F00100D9
:100E9000E0620120B0BD00000146406A826A12F0A3
:100EA000500F03D0006A026B084610470168826A3F
:100EB00042F400728262896801F46021B1F5602F0A
:100EC00001D1017B09B100F0B5BC816A21F48071C8
:100ED0008162816AC90448BF00F0ACBC816A41F0FC
:100EE0000101816200F0A6BC406A816A41F04001C4
:100EF0008162C16A41F00401C16200F0BFBC000020
:100F0000406A00F0B9BC0000B0B582B004460020D1
:100F1000019021688A68D2073AD1886840F00100C0
:100F2000886040F20000C2F2000000684DF6836164
:100F3000C4F21B31A0FB0101880C00BF0190019895
:100F400010B101980138F9E701F0C4F92168896806
:100F5000C9071CD1054603E020688068C00716D188
:100F600001F0B8F9401B0328F6D320688068C00759
:100F7000F2D1A06A40F01000A062E06A40F00100E7
:100F8000E062002084F82400012002B0B0BD0020FF
:100F900002B0B0BD7047000040F2B810C2F20000CD
:100FA000006840F268118068C2F2000100F4E0407D
:100FB000086040F27410C2F2000001210170704715
:100FC00080B540F2C020C2F20000007845F68221D0
:100FD000C0F6000111F800C0BCF1000F16D040F2BD
:100FE0007A10C2F20000811E40F27810C2F20000B6
:100FF000B0F800E00022604631F8023F0138A3EB70
:101000000E0303FB0322F7D190B200E00020ACF105
:10101000010190FBF1F003F04BFF03F0C4FE00234D
:10102000C4F20803002204F0A9F9002840F2741069
:101030004FF00601C2F2000018BF0221017080BD0E
:1010400080B540F2C020C2F20000007845F682214F
:10105000C0F6000111F800C0BCF1000F0CD040F246
:101060007A11C2F200018A1E0021634632F8020F93
:10107000013B0144FAD100E00021B1FBFCF004F097
:10108000E1FA4FF07C5104F009F904F0BFFA40F2A4
:101090007811C2F20001088040F27410C2F2000020
:1010A0000521017080BD0000B0B540F2681040F22B
:1010B000B814C2F20000C2F200040568204600F035
:1010C000DDFA204600F044FE204600F0FBFD2068DB
:1010D000816821F4E04129438160806800F4E040A8
:1010E000A84218BFB0BD40F27410C2F2000008213F
:1010F0000170B0BD10B540F27310C2F2000001786B
:1011000040F2AC14C2F2000489B10021017040F237
:10111000B810C2F20000012100F042FA218840F22A
:101120007A12C2F2000222F81100481C208040F21C
:10113000C021C2F20001097845F68222C0F6000201
:101140002088515C884207D240F2B810C2F20000F9
:10115000BDE8104000F038BA40F2B810C2F200000A
:1011600000F08CFA002818BF10BD0020208040F24B
:101170007410C2F200000421017010BD40F278101A
:10118000C2F200000088A0F2A66189B2B1F5704FEA
:1011900016D940F2B811C2F2000191F82420012AB8
:1011A00008BF704700F65A100A6880B250620020EB
:1011B00081F8240040F27410C2F20000072101708F
:1011C0007047000010B540F2B814C2F20004204687
:1011D00000F054FA204600F0BBFD204600F072FDFE
:1011E0002068816841F4E0418160806800F4E0405B
:1011F000B0F5E04F18BF10BD40F27410C2F200000D
:101200000221017010BD000080B540F2B810C2F29A
:10121000000000F0D9F9002818BF80BD40F274101A
:10122000C2F200000321017080BD000010B540F241
:101230007414C2F20004207840F20C01C2F20001E2
:1012400051F82000804720780738B0FA80F0400934
:1012500010BD0000002804BF0020704780B540F298
:101260007811C2F200010988401A80B204F0EAF94C
:1012700043F23331C4F2530104F060FA4CF6CE412C
:10128000C4F2234104F0CCF880BD0000FEE700006A
:1012900040F2E810C2F2000000F0D0BD704700003C
:1012A000EFF3108072B600BFFEE7000070B582B0A9
:1012B00004460020019094F82400012801D1022561
:1012C00066E0012084F824002046FFF7B9FD20469F
:1012D000FFF71AFE0546002857D1A06A41F2021115
:1012E00088430230A06240F20000C2F200000668AB
:1012F000022001F0F1F8B6FBF0F0400001900198F7
:1013000010B101980138F9E72068816841F00801BF
:10131000816000F0DFFF21688A6812070DD48868B9
:1013200040F00400886000F0D5FF21688968490713
:1013300014D401206FF0030123E0064604E000BF4F
:10134000216888680007EAD500F0C4FF801B0B28DD
:10135000F6D3206880680007F2D50EE0064603E069
:10136000206880684007E4D500F0B4FF801B0B289C
:10137000F6D3206880684007F2D5012510206FF071
:101380001201A26A11400843A062002084F82400E0
:10139000284602B070BD0000F0B581B00022009276
:1013A00090F82420012A02D14FF0020CD3E0836888
:1013B0004C68012280F82420B3B1D1F810E0026813
:1013C000B4EB0E0404EB8404D2F838C004F10F042B
:1013D0004FF01F0303FA04F32CEA030323F4401C29
:1013E0000DD9C2F838C015E0012C40F08B8002689E
:1013F000936B0C686FF3150343EAC43309E00023D1
:101400000D68CFF6F07303EB0E53A5402B4343EA70
:101410000C0393634FF0000C03689A68D20706D15F
:101420009A6847F201058C69AA4322439A6091F8B1
:1014300015E0BEF1010F10D18D6900F12804B5F55A
:10144000E04F4FF0200514BF4FF0010C1C1D08BFEA
:101450004FF4806522682A4322600A7D012A0ED15A
:1014600000F128022025BEF1000F14BF4FF0010C3F
:101470001A1D08BF4FF48055146825431560D1F834
:1014800000E010240EEB4E02BEF1090F88BF1E3A99
:1014900088BF0C241D5907268F689640B54307FA6C
:1014A00002F215432EF00102102A1D5103D19C684F
:1014B00044F400049C604C68032C08D0022C09D032
:1014C000012C14BF03F1200403F1140404E003F120
:1014D0001C0401E003F11804256840F6FF76C96892
:1014E000B5432943102A216032D142F20041C4F2AF
:1014F00001018B420DD0816A4FF0010C41F02001B7
:10150000816225E0826A4FF0010C42F02002826283
:1015100082E7896809021BD49968BEF1100F41F473
:101520000001996014D140F20001C2F20001096883
:101530004DF68362C4F21B32A1FB0212910C01EB47
:10154000810149000091009911B100990139F9E731
:10155000002180F82410604601B0F0BD006842F21E
:101560000041C4F20101884200D0704740F2C0211E
:10157000C2F2000140F2AC10097845F68222C2F2B4
:101580000000C0F600020088515C884228BF704706
:1015900040F27310C2F20000012101707047000098
:1015A000022908D003290AD00068042914BF3C305E
:1015B0004830006870470068403000687047006835
:1015C000443000687047000010B5044690F82400CD
:1015D000012804BF022010BD012084F82400204609
:1015E000FFF792FC18B1002184F8241010BD42F2DC
:1015F000044C2168A26AC4F2010C43F201039A432D
:101600000CF57F7302F580529942A26203D0A26A60
:1016100022F4801207E0DCF8002012F4702FF6D0DC
:10162000A26A42F48012A262A26AD2055CBF0022C2
:10163000E262002284F824206FF004020A604A6803
:1016400042F080024A604A68520548BF10BD8A686D
:1016500002F4E042B2F5E04F06D1994209D1DCF83C
:10166000002012F4702F04D08A6842F400428A608D
:1016700010BD8A6842F402128A6010BD10B504469B
:1016800090F82400012804BF022010BD012084F836
:101690002400A06AC00512D42068406840050ED41A
:1016A0002046FFF7CDFB78B921684A6822F0800216
:1016B0004A60A16A41F201129143013103E0A06A3C
:1016C00040F020010120A162002184F8241010BD07
:1016D00090F82420012A04BF02207047B0B50268A8
:1016E00091F808C05368BCF1010F23F0400308BF14
:1016F00040335360D2F804E04FF6E05CCFF63F7C15
:10170000D1E900350EEA0C0423432B435360CB6828
:10171000536209699162002180F82410BDE8B0404D
:1017200008467047B0B581B00022009290F824209E
:10173000012A01D1022179E04A680123062A02EB3D
:10174000820C80F8243005D8026802F1340E6FF064
:1017500004020AE003680C2A87BF03F12C0E6FF025
:10176000400203F1300E6FF022026244DEF800C046
:101770001F230C6893402CEA030304FA02F21A4375
:10178000CEF80020D1F800E002680EEB4E041023E2
:10179000BEF1090F88BF1E3C88BF0C2352F803C05E
:1017A00007258968A5402CEA0505A1402943D150A9
:1017B0002EF001014FF0000C10294FF0000133D141
:1017C000016842F20042C4F20102914205D0816AEE
:1017D00041F020018162012126E09268120222D4A8
:1017E0008A68BEF1100F42F400028A601BD140F2F9
:1017F0000001C2F2000109684DF68362C4F21B3297
:10180000A1FB0212910C01EB8101490000910099AA
:1018100049B100BF009901390091009900294FF0AA
:101820000001F7D100E0002180F824C0084601B093
:10183000B0BD000040F2B811C2F2000100680968B2
:10184000884200D0704740F2C021C2F2000140F24D
:10185000B010097845F68222C2F20000C0F60002FC
:101860000088515C884228BF704740F27210C2F273
:1018700000000121017070477047000070470000B0
:1018800070B50446006805684668B10627D515F0AE
:10189000020124D0A16AC90603D4A16A41F40071EF
:1018A000A162816801F46021B1F5602F10D1217B24
:1018B00071B9416821F020014160A06A20F4807074
:1018C000A062A06AC00403D4A06A40F00100A06234
:1018D0002046FFF7AFFF20686FF01201016030066D
:1018E00033D515F0040030D0A06AC00603D4A06A36
:1018F00040F40050A0622068816801F4E041B1F535
:10190000E04F0FD1416821F080014160A06A20F4CE
:101910008050A062A06AC00510D4A06A40F0010007
:10192000A0620BE04168490508D4816801F4602198
:10193000B1F5602F02D1217B0029E3D02046FFF7CB
:101940000DFE20686FF00C01016070060ED515F0D9
:10195000010008BF70BDA06A40F48030A06220463C
:1019600000F0B6F820686FF00101016070BD000062
:10197000002804BF01207047B0B50446806A30B922
:101980000020E06284F82400204600F0A3F82068DC
:101990008168C90709D0816821F00101816000F0E8
:1019A00099FC21688968C90730D100200121A36A08
:1019B000A26A31B313F0100123D141F2021122EADD
:1019C00001010231A162E169D4E9013241EA030C6B
:1019D000531EB3FA83F35D091346B2F5807F18BF37
:1019E0002B02217D257B01294CEA450E31D13DB3E7
:1019F000A56A45F02005A562E56A45F00105E562A6
:101A000027E042F01000A0620120B0BD054603E0CF
:101A100020688068C007C8D000F05CFC401B032829
:101A2000F6D320688068C007F2D0A06A002140F099
:101A30001000A062E06A40F00100E0620120B6E719
:101A4000D4F818C04EF60005CFF6FF7505EB4C35FF
:101A50002B432568B2F5807F696821F4694141EA2A
:101A600003016960A9684FF2FD73CFF6E17301EAE3
:101A7000030141EA0E01A96001D0012A06D12169C2
:101A80000022CFF6F07202EB015200E00022E96A78
:101A900021F470011143E962A96840F6FE62CFF6B5
:101AA0001F721140714507D10021E162A16A012234
:101AB00062F30101A162B0BDA06A40F0100020F005
:101AC0000200A062E06A40F00100E0620120B0BDC7
:101AD0007047000070B586B0044640F60000C4F2BE
:101AE0000100216800F5E052002691420596CDE9FB
:101AF0000366029601D006B070BD41F21801C4F22F
:101B000002010A6842F400720A600A6802F4007274
:101B10000192019A0A6842F004020A60096801F021
:101B20000401019101990F2102910321039102A95E
:101B300000F0CAFA40F2E8150820C2F20005C4F22B
:101B400002004FF48072C5E9000605F11000802103
:101B50004FF480634FF0200C4FF4805E80E80C500F
:101B60002846C5E9026100F01DFA002818BFFFF7FA
:101B700097FB12200021002225626C6200F02CFCF1
:101B8000122000F019FC06B070BD00002DE9F041F4
:101B90000546006842F60006C4F201069046B042CF
:101BA0000F4605D042F20041C4F2010188420AD139
:101BB00042F20440C4F20100006810F4702F1CBF10
:101BC0000120BDE8F08195F82400012804BF02201F
:101BD000BDE8F081012085F824002846FFF794F93C
:101BE000044628B1002085F824002046BDE8F08195
:101BF00042F204402968AA6AC4F2010040F6017367
:101C00009A4300F57F7302F580729942AA6207D069
:101C1000A86A20F48010A8624868400513D417E031
:101C2000026812F4702FF3D0AA6AB14242F4801213
:101C3000AA6205D042F20042C4F20102914207D1E9
:101C40000068400504D5A86A012262F30D30A8623D
:101C5000AA6A0020D2044FF0000244BFEA6A22F0D0
:101C60000602EA6285F82400286A40F69962C0F606
:101C7000000240F6017340F6E96600F1280CC0F658
:101C80000003C0F600068CE84C006FF002020A6008
:101C90008A68434642F480728A604C313A4600F0CA
:101CA000C5F92868816801F460228168B2F5602F67
:101CB0000CBF41F4A00141F4801181602046BDE8D1
:101CC000F0810000B0B5044690F82400012804BF5C
:101CD0000220B0BD0121206884F824108268D20758
:101CE00002D1002069B912E0816821F00101816010
:101CF00000F0F0FA21688968C9070CD100200121A1
:101D000029B1A16A41F2011291430131A16200217E
:101D100084F82410B0BD054604E000BF2068806848
:101D2000C007EBD000F0D6FA401B0328F6D320689A
:101D30008068C007F2D0A06A002140F01000A062C5
:101D4000E06A40F00100E06201200029D9D1DEE71D
:101D5000B0B5044690F82400012804BF0220B0BDAD
:101D60000121206884F824108268D20702D1002063
:101D700041BB3FE0816821F00101816000F0AAFAD7
:101D800021688968C90703D100200121D1B931E058
:101D9000054603E020688068C007F5D000F09AFA95
:101DA000401B0328F6D320688068C007F2D0A06AE1
:101DB000002140F01000A062E06A40F00100E06203
:101DC0000120B9B12268216A936823F4807393607B
:101DD00091F82120022A0DD1084600F00FF8A16ADF
:101DE00041F2011221EA020241F04001002808BF3D
:101DF000511CA162002184F82410B0BD014690F866
:101E00002100022813D10868D1E90FC3026822F02B
:101E10000E020260026822F001020260012000FA54
:101E200003F2CCF8042081F82100002002E0042015
:101E300088630120002281F82020704710B5D0E986
:101E40000FCE0168DCF800300A6823FA0EF35C0755
:101E500024D512F0040421D00A68920603D40A683B
:101E600022F004020A602F22C4F20202914240F2E0
:101E70000402C4F202024FDD3023C4F2020399428D
:101E800062D04423C4F20203994260D05823C4F2C2
:101E90000203994260D14FF4802365E09C0727D567
:101EA00012F0020424D00A68920606D40A6822F0CE
:101EB0000A020A60012280F821202F22C4F20202C5
:101EC000914240F20402C4F2020231DD3023C4F236
:101ED000020399424ED04423C4F2020399424CD0EB
:101EE0005823C4F2020399424CD14FF4003351E01D
:101EF0001B0756D512F0080208BF10BD0A6822F071
:101F00000E020A60012101FA0EF2CCF8042081636E
:101F100080F82110016B3FE00823C4F202039942CC
:101F200018D01C23C4F20203994215D140231BE0B0
:101F30000823C4F20203994222D01C23C4F20203F4
:101F400099421FD1202325E04FF480630CE04FF429
:101F5000804309E0042307E002F168044FF0806346
:101F6000A14208BF4FF480031360C16AC9B1BDE844
:101F7000104008474FF400730CE04FF4005309E0A1
:101F8000022307E002F168044FF00073A14208BF8A
:101F90004FF400131360816A0022002980F820208A
:101FA000E5D110BD014600284FF0010008BF704781
:101FB0002DE9F0470A684FF6F873CBF6FD7302EB94
:101FC000030C4CF6CD43CCF6CC43ACFB033C6FF09A
:101FD0000307002607EA9C07C4F2020601F10C0A77
:101FE000C1E90F670227D1E9013E9AE83004D1E93F
:101FF000069881F82170176843F6F076B7433B43A3
:1020000043EA0E0323432B4343EA0A0343EA09034B
:1020100043EA0803136000228A6381F8210081F8F3
:1020200020200020BDE8F0477047000090F820C055
:10203000BCF1010F04BF02207047F0B54FF0010E54
:1020400080F820E090F821C0BCF1010F23D14FF0BF
:10205000020C80F821C04FF0000CC0F838C0D0E965
:1020600000C4C56AC66BDCF80070102C27F00107AD
:10207000CCF80070006C0EFA00F070600846CCF8E6
:10208000043004BF10460A46CCF80800CCF80C20F7
:1020900035B10E200BE0002180F820100220F0BDA9
:1020A000DCF8000020F00400CCF800000A20DCF886
:1020B00000100843CCF80000DCF8000040F00100FC
:1020C000CCF800000020F0BD2DE9F04F82B00E6882
:1020D000002E00F0F68041F20042C4F20102042317
:1020E00040F2004E904208BF03234FF6FF7CC4F23B
:1020F000010E009300240123C1F2100C4FF0000ADE
:102100004FF0000943E0012704F00C030F229A402E
:102110002BEA020207FA03F34FEA9A051A4346F83C
:1021200025204E6840F20C45F202DEF8082054BF2C
:1021300022EA080242EA0802C4F20105CEF80820A9
:102140002A68B30254BF22EA080242EA08022A605F
:10215000B303DEF8042054BF22EA080242EA080270
:10216000F303CEF80420DEF800204FF0010354BF43
:1021700022EA080242EA0802CEF800200E680AF1BC
:10218000010A36FA0AF204F1040400F09A8003FA14
:102190000AFB16EA0B08F1D04E68664510DC122ED9
:1021A00050D8DFE806F0330A41454F4F4F4F4F4FAD
:1021B0004F4F4F4F4F4F4F484C00D1F80C9041E0DC
:1021C0004FF6FF72C1F2210296420FDC0022C1F2EB
:1021D000110296421AD00022C1F21202964215D084
:1021E0000022C1F22102964210D02BE00022C1F25F
:1021F000220296420AD00022C1F23102964205D054
:102200000022C1F2320296421CD100BF8A6842B15C
:10221000012A14BFC0F814B0C0F810B04FF008097C
:1022200010E04FF004090DE0CA6802F1080909E066
:102230004FF0000906E0CA6802F1040902E0CA682A
:1022400002F10C0922460646B8F5807F24BF203AE9
:10225000043637680F25954027EA050509FA02F28A
:102260002A433260CA79D2067FF588AF41F218035B
:10227000C4F202031A68AEF57E7642F001021A60DB
:102280001A6802F001020192019A2AF0030256F83C
:1022900002B040F60002C4F2010290420FD040F6B4
:1022A0000042C4F2010290423FF42DAF41F200021D
:1022B000C4F20102009F904208BF022724E70027D2
:1022C00022E702B0BDE8F08F002A08BF09040161CF
:1022D0007047000040F2EC20C2F200000068704736
:1022E00040F2310040F2EC21C2F20000C2F20001E3
:1022F00000780A68104408607047000080B542F218
:102300000000C4F20200016841F0100101600320E6
:1023100000F08EF80F2000F005F800F02BF80020F8
:1023200080BD0000B0B540F23102C2F2000240F2BE
:1023300000011278C2F200014FF47A730968B3FB0E
:10234000F2F20446B1FBF2F1084600F055FC0F2C06
:102350004FF001050CD858B94FF0FF30214600224C
:10236000002500F039F840F23400C2F200000460A9
:102370002846B0BD82B041F21800C4F202000168E4
:10238000022241F001010160016801F001010191A7
:102390000199416841F080514160406800F08050EF
:1023A000009000980420C4F20100016862F31A61F1
:1023B000016002B070470000002848BF704700F07D
:1023C0001F01012202FA01F14EF200124009CEF281
:1023D000000242F82010704710B54EF60C5CCEF2A9
:1023E000000CDCF80030C3F3022E8EF00704042C3E
:1023F00028BF0424BEF103034FF0FF3E0EFA04F49D
:1024000038BF0023A14399400EFA03F39A431143C6
:1024100000F1604200F00F03090102F56442043B41
:102420006344002848BF03F10C02117010BD000086
:102430004EF60C51CEF200010A684FF6FF031A4027
:1024400060F30A2242F0806040F0FD70086070473F
:102450004AF200214000C0F24A41B1FBF0F040F2E4
:102460002C21C2F200010A68431E4008D362CB60EF
:10247000506390637047000040F22C21C2F20001CB
:1024800009684A6C22F0FF0210444864704700005B
:1024900010B540F22C24C2F20004206800214162F1
:1024A000204601F011FA2046002100F025FC2046CC
:1024B000042101F009FA20460421BDE8104000F093
:1024C0001BBC000040F22C20C2F200000068016832
:1024D00041F001010160704701280ED0022837D079
:1024E000102808D141F20401C4F202010A6851F82F
:1024F000040CC0013ED40020704741F20400C4F235
:102500000200C16940F202320A40B2F5817F04BF85
:102510004FF40040704701F44071B1F5407F0FD097
:10252000B1F5007F1CBF00207047026A920744BFCC
:1025300049F640407047B1F5407F1CBF002070470E
:1025400050F8040C4FF22441800301EAE070704718
:1025500080B500F09DF941F20401C4F2020109685E
:102560000222C1F3813102EB4101B0FBF1F0BDE881
:1025700080407047C2F3834011A3185CD20305D496
:1025800040F60012C0F23D0250430BE00A6810A36F
:10259000C2F340429A5C41F20023C0F27A03B3FBDB
:1025A000F2F250430968490248BF70474AF6AB212E
:1025B0004000CAF6AA21A0FB01014808704700BFED
:1025C00002030405060708090A0B0C0D0E0F101074
:1025D000010200002DE9F04182B00446007841F28A
:1025E0001C06C007C4F202064AD030685FEAC00881
:1025F00008D4306840F080503060306800F080507F
:102600000190019847F20007C4F200073868C0053E
:1026100012D4386840F480703860FFF75BFE0546DE
:102620003868C00508D4FFF755FE401B6428F7D969
:10263000032002B0BDE8F081706810F4407012D041
:10264000616801F4407188420DD0706840F24042E8
:10265000C4F24222012320F4407113600023C0071A
:102660001360716025D17068616820F44070084380
:10267000B8F1000F706003D4306820F080503060F3
:102680002068810707D556F8181CA26821F440413C
:10269000114346F8181CC00607D556F8180CE16817
:1026A00020F48000084346F8180C002002B0BDE872
:1026B000F081FFF70FFE054641F28837706880070A
:1026C000D1D4FFF707FE401BB8424FF00300F5D905
:1026D000ECE70000002804BF012070472DE9F0431B
:1026E00081B042F20008C4F202080446D8F80000A3
:1026F0000D4600F0070088420CD2D8F8000020F008
:1027000007002843C8F80000D8F8000000F00700D0
:10271000A8426BD1206841F204098107C4F2020982
:1027200017D5410705D5D9F8001041F4E061C9F883
:102730000010010705D5D9F8001041F46051C9F81F
:102740000010D9F80010A26821F0F0011143C9F877
:102750000010C00741D1D8F8000000F00700A842DF
:102760000CD9D8F8000020F007002843C8F8000072
:10277000D8F8000000F00700A84237D120684107D0
:1027800007D5D9F80010E26821F4E0611143C9F8D7
:102790000010000708D5D9F80000216920F4605026
:1027A00040EAC100C9F80000D9F8002002F00C008E
:1027B000082841F20020C0F27A004DD145F68A2364
:1027C000C2F38341C0F60003595CD20338D440F60B
:1027D0000010C0F23D0048433EE06068022809D086
:1027E000012828D159F8041C890307D4012001B01D
:1027F000BDE8F08359F8041C8901F7D5D9F8001019
:1028000021F003010843C9F80000FFF763FD064605
:1028100041F28837D9F80000616800F00C00B0EB95
:10282000810F98D0FFF756FD801BB842F2D90320E4
:1028300001B0BDE8F08359F8041C8907D6D5DDE75F
:10284000D9F8002045F68023C2F34042C0F60003C9
:102850009A5C4843B0FBF2F0D9F8001045F66822C4
:10286000C1F30311C0F60002515C40F2000220FAED
:1028700001F140F23400C2F200000068C2F200022E
:102880001160FFF74FFD002001B0BDE8F0830000AC
:1028900040F2000041F20401C2F20000C4F2020161
:1028A0000068096845F67822C1F3C221C0F600022B
:1028B000515CC84070470000002804BF01207047E9
:1028C0002DE9F04182B00446007841F20006C007CD
:1028D000C4F2020649D0706800F00C00042809D147
:1028E0003068800341D5606800283ED1012002B0E5
:1028F000BDE8F081706800F00C00082802D1706813
:10290000C003EDD465682DB1B5F5A02F0AD0B5F59B
:10291000803F0BD0306820F480303060306820F485
:10292000802006E0306840F480203060306840F459
:1029300080303060FFF7CEFC002D054612D000BF7E
:102940003068800311D4FFF7C5FC401B6428F7D919
:1029500018E100BFFFF7BEFC401B64284FF00300E6
:1029600000F2D88030688003F4D42078800719D52D
:10297000706810F00C0F07D0706800F00C00082889
:1029800027D17068C00324D43068800703D520693C
:10299000012840F0A6803068616920F0F80040EA24
:1029A000C1003060207800074ED5A06938B3002000
:1029B000C4F242200121C0F88014FFF78BFC0546C9
:1029C000706A80072DD4FFF785FC401B0228F7D9D9
:1029D000D8E02069002840F20000C4F2422000F054
:1029E000A88001210160FFF775FC0546306880076B
:1029F000D1D4FFF76FFC401B0228F7D9C2E00020BA
:102A0000C4F242200021C0F88014FFF763FC0546A1
:102A1000706A800718D5FFF75DFC401B0228F7D9C4
:102A2000B0E040F20000C2F20000006844F6D3516A
:102A3000C1F26201A0FB0101480A019000BF0198A8
:102A4000411E00280191F9D12078400717D4E5698B
:102A50008DB1706800F00C00082846D1012D40D0DF
:102A60007068216A00F480328A423AD1616A00F4C7
:102A70007010884235D1002002B0BDE8F081F069C5
:102A80005FEAC00808D4F06940F08050F061F06956
:102A900000F080500090009847F20007C4F2000751
:102AA0003868C0050FD4386840F480703860FFF78C
:102AB00011FC05463868C00505D4FFF70BFC401B28
:102AC0006428F7D95EE0E5681DB1052D42D0012DDF
:102AD00044D0306A20F001003062306A20F00400F7
:102AE0003FE0012002B0BDE8F0810027C4F2422798
:102AF00000203866FFF7EEFB022D05460ED100BF21
:102B00003068800155D5FFF7E5FB401B02284FF0E8
:102B10000300F5D902B0BDE8F08100BF3068800144
:102B2000A9D5FFF7D7FB401B02284FF00300F5D9CA
:102B3000F0E700210160FFF7CDFB05463068800714
:102B40007FF530AFFFF7C6FB401B02284FF00300B4
:102B5000F4D9DFE7306A40F004003062306A40F0B8
:102B600001003062FFF7B6FB002D054641F28837C1
:102B700013D000BF306A800712D4FFF7ABFB401BB5
:102B8000B842F7D9032002B0BDE8F081FFF7A2FBFD
:102B9000401BB8424FF00300BCD8306A8007F5D420
:102BA000B8F1000F3FF553AFF06920F08050F061AD
:102BB0004DE7206AB0F5803F05D17168A26821F425
:102BC0000031114371607168626A21F4741111431C
:102BD0000843706001203866FFF77CFB044600BFA5
:102BE000306880013FF547AFFFF774FB001B0228F8
:102BF0004FF00300F4D98DE7411E0020B0EB116FB8
:102C00001CBF012070474EF21002CEF2000251604C
:102C10004EF62351CEF20001F0230B700721906095
:102C200011607047704700007047000090F83C202A
:102C3000012A04BF02207047B0B501F108053CCD60
:102C4000D1E900CE23F47C5322F470521A432EF4BF
:102C5000F0431A432CF4E0431A4324F4C0431A43CC
:102C60002A43C96922F48042036811435964002150
:102C700080F83C10BDE8B0400846704790F83C2012
:102C8000012A4FF0020234D010B5012380F83C3005
:102C900080F83D200268D2F804E0D2F808C00C6841
:102CA0002EF07003234340F2FF74C4F20004A242EA
:102CB000536005DCB2F1804F0ED040F2004307E0D4
:102CC00042F60043C4F201039A4205D040F60003E5
:102CD000C4F200039A4204D149682CF080031943DE
:102CE00091600121002280F83D1080F83C20BDE871
:102CF000104010467047000041B1082909D004294E
:102D000014BF00F1450200F1430204E000F1420269
:102D100001E000F144021278012A1CBF0120704733
:102D2000022241B1082909D0042914BF80F84520A6
:102D300080F8432004E080F8422001E080F844203D
:102D4000006801F00F010422036A02FA01F123EA8C
:102D500001020262026A11430162416C40F2FF7299
:102D6000C4F2000241F400419042416405DCB0F13C
:102D7000804F0ED040F2004107E042F60041C4F21D
:102D80000101884205D040F60001C4F200018842EA
:102D900004D1816801F00701062903D0016841F0E0
:102DA0000101016000207047002804BF0120704726
:102DB00010B5044690F83D0028B9002084F83C0086
:102DC000204600F065F8022084F83D00206840F2BB
:102DD000FF730268C4F2000342F6004C9842C4F24A
:102DE000010C05DCB0F1804F0AD040F2004103E055
:102DF000604505D040F60001C4F20001884203D1CD
:102E0000A16822F070020A43984205DCB0F1804FBD
:102E10000AD040F2004103E0604505D040F60001D1
:102E2000C4F20001884203D1216922F440720A43AE
:102E3000A36922F08001D4F804E0E26819436045F8
:102E40000160C262C0F828E002D16169CCF830109C
:102E5000012141610269D20703D0026922F0010217
:102E60000261002084F8461084F83E1084F83F1078
:102E700084F8401084F8411084F8421084F843101C
:102E800084F8441084F8451084F83D1010BD00000B
:102E900070B586B000680021B0F1804FCDE9041113
:102EA0000391029147D042F60041C4F201018842E9
:102EB00057D141F21800C4F20200016840F6000444
:102EC00041F4006101600168C4F2010401F4006191
:102ED00001910199016802AD41F0080101600168AA
:102EE000002601F0080101910199016841F00401F7
:102EF00001600068294600F00400019001984FF439
:102F00008050029004F58060CDE90366FFF7DCF89D
:102F10004FF44060CDE90206204629460496FFF7AB
:102F2000D3F8182000210022FFF756FA1820FFF7E7
:102F300043FA1B240DE041F21800C4F2020041687C
:102F40001C2441F001014160406800F00100019043
:102F50000198204600210022FFF73EFA2046FFF7A5
:102F60002BFA06B070BD000090F83D1001291CBF7F
:102F700001207047022180F83D10006840F2FF7286
:102F8000C168C4F20002904241F00101C16005DC59
:102F9000B0F1804F0ED040F2004107E042F6004110
:102FA000C4F20101884205D040F60001C4F20001DC
:102FB000884206D1816801F00701062904BF00207C
:102FC0007047016841F00101016000207047000076
:102FD00090F83C20012A4FF0020200F0C68080B534
:102FE000012380F83C3080F83D20D0F800C04FF637
:102FF0007772DCF8083023EA0202CCF808200B686C
:103000004F2B28DC1F2B44DD202B45D0302B43D009
:10301000402B40F0AC80D1F804E0C968DCF82030E7
:10302000DCF8202022F00102CCF82020DCF8182067
:1030300022F0F00242EA011123F00A0242EA0E02F3
:10304000CCF81810CCF82020DCF8081041F047012B
:1030500021F030017EE06F2B26DDB3F5005F47D015
:10306000B3F5805F78D0702B40F08180D1E901E327
:10307000C968DCF8082043EA0E0322F47F4243EAE1
:1030800001211143CCF80810DCF8081041F0770159
:1030900060E00BB1102B6AD1DCF8081021F0700150
:1030A000194341F0070155E0502B34D0602B5ED11D
:1030B000D1F804E0C968DCF82030DCF8202022F0E8
:1030C0001002CCF82020DCF8182022F4704242EAEA
:1030D000013123F0A00242EA0E12CCF81810CCF80D
:1030E0002020DCF8081041F0670121F0100131E0E8
:1030F000D1E901E3C968DCF8082043EA0E0322F4B1
:103100007F4243EA01211143CCF80810DCF8081093
:1031100041F480411EE0D1F804E0C968DCF82030B9
:10312000DCF8202022F00102CCF82020DCF8182066
:1031300022F0F00242EA011123F00A0242EA0E02F2
:10314000CCF81810CCF82020DCF8081041F057011A
:1031500021F02001CCF808100022012180F83D1058
:10316000002180F83C10BDE88040104670470122E5
:10317000F3E7000080B5016842F60042C4F20102A4
:10318000914200D080BD017F082924D00429F9D1C3
:10319000082100F037FC40F29801C2F200010A68F1
:1031A00040F2A003C2F2000343F82200086840F294
:1031B000C02201300860C2F200020868127845F6A9
:1031C0008223C0F600039A5C9042DBD340F2751074
:1031D000C2F2000022E00C2100F014FC40F29C013D
:1031E000C2F200010A6840F20413C2F2000343F87D
:1031F0002200086840F2C02201300860C2F20002DA
:103200000868127845F68223C0F600039A5C904263
:1032100038BF80BD40F27610C2F200000122027079
:103220000020086080BD000090F83C30012B04BFF6
:10323000022070474FEAB2020123032A80F83C3093
:1032400000F2A380F0B5DFE802F0021B3B590368EF
:10325000D1E900C5D1F80CE01C6A1A6A40F2FF7788
:1032600022F001021A621A4652F8186FC4F20007DF
:10327000BB4267DCB3F1804F70D040F2004769E099
:103280000368D1E900E6D1E902C11C6A1A6A360274
:1032900022F010021A621A4652F8185F4FF2FF0726
:1032A000BE4325F4734561F30F3624F0A0040EF0FD
:1032B0000A0746EA050144EA071711601F623AE06F
:1032C0000768D1E900C5D1E902313C6A3A6A61F385
:1032D000071522F480723A623A4652F81C6F26F0C3
:1032E000F30645EA06014FEA5C0666F349241160DD
:1032F0003C62116821F00C01116040E00368D1E9E3
:1033000000E6D1E902C11C6A1A6A360222F4805230
:103310001A621A4652F81C5F4FF2FF07BE4325F4AB
:10332000734561F30F364FEA5E0746EA050167F31E
:103330004D3411601C6211684FEA0C2321F4406186
:1033400011601CE042F60047C4F20107BB4205D001
:1033500040F60007C4F20007BB421BD126F003066B
:10336000354324F00A070CF00A066EF307153744BC
:103370009D611F629F6927F00C079F618B68116830
:10338000194300231160BDE8F040002180F83C1093
:103390001846704746F00105E3E70000002804BF27
:1033A0000120704710B5044690F83D0028B9002070
:1033B00084F83C00204600F065F8022084F83D00C7
:1033C000206840F2FF730268C4F2000342F6004C2A
:1033D0009842C4F2010C05DCB0F1804F0AD040F2F3
:1033E000004103E0604505D040F60001C4F2000151
:1033F000884203D1A16822F070020A43984205DC9A
:10340000B0F1804F0AD040F2004103E0604505D0A2
:1034100040F60001C4F20001884203D1216922F480
:1034200040720A43A36922F08001D4F804E0E26804
:10343000194360450160C262C0F828E002D16169A9
:10344000CCF83010012141610269D20703D0026932
:1034500022F001020261002084F8461084F83E1038
:1034600084F83F1084F8401084F8411084F842102A
:1034700084F8431084F8441084F8451084F83D1013
:1034800010BD00007047000070B504460068C568B4
:103490000669B10716D515F0020113D06FF00201CD
:1034A0000161012121778069800703D02046FFF761
:1034B00061FE05E0204600F08DF8204600F002FA9B
:1034C00000202077700718D515F0040015D020686B
:1034D0006FF00401016102212177806910F4407FBF
:1034E00003D02046FFF746FE05E0204600F072F8C4
:1034F000204600F0E7F900202077300717D515F0B7
:10350000080014D020686FF00801016104212177C0
:10351000C069800703D02046FFF72CFE05E0204657
:1035200000F058F8204600F0CDF900202077F00692
:1035300018D515F0100015D020686FF0100101614A
:1035400008212177C06910F4407F03D02046FFF79F
:1035500011FE05E0204600F03DF8204600F0B2F9EB
:1035600000202077F00718BF15F0010002D13006C7
:1035700009D412E020686FF001010161204600F0DB
:1035800003FA300609D515F0800006D020686FF0E8
:10359000800101612046FFF745FB700609D515F053
:1035A000400006D020686FF040010161204600F025
:1035B00043FAB00658BF70BD15F0200008D021684E
:1035C0006FF0200220460A61BDE87040FFF72CBB77
:1035D00070BD00007047000090F83C30012B04BF24
:1035E000022070474FEAB2020123032A80F83C30E0
:1035F00000F2EC802DE9F041DFE802F0023B77B207
:10360000036842F600451C6A1A6AC4F2010522F0FA
:1036100001021A621A46D3F804C052F818EF8E68F5
:1036200024F00204AB4244EA060405D1CE6824F03B
:103630000C0426F0040634430E68AB4206D1D1E9EF
:1036400005582CF440772F4347EA080C2EF07307F7
:103650003743C3F804C09F614F6809695F631C6208
:103660009F6947F008079F619F6927F004079F61E2
:10367000A6E0036842F600451C6A1A6AC4F2010516
:1036800022F010021A621A46D3F804C052F818EF5A
:103690008E6824F02004AB4244EA061407D1CE68B9
:1036A0006FF0400724F0C00407EA061634430E68A2
:1036B000AB4206D1D1E905572CF4406C3D434CEAAE
:1036C000850C2EF4E64747EA0627C3F804C09F613D
:1036D0004F6809699F631C629F6947F400679F6197
:1036E0009F6927F480679F6169E0036842F600459F
:1036F0001C6A1A6AC4F2010522F480721A621A4620
:10370000D3F804C052F81CEF8E6824F40074AB4266
:1037100044EA062407D1CE6840F2FF47360224F47B
:103720004064BE4334430E68AB4206D1D1E905572D
:103730002CF4405C3D434CEA051C2EF073073743E4
:10374000C3F804C0DF614F680969DF631C62DF6989
:1037500047F00807DF61DF6927F00407DF612FE02A
:10376000036842F60047D3F820C01A6AC4F2010782
:1037700022F480521A621A465C6852F81C5FD1F833
:1037800000E08E68BB4204D14F6924F4804444EACF
:1037900087142CF4005747EA063725F4E64646EA34
:1037A0000E265C60DE614E6809691E641F62DF6977
:1037B00047F40067DF61DF6927F48067DF61090292
:1037C0001368194300231160BDE8F041002180F81F
:1037D0003C10184670470000002804BF01207047C5
:1037E00010B5044690F83D0028B9002084F83C004C
:1037F000204600F065F8022084F83D00206840F281
:10380000FF730268C4F2000342F6004C9842C4F20F
:10381000010C05DCB0F1804F0AD040F2004103E01A
:10382000604505D040F60001C4F20001884203D192
:10383000A16822F070020A43984205DCB0F1804F83
:103840000AD040F2004103E0604505D040F6000197
:10385000C4F20001884203D1216922F440720A4374
:10386000A36922F08001D4F804E0E26819436045BE
:103870000160C262C0F828E002D16169CCF8301062
:10388000012141610269D20703D0026922F00102DD
:103890000261002084F8461084F83E1084F83F103E
:1038A00084F8401084F8411084F8421084F84310E2
:1038B00084F8441084F8451084F83D1010BD0000D1
:1038C000704700007047000041B1082909D0042961
:1038D00014BF00F1410200F13F0204E000F13E029A
:1038E00001E000F140021278012A1CBF012070475C
:1038F000022241B1082909D0042914BF80F84120CF
:1039000080F83F2004E080F83E2001E080F840206D
:10391000006801F01F010122036A8A4023EA0201C4
:103920000162036A42F64441C4F201011A43A1F163
:1039300044039842026203D10A6842F400420A60DA
:1039400040F2FF71C4F20001884205DCB0F1804F03
:103950000ED040F2004107E042F60041C4F20101FE
:10396000884205D040F60001C4F20001884204D12B
:10397000816801F00701062903D0016841F00101C7
:1039800001600020704700000068B0F1804F00D057
:10399000704740F2C022C2F2000240F2B410127826
:1039A00045F64433C2F20000C0F60003016853F844
:1039B00022204B1C9142036007D30021016040F29A
:1039C000EB20C2F200000121017040F2BC21C2F2E2
:1039D00000010888421C312840F2E820C2F20000B1
:1039E00088BF002203880A80591C042B018038BF3D
:1039F00070470021018040F2EA20C2F2000001215C
:103A0000017070474FEAB101032984BF002070475D
:103A1000DFE801F0020E060A0068343000687047E3
:103A200000683C30006870470068403000687047AC
:103A3000006838300068704770470000FEE70000FB
:103A400040F27310C2F200000178002908BF7047ED
:103A500080B50021017040F2B810C2F200000121CF
:103A6000FDF79EFD40F2AC11C2F200010A8840F25F
:103A70007A13C2F2000323F81200501C0880BDE83C
:103A80008040704710B590B040F2B81042F200414B
:103A90000024C2F20000C4F201014FF480724FF41E
:103AA0006023C0E900140321CDE90E44CDE90C44A4
:103AB000CDE90A44CDE90844CDE90644CDE9044402
:103AC000CDE90244CDE9004404730475C36182600A
:103AD0000161FDF74DFF002818BFFDF7E1FB40F243
:103AE0000020C0F240000A9040F6E260CDE90D04EB
:103AF00040F2B8100B940124C2F200000AA98DF81C
:103B00003040FDF7E5FD002818BFFDF7C9FB052093
:103B1000099040F2B810C2F2000007A9CDE90744AD
:103B2000FDF700FE002818BFFDF7BAFB0220CDE923
:103B3000070040F2B810C2F2000007A9FDF7F2FD3D
:103B4000002818BFFDF7ACFB0320CDE9070040F2C9
:103B5000B810C2F2000007A9FDF7E4FD002818BF65
:103B6000FDF79EFB002001210090019104910221AC
:103B70000690ADF81400039040F2B8100291C2F222
:103B800000006946FDF708FC002818BFFDF788FB18
:103B900010B010BD80B582B041F21400C4F2020032
:103BA0000168002241F0010101600068002100F07D
:103BB0000100019001980B20FEF70EFC0B2002B0D3
:103BC000BDE88040FEF7F8BB2DE9F04F85B04FF01F
:103BD000000841F21800CDE90388CDE90188C4F25C
:103BE0000200016840F6004A41F0100101600168DE
:103BF000C4F2010A01F010010091009901680AF570
:103C0000806641F0200101600168002201F020017E
:103C10000091009901684FF4005441F004010160E3
:103C2000016801F0040100910099016841F0080168
:103C3000016000684FF4005100F008000090009807
:103C40003046FEF741FBAAF58065284649F2F001AF
:103C5000002249F2F009FEF737FB50464FF47F612E
:103C60000022FEF731FB01AF01944FF0010B02245B
:103C700030463946CDF808B0CDE90344FEF724FAC2
:103C800028463946CDE9019BCDE90344FEF71CFAED
:103C90000320CDE9010850463946CDF80C80FEF7E7
:103CA00013FA4FF47F60CDE9010B50463946CDE958
:103CB0000344FEF709FA05B0BDE8F08F70B5A0B077
:103CC00042F6004540F22C20C4F201050021C2F268
:103CD0000000402240F60F638026CDE91911CDE99E
:103CE00017111591CDE91311CDE91111CDE90F117E
:103CF000CDE90D11CDE90B11CDE90911CDE9071180
:103D0000CDE90511CDE90311CDE90111C0E900515B
:103D1000C0E90223C0E904118661FFF745F80028D5
:103D200018BFFDF7BDFA4FF48050179040F22C20D9
:103D3000C2F2000017A9FFF74BF9002818BFFDF7E2
:103D4000AFFA40F22C20C2F20000FFF745FD002838
:103D500018BFFDF7A5FA40F22C20C2F20000FFF7D1
:103D60001DFB002818BFFDF79BFA2020149080202F
:103D7000159040F22C20C2F2000014A9FEF77EFF3D
:103D8000002818BFFDF78CFA60200D904FF4E16019
:103D90000E900020CDE90F00CDE91100139040F204
:103DA0002C20C2F200000DA90022FFF715FC00280C
:103DB00018BFFDF775FA40F22C20C2F200000DA9E1
:103DC0000422FFF709FC002818BFFDF769FA00205C
:103DD00001210990CDE90A100C9040F22C20C2F28A
:103DE000000009A90822FFF71FFA002818BFFDF7F5
:103DF00057FA40F22C20C2F2000009A90C22FFF76A
:103E000013FA002818BFFDF74BFA4FF40060019039
:103E10004FF480600290FF20002604904FF4805001
:103E200040F22C24CDE905064FF48040C2F2000494
:103E3000089001A920460396FEF7F8FE002818BF57
:103E4000FDF72EFA2068CDE91E66A8421D961C9645
:103E500001D020B070BD41F21800C4F20200016828
:103E60001CAC41F0080101600168022601F0080164
:103E70001B911B99016841F0040101600068214613
:103E800000F004001B901B984FF4C0401C90A5F557
:103E900000501D961F96FEF717F94FF44070CDE9BC
:103EA0001C06A5F5105021461F96FEF70DF920B00F
:103EB00070BD000080B586B040F274200021C2F2CF
:103EC000000040F2E73CCDE90411CDE90211CDE953
:103ED00000114FF080424723C0E9021C016180219C
:103EE000C0E900238161FEF75FFF002818BFFDF7DE
:103EF000D7F94FF48050029040F27420C2F20000D3
:103F000002A9FFF765F8002818BFFDF7C9F90020DE
:103F1000CDE9000040F27420C2F200006946FEF7CD
:103F2000ADFE002818BFFDF7BBF906B080BD00004C
:103F3000FEE70000FEE70000704700007047000049
:103F400070B5C0B30D46002940D006462846FCF7A0
:103F5000C1FA98B145F69A2C0021C0F6000C002356
:103F6000EA5C2E2A05D01CF802207418013184F86E
:103F700021200133834201D20429F1D3002000BF64
:103F800042B2A95C49B12E2901D00130F8E74FF0C7
:103F9000FF31002AC8BF411E00E0FF21C8B204283B
:103FA00028BF70BD48B2304490F8211041F0800124
:103FB00080F8211070BD45F6643045F67D31C0F6BD
:103FC0000000C0F600016A22FCF744FA45F67130A1
:103FD00045F67D31C0F60000C0F600016B22FCF70B
:103FE00039FA000070B540B340F60001C4F2010197
:103FF00040F2100E402240F2001340F2004C01F556
:10400000806480252026C0F2200EC0F28002C0F21B
:104010000023C0F6000CC0F24005C0F21006C0E953
:1040200000410021C0E902E2C0E9043CC0E90656B3
:1040300080F82010C0F8211070BD45F6643045F6B8
:104040007D31C0F60000C0F600011322FCF702FA31
:104050007047000070470000F0B583B08F680646D7
:10406000384601F0EFF80D4600210446CCF220114D
:10407000384601F0ADF948B945F69432C0F6000271
:1040800030460521CDE90045FCF7C4F8384600214B
:1040900001F0A5F958B90021CCF22011384601F001
:1040A000A5F920B945F69A32C0F600020CE00021CD
:1040B000C4F22011384601F092F968B9384600215F
:1040C00001F09BF940B914A230460621CDE9004524
:1040D000FCF7A0F803B0F0BD0021C4F2C8213846B7
:1040E00001F07DF938B90021C4F22011384601F001
:1040F00084F90028D6D00021C4F2C821384601F046
:104100007CF900281CBF03B0F0BD45F69432C0F620
:10411000000230460521D9E7252E32664300000013
:1041200080B570B340F60C0EC4F2010EDEF800202C
:1041300022F0F002CEF80020DEF8002422F47F62A4
:10414000CEF8002490F82020831893F821C0DEF8E0
:10415000003423F47F6343EA0C13CEF8003400EB01
:104160004203B3F818C0DEF800304FEA1C1161F3C7
:104170000713511C01F00301CEF8003080F8201025
:1041800080BD45F6643045F67D31C0F60000C0F6CE
:1041900000014222FCF75EF970B582B00D69044659
:1041A0002846002101F029F940B90021C4F220116C
:1041B000284601F022F908B10BA607E00021C4F25D
:1041C0002011284601F019F960B909A6284601F026
:1041D00039F803460D46204606213246CDE9003522
:1041E000FCF718F802B070BD25312E326641000090
:1041F00025322E3166410000B0B591F822400546C7
:10420000092C05D808A2284605212346FCF702F808
:104210000A2C38BFB0BD06A2284605212346BDE8BA
:10422000B040FBF7F7BF00BF457272253031640024
:104230004572253032640000B0B582B04969054648
:10424000084601F0FFF90021C4F27A4101F0E8F8D4
:1042500000F0F8FF03460C4604A228460621CDE9EB
:104260000034FBF7D7FF02B0B0BD00BF25322E31BE
:1042700066480000B0B582B0D1E90321054610467A
:1042800001F05CFA0021C4F27A4101F0C9F800F0B3
:10429000D9FF03460C4604A228460621CDE9003486
:1042A000FBF7B8FF02B0B0BD25312E3266500000DA
:1042B0000B7802A20521FBF7ADBF00BF5374253078
:1042C0003264000080B582B0B1F824C0CB8C04A267
:1042D0000621CDF800C0FBF79DFF02B080BD00BFF6
:1042E000253032642E25303264000000B0B582B033
:1042F000C9680546084600F0A5FF03460C4604A21F
:1043000028460621CDE90034FBF784FF02B0B0BD9A
:1043100025332E3066550000FDF7E2BF70B594B02E
:104320000AAC20462821FCF7F4F801200A900E90F0
:104330004FF4E01000254FF4803102261390204600
:104340000995CDE90755CDE90555CDE90355CDE9E9
:104350000155CDE90B15CDE91161FEF7ADFA20B19C
:10436000EFF3108072B600BFFEE70F20CDE905061F
:104370004FF48060CDE9080505A802210795FEF7F6
:10438000A9F920B1EFF3108072B600BFFEE702205A
:1043900001904FF40040039001A8FEF71BF920B1F3
:1043A000EFF3108072B600BFFEE714B070BD0000DE
:1043B0007047000040F22C20C2F20000FFF764B802
:1043C00040F22C20C2F20000FFF75EB840F27420E9
:1043D000C2F20000FFF758B8FEE700008CB042F2CE
:1043E000084AC4F2010AFDF789FFFFF797FFFFF7BC
:1043F000EBFBFFF7CFFBFFF745FBFFF75FFCFFF79A
:1044000059FD02AF3846FFF7EDFD40F27420C2F2CD
:104410000000FEF7A9FD40F23004C2F200040320C0
:10442000207040F27A1040F2EB2840F2EA2B45F679
:104430001C3640F2040540F2B21140F2AC19C2F24F
:104440000000C2F20008C2F2000BC0F60006C2F281
:104450000005C2F20001C2F200090238019000BF5B
:1044600098F80000002870D0002088F80000087834
:1044700090B140F2B310C2F200000078A0B1B9F8D8
:10448000000013282DD8FFF7DBFADAF8000040F41B
:104490000040CAF8000054E0FCF7C8FE40F2B21138
:1044A000C2F20001087050E000F06CF840F2B31165
:1044B000C2F200010870FEF705F844F62060FDF72F
:1044C000C7FFFF20FDF7D8FFFDF7E2FFDAF8000095
:1044D00040F2B21140F40040C2F20001CAF80000FC
:1044E00033E040F2C020C2F20000007845F682219D
:1044F000C0F60001085C0021A9F8001038B1019B4A
:10450000024600BF33F8025F013A2944FAD1B1FBF9
:10451000F0F001F097F84FF07C5100F0BFFE01F091
:1045200075F840F2AE11C2F200010880FCF792FE6D
:1045300040F2C02140F20405C2F20001C2F20005BF
:10454000086140F2B211C2F200019BF8000001289C
:104550007FF486AF207840F2C02156F8202000205A
:104560008BF800002846C2F20001904738462946E1
:10457000FFF7E6FC3846FFF7D3FD40F2B211C2F276
:1045800000016DE780B540F2B810C2F20000FCF700
:104590008DFE08B1002080BD40F2B81040F26C11D1
:1045A000C2F20000C2F200010322FDF7EFFA60B987
:1045B00040F2B810C2F20000FDF706F868B140F210
:1045C000B810C2F20000FDF759F840F2B810C2F27C
:1045D0000000FDF7BDFB002080BD012080BD5FEA2B
:1045E000400C08BF91F0000F4FEA8C234FEAC12224
:1045F00043EA51514FEA1C5018BF00F5F0404FEA12
:10460000300018BF41F000415FEA6C5C00F0298087
:10461000BCF1FF3F08BF40F080407047130C06BF5D
:1046200012044FF0100C4FF0000C130E04BF1202D6
:104630000CF1080C130F04BF12010CF1040C930FC2
:1046400004BF92000CF1020CD30F04BF52000CF116
:10465000010C11464FF00002A0F11F00A0EB0C006E
:10466000704711F0004F08BF704731F000413FF430
:10467000D5AF0B0C06BF09044FF0100C4FF0000C27
:104680000B0E04BF09020CF1080C0B0F04BF09014B
:104690000CF1040C8B0F04BF89000CF1020CCB0F42
:1046A00004BF49000CF1010CCCF1200322FA03F302
:1046B00041EA030102FA0CF2A0EB0C0000F1010048
:1046C0007047000023F07F4720F07F4C80EA030012
:1046D00000F00040ACEB070303F57C5303F1FF034C
:1046E0002DE9804909B44FEA144324EA03484FEA0C
:1046F000154B25EA0B4E0FF2042606EB13273E78E6
:1047000003FB0667C7F5000707FB06F64FEAD64628
:1047100006F102064FEA543707FB066CCCF1005C49
:104720004FEA1C472CEA074C0CFB06F507FB06F486
:1047300004EB15464FEA961649085FEA320234BF89
:1047400000204FF000404FEAD13706FB07FC4FEA4C
:104750001C4C0CFB0BF7D21B03FB0CF761EB0701A6
:104760000CFB0EF7B0EB074072EB17420CFB08F79F
:1047700034BFA2EB0742B2EB074261EB17414FEAAD
:104780000C444FEA910706FB07FC4FEA1C4C0CFB5C
:104790000BF7B0EBC74072EB573203FB0CF734BF9B
:1047A000A2EBC742B2EBC74261EB57310CFB0EF7ED
:1047B000B0EBC70072EB57720CFB08F734BFA2EBEB
:1047C000C702B2EBC70261EB57714FEA816141EA60
:1047D00092114FEA826242EA90124FEA806004EB43
:1047E000CC04039F4FEAD13706FB07FC4FEA1C4C71
:1047F0000CFB0BF7D21B03FB0CF761EB07010CFB67
:104800000EF7B0EB074072EB17420CFB08F734BF12
:10481000A2EB0742B2EB074261EB17414FEA8C551E
:1048200004EB9C244FEA910706FB07FC4FEA1C4C63
:104830000CFB0BF7B0EBC74072EB573203FB0CF7E6
:1048400034BFA2EBC742B2EBC74261EB57310CFB5E
:104850000EF7B0EBC70072EB57720CFB08F734BFD2
:10486000A2EBC702B2EBC70261EB57714FEA81615D
:1048700041EA92114FEA826242EA90124FEA806066
:1048800015EB4C2544F100044FEAD13706FB07FC39
:104890004FEA1C4C0CFB0BF7D21B03FB0CF761EB34
:1048A00007010CFB0EF7B0EB074072EB17420CFB55
:1048B00008F734BFA2EB0742B2EB074261EB1741A6
:1048C0004FEA813141EA92414FEA823242EA904214
:1048D0004FEA80304FEA0C7615EB1C1544F10004CA
:1048E00048EA03434EEA0B484FF0000EB2EB080CC7
:1048F00071EB030724BF624639464EEB0E0E4FF0B4
:10490000000B0018524149414BEB0B0BB2EB080C6A
:1049100071EB03077BF1000B24BF624639464EEB77
:104920000E0E4FF0000B0018524149414BEB0B0BA0
:10493000B2EB080C71EB03077BF1000B24BF62465E
:1049400039464EEB0E0E51EA020718BF46F001063B
:1049500016EB0E7655F1000254F1000103D5BDE8C7
:104960008901BDE80088BDE88901BDE80048B619A5
:10497000524141EB0101A3F10103704780807F7E2A
:104980007D7C7B7A797877767675747372717170C5
:104990006F6E6E6D6C6C6B6A6A6968686766666577
:1049A0006464636362616160605F5F5E5E5D5D5C05
:1049B0005C5B5B5A5A595958585757565655555576
:1049C0005454535352525251515050504F4F4F4ED6
:1049D0004E4D4D4D4C4C4C4B4B4B4A4A4A49494924
:1049E0004848484747474746464645454544444466
:1049F0004443434343424242424141419C46002B8F
:104A000030D477002BD04FEA37071CB503B44FF0F2
:104A100010004FF01001BAF1000F06D0BCF1000FEA
:104A2000DCBF40F0080040F008014FF000000FBC70
:104A3000BDE810400BF1010BBBF1010F08BF5FEAAD
:104A4000170722BF12F1010211F101014FF00041DD
:104A500043F1000300F0004043EA00007047F9D33F
:104A60005708D0E746EA06464FEA164613F1400FCC
:104A70001FDD13F1200FDFBF16430A46002120334C
:104A80005B42BED0C3F1200746EA06464FEA16460F
:104A900002FA07F746EA070622FA03F2C3F12007F3
:104AA00001FA07F742EA070221FA03F14FF0000387
:104AB000A7E746EA020646EA06464FEA164646EAEF
:104AC0000106BCBF46EA0646360C4FF000034FF025
:104AD00000024FF0000194E72DE9804C70B49A4633
:104AE000934691E8380007C831EA400C48BF34EAE1
:104AF000430C03D5FFF7E6FDFFF780FFF0BCBDE8F0
:104B0000008C2DE9804C70B49A46934691E83800A9
:104B100007C810F0804F08BF13F0804F03D100F09A
:104B200005F8FFF76BFFF0BCBDE8008C20F07F4775
:104B300023F07F4C80EA030000F0004007EB0C03F9
:104B4000A3F57C53A3F1FE0392F0000F00F0B380B5
:104B500095F0000F00F077802DE901494FEA1140F0
:104B600021EA00484FEA144624EA064700FB06FC07
:104B700008FB06F607FB08F818EB06484CEB164C4A
:104B800000FB07F718EB07484CEB17404FEA124BB6
:104B900022EA0B4E4FEA154625EA06470BFB06FCB8
:104BA0000EFB06F607FB0EFE1EEB064E4CEB164CFC
:104BB0000BFB07F71EEB074E4CEB174B18EB0B08E4
:104BC00040F1000018EB0E0B58EB000840F100001C
:104BD0008F1A4FF000014FF000063CBFC943661B1F
:104BE00014BFB5EB040C00213CBFC943F61B4FEAD0
:104BF000174427EA04454FEA1C472CEA074C04FBFC
:104C0000076205FB07F70CFB05F616EB074642EBC0
:104C1000174204FB0CFC16EB0C4642EB1C421BEB50
:104C2000060658EB020241414EEA8E0E46EA9E0607
:104C300001D5BDE80189B619524141EB0101A3F14B
:104C40000103BDE801894FEA144524EA05464FEA0D
:104C5000114721EA074C05FB07F406FB07F70CFB9D
:104C600006F111EB074144EB174405FB0CFC11EB7B
:104C70000C4144EB1C444FEA124722EA074C05FB67
:104C800007F206FB07F70CFB06F616EB074642EBAE
:104C9000174205FB0CFC16EB0C4642EB1C456A1850
:104CA00054F1000148BF7047B619524141EB010170
:104CB000A3F10103704795F0000F37D04FEA11427E
:104CC00021EA02464FEA144724EA074C02FB07F1A7
:104CD00006FB07F70CFB06F414EB074441EB174106
:104CE00002FB0CFC14EB0C4441EB1C414FEA154752
:104CF00025EA074C02FB07F506FB07F70CFB06F657
:104D000016EB074645EB174502FB0CFC16EB0C4671
:104D100045EB1C42121951F1000148BF7047B6190A
:104D2000524141EB0101A3F1010370474FEA1445E1
:104D300024EA05464FEA114721EA074C05FB07F133
:104D400006FB07F70CFB06F212EB074241EB17419B
:104D500005FB0CFC12EB0C4251EB1C414FF0000622
:104D600048BF7047921841EB0101A3F1010370475E
:104D7000490050EAC12018BF04204A0D18BF40F076
:104D8000010040F2FF72B2EB515F08BF40F0020039
:104D9000012808BF0520704730380A2801D20120B9
:104DA0007047002070472DE9F04106460F4600F09D
:104DB00063F9041E0D4618BF0120284320F000406F
:104DC000C0F17F6000F1E040C00F0ED0301C18BF72
:104DD0000120384320F00040C0F17F6000F1E04046
:104DE000C00F04BF0120FBF7C3FB20462946BDE8E6
:104DF000F081000010B500290AD00878002807D0FB
:104E000005487844FBF7BCFF002801D0002010BD06
:104E10000248784410BD0000BE0D0000B60D000031
:104E2000491058BFC1F140415B1058BFC3F1404326
:104E30008B42EFF30080704751EA030C17D41CF546
:104E4000801F58BFBCF5801F00F10680994218BF33
:104E5000704708BF9042704707D711F5801F58BFB1
:104E600013F5801F19D499427047894270471CF589
:104E7000801F08D5BCF5801FF7D58B4218BF70473F
:104E800008BF824270474FF4001C1CEB410F38BF33
:104E90001CEB430F01D28B42704770B500F098F8BD
:104EA000922449004FF000514FF08053FFF7B8BFF4
:104EB00010F0004248BF4042B0FA80F310FA03F10C
:104EC0000AD0C3F11D0303F5806302EB03524FEADE
:104ED000415002EBD12170474FF0000070470000B5
:104EE00051EA030C17D41CF5801F58BFBCF5801F76
:104EF00000F10680994218BF704708BF9042704782
:104F000007D711F5801F58BF13F5801F19D4994298
:104F10007047894270471CF5801F08D5BCF5801F7B
:104F2000F7D58B4218BF704708BF824270474FF4D5
:104F3000001C1CEB410F38BF1CEB430F01D28B420E
:104F4000704770B500F044F8922449004FF080514A
:104F50004FF00053FFF764BF51EA030C17D41CF560
:104F6000801F58BFBCF5801F00F10680994218BF12
:104F7000704708BF9042704707D711F5801F58BF90
:104F800013F5801F19D499427047894270471CF568
:104F9000801F08D5BCF5801FF7D58B4218BF70471E
:104FA00008BF824270474FF4001C1CEB410F38BF12
:104FB0001CEB430F01D28B42704770B500F008F82C
:104FC000922449004FF000514FF08053FFF728BF63
:104FD0000EF1020E2EF0030E5EF8046B364205D47D
:104FE000012A43EB030515F5001F12D8012841EBF8
:104FF000010C1CF5001F0CD80ED14FEAD17C0CEB34
:105000004C0C0CF1020C15F5001F08BF4CEBD37CC7
:1050100004E04FF0080C01E04FEAD37C0CEB4C05A8
:1050200026FA05F606F00706B6F1040C06D20EEBDA
:10503000860CBDE870404CF0010C6047DFE80CF0D6
:10504000090B02024FF00041A1F500214FF00000D2
:1050500070BD19461046012851EB010418BFD4F564
:10506000001484BF002001F0004170BD0808A0F5C5
:1050700000114FEA310170472DE9F04101F5801C24
:10508000BCF5001FC0F2C3804FEA115C21EA0C514D
:1050900041F480110CF1FD0C5FEA5C0C0CF5C07C56
:1050A00001D340004941890241EA905187023BA463
:1050B0008E0EA45D0A0C04FB04F602FB06F6C6F194
:1050C0004046A4FB0662F60D46EA422606FB06F4BD
:1050D000A4FB01235242C3F1404338BF5B1EA6FB31
:1050E00002420024E6FB0324D20B42EA4446A6FB1C
:1050F0000623A1FB02E2A3FB07E4A4184FF0000281
:1051000052F10002E3FB01426442C2F1404E38BF5B
:10511000AEF1010EA6FB04234FF00002E6FB0E32B7
:10512000A2FB0346B6194FF0000454F10004E2FB61
:105130000264A1FB06E6A4FB07E816EB08064FF0A5
:10514000000858F10008E4FB01687642C8F14058B5
:1051500038BFA8F10108A2FB06E4A3FB08E52D195E
:105160004FF0000454F10004E2FB0854A1FB05E6F3
:10517000A7FB04E818EB06084FF0000656F10006FE
:10518000E1FB048618F1200556F10006A80940EA63
:105190008660B109A8F11B0808F03F08B8F10A0FB2
:1051A0001CD901EB0C51BDE8F08100BFFCF5EEE825
:1051B000E2DDD8D3CFCBC7C3C0BDB9B6B4B1AEACB6
:1051C000A9A7A5A3A19F9D9B9A9896959392908F2E
:1051D0008D8C8B898887868584838281A0FB00687B
:1051E00000FB01F208EB4208B8EB872807D534181A
:1051F00058EB0104D5D5401C51F10001D1E7341A18
:1052000078EB0104CDD4401E71F10001C9E75FEADB
:105210004C0C5FEA9C5C0DD105D301F000414FF0CE
:105220000000BDE8F081BDE8F04170B5FFF7D0FEA9
:105230006DDBFFBEBDE8F04101494FF00000704753
:105240000000F87F43004FEAD30C4FEA3C0C434088
:105250001FBF40070CF1605113F0FE4F70471CF068
:10526000006F03D10CF00041002070470CF00043A8
:1052700043EA507040EACC0010B500F0E0FA00BFFD
:10528000000000924FEA0001FFF7F0BE4FF000412E
:10529000A1F500214FF000007047000090EA010FD7
:1052A00048BF81F0004100F11C83421A3CBF801AC4
:1052B00089184FEAD052A2EBD1534FF07F4C1CEA31
:1052C000410F18BF9CEA026F00F03B804FF0004C8A
:1052D0004CEA00204CEA012121FA03FC10EB0C0CF3
:1052E0001ED202F1FF325FEA1C2040EBC25038BFF1
:1052F00070471CF07F0F4FEA400C18BFBCF17F4F86
:1053000038BF7047C3F12003994008BF20F0010067
:10531000BCF17F4F38BF7047A0F1C04000F0D5BA54
:105320004FEA3C00000A40EBC25028BF1CF0FF0FC0
:105330004FEA400CE6D018BFBCF17F4F38BF704732
:10534000EAE79CEA026F05D010EA5C0F08BF00F0A4
:105350000040704710B500F072FA00BF64FBBE3E1B
:1053600010B5FFF769FD0CBF0120002010BD10B57E
:10537000FFF762FD14BF0120002010BD10B5FFF73C
:10538000AFFD8CBF0120002010BD10B5FFF7A8FDB8
:105390002CBF0120002010BD10B5FFF7DDFD94BF2C
:1053A0000120002010BD10B5FFF7D6FD34BF01204D
:1053B000002010BD10B500F0F5F80CBF0120002052
:1053C00010BD10B500F0EEF814BF0120002010BD94
:1053D00010B500F04BF98CBF0120002010BD10B5B6
:1053E00000F044F92CBF0120002010BD10B500F0E2
:1053F00071F994BF0120002010BD10B500F06AF9CA
:1054000034BF0120002010BD401058BFC0F1404003
:10541000491058BFC1F140418142EFF3008070470D
:105420004FF47F0C1CEAD0121EBF1CEAD11392EA83
:105430000C0F93EA0C0F00F0858090EA010F48BF33
:1054400042F4807240F4000C41F400002CF07F41E3
:1054500020F07F4000B5A2EB030281420FF2081C4E
:10546000ACEB504E9EF800E0C0F100004FEA4E0E4B
:1054700000FB0EFC38BF49004FEA2C1C0CFB0EF35E
:105480004FEACE1E0EEB635E4FEA112C0EFB0CFCB6
:105490004FEAC1214FEA1C5300FB031102F5FA0247
:1054A0004FEA112C0EFB0CFC4FEA01314FEADC4CA9
:1054B00000FB0C1142EB2242C14228BF09184CEB01
:1054C00003335DF804EB10EB410143EBC250B2F53E
:1054D0007C0F38BF704729D512F0F00F1CBF00F1C8
:1054E000C04000F000407047008182838485868739
:1054F00088898B8C8D8E8F919293959697999A9C93
:105500009D9FA0A2A3A5A7A8AAACAEB0B2B3B5B701
:10551000B9BCBEC0C2C5C7C9CCCED1D4D7D9DCDFD7
:10552000E2E6E9ECF0F3F7FAFE0000004FEA400C87
:105530000CF1807CBCF17E4F28BF7047B0F1C040B9
:1055400000F0C3B90CEAD11390EA010F48BF42F44E
:105550008072624538BF634507D213F47F0F16D0BF
:1055600080EA010000F00040704710B500F067F9D4
:10557000097EFC3E00F005B880EA010000F0004022
:10558000704780EA010000F0004000F09EB912F47C
:105590007F0F04BF0248704780EA010000F095B910
:1055A0000000C07F50EA010C00F113801CF5000FD1
:1055B00058BFBCF5000F01D48842704707D710F5DB
:1055C000000F58BF11F5000F15D48842704789426B
:1055D00070471CF5000F04D5BCF5000FF7D58142CC
:1055E00070474FF0807C1CEB400F38BF1CEB410F25
:1055F00001D28142704710B500F021F99224490090
:105600004FF000504FF08051FFF7FEBE41000B0EEF
:10561000D3F19E0208D950F400034FEA032323FA82
:1056200002F048BF4042704710B500F008F900BFD3
:1056300049922480002070476FF0004282EA2000E7
:1056400070470000B0FA80F310FA03F2C3F19D0333
:105650000AD0D90501EB1220530638BF704700F17C
:10566000010008BF20F001007047000050EA010C63
:1056700000F113801CF5000F58BFBCF5000F01D4DA
:105680008842704707D710F5000F58BF11F5000F7B
:1056900015D488427047894270471CF5000F04D525
:1056A000BCF5000FF7D5814270474FF0807C1CEBB2
:1056B000400F38BF1CEB410F01D28142704710B53B
:1056C00000F0BDF8922449004FF080504FF0005197
:1056D000FFF79ABE50EA010C00F113801CF5000F91
:1056E00058BFBCF5000F01D48842704707D710F5AA
:1056F000000F58BF11F5000F15D48842704789423A
:1057000070471CF5000F04D5BCF5000FF7D581429A
:1057100070474FF0807C1CEB400F38BF1CEB410FF3
:1057200001D28142704710B500F089F892244900F7
:105730004FF000504FF08051FFF766BE4FF47F0CE2
:105740001CEAD0121EBF1CEAD11392EA0C0F93EA96
:105750000C0F00F0478090EA010F48BF42F48072BE
:105760004FF0004C4CEA00204CEA012102EB03020E
:10577000A0FB0113A2F50002002918BF43F00103AA
:105780005B0028BF4FEA330342EB22425FEA132C4F
:105790004CEBC2502EBFBCEB436FB2F57C0F704791
:1057A0004FEA036CBCF1004F08BF20F00100B2F5D6
:1057B0007C0F38BF70470BD582F0FF0212F5803F97
:1057C000C8BF704700F1C040D8BF00F0004070472C
:1057D00000F5000C5FEA4C0C48BF7047B0F1C040C8
:1057E00000F073B80CEAD11390EA010F48BF42F4FD
:1057F0008072624538BF634504D280EA010000F040
:105800000040704710B500F01AF800BF8900013E53
:1058100000F007B800F009B85FEA410C5FEA1C6CC1
:1058200008D080EA010000F050B85FEA400C5FEA5F
:105830001C6CF6D14FF00040A0F5800070470EF1CF
:10584000020E2EF0030E5EF8044B244204D44FEAFD
:105850004102B2F17F4F11D84FEA4003B3F17F4FBD
:105860000CD80ED14FEAD07C0CEB4C0C0CF1020C96
:10587000B2F17F4F08BF4CEBD17C04E04FF0080C35
:1058800001E04FEAD17C0CEB4C0324FA03F404F062
:105890000704B4F1040C06D20EEB840CBDE81040F2
:1058A0004CF0010C6047DFE80CF0070802024FF0F3
:1058B0000040A0F5800010BD0846420018BFD2F19C
:1058C000807288BF00F0004010BDFF2141EAD05037
:1058D000C005704790EA010F48BF81F000413FF5D5
:1058E000E4AC421A04D882F00042A0EB020011445A
:1058F0004FEAD052A2EBD1534FF07F4C1CEA410F3C
:1059000018BF9CEA026F4AD04FF0004C4CEA0020CE
:105910004CEA012121FA03FCB0EB0C0C0FD412F07D
:10592000FE0F36D05FEA4C001DD5001240EBC2508E
:1059300038BF70471CF03F0F18BF70470BE05FEA9D
:105940001C20A2F1010240EBC25038BF70471CF08E
:105950007F0F18BF7047C3F12003994014BF401E4A
:1059600020F0010070474FEA1223800808BF7047FB
:10597000B0FA80FCA2EB0C02CCF1280C60FA0CF01F
:1059800093EA122F04BF00EBC25070474FEAC37076
:105990007047130A5FEADC1008BF7047F6E79CEA1D
:1059A000026F04D010EA5C0F08BF0020704710B5EA
:1059B000FFF745FF40DFF63E81F000407047FAF701
:1059C0000EBF0400000800000000000000020001FB
:1059D0000000100002400000000000A000000000D5
:1059E00005400000000000C8000000000C4000005E
:1059F0000000409C00000000194000000020BCBED8
:105A00000000000034400000BFC91B8E00000004ED
:105A1000B5400000504BCFD06607E2CF0100000038
:105A20006C4100003E8251AADFEEA7340100000065
:105A3000D9420000DCB5A0E23A301F97FFFFFFFF1C
:105A4000B4450000FD25A0C8E9A3C14FFFFFFFFF3B
:105A5000FF3F00000000008000000000FF3F00004A
:105A600000000080000000000000000000000000B6
:105A700001020304060708090000000001020304F4
:105A800001021414050505050000020304050607BC
:105A900008090A0B0C0D0E0F10100000000000008A
:105AA00000000000000000000000000000000000F6
:105AB00000000000000000000000000000000000E6
:105AC000000000000000004080003F065B4F666D54
:105AD0007D077F6F000000480000007700390079E3
