:020000040800F2
:10000000D0090020D50100083D480008E142000861
:100010003948000885140008D54D0008000000008C
:10002000000000000000000000000000F54800088B
:10003000E116000800000000F1480008D14C00085B
:10004000EF010008EF010008EF010008EF010008D0
:10005000EF010008EF010008EF010008EF010008C0
:10006000EF010008EF010008EF010008F11400089B
:10007000EF010008EF010008EF010008EF010008A0
:10008000EF010008EF010008350E0008EF0100083D
:10009000EF010008EF010008EF010008EF01000880
:1000A0006D4D0008EF010008EF010008794D0008D0
:1000B000854D0008EF010008EF010008EF0100087E
:1000C000EF010008EF010008EF010008EF01000850
:1000D000EF010008EF010008EF010008EF01000840
:1000E000EF010008EF010008EF01000800F002F83E
:1000F00000F060F814A696E8000CB244B344DA4568
:1001000001D100F057F8BAE80F000FA696E83000CA
:10011000A5EB040504EB0607AAEB0704A7F101070A
:100120004FEA15154FEA3414A4F10104AC4201D38F
:1001300000F040F813F0010F18BFFB1A43F0010361
:1001400000F001F8DBE718479C790000BC7900005B
:10015000103A24BF78C878C1FAD8520724BF30C8F3
:1001600030C144BF04680C60704700007047000055
:100170000023002400250026103A28BF78C1FBD8B0
:10018000520728BF30C148BF0B607047662907F08F
:100190003A82642900F08680002070471FB500F085
:1001A00097FC04000020002106F068F8E0601FBD05
:1001B00010B510BD00F099FD1146FFF7EFFF04F0F8
:1001C00027FE00F0B7FD03B4FFF7F2FF03BC00F019
:1001D00079FC00000948804709480047FEE7FEE730
:1001E000FEE7FEE7FEE7FEE7FEE7FEE7FEE7FEE7E7
:1001F00004480549054A064B70470000694D000850
:10020000ED000008D0030020D0090020D005002018
:10021000D00500200FB41CB50C0007AA009007D031
:100220004142A14202D32044401E01E04FF0FF3082
:10023000074B7B4469460190069800F00CFC0020B7
:10024000002C01D0009908701CBC5DF814FB000064
:100250004708000070B5044685690068C10601D5ED
:10026000302600E02026C00707D070BDD4E9012168
:1002700030469047206A401C20626D1EF6D570BD46
:1002800070B5044685690078C00707D170BDD4E910
:10029000012120209047206A401C20626D1EF6D567
:1002A00070BD00002DE9F041064600241068752954
:1002B000314616A510D0AFF30080002802DA404284
:1002C00013A507E031688A0701D512A502E04907A6
:1002D00004D511A5012401E0AFF3008000210A221A
:1002E00006F1240709E0B0FBF2FCB0FBF2F302FBDD
:1002F0001C00303078541846491C0028F3D123469E
:100300002A463046BDE8F04100F038B90000000050
:100310002D0000002B000000200000002DE9F05F00
:10032000894604464FF0000ADFF824B1FB44C0F8C8
:1003300020A02046E168884700287DD0252806D0E7
:10034000D4E901219047206A401C2062F1E7002592
:100350005F462046E16888472028064607DB312EA5
:1003600005D2B81910F8200C08B10543F1E7A80729
:1003700001D525F00405C4F81CA00027C4F818A076
:100380002A2E09D0304605F09EFD38B304EB8708CD
:10039000303EC8F8186019E059F8041B204604EBF9
:1003A00087029161E1688847012F064618D1E0690C
:1003B000002820DA25F020051DE0D8F8180000EB11
:1003C000800006EB40003038C8F818002046E1688D
:1003D0008847064605F077FD0028EED1012F0AD0A8
:1003E0002E2E08D12046E16888477F1C0646022F42
:1003F00045F02005C4DBA069002803DA404245F03F
:100400000105A061E80701D025F01005A6B1A6F10D
:100410004100192802D8203645F400654A46314685
:10042000204625604D46FFF7B1FE60B1012807D098
:10043000ED1D25F0070000E007E000F1080978E76E
:1004400005F1040975E730467AE7206ABDE8F09FB8
:10045000CA7300000EB5054614460E4613A000F000
:1004600020FB284600F01DFB16A000F01AFB3046CA
:1004700000F017FB15A000F014FB00218DF80B1005
:100480000A210DF10A008DF80A1008E094FBF1F240
:1004900001FB124294FBF1F4303200F8012D002CE4
:1004A000F4DC00F0FEFA00F0F1FA00002A2A2A201B
:1004B000617373657274696F6E206661696C6564DF
:1004C0003A2000002C2066696C6520002C206C69A5
:1004D0006E65200010B5431C02E010F8011B71B1DD
:1004E0008107FAD14FF0013202C88C1A8C4314EA0A
:1004F000C211F9D0C01A0A0603D0C01E10BDC01A1E
:1005000010BD0A0401D0801E10BD0902FCD0401E9F
:1005100010BD4FF0000200B51346944696462039B0
:1005200022BFA0E80C50A0E80C50B1F12001BFF4AC
:10053000F7AF090728BFA0E80C5048BF0CC05DF812
:1005400004EB890028BF40F8042B08BF704748BF60
:1005500020F8022B11F0804F18BF00F8012B7047D4
:1005600070477047704710B500F0B6FA006810BDCC
:1005700010B5044600F0B0FA046010BD2DE9F04754
:100580000D4699469246044600F124080168880603
:1005900004D5E06921F01001216000E00120A842AB
:1005A00001DD471B00E00027A1697A1902EB090071
:1005B000081AA0612078C00602D42046FFF74AFE40
:1005C000002608E0D4E901211AF806009047206AC5
:1005D000401C761C20624E45F4DB2078C0060AD50C
:1005E0002046FFF737FE06E0D4E90121302090478E
:1005F000206A401C2062381EA7F10107F4DC07E0E6
:10060000D4E9012118F805009047206A401C2062B7
:10061000281EA5F10105F3DC2046FFF731FE207806
:10062000000602D50220BDE8F0870120FBE72DE996
:10063000FF4F0C461E464FF0FF378BB0D2E900014A
:10064000DDF860800A908A46C1F30A5505B93D4637
:10065000002108464FF00000BAF1000F00F44000FE
:1006600005DA00EB80004FF4400101EA50004FEA48
:100670009059B9F1010F00DDB9460A9850EA4A00D5
:100680000ED044F61050A5F2FF3545432F14B8F1B3
:10069000000F1ED07542291E1EDDC9F100021CE0AC
:1006A000B8F1010F4FF0000001D0302103E0F24318
:1006B00005E02154401CB042FBDB30460022002103
:1006C00021540B99C1F80880C1E900200FB0BDE8A2
:1006D000F08FBD1B6D1CDEE74A4600DA694206A8B2
:1006E00000F084FA06AB93E8070003AB83E8070049
:1006F00050460A9904F0A3FF8DE80700A0F50050CA
:100700001F3800900398002D0ADD42F21F014A466F
:100710000844002303A90390684605F00DFA09E098
:10072000A0F500504A461F38002303A903906846ED
:1007300005F017FA8DE807000004000C03D04FF015
:10074000FF30410800E01046B8F1000F03D000224E
:10075000009215461EE0751E05D400F0C1F9303236
:1007600062556D1EF9D5B3460122084302D000221E
:100770007F1C04E02078302801D100227F1E002A4F
:10078000099784D01DE0112D07DA00F0A9F9303265
:1007900062556D1C50EA0102F5D1084302D0009861
:1007A000C8B10EE00021681E05E0235C625C635462
:1007B0002254401E491C8142F7DBAB46A81B401E59
:1007C0000990002004F80B000B98099AC0F80880E3
:1007D000C0E9002B7AE711264FF0000857E72DE912
:1007E000F04F88460446D21D22F0070191B0D1E9AE
:1007F0000001CDE90A0105F0EBFA02460B98C00FA3
:1008000001D02D2007E02068810701D52B2002E0D0
:10081000202101EAC000032A099001D0072A05DB44
:1008200003464146204600F0A1F90BE120788006FE
:1008300001D5E06900E00620B8F1650F814606D0D9
:10084000B8F1660F18D0B8F1670F70D131E0002011
:10085000B9F1110F009001DB112301E009F101034F
:100860000AAA01A90CA8FFF7E2FEDDE90C70002638
:1008700009F10105834647E001204B4600904FF007
:1008800000470AAA01A90CA8FFF7D1FEDDE90DB0C7
:100890000C995D46002610B909F101000D18B9EB5D
:1008A000050003D4C0F1FF3609F10105A5EB0900ED
:1008B0002BE0B9F1010F01DA4FF001090020B9F185
:1008C000110F0090484601DD112300E003460AAAFB
:1008D00001A90CA8FFF7ABFEDDE90C704D46002620
:1008E0008346207800070AD4AB4500DA5D4601A8AC
:1008F000012D04DD411911F8011C302907D04F45A5
:1009000002DA17F1040F04DA012082460FE06D1EAF
:10091000EEE7002F02DCED1B3E4403E0781CA8420A
:1009200000DD7D1CB81B00F1010A4FF00047207864
:10093000000703D4AA4501DB4FF0FF3A0021B7F1CD
:10094000004F0DF143088DF8431024D002202B23D3
:10095000002F01DA7F422D230A21021EA0F101009F
:1009600000DC5FB197FBF1FC97FBF1F201FB1C7C13
:1009700017460CF1300C08F801CDEEE7A8F10100A4
:1009800003702188090501D5452100E06521A0F10A
:10099000010800F8011C09980FA9A1EB0807FF1D29
:1009A00000B10120411901EBEA70A1693844081A2D
:1009B000401EA0612078C00602D42046FFF74AFC02
:1009C000099828B1D4E901219047206A401C20628F
:1009D0002078C00622D52046FFF73CFC1EE0002E02
:1009E00004DBB34502DD01A8805D00E03020D4E9DE
:1009F00001219047206A401C2062761CAAF1010068
:100A00005FEA000A0AD100F063F8C0680168405C40
:100A1000D4E901219047206A401C2062281EA5F1DC
:100A20000105DCDC07E0D4E9012118F8010B90474F
:100A3000206A401C2062381EA7F10107F3DC204623
:100A4000FFF71EFC032011B041E6000001694A1CBB
:100A500002610878704700B58FB0CDE901310021FF
:100A6000059105497944CDE9031011466846FFF721
:100A700055FC0FB000BD0000E5FFFFFFD1E90023EA
:100A80009A4202D2531C0B601070704710B50020C0
:100A900000F01EF9FFF78CFBBDE81040012000F0CC
:100AA00011B810B5044602E0641C00F004F8207888
:100AB0000028F9D110BD08B569468DF80000032063
:100AC000ABBE08BD01491820ABBEFEE72600020000
:100AD0000048704770000020004870475000002018
:100AE00030B5B0F10A0271F100034FEA900E4EEA00
:100AF000817EB0EB0E0061EB91014FEA101E4EEAD1
:100B0000017E10EB0E0041EB11114FEA102E4EEA60
:100B1000016E10EB0E0041EB11214FEA104E4EEA30
:100B2000014E10EB0E0041EB1141401841F1000164
:100B30004FEAD00040EA41704FEAD1014FEA810408
:100B400044EA907410EB800544EB01046D1944EB0A
:100B50000404521BA3414FF0000348BF0A3200D5E2
:100B600030BD401C41F1000130BD00002DE9F041D5
:100B70001F46044603260168072A01F4006004DBCF
:100B800008B116A505E016A503E008B115A500E01B
:100B900015A521F010002060A069C01EA0610FB152
:100BA000401EA0612046FFF755FB4FB1D4E901215B
:100BB00038469047206A401C2062C01C206206E034
:100BC000206AFAE7D4E9012115F8010B9047761E57
:100BD000F8D22046FFF754FBBDE8F0814E414E00AD
:100BE0006E616E00494E4600696E66002DE9F04761
:100BF000814616468AB0354878440DC88DE80D0008
:100C000032487844801C03AC0DC884E80D0041F6DE
:100C10009B300844372190FBF1F290FBF1F5A5F1F0
:100C2000800501FB12041B3C02D56442012000E058
:100C30000020DFF898A080460027FA44AAF1BE0AF7
:100C40000EE0E0070AD03246684607EB4701012371
:100C50000AEB810104F085FF8DE8070064107F1C1A
:100C6000002CEED1194F7F44AE3F19E0E80715D0B4
:100C700007EB04100DF1180A90E80E008AE80E0048
:100C8000C068F04201D1981908903246012306A9A4
:100C900003A804F066FF03AB83E807006D10641C33
:100CA000002DE3D14FF0010332466946B8F1000F41
:100CB00003A802D004F040FF01E004F052FFC9E9AC
:100CC0000001C9F808200AB0BDE8F087D06B000029
:100CD00010B500F03DF8BDE8104000F034B8000059
:100CE000004870475000002070477546FFF7F8FF36
:100CF000AE4605006946534620F00700854618B009
:100D000020B5FFF775FABDE820404FF000064FF020
:100D100000074FF000084FF0000BAC46ACE8C009EC
:100D2000ACE8C009ACE8C009ACE8C00921F0070193
:100D30008D46704710B50446AFF300802046BDE8ED
:100D40001040FFF740BA002801D0FFF7BBBE704744
:100D500010B5002102A000F053F8012010BD0000E2
:100D6000534947414252543A2041626E6F726D615D
:100D70006C207465726D696E6174696F6E0000003D
:100D80004FF0013C50F8042B51F8043B9A4221D11A
:100D9000A2EB0C03934313EACC1317D150F8042BA6
:100DA00051F8043B9A4215D1A2EB0C03934313EA8A
:100DB000CC130BD150F8042B51F8043B9A4209D1C3
:100DC000A2EB0C03934313EACC13DBD04FF00000EB
:100DD000704700BFD01A01BAB1FA81F101F01801D1
:100DE00022FA01F0CB40DBB2C0B2C01AC1F120013F
:100DF0002CFA01F3D11A914311EAC311E6D17047DD
:100E000070B505460C460A2000E06D1CFFF753FE46
:100E100035B128780028F8D102E0641CFFF74BFEBA
:100E200014B120780028F8D1BDE870400A20FFF7FF
:100E300042BE000040F2E410C2F2000000F076BFB3
:100E4000B0B5044600688168C90709D0816821F0FF
:100E50000101816001F094FC21688968C90701D112
:100E60000020B0BD054603E020688068C007F7D0C9
:100E700001F086FC401B0328F6D320688068C00779
:100E8000F2D0A06A40F01000A062E06A40F00100D9
:100E9000E0620120B0BD00000146406A826A12F0A3
:100EA000500F03D0006A026B084610470168826A3F
:100EB00042F400728262896801F46021B1F5602F0A
:100EC00001D1017B09B100F00BBF816A21F480716F
:100ED0008162816AC90448BF00F002BF816A41F0A3
:100EE0000101816200F0FCBE406A816A41F040016C
:100EF0008162C16A41F00401C16200F015BF0000C7
:100F0000406A00F00FBF0000B0B582B00446002078
:100F1000019021688A68D2073AD1886840F00100C0
:100F2000886040F20000C2F2000000684DF6836164
:100F3000C4F21B31A0FB0101880C00BF0190019895
:100F400010B101980138F9E701F01AFC21688968AD
:100F5000C9071CD1054603E020688068C00716D188
:100F600001F00EFC401B0328F6D320688068C00700
:100F7000F2D1A06A40F01000A062E06A40F00100E7
:100F8000E062002084F82400012002B0B0BD0020FF
:100F900002B0B0BD7047000040F2E410C2F20000A1
:100FA000006840F280118068C2F2000100F4E04065
:100FB000086040F28C10C2F20000012101707047FD
:100FC00080B540F20030C2F20000007847F2FE71B6
:100FD000C0F6000111F800C0BCF1000F16D040F2BD
:100FE0009210C2F20000811E40F29010C2F2000086
:100FF000B0F800E00022604631F8023F0138A3EB70
:101000000E0303FB0322F7D190B200E00020ACF105
:10101000010190FBF1F005F0CBFB05F009F900238D
:10102000C4F20803002205F0CDFF002840F28C1026
:101030004FF00601C2F2000018BF0221017080BD0E
:1010400080B540F20030C2F20000007847F2FE7135
:10105000C0F6000111F800C0BCF1000F0CD040F246
:101060009211C2F200018A1E0021634632F8020F7B
:10107000013B0144FAD100E00021B1FBFCF006F095
:1010800005F94FF07C5105F02DFF06F0E3F840F232
:101090009011C2F20001088040F28C10C2F20000F0
:1010A0000521017080BD0000B0B540F2801040F213
:1010B000E414C2F20000C2F200040568204600F009
:1010C00033FD204601F09AF8204601F051F82068DF
:1010D000816821F4E04129438160806800F4E040A8
:1010E000A84218BFB0BD40F28C10C2F20000082127
:1010F0000170B0BD10B540F28B10C2F20000017853
:1011000040F2C414C2F2000489B10021017040F21F
:10111000E410C2F20000012100F098FC218840F2A6
:101120009212C2F2000222F81100481C208040F204
:101130000031C2F20001097847F2FE72C0F60002E7
:101140002088515C884210D340F2E410C2F20000C3
:1011500000F0EAFC002818BF10BD0020208040F2FB
:101160008C10C2F200000421017010BD40F29010FA
:10117000C2F200000088A0F2A66189B2B1F5704FFA
:1011800016D940F2E411C2F2000191F82420012A9C
:1011900008BF704700F65A100A6880B250620020FB
:1011A00081F8240040F28C10C2F200000721017087
:1011B0007047000010B540F2E414C2F2000420466B
:1011C00000F0B2FC204601F019F8204600F0D0FFF4
:1011D0002068816841F4E0418160806800F4E0406B
:1011E000B0F5E04F18BF10BD40F28C10C2F2000005
:1011F0000221017010BD000080B540F2E410C2F27F
:10120000000000F037FC002818BF80BD40F28C10B1
:10121000C2F200000321017080BD000010B540F251
:101220008C14C2F20004207840F20C01C2F20001DA
:1012300051F82000804720780738B0FA80F0400944
:1012400010BD0000002804BF0020704710B506F054
:101250001DF84FF20001C4F27F5105F005FF43F283
:101260003331C4F2530106F08DF840F29011C2F20E
:10127000000109880446084606F008F801462046A1
:1012800006F04CF90021C4F2203105F0EDFE41F2E8
:101290006F21C3F6832105F0E7FE10BD002804BFCF
:1012A0000020704710B505F0F1FF4FF20001C4F2C5
:1012B0007F5105F0D9FE43F23334C4F25304214682
:1012C00006F060F80146204605F0CEFE05F0DEFD92
:1012D0000023CBF6F073002205F018F848F600035F
:1012E000C4F2C303002205F0F3FA04F0DDFF44F278
:1012F0000001C4F21C6105F0B7FE05F0C7FD04F063
:10130000E9FD4DF6811249F26573C7F61E62C3F618
:10131000307305F0DDFA4AF2457247F6E113CEF27A
:101320002562C3F66B7304F0F1FF0B460021024601
:10133000C3F6F071002005F0A5F804F0B5FF05F044
:10134000A5FD41F26623CCF271034FF0663204F042
:10135000DDFF04F0A9FF10BD10B5044605F096FFAF
:101360004FF20001C4F27F5105F07EFE43F23331AB
:10137000C4F2530106F006F80021C4F2F42106F08D
:1013800001F8002C08BF204610BD000010B503F086
:1013900051FE03F039FDE0B103F028FEC8B103F0BF
:1013A00037FEB0B100F0BEF9002480B103F0F0FDCB
:1013B00068B140F28A10C2F20000047040F2A0202E
:1013C000C2F2000001684C6202F0CEF8012420460F
:1013D00010BD002010BD000001207047B0B503F023
:1013E00011FE20B342F2107003F05AFEF8B1FF2054
:1013F00001F0D0FA03F000FEC8B100F093F9B0B1EB
:1014000040F20030C2F2000003F036FE40F2300538
:10141000C2F2000505F108000121012403F0F0F9F2
:1014200005F11000012103F0EBF92046B0BD0020CA
:10143000B0BD0000012070470120704701207047B7
:10144000012070470120704701207047012070473C
:101450000120704780B540F25820C2F200000821F8
:1014600002F012FB50B140F25820C2F200000C21F1
:1014700002F00AFB002818BF012080BD002080BDBB
:1014800001207047FEE70000B0B540F2CA10C2F27A
:1014900000000488204605F0F9FE4FF20001C4F276
:1014A0007F5105F0E1FD43F23331C4F2530105F001
:1014B00069FF0021C4F2F42105F064FF0546002114
:1014C000002C08BF2546C4F27A31284605F0ABFD52
:1014D00048F2000104460028C4F2AC31284618BF87
:1014E000012405F0A7FD002818BF01202040B0BD51
:1014F00040F21420C2F2000000F0F6BE40F28A1062
:10150000C2F200000178002908BF70470021017075
:1015100040F2841040F2C81CC2F20000C2F2000C7B
:101520000188BCF8003040F29832C2F2000222F882
:101530001310418840F23032C2F2000222F8131038
:10154000808840F26231C2F2000121F81300581C79
:10155000ACF800007047000070B540F20030C2F2F5
:101560000000007847F2FE71C0F600010C5C851F98
:1015700015F1050F01D200200FE040F29830C2F2C1
:1015800000002146821E0020012C98BF012100BFCF
:1015900032F8023F01391844FAD1B0FBF4F005F0FB
:1015A00075FE4FF07C5105F09DFC05F053FE40F2B6
:1015B000CA16C2F2000615F1050F308001D20020D4
:1015C0000FE040F23030C2F200002146821E0020BF
:1015D000012C98BF012100BF32F8023F01391844A5
:1015E000FAD1B0FBF4F005F051FE4FF07C5105F05C
:1015F00079FC05F02FFE15F1050F708001D2002057
:101600000FE040F26230C2F200002146821E00204C
:10161000012C98BF012100BF32F8023F0139184464
:10162000FAD1B0FBF4F005F031FE4FF07C5105F03B
:1016300059FC05F00FFEB08040F2E820C2F2000035
:101640000221017070BD000040F28A10C2F2000059
:10165000017801B30021017040F2841040F2C812F9
:10166000C2F20000C2F200020188128840F29833F0
:10167000C2F2000323F81210418840F23033C2F264
:10168000000323F81210808840F26231C2F2000198
:1016900021F81200704710B540F20031C2F200018B
:1016A00040F2C814097847F2FE72C2F20004C0F694
:1016B00000022088515C884210D340F2E410C2F24C
:1016C000000000F09BFD002818BF10BD0020208006
:1016D00040F2E820C2F200000121017010BD0000BC
:1016E0007047000040F2D11CC2F2000C9CF80A10B6
:1016F0009CF80B30994211D09CF80B201CF802206A
:1017000002709CF80B0041F69A1201304243120C11
:1017100002EB8202A0EB42008CF80B00C81A18BF43
:101720000120704780B540F25820C2F200000068E6
:101730000022C16841F08001C1601820002101F041
:10174000A1F8182001F08EF8012080BDEFF3108081
:1017500072B600BFFEE7000070B582B004460020FC
:10176000019094F82400012801D1022566E00120AF
:1017700084F824002046FFF763FB2046FFF7C4FBF4
:101780000546002857D1A06A41F202118843023071
:10179000A06240F20000C2F200000668022001F0E0
:1017A00057F9B6FBF0F040000190019810B1019894
:1017B0000138F9E72068816841F00801816000F094
:1017C000DFFF21688A6812070DD4886840F00400A2
:1017D000886000F0D5FF21688968490714D401208A
:1017E0006FF0030123E0064604E000BF216888682B
:1017F0000007EAD500F0C4FF801B0B28F6D3206851
:1018000080680007F2D50EE0064603E02068806895
:101810004007E4D500F0B4FF801B0B28F6D3206806
:1018200080684007F2D5012510206FF01201A26AEE
:1018300011400843A062002084F82400284602B02A
:1018400070BD0000F0B581B00022009290F8242015
:10185000012A02D14FF0020CD3E083684C680122C8
:1018600080F82420B3B1D1F810E00268B4EB0E0484
:1018700004EB8404D2F838C004F10F044FF01F03C6
:1018800003FA04F32CEA030323F4401C0DD9C2F835
:1018900038C015E0012C40F08B800268936B0C6817
:1018A0006FF3150343EAC43309E000230D68CFF654
:1018B000F07303EB0E53A5402B4343EA0C039363F1
:1018C0004FF0000C03689A68D20706D19A6847F275
:1018D00001058C69AA4322439A6091F815E0BEF194
:1018E000010F10D18D6900F12804B5F5E04F4FF0DC
:1018F000200514BF4FF0010C1C1D08BF4FF480657C
:1019000022682A4322600A7D012A0ED100F12802B2
:101910002025BEF1000F14BF4FF0010C1A1D08BFA7
:101920004FF48055146825431560D1F800E0102469
:101930000EEB4E02BEF1090F88BF1E3A88BF0C2481
:101940001D5907268F689640B54307FA02F21543E2
:101950002EF00102102A1D5103D19C6844F40004AA
:101960009C604C68032C08D0022C09D0012C14BFB9
:1019700003F1200403F1140404E003F11C0401E06A
:1019800003F11804256840F6FF76C968B54329437A
:10199000102A216032D142F20041C4F201018B428F
:1019A0000DD0816A4FF0010C41F02001816225E0E9
:1019B000826A4FF0010C42F02002826282E789685D
:1019C00009021BD49968BEF1100F41F4000199601F
:1019D00014D140F20001C2F2000109684DF68362A1
:1019E000C4F21B32A1FB0212910C01EB81014900F0
:1019F0000091009911B100990139F9E7002180F8AF
:101A00002410604601B0F0BD006842F20041C4F20B
:101A10000101884200D0704740F20031C2F200015B
:101A200040F2C410097847F2FE72C2F20000C0F61C
:101A300000020088515C884228BF704740F28B103A
:101A4000C2F200000121017070470000022908D095
:101A500003290AD00068042914BF3C3048300068CC
:101A60007047006840300068704700684430006884
:101A70007047000010B5044690F82400012804BF08
:101A8000022010BD012084F824002046FFF73CFA14
:101A900018B1002184F8241010BD42F2044C2168D2
:101AA000A26AC4F2010C43F201039A430CF57F735E
:101AB00002F580529942A26203D0A26A22F48012F7
:101AC00007E0DCF8002012F4702FF6D0A26A42F48E
:101AD0008012A262A26AD2055CBF0022E2620022EA
:101AE00084F824206FF004020A604A6842F0800201
:101AF0004A604A68520548BF10BD8A6802F4E04255
:101B0000B2F5E04F06D1994209D1DCF8002012F479
:101B1000702F04D08A6842F400428A6010BD8A683F
:101B200042F402128A6010BD10B5044690F82400F9
:101B3000012804BF022010BD012084F82400A06AFF
:101B4000C00512D42068406840050ED42046FFF737
:101B500077F978B921684A6822F080024A60A16A60
:101B600041F201129143013103E0A06A40F02001EB
:101B70000120A162002184F8241010BD90F82420D7
:101B8000012A04BF02207047B0B5026891F808C06E
:101B90005368BCF1010F23F0400308BF403353608A
:101BA000D2F804E04FF6E05CCFF63F7CD1E9003597
:101BB0000EEA0C0423432B435360CB68536209693C
:101BC0009162002180F82410BDE8B04008467047BB
:101BD000B0B581B00022009290F82420012A01D1F2
:101BE000022179E04A680123062A02EB820C80F880
:101BF000243005D8026802F1340E6FF004020AE0C6
:101C000003680C2A87BF03F12C0E6FF0400203F12A
:101C1000300E6FF022026244DEF800C01F230C6811
:101C200093402CEA030304FA02F21A43CEF8002090
:101C3000D1F800E002680EEB4E041023BEF1090F4C
:101C400088BF1E3C88BF0C2352F803C00725896853
:101C5000A5402CEA0505A1402943D1502EF00101F1
:101C60004FF0000C10294FF0000133D1016842F20F
:101C70000042C4F20102914205D0816A41F0200184
:101C80008162012126E09268120222D48A68BEF1A4
:101C9000100F42F400028A601BD140F20001C2F230
:101CA000000109684DF68362C4F21B32A1FB0212E7
:101CB000910C01EB810149000091009949B100BFED
:101CC000009901390091009900294FF00001F7D1E6
:101CD00000E0002180F824C0084601B0B0BD00003B
:101CE00040F2E411C2F2000100680968884200D0A5
:101CF000704740F20031C2F2000140F2C81009788A
:101D000047F2FE72C2F20000C0F600020088515C89
:101D1000884228BF704740F28A10C2F200000121B9
:101D200001707047704700007047000070B50446AE
:101D3000006805684668B10627D515F0020124D071
:101D4000A16AC90603D4A16A41F40071A162816845
:101D500001F46021B1F5602F10D1217B71B9416888
:101D600021F020014160A06A20F48070A062A06A86
:101D7000C00403D4A06A40F00100A0622046FFF72F
:101D8000AFFF20686FF012010160300633D515F007
:101D9000040030D0A06AC00603D4A06A40F400500A
:101DA000A0622068816801F4E041B1F5E04F0FD1F5
:101DB000416821F080014160A06A20F48050A06257
:101DC000A06AC00510D4A06A40F00100A0620BE038
:101DD0004168490508D4816801F46021B1F5602F9C
:101DE00002D1217B0029E3D02046FFF70DFE2068B9
:101DF0006FF00C01016070060ED515F0010008BFF0
:101E000070BDA06A40F48030A062204600F0B6F8B1
:101E100020686FF00101016070BD0000002804BF60
:101E200001207047B0B50446806A30B90020E062F6
:101E300084F82400204600F0A3F820688168C907D0
:101E400009D0816821F00101816000F099FC2168CE
:101E50008968C90730D100200121A36AA26A31B381
:101E600013F0100123D141F2021122EA01010231E3
:101E7000A162E169D4E9013241EA030C531EB3FACD
:101E800083F35D091346B2F5807F18BF2B02217DD5
:101E9000257B01294CEA450E31D13DB3A56A45F0B9
:101EA0002005A562E56A45F00105E56227E042F0FC
:101EB0001000A0620120B0BD054603E020688068E4
:101EC000C007C8D000F05CFC401B0328F6D3206894
:101ED0008068C007F2D0A06A002140F01000A06224
:101EE000E06A40F00100E0620120B6E7D4F818C0D3
:101EF0004EF60005CFF6FF7505EB4C352B432568F4
:101F0000B2F5807F696821F4694141EA03016960A3
:101F1000A9684FF2FD73CFF6E17301EA030141EACC
:101F20000E01A96001D0012A06D121690022CFF655
:101F3000F07202EB015200E00022E96A21F4700124
:101F40001143E962A96840F6FE62CFF61F721140A4
:101F5000714507D10021E162A16A012262F301010A
:101F6000A162B0BDA06A40F0100020F00200A062A3
:101F7000E06A40F00100E0620120B0BD704700005F
:101F800070B586B0044640F60000C4F20100216836
:101F900000F5E052002691420596CDE903660296CF
:101FA00001D006B070BD41F21801C4F202010A6806
:101FB00042F400720A600A6802F400720192019A07
:101FC0000A6842F004020A60096801F00401019104
:101FD00001990F2102910321039102A900F0CAFA8D
:101FE00040F214250820C2F20005C4F202004FF4AA
:101FF0008072C5E9000605F1100080214FF480636E
:102000004FF0200C4FF4805E80E80C502846C5E964
:10201000026100F01DFA002818BFFFF797FB12209D
:102020000021002225626C6200F02CFC122000F0DE
:1020300019FC06B070BD00002DE9F04105460068AE
:1020400042F60006C4F201069046B0420F4605D0A3
:1020500042F20041C4F2010188420AD142F2044036
:10206000C4F20100006810F4702F1CBF0120BDE80D
:10207000F08195F82400012804BF0220BDE8F0811A
:10208000012085F824002846FEF73EFF044628B1CB
:10209000002085F824002046BDE8F08142F204408B
:1020A0002968AA6AC4F2010040F601739A4300F558
:1020B0007F7302F580729942AA6207D0A86A20F461
:1020C0008010A8624868400513D417E0026812F433
:1020D000702FF3D0AA6AB14242F48012AA6205D0EE
:1020E00042F20042C4F20102914207D10068400569
:1020F00004D5A86A012262F30D30A862AA6A002002
:10210000D2044FF0000244BFEA6A22F00602EA62FB
:1021100085F82400286A40F69962C0F6000240F66D
:10212000017340F6E96600F1280CC0F60003C0F622
:1021300000068CE84C006FF002020A608A68434691
:1021400042F480728A604C313A4600F0C5F9286842
:10215000816801F460228168B2F5602F0CBF41F400
:10216000A00141F4801181602046BDE8F0810000AB
:10217000B0B5044690F82400012804BF0220B0BD89
:102180000121206884F824108268D20702D100203F
:1021900069B912E0816821F00101816000F0F0FA74
:1021A00021688968C9070CD10020012129B1A16AE1
:1021B00041F2011291430131A162002184F82410FF
:1021C000B0BD054604E000BF20688068C007EBD0C2
:1021D00000F0D6FA401B0328F6D320688068C007B9
:1021E000F2D0A06A002140F01000A062E06A40F046
:1021F0000100E06201200029D9D1DEE7B0B5044634
:1022000090F82400012804BF0220B0BD01212068FD
:1022100084F824108268D20702D1002041BB3FE03D
:10222000816821F00101816000F0AAFA21688968C3
:10223000C90703D100200121D1B931E0054603E0EF
:1022400020688068C007F5D000F09AFA401B032888
:10225000F6D320688068C007F2D0A06A002140F061
:102260001000A062E06A40F00100E0620120B9B114
:102270002268216A936823F48073936091F8212087
:10228000022A0DD1084600F00FF8A16A41F20112AE
:1022900021EA020241F04001002808BF511CA1625E
:1022A000002184F82410B0BD014690F821000228D6
:1022B00013D10868D1E90FC3026822F00E02026050
:1022C000026822F001020260012000FA03F2CCF859
:1022D000042081F82100002002E00420886301200E
:1022E000002281F82020704710B5D0E90FCE016898
:1022F000DCF800300A6823FA0EF35C0724D512F0EC
:10230000040421D00A68920603D40A6822F0040269
:102310000A602F22C4F20202914240F20402C4F287
:1023200002024FDD3023C4F20203994262D04423FB
:10233000C4F20203994260D05823C4F202039942C6
:1023400060D14FF4802365E09C0727D512F002048A
:1023500024D00A68920606D40A6822F00A020A60AB
:10236000012280F821202F22C4F20202914240F281
:102370000402C4F2020231DD3023C4F202039942A6
:102380004ED04423C4F2020399424CD05823C4F2E5
:10239000020399424CD14FF4003351E01B0756D54C
:1023A00012F0080208BF10BD0A6822F00E020A608F
:1023B000012101FA0EF2CCF80420816380F821108B
:1023C000016B3FE00823C4F20203994218D01C239A
:1023D000C4F20203994215D140231BE00823C4F242
:1023E0000203994222D01C23C4F2020399421FD156
:1023F000202325E04FF480630CE04FF4804309E094
:10240000042307E002F168044FF08063A14208BF93
:102410004FF480031360C16AC9B1BDE8104008479A
:102420004FF400730CE04FF4005309E0022307E07F
:1024300002F168044FF00073A14208BF4FF400138B
:102440001360816A0022002980F82020E5D110BDA8
:10245000014600284FF0010008BF70472DE9F04702
:102460000A684FF6F873CBF6FD7302EB030C4CF6DB
:10247000CD43CCF6CC43ACFB033C6FF00307002606
:1024800007EA9C07C4F2020601F10C0AC1E90F67D2
:102490000227D1E9013E9AE83004D1E9069881F893
:1024A0002170176843F6F076B7433B4343EA0E03C7
:1024B00023432B4343EA0A0343EA090343EA08039D
:1024C000136000228A6381F8210081F82020002017
:1024D000BDE8F0477047000090F820C0BCF1010F44
:1024E00004BF02207047F0B54FF0010E80F820E0E5
:1024F00090F821C0BCF1010F23D14FF0020C80F8FD
:1025000021C04FF0000CC0F838C0D0E900C4C56A43
:10251000C66BDCF80070102C27F00107CCF80070B7
:10252000006C0EFA00F070600846CCF8043004BF6E
:1025300010460A46CCF80800CCF80C2035B10E2025
:102540000BE0002180F820100220F0BDDCF8000034
:1025500020F00400CCF800000A20DCF8001008434A
:10256000CCF80000DCF8000040F00100CCF80000DE
:102570000020F0BD2DE9F04F82B00E68002E00F073
:10258000F68041F20042C4F20102042340F2004E00
:10259000904208BF03234FF6FF7CC4F2010E009364
:1025A00000240123C1F2100C4FF0000A4FF0000983
:1025B00043E0012704F00C030F229A402BEA0202A9
:1025C00007FA03F34FEA9A051A4346F825204E68A6
:1025D00040F20C45F202DEF8082054BF22EA08025D
:1025E00042EA0802C4F20105CEF808202A68B302C4
:1025F00054BF22EA080242EA08022A60B303DEF866
:10260000042054BF22EA080242EA0802F303CEF88B
:102610000420DEF800204FF0010354BF22EA080234
:1026200042EA0802CEF800200E680AF1010A36FAE2
:102630000AF204F1040400F09A8003FA0AFB16EA95
:102640000B08F1D04E68664510DC122E50D8DFE83A
:1026500006F0330A41454F4F4F4F4F4F4F4F4F4FAB
:102660004F4F4F484C00D1F80C9041E04FF6FF72AD
:10267000C1F2210296420FDC0022C1F21102964201
:102680001AD00022C1F21202964215D00022C1F2E5
:102690002102964210D02BE00022C1F22202964283
:1026A0000AD00022C1F23102964205D00022C1F2C6
:1026B000320296421CD100BF8A6842B1012A14BF7F
:1026C000C0F814B0C0F810B04FF0080910E04FF097
:1026D00004090DE0CA6802F1080909E04FF0000999
:1026E00006E0CA6802F1040902E0CA6802F10C09B6
:1026F00022460646B8F5807F24BF203A0436376864
:102700000F25954027EA050509FA02F22A433260AF
:10271000CA79D2067FF588AF41F21803C4F20203EA
:102720001A68AEF57E7642F001021A601A6802F06D
:1027300001020192019A2AF0030256F802B040F613
:102740000002C4F2010290420FD040F60042C4F2EF
:10275000010290423FF42DAF41F20002C4F20102A7
:10276000009F904208BF022724E7002722E702B01B
:10277000BDE8F08F002A08BF09040161704700001E
:1027800040F29430C2F200000068704740F2490005
:1027900040F29431C2F20000C2F2000100780A68EF
:1027A000104408607047000080B542F20000C4F297
:1027B0000200016841F010010160032000F08EF872
:1027C0000F2000F005F800F02BF8002080BD00007D
:1027D000B0B540F24902C2F2000240F200011278A4
:1027E000C2F200014FF47A730968B3FBF2F20446B7
:1027F000B1FBF2F1084600F0BBFC0F2C4FF00105D5
:102800000CD858B94FF0FF3021460022002500F0C7
:1028100039F840F24C00C2F2000004602846B0BD16
:1028200082B041F21800C4F202000168022241F0B5
:1028300001010160016801F0010101910199416804
:1028400041F080514160406800F080500090009855
:102850000420C4F20100016862F31A61016002B051
:1028600070470000002848BF704700F01F01012298
:1028700002FA01F14EF200124009CEF2000242F8D3
:102880002010704710B54EF60C5CCEF2000CDCF850
:102890000030C3F3022E8EF00704042C28BF04245A
:1028A000BEF103034FF0FF3E0EFA04F438BF0023DD
:1028B000A14399400EFA03F39A43114300F1604299
:1028C00000F00F03090102F56442043B6344002851
:1028D00048BF03F10C02117010BD00004EF60C5100
:1028E000CEF200010A684FF6FF031A4060F30A2295
:1028F00042F0806040F0FD700860704740F2582060
:10290000C2F200000068C06A704700004AF200216D
:102910004000C0F24A41B1FBF0F040F25821C2F24F
:1029200000010A68431E4008D362CB605063906385
:102930007047000040F25820C2F2000000680021F9
:102940004162704740F25821C2F200010A68D06229
:10295000C860704708280CD0042812D0002840F224
:102960005820C2F20000006814BF403034300160CB
:10297000704740F25820C2F2000000683C3001600D
:10298000704740F25820C2F2000000683830016001
:102990007047000040F25821C2F2000109684A6CF9
:1029A00022F0FF02104448647047000010B540F266
:1029B0005824C2F20004206800214162204601F040
:1029C0007BFB2046002100F053FC2046042101F04F
:1029D00073FB20460421BDE8104000F049BC000014
:1029E00010B540F25824C2F200042046002101F044
:1029F000C3FB2046002100F093FC2046042101F097
:102A0000BBFB20460421BDE8104000F089BC00005B
:102A100040F25820C2F20000006841F21112016A2F
:102A2000114200D07047016A40F24442114218BF7F
:102A30007047016821F001010160704740F25820A1
:102A4000C2F200000068016841F0010101607047B6
:102A500001280ED0022837D0102808D141F20401F5
:102A6000C4F202010A6851F8040CC0013ED40020EF
:102A7000704741F20400C4F20200C16940F2023220
:102A80000A40B2F5817F04BF4FF40040704701F463
:102A90004071B1F5407F0FD0B1F5007F1CBF002021
:102AA0007047026A920744BF49F640407047B1F54B
:102AB000407F1CBF0020704750F8040C4FF22441A7
:102AC000800301EAE070704780B500F09DF941F2A3
:102AD0000401C4F2020109680222C1F3813102EB50
:102AE0004101B0FBF1F0BDE880407047C2F3834084
:102AF00011A3185CD20305D440F60012C0F23D02C7
:102B000050430BE00A6810A3C2F340429A5C41F2C2
:102B10000023C0F27A03B3FBF2F250430968490282
:102B200048BF70474AF6AB214000CAF6AA21A0FB75
:102B300001014808704700BF0203040506070809A1
:102B40000A0B0C0D0E0F1010010200002DE9F041D0
:102B500082B00446007841F21C06C007C4F20206A7
:102B60004AD030685FEAC00808D4306840F080502E
:102B70003060306800F080500190019847F2000703
:102B8000C4F200073868C00512D4386840F4807079
:102B90003860FFF7F5FD05463868C00508D4FFF733
:102BA000EFFD401B6428F7D9032002B0BDE8F08197
:102BB000706810F4407012D0616801F4407188426E
:102BC0000DD0706840F24042C4F24222012320F44A
:102BD000407113600023C0071360716025D17068D5
:102BE000616820F440700843B8F1000F706003D4AE
:102BF000306820F0805030602068810707D556F893
:102C0000181CA26821F44041114346F8181CC00664
:102C100007D556F8180CE16820F48000084346F800
:102C2000180C002002B0BDE8F081FFF7A9FD0546B1
:102C300041F2883770688007D1D4FFF7A1FD401BAF
:102C4000B8424FF00300F5D9ECE70000002804BFBC
:102C5000012070472DE9F04381B042F20008C4F230
:102C600002080446D8F800000D4600F0070088422C
:102C70000CD2D8F8000020F007002843C8F8000064
:102C8000D8F8000000F00700A8426BD1206841F29C
:102C900004098107C4F2020917D5410705D5D9F8FF
:102CA000001041F4E061C9F80010010705D5D9F81A
:102CB000001041F46051C9F80010D9F80010A26862
:102CC00021F0F0011143C9F80010C00741D1D8F834
:102CD000000000F00700A8420CD9D8F8000020F04E
:102CE00007002843C8F80000D8F8000000F00700EB
:102CF000A84237D12068410707D5D9F80010E2680B
:102D000021F4E0611143C9F80010000708D5D9F893
:102D10000000216920F4605040EAC100C9F80000B9
:102D2000D9F8002002F00C00082841F20020C0F27F
:102D30007A004DD147F60603C2F38341C0F6000383
:102D4000595CD20338D440F60010C0F23D0048432D
:102D50003EE06068022809D0012828D159F8041CF7
:102D6000890307D4012001B0BDE8F08359F8041CA1
:102D70008901F7D5D9F8001021F003010843C9F8FB
:102D80000000FFF7FDFC064641F28837D9F8000045
:102D9000616800F00C00B0EB810F98D0FFF7F0FCF9
:102DA000801BB842F2D9032001B0BDE8F08359F886
:102DB000041C8907D6D5DDE7D9F8002047F2FC735B
:102DC000C2F34042C0F600039A5C4843B0FBF2F005
:102DD000D9F8001047F2E472C1F30311C0F6000203
:102DE000515C40F2000220FA01F140F24C00C2F2C4
:102DF00000000068C2F200021160FFF7E9FC002049
:102E000001B0BDE8F083000040F2000041F204018F
:102E1000C2F20000C4F202010068096847F2F472CD
:102E2000C1F3C221C0F60002515CC84070470000E7
:102E3000002804BF012070472DE9F04182B004460C
:102E4000007841F20006C007C4F2020649D070685B
:102E500000F00C00042809D13068800341D5606877
:102E600000283ED1012002B0BDE8F081706800F07A
:102E70000C00082802D17068C003EDD465682DB13C
:102E8000B5F5A02F0AD0B5F5803F0BD0306820F4FF
:102E900080303060306820F4802006E0306840F4F4
:102EA00080203060306840F480303060FFF768FC8C
:102EB000002D054612D000BF3068800311D4FFF703
:102EC0005FFC401B6428F7D918E100BFFFF758FCEE
:102ED000401B64284FF0030000F2D8803068800364
:102EE000F4D42078800719D5706810F00C0F07D043
:102EF000706800F00C00082827D17068C00324D443
:102F00003068800703D52069012840F0A68030682A
:102F1000616920F0F80040EAC100306020780007C5
:102F20004ED5A06938B30020C4F242200121C0F878
:102F30008014FFF725FC0546706A80072DD4FFF743
:102F40001FFC401B0228F7D9D8E02069002840F276
:102F50000000C4F2422000F0A88001210160FFF7C8
:102F60000FFC054630688007D1D4FFF709FC401BF1
:102F70000228F7D9C2E00020C4F242200021C0F8A4
:102F80008014FFF7FDFB0546706A800718D5FFF730
:102F9000F7FB401B0228F7D9B0E040F20000C2F274
:102FA0000000006844F6D351C1F26201A0FB0101A8
:102FB000480A019000BF0198411E00280191F9D1F3
:102FC0002078400717D4E5698DB1706800F00C00D7
:102FD000082846D1012D40D07068216A00F4803263
:102FE0008A423AD1616A00F47010884235D10020DB
:102FF00002B0BDE8F081F0695FEAC00808D4F0696A
:1030000040F08050F061F06900F08050009000982E
:1030100047F20007C4F200073868C0050FD43868CB
:1030200040F480703860FFF7ABFB05463868C00598
:1030300005D4FFF7A5FB401B6428F7D95EE0E568DF
:103040001DB1052D42D0012D44D0306A20F0010081
:103050003062306A20F004003FE0012002B0BDE899
:10306000F0810027C4F2422700203866FFF788FB72
:10307000022D05460ED100BF3068800155D5FFF7FF
:103080007FFB401B02284FF00300F5D902B0BDE8DA
:10309000F08100BF30688001A9D5FFF771FB401BAC
:1030A00002284FF00300F5D9F0E700210160FFF797
:1030B00067FB0546306880077FF530AFFFF760FBA0
:1030C000401B02284FF00300F4D9DFE7306A40F0DC
:1030D00004003062306A40F001003062FFF750FBBC
:1030E000002D054641F2883713D000BF306A8007B3
:1030F00012D4FFF745FB401BB842F7D9032002B0BA
:10310000BDE8F081FFF73CFB401BB8424FF00300E5
:10311000BCD8306A8007F5D4B8F1000F3FF553AF43
:10312000F06920F08050F0614DE7206AB0F5803FF3
:1031300005D17168A26821F4003111437160716892
:10314000626A21F4741111430843706001203866EB
:10315000FFF716FB044600BF306880013FF547AF1C
:10316000FFF70EFB001B02284FF00300F4D98DE798
:10317000411E0020B0EB116F1CBF012070474EF2C2
:103180001002CEF2000251604EF62351CEF2000141
:10319000F0230B70072190601160704770470000AA
:1031A0007047000090F83C20012A04BF02207047BD
:1031B000B0B501F108053CCDD1E900CE23F47C5334
:1031C00022F470521A432EF4F0431A432CF4E043D5
:1031D0001A4324F4C0431A432A43C96922F48042A3
:1031E000036811435964002180F83C10BDE8B040E9
:1031F0000846704790F83C20012A4FF0020234D074
:1032000010B5012380F83C3080F83D200268D2F8E8
:1032100004E0D2F808C00C682EF07003234340F29B
:10322000FF74C4F20004A242536005DCB2F1804F87
:103230000ED040F2004307E042F60043C4F201031F
:103240009A4205D040F60003C4F200039A4204D12A
:1032500049682CF08003194391600121002280F815
:103260003D1080F83C20BDE810401046704700003B
:1032700041B1082909D0042914BF00F1450200F129
:10328000430204E000F1420201E000F1440212783E
:10329000012A1CBF01207047022241B1082909D030
:1032A000042914BF80F8452080F8432004E080F80A
:1032B000422001E080F84420006801F00F01042260
:1032C000036A02FA01F123EA01020262026A11436F
:1032D0000162416C40F2FF72C4F2000241F400410D
:1032E0009042416405DCB0F1804F0ED040F20041C5
:1032F00007E042F60041C4F20101884205D040F6E1
:103300000001C4F20001884204D1816801F0070184
:10331000062903D0016841F00101016000207047D7
:1033200010B5026801F00F0E4FF0040C146A0CFA8D
:103330000EF324EA03031362136A1362146A41F260
:1033400011131C420AD1D2F820C040F244441CEAB6
:10335000040F03D1546C24F400445464146A1C42D6
:1033600004D1136A40F24444234212D0082916D0F3
:10337000042909D000294FF0010114BF80F845103D
:1033800080F84210002010BD012180F84310002079
:1033900010BD136823F0010313600829E8D101214F
:1033A00080F84410002010BD002804BF01207047A1
:1033B00010B5044690F83D0028B9002084F83C0080
:1033C000204600F065F8022084F83D00206840F2B5
:1033D000FF730268C4F2000342F6004C9842C4F244
:1033E000010C05DCB0F1804F0AD040F2004103E04F
:1033F000604505D040F60001C4F20001884203D1C7
:10340000A16822F070020A43984205DCB0F1804FB7
:103410000AD040F2004103E0604505D040F60001CB
:10342000C4F20001884203D1216922F440720A43A8
:10343000A36922F08001D4F804E0E26819436045F2
:103440000160C262C0F828E002D16169CCF8301096
:10345000012141610269D20703D0026922F0010211
:103460000261002084F8461084F83E1084F83F1072
:1034700084F8401084F8411084F8421084F8431016
:1034800084F8441084F8451084F83D1010BD000005
:1034900070B586B000680021B0F1804FCDE904110D
:1034A0000391029147D042F60041C4F201018842E3
:1034B00057D141F21800C4F20200016840F600043E
:1034C00041F4006101600168C4F2010401F400618B
:1034D00001910199016802AD41F0080101600168A4
:1034E000002601F0080101910199016841F00401F1
:1034F00001600068294600F00400019001984FF433
:103500008050029004F58060CDE90366FFF732F841
:103510004FF44060CDE90206204629460496FFF7A5
:1035200029F8182000210022FFF7ACF91820FFF736
:1035300099F91B240DE041F21800C4F20200416821
:103540001C2441F001014160406800F0010001903D
:103550000198204600210022FFF794F92046FFF74A
:1035600081F906B070BD000090F83D1001291CBF24
:1035700001207047022180F83D10006840F2FF7280
:10358000C168C4F20002904241F00101C16005DC53
:10359000B0F1804F0ED040F2004107E042F600410A
:1035A000C4F20101884205D040F60001C4F20001D6
:1035B000884206D1816801F00701062904BF002076
:1035C0007047016841F00101016000207047000070
:1035D00090F83C20012A4FF0020200F0C68080B52E
:1035E000012380F83C3080F83D20D0F800C04FF631
:1035F0007772DCF8083023EA0202CCF808200B6866
:103600004F2B28DC1F2B44DD202B45D0302B43D003
:10361000402B40F0AC80D1F804E0C968DCF82030E1
:10362000DCF8202022F00102CCF82020DCF8182061
:1036300022F0F00242EA011123F00A0242EA0E02ED
:10364000CCF81810CCF82020DCF8081041F0470125
:1036500021F030017EE06F2B26DDB3F5005F47D00F
:10366000B3F5805F78D0702B40F08180D1E901E321
:10367000C968DCF8082043EA0E0322F47F4243EADB
:1036800001211143CCF80810DCF8081041F0770153
:1036900060E00BB1102B6AD1DCF8081021F070014A
:1036A000194341F0070155E0502B34D0602B5ED117
:1036B000D1F804E0C968DCF82030DCF8202022F0E2
:1036C0001002CCF82020DCF8182022F4704242EAE4
:1036D000013123F0A00242EA0E12CCF81810CCF807
:1036E0002020DCF8081041F0670121F0100131E0E2
:1036F000D1E901E3C968DCF8082043EA0E0322F4AB
:103700007F4243EA01211143CCF80810DCF808108D
:1037100041F480411EE0D1F804E0C968DCF82030B3
:10372000DCF8202022F00102CCF82020DCF8182060
:1037300022F0F00242EA011123F00A0242EA0E02EC
:10374000CCF81810CCF82020DCF8081041F0570114
:1037500021F02001CCF808100022012180F83D1052
:10376000002180F83C10BDE88040104670470122DF
:10377000F3E7000080B5016842F60042C4F201029E
:10378000914200D080BD017F082924D00429F9D1BD
:10379000082100F089FD40F2B001C2F200010A6880
:1037A00040F2B803C2F2000343F82200086840F276
:1037B000003201300860C2F200020868127847F255
:1037C000FE73C0F600039A5C9042DBD340F28D108A
:1037D000C2F2000022E00C2100F066FD40F2B401CC
:1037E000C2F200010A6840F21C13C2F2000343F85F
:1037F0002200086840F2003201300860C2F2000284
:103800000868127847F2FE73C0F600039A5C904293
:1038100038BF80BD40F28E10C2F20000012202705B
:103820000020086080BD000090F83C30012B04BFF0
:10383000022070474FEAB2020123032A80F83C308D
:1038400000F2A380F0B5DFE802F0021B3B590368E9
:10385000D1E900C5D1F80CE01C6A1A6A40F2FF7782
:1038600022F001021A621A4652F8186FC4F20007D9
:10387000BB4267DCB3F1804F70D040F2004769E093
:103880000368D1E900E6D1E902C11C6A1A6A36026E
:1038900022F010021A621A4652F8185F4FF2FF0720
:1038A000BE4325F4734561F30F3624F0A0040EF0F7
:1038B0000A0746EA050144EA071711601F623AE069
:1038C0000768D1E900C5D1E902313C6A3A6A61F37F
:1038D000071522F480723A623A4652F81C6F26F0BD
:1038E000F30645EA06014FEA5C0666F349241160D7
:1038F0003C62116821F00C01116040E00368D1E9DD
:1039000000E6D1E902C11C6A1A6A360222F480522A
:103910001A621A4652F81C5F4FF2FF07BE4325F4A5
:10392000734561F30F364FEA5E0746EA050167F318
:103930004D3411601C6211684FEA0C2321F4406180
:1039400011601CE042F60047C4F20107BB4205D0FB
:1039500040F60007C4F20007BB421BD126F0030665
:10396000354324F00A070CF00A066EF307153744B6
:103970009D611F629F6927F00C079F618B6811682A
:10398000194300231160BDE8F040002180F83C108D
:103990001846704746F00105E3E70000002804BF21
:1039A0000120704710B5044690F83D0028B900206A
:1039B00084F83C00204600F065F8022084F83D00C1
:1039C000206840F2FF730268C4F2000342F6004C24
:1039D0009842C4F2010C05DCB0F1804F0AD040F2ED
:1039E000004103E0604505D040F60001C4F200014B
:1039F000884203D1A16822F070020A43984205DC94
:103A0000B0F1804F0AD040F2004103E0604505D09C
:103A100040F60001C4F20001884203D1216922F47A
:103A200040720A43A36922F08001D4F804E0E268FE
:103A3000194360450160C262C0F828E002D16169A3
:103A4000CCF83010012141610269D20703D002692C
:103A500022F001020261002084F8461084F83E1032
:103A600084F83F1084F8401084F8411084F8421024
:103A700084F8431084F8441084F8451084F83D100D
:103A800010BD00007047000041B1082909D0042989
:103A900014BF00F1410200F13F0204E000F13E02D8
:103AA00001E000F14002127841B1082909D004294F
:103AB00014BF00F1450300F1430304E000F14203A9
:103AC00001E000F1440380B5012A4FF001021B78A8
:103AD00008BF012B01D0104680BD022249B1082940
:103AE00013D0042914BF80F8412080F83F2019B971
:103AF0000FE080F83E2061B108290DD0042914BFE1
:103B000080F8452080F8432008E080F84020002914
:103B1000F2D180F8422001E080F844204FEAB1035E
:103B2000032B11D847F6180CD0F800E0C0F6000CB3
:103B30005CF823C0DEF80C2042EA0C02CEF80C2020
:103B40000022032BC7D802E00122032BC3D8006850
:103B500001F01F014FF0010C036A0CFA01F18B43D5
:103B60000362036A194340F2FF73C4F200039842F0
:103B7000016205DCB0F1804F0ED040F2004107E059
:103B800042F60041C4F20101884205D040F600012E
:103B9000C4F20001884204D1816801F007010629BE
:103BA00099D0016841F001010160104680BD00001C
:103BB00010B54FEAB103032B13D847F6280CD0F801
:103BC00000E0C0F6000C5CF823C0DEF80C2002EA2E
:103BD0000C024FF0000CCEF80C20032B05D96046E8
:103BE00010BD4FF0010C032BF9D8036801F01F0240
:103BF0004FF0010E1C6A0EFA02F224EA02021A6267
:103C00001A6A41F211141A621A6A224208D11A6A17
:103C100040F24444224203D11A6822F001021A60A1
:103C2000012249B1082913D0042914BF80F841208A
:103C300080F83F2019B90FE080F83E2061B10829D3
:103C40000FD0042912D1012180F84310604610BD25
:103C500080F840200029F2D1012180F8421060460E
:103C600010BD012180F84410604610BD012180F88C
:103C70004510604610BD000070B504460068C56878
:103C80000669B10716D515F0020113D06FF00201D5
:103C90000161012121778069800703D02046FFF769
:103CA00069FD05E0204600F08DF8204600F002FA9C
:103CB00000202077700718D515F0040015D0206873
:103CC0006FF00401016102212177806910F4407FC7
:103CD00003D02046FFF74EFD05E0204600F072F8C5
:103CE000204600F0E7F900202077300717D515F0BF
:103CF000080014D020686FF00801016104212177C9
:103D0000C069800703D02046FFF734FD05E0204658
:103D100000F058F8204600F0CDF900202077F0069A
:103D200018D515F0100015D020686FF01001016152
:103D300008212177C06910F4407F03D02046FFF7A7
:103D400019FD05E0204600F03DF8204600F0B2F9EC
:103D500000202077F00718BF15F0010002D13006CF
:103D600009D412E020686FF001010161204600F0E3
:103D700055FA300609D515F0800006D020686FF09E
:103D8000800101612046FFF709FA700609D515F098
:103D9000400006D020686FF040010161204600F02D
:103DA0009DFAB00658BF70BD15F0200008D02168FC
:103DB0006FF0200220460A61BDE87040FFF7F0B9BD
:103DC00070BD00007047000090F83C30012B04BF2C
:103DD000022070474FEAB2020123032A80F83C30E8
:103DE00000F2EC802DE9F041DFE802F0023B77B20F
:103DF000036842F600451C6A1A6AC4F2010522F003
:103E000001021A621A46D3F804C052F818EF8E68FD
:103E100024F00204AB4244EA060405D1CE6824F043
:103E20000C0426F0040634430E68AB4206D1D1E9F7
:103E300005582CF440772F4347EA080C2EF07307FF
:103E40003743C3F804C09F614F6809695F631C6210
:103E50009F6947F008079F619F6927F004079F61EA
:103E6000A6E0036842F600451C6A1A6AC4F201051E
:103E700022F010021A621A46D3F804C052F818EF62
:103E80008E6824F02004AB4244EA061407D1CE68C1
:103E90006FF0400724F0C00407EA061634430E68AA
:103EA000AB4206D1D1E905572CF4406C3D434CEAB6
:103EB000850C2EF4E64747EA0627C3F804C09F6145
:103EC0004F6809699F631C629F6947F400679F619F
:103ED0009F6927F480679F6169E0036842F60045A7
:103EE0001C6A1A6AC4F2010522F480721A621A4628
:103EF000D3F804C052F81CEF8E6824F40074AB426F
:103F000044EA062407D1CE6840F2FF47360224F483
:103F10004064BE4334430E68AB4206D1D1E9055735
:103F20002CF4405C3D434CEA051C2EF073073743EC
:103F3000C3F804C0DF614F680969DF631C62DF6991
:103F400047F00807DF61DF6927F00407DF612FE032
:103F5000036842F60047D3F820C01A6AC4F201078A
:103F600022F480521A621A465C6852F81C5FD1F83B
:103F700000E08E68BB4204D14F6924F4804444EAD7
:103F800087142CF4005747EA063725F4E64646EA3C
:103F90000E265C60DE614E6809691E641F62DF697F
:103FA00047F40067DF61DF6927F48067DF6109029A
:103FB0001368194300231160BDE8F041002180F827
:103FC0003C10184670470000002804BF01207047CD
:103FD00010B5044690F83D0028B9002084F83C0054
:103FE000204600F065F8022084F83D00206840F289
:103FF000FF730268C4F2000342F6004C9842C4F218
:10400000010C05DCB0F1804F0AD040F2004103E022
:10401000604505D040F60001C4F20001884203D19A
:10402000A16822F070020A43984205DCB0F1804F8B
:104030000AD040F2004103E0604505D040F600019F
:10404000C4F20001884203D1216922F440720A437C
:10405000A36922F08001D4F804E0E26819436045C6
:104060000160C262C0F828E002D16169CCF830106A
:10407000012141610269D20703D0026922F00102E5
:104080000261002084F8461084F83E1084F83F1046
:1040900084F8401084F8411084F8421084F84310EA
:1040A00084F8441084F8451084F83D1010BD0000D9
:1040B000704700007047000041B1082909D0042969
:1040C00014BF00F1410200F13F0204E000F13E02A2
:1040D00001E000F140021278012A1CBF0120704764
:1040E000022241B1082909D0042914BF80F84120D7
:1040F00080F83F2004E080F83E2001E080F8402076
:10410000006801F01F010122036A8A4023EA0201CC
:104110000162036A42F64441C4F201011A43A1F16B
:1041200044039842026203D10A6842F400420A60E2
:1041300040F2FF71C4F20001884205DCB0F1804F0B
:104140000ED040F2004107E042F60041C4F2010106
:10415000884205D040F60001C4F20001884204D133
:10416000816801F00701062903D0016841F00101CF
:10417000016000207047000080B5026801F01F0C4C
:10418000012303FA0CFE136A42F6004C23EA0E03E5
:104190001362C4F2010C136A6245136211D1DCF898
:1041A00020C041F211131CEA030F0AD1D2F820C03B
:1041B00040F244431CEA030F03D1536C23F4004341
:1041C0005364D2F820C041F211131CEA030F06D148
:1041D000D2F820C040F244431CEA030F12D0082951
:1041E00016D0042909D000294FF0010114BF80F82E
:1041F000411080F83E10002080BD012180F83F1062
:10420000002080BD136823F0010313600829E8D162
:10421000012180F84010002080BD00000068B0F14E
:10422000804F00D0704740F20032C2F2000240F2EC
:10423000E010127847F65013C2F20000C0F60003F7
:10424000016853F822204B1C9142036007D30021E0
:10425000016040F22E30C2F200000121017040F2F4
:10426000EA20C2F2000001884A1C3229028007D3EA
:104270000021018040F2EC20C2F200000121017017
:1042800040F22830C2F2000001884A1C0429028052
:1042900038BF70470021018040F22A30C2F200008E
:1042A00001210170704700004FEAB101032984BF6A
:1042B00000207047DFE801F0020E060A0068343083
:1042C0000068704700683C30006870470068403004
:1042D0000068704700683830006870477047000019
:1042E000FEE7000040F28B10C2F2000001780029C6
:1042F00008BF704780B50021017040F2E410C2F29F
:1043000000000121FDF7A2FB40F2C411C2F200013E
:104310000A8840F29213C2F2000323F81200501CE4
:104320000880BDE880407047002908BF7047083802
:1043300050F8082F013990F806C0926883881A4017
:1043400018BF01226CF341020B048271F0D1704757
:1043500010B590B040F2E41042F200410024C2F2E5
:104360000000C4F201014FF480724FF46023C0E9F1
:1043700000140321CDE90E44CDE90C44CDE90A44F3
:10438000CDE90844CDE90644CDE90444CDE9024431
:10439000CDE9004404730475C36182600161FDF7D7
:1043A0003DFD002818BFFDF7D1F940F20020C0F212
:1043B00040000A9040F6E260CDE90D0440F2E410BE
:1043C0000B940124C2F200000AA98DF83040FDF7D9
:1043D000D5FB002818BFFDF7B9F90520099040F278
:1043E000E410C2F2000007A9CDE90744FDF7F0FB95
:1043F000002818BFFDF7AAF90220CDE9070040F216
:10440000E410C2F2000007A9FDF7E2FB002818BF84
:10441000FDF79CF90320CDE9070040F2E410C2F259
:10442000000007A9FDF7D4FB002818BFFDF78EF99F
:104430000020012100900191049102210690ADF825
:104440001400039040F2E4100291C2F200006946A9
:10445000FDF7F8F9002818BFFDF778F910B010BD86
:1044600080B582B041F21400C4F20200016800225B
:1044700041F0010101600068002100F0010001909D
:1044800001980B20FEF7FEF90B2002B0BDE880403A
:10449000FEF7E8B92DE9F04F85B04FF0000841F282
:1044A0001800CDE90388CDE90188C4F20200016853
:1044B00040F6004A41F0100101600168C4F2010AAF
:1044C00001F010010091009901680AF5806641F041
:1044D000200101600168002201F020010091009993
:1044E00001684FF4005441F004010160016801F0DB
:1044F000040100910099016841F008010160006821
:104500004FF4005100F00800009000983046FEF78C
:1045100031F9AAF58065284649F2F001002249F2F6
:10452000F009FEF727F950464FF47F610022FEF7AD
:1045300021F901AF01944FF0010B022430463946B6
:10454000CDF808B0CDE90344FEF714F82846394603
:10455000CDE9019BCDE90344FEF70CF80320CDE93A
:10456000010850463946CDF80C80FEF703F84FF4A9
:104570007F60CDE9010B50463946CDE90344FDF794
:10458000F9FF05B0BDE8F08F70B5A0B042F6004568
:1045900040F25820C4F201050021C2F2000040227E
:1045A00040F60F638026CDE91911CDE91711159159
:1045B000CDE91311CDE91111CDE90F11CDE90D119F
:1045C000CDE90B11CDE90911CDE90711CDE90511AF
:1045D000CDE90311CDE90111C0E90051C0E9022381
:1045E000C0E904118661FEF7DFFE002818BFFDF761
:1045F000ADF84FF48050179040F25820C2F20000FE
:1046000017A9FEF7E5FF002818BFFDF79FF840F255
:104610005820C2F20000FFF7D7FC002818BFFDF7B2
:1046200095F840F25820C2F20000FFF7B7F90028D1
:1046300018BFFDF78BF8402014908020159040F2B1
:104640005820C2F2000014A9FEF7D4FD002818BFBC
:10465000FDF77CF860200D904FF4E1600E90002093
:10466000CDE90F00CDE91100139040F25820C2F2BD
:1046700000000DA90022FFF7A7FB002818BFFDF7D7
:1046800065F840F25820C2F200000DA90422FFF79D
:104690009BFB002818BFFDF759F800200121099065
:1046A000CDE90A100C9040F25820C2F2000009A98E
:1046B0000822FFF7B9F8002818BFFDF747F840F2C5
:1046C0005820C2F2000009A90C22FFF7ADF800281B
:1046D00018BFFDF73BF84FF4006001904FF4806085
:1046E0000290FF2004904FF4805005904FF400504A
:1046F00040F2582406904FF48040C2F20004002695
:10470000089001A920460396FEF74CFD002818BF2B
:10471000FDF71CF82068CDE91E66A8421D961C9680
:1047200001D020B070BD41F21800C4F2020001684F
:104730001CAC41F0080101600168022601F008018B
:104740001B911B99016841F004010160006821463A
:1047500000F004001B901B984FF4C0401C90A5F57E
:1047600000501D961F96FDF705FF4FF44070CDE9F0
:104770001C06A5F5105021461F96FDF7FBFE20B044
:1047800070BD000080B586B040F2A0200021C2F2CA
:10479000000040F2E73CCDE90411CDE90211CDE97A
:1047A00000114FF080424723C0E9021C01618021C3
:1047B000C0E900238161FEF7F7FD002818BFFCF770
:1047C000C5FF4FF48050029040F2A020C2F20000DA
:1047D00002A9FEF7FDFE002818BFFCF7B7FF002076
:1047E000CDE9000040F2A020C2F200006946FEF7C9
:1047F00001FD002818BFFCF7A9FF06B080BD00002E
:1048000003460A46006899889A71FDF7B3BF000015
:10481000002908BF7047B0B50C46A0F1080500BFDD
:1048200055F8080F013CA988AA79FDF7A3FF2004D9
:10483000F6D1BDE8B0407047FEE70000FEE700009B
:104840002DE9F04747F6AC1740F2003540F2D01999
:10485000824600F10A080026C0F60007C2F20005F1
:10486000C2F2000906E000BF0121B1B10C36B6F575
:104870009C7F16D0B95D2A789142F5D1BC19617838
:104880005145F1D16068804700280EBF89F800804B
:10489000217A297000210029E8D100F00100BDE84B
:1048A000F087002000F00100BDE8F087B0B540F2CD
:1048B0000030C2F200000024047040F22E3540F2B5
:1048C000D110C2F20005C2F200002C708472C472D2
:1048D00040F2A020C2F2000001684C62FEF744FEE4
:1048E0000120287040F2E010C2F200000460B0BD68
:1048F000704700007047000070B5C0B30D46002936
:1049000040D006462846FBF7E5FD98B147F6700C07
:104910000021C0F6000C0023EA5C2E2A05D01CF80A
:1049200002207418013184F821200133834201D21E
:104930000429F1D3002000BF42B2A95C49B12E295D
:1049400001D00130F8E74FF0FF31002AC8BF411E07
:1049500000E0FF21C8B2042828BF70BD48B230442F
:1049600090F8211041F0800180F8211070BD47F6C9
:10497000701047F68911C0F60000C0F600016A22E7
:10498000FBF768FD47F67D1047F68911C0F6000079
:10499000C0F600016B22FBF75DFD000070B540B36F
:1049A00040F60001C4F2010140F2100E402240F234
:1049B000001340F2004C01F5806480252026C0F2EF
:1049C000200EC0F28002C0F20023C0F6000CC0F23C
:1049D0004005C0F21006C0E900410021C0E902E232
:1049E000C0E9043CC0E9065680F82010C0F8211048
:1049F00070BD47F6701047F68911C0F60000C0F68A
:104A000000011322FBF726FD7047000070470000ED
:104A1000F0B583B08F680646384602F037FA0D4687
:104A200000210446CCF22011384602F0F5FA48B9CC
:104A300047F6A012C0F6000230460521CDE9004538
:104A4000FBF7E8FB3846002102F0EDFA58B90021E7
:104A5000CCF22011384602F0EDFA20B947F6A61242
:104A6000C0F600020CE00021C4F22011384602F02A
:104A7000DAFA68B93846002102F0E3FA40B914A224
:104A800030460621CDE90045FBF7C4FB03B0F0BD7D
:104A90000021C4F2C821384602F0C5FA38B9002115
:104AA000C4F22011384602F0CCFA0028D6D00021FA
:104AB000C4F2C821384602F0C4FA00281CBF03B073
:104AC000F0BD47F6A012C0F6000230460521D9E736
:104AD000252E32664300000080B570B340F60C0E00
:104AE000C4F2010EDEF8002022F0F002CEF8002021
:104AF000DEF8002422F47F62CEF8002490F8202013
:104B0000831893F821C0DEF8003423F47F6343EA6E
:104B10000C13CEF8003400EB4203B3F818C0DEF8F3
:104B200000304FEA1C1161F30713511C01F003011F
:104B3000CEF8003080F8201080BD47F6701047F6A0
:104B40008911C0F60000C0F600014222FBF782FC8A
:104B500070B582B00D6904462846002102F071FA52
:104B600040B90021C4F22011284602F06AFA08B1C7
:104B70000BA607E00021C4F22011284602F061FADA
:104B800060B909A6284602F081F903460D46204681
:104B900006213246CDE90035FBF73CFB02B070BD83
:104BA00025312E326641000025322E31664100004B
:104BB000B0B591F822400546092C05D808A2284630
:104BC00005212346FBF726FB0A2C38BFB0BD06A201
:104BD000284605212346BDE8B040FBF71BBB00BFBC
:104BE0004572722530316400457225303264000010
:104BF000B0B582B049690546084602F047FB00217E
:104C0000C4F27A4102F030FA02F040F903460C4651
:104C100004A228460621CDE90034FBF7FBFA02B0D6
:104C2000B0BD00BF25322E3166480000B0B582B05D
:104C3000D1E903210546104602F0A4FB0021C4F28D
:104C40007A4102F011FA02F021F903460C4604A25F
:104C500028460621CDE90034FBF7DCFA02B0B0BDEE
:104C600025312E32665000000B7802A20521FBF799
:104C7000D1BA00BF537425303264000080B582B0D1
:104C8000B1F824C0CB8C04A20621CDF800C0FBF7FC
:104C9000C1FA02B080BD00BF253032642E2530320B
:104CA00064000000B0B582B0C9680546084602F04D
:104CB000EDF803460C4604A228460621CDE900344F
:104CC000FBF7A8FA02B0B0BD25332E3066550000C0
:104CD000FDF75CBD70B594B00AAC20462821FBF707
:104CE00018FC01200A900E904FF4E01000254FF4BC
:104CF00080310226139020460995CDE90755CDE96C
:104D00000555CDE90355CDE90155CDE90B15CDE9A3
:104D10001161FEF78DF820B1EFF3108072B600BF7D
:104D2000FEE70F20CDE905064FF48060CDE90805C8
:104D300005A802210795FDF789FF20B1EFF3108048
:104D400072B600BFFEE7022001904FF400400390CE
:104D500001A8FDF7FBFE20B1EFF3108072B600BF93
:104D6000FEE714B070BD00007047000040F258200C
:104D7000C2F20000FEF780BF40F25820C2F20000ED
:104D8000FEF77ABF40F2A020C2F20000FEF774BF27
:104D900070B540F2CA14C2F200046088FCF77EFAD3
:104DA000A18804460846FCF779FA0026C4F2962644
:104DB00005462046314602F03DF9044600282846C3
:104DC000314618BF012402F035F9002818BF012030
:104DD000204070BDFEE7000080B500F0C3F840F24F
:104DE000E820C2F200000521017080BD80B5FCF70B
:104DF00015FA002808BF80BD40F2E820C2F200008A
:104E00000421017080BD0000012070477047000040
:104E10008AB0FDF7C9FCFFF75DFFFFF73BFBFFF72B
:104E20001FFBFFF795FAFFF7AFFBFFF7ABFC40F274
:104E30003000C2F2000003210324FFF7E9FCFFF772
:104E400035FD40F2F02040F60041C2F20000C4F20D
:104E5000010101600121818084716846FFF79EFD98
:104E600000F096F840F2A020C2F20000FEF77CFBB2
:104E700040F2DD1540F22E3740F28A1940F22A3610
:104E800040F2003A40F2EC24C2F20005C2F2000700
:104E9000C2F20009C2F200064FF00008C2F2000A96
:104EA000C2F2000403E000BF2878FFF7C9FC2846DF
:104EB000FCF718FC0028F7D1387850B187F800804B
:104EC0009AF8000047F63011C0F6000151F82000B2
:104ED000804799F8000098B140F2841B89F800805F
:104EE000C2F2000BBBF80000FCF736FACAF80C005F
:104EF00040F2E410C2F2000059460322FDF79CF88C
:104F0000307801281FD140F24800C2F2000000783A
:104F100047F6F001C0F6000186F80080C84640F26E
:104F2000040951F82020C2F2000948465146904732
:104F3000EB4658464946C1464FF00008FFF7DCFCF7
:104F40005846FFF7C9FD20780128B0D19AF8000033
:104F500047F65001C0F6000151F8200084F80080A7
:104F60008047A4E780B540F2E410C2F20000FDF7EC
:104F700045F900281CBF002080BD40F2E410C2F2B9
:104F80000000FCF7D1FDB0FA80F0400980BD0000C0
:104F900080B540F2E410C2F20000FCF7DDFB08B17E
:104FA000002080BD40F2E41040F28411C2F2000003
:104FB000C2F200010322FDF73FF860B940F2E410AD
:104FC000C2F20000FCF756FD68B140F2E410C2F2F4
:104FD0000000FCF7A9FD40F2E410C2F20000FDF76A
:104FE0000DF9002080BD012080BD000080B5FDF7D7
:104FF000F7FC012080BD000080B5FDF7D7FC012043
:1050000080BD000080B5FDF719FD012080BD0000C6
:1050100080B5FDF7E5FCFDF78DFC00200021FDF7D4
:1050200099FC04200021FDF795FCFDF7F1FC01201F
:1050300080BD000040F20031C2F200010879002278
:1050400000F0FC00087101200A84C1E90222C1E9D4
:1050500004228A618A83704780B5FCF715FA50B143
:10506000FFF796FE002808BF80BD40F2E820C2F29C
:1050700000000321017080BD014642F2107044F629
:105080002062C1E905024DF6FF700A7908844FF4E9
:105090007A70888302F0FE0201200A7170470000D6
:1050A00080B5FDF733FC012080BD000070B540F2F3
:1050B0000030C2F20000007847F2FE71C0F6000135
:1050C0000C5C6CB140F29830C2F20000811E0020EE
:1050D000224600BF31F8023F013A1844FAD100E0FD
:1050E0000020B0FBF4F002F0D1F84FF07C5101F059
:1050F000F9FE02F0AFF840F2CA15C2F200052880AE
:1051000064B140F23030C2F20000811E002022461D
:1051100031F8023F013A1844FAD100E00020B0FB18
:10512000F4F002F0B3F84FF07C5101F0DBFE02F036
:1051300091F8688064B140F26230C2F20000023837
:105140000026214630F8022F01391644FAD100E03A
:105150000026B6FBF4F002F099F84FF07C5101F014
:10516000C1FE02F077F8A8805CB140F29210C2F262
:1051700000000238214600BF30F8022F01391644E2
:10518000FAD1B6FBF4F002F081F84FF07C5101F057
:10519000A9FE02F05FF840F2C611C2F200010880D9
:1051A00040F22B30C2F200000421017070BD0000FB
:1051B0007047000080B5FCF7A1F9FFF793F840F2C3
:1051C000C410C2F20000018840F20030C2F20000B8
:1051D000007847F2FE72C0F60002105C814211D3E3
:1051E00040F2C811C2F20001098881420AD3FFF7D8
:1051F000B9FE002808BF80BD40F22B30C2F200008B
:105200000221017080BD0000B0B5FDF777FBC10839
:1052100040F20035E029C2F200050FD895F82010C1
:10522000DF290BD8FFF7B4FE002808BFB0BD40F25D
:105230002B30C2F2000001210170B0BD0638B0F57C
:10524000E16F38BF40F20770411C4AF200234A0068
:10525000C0F24A43B3FBF2F24C086A61FDF772FBFD
:1052600000202146FDF776FB04202146FDF772FB66
:1052700040F22C34C2F20004208838280AD395F872
:10528000201095F8212038389142208084BF481E94
:1052900085F8200095F82000FDF77CFB208806307B
:1052A0002080B0BDB0B540F2CA10C2F20000008844
:1052B000FCF752F840F2C611C2F2000140F200348D
:1052C0000988C2F20004E0600846FBF7BBFFE16812
:1052D000206102F057F801F0BDFFA0F2F51189B28C
:1052E00040F22B35B1F5F97FC2F20005E08302D818
:1052F000052028700EE081087C2903D894F820004E
:10530000013805E0B0F57A7F04D994F82000013027
:1053100084F8200094F82000FDF73CFBFFF738FEEE
:1053200000281CBF01202870B0BD0000704700009D
:105330007047000080B540F2E820C2F2000000781B
:1053400047F63801C0F6000151F82000804740F2CE
:10535000D110C2F20000817A49F69A120131C1F6E9
:105360009912A1FB022303EB8302C37AA1EB420152
:10537000994208BF80BD827A03238354817280BD25
:1053800010B540F2F024C2F2000420460121FEF7DD
:10539000CBFFA079022819D10320A07140F2D110CF
:1053A000C2F20000817A49F69A120131C1F69912CF
:1053B000A1FB022303EB8302C37AA1EB42019942D2
:1053C00008BF10BD827A02238354817210BD000091
:1053D0007047000010B540F2F024C2F200042046ED
:1053E0000121FEF7A1FFA079022819D10320A071A5
:1053F00040F2D110C2F20000817A49F69A120131CE
:10540000C1F69912A1FB022303EB8302C37AA1EB3D
:105410004201994208BF10BD827A022383548172EF
:1054200010BD000040F28D10C2F200000178C1B33F
:1054300040F28E11C2F200010A7892B30078C0B136
:105440000878B0B110B540F25824C2F200042046EA
:105450000821FEF7ADFB20460C21FEF7A9FB2046F4
:105460000821FEF711FB20460C21FEF70DFBBDE8DD
:10547000104040F2D110C2F20000817A49F69A122F
:105480000131C1F69912A1FB022303EB8302C37A17
:10549000A1EB4201994208BF7047827A06238354E8
:1054A0008172704710B540F2F024C2F20004204629
:1054B0000121FEF739FFA079022819D10320A0713C
:1054C00040F2D110C2F20000817A49F69A120131FD
:1054D000C1F69912A1FB022303EB8302C37AA1EB6D
:1054E0004201994208BF10BD827A0223835481721F
:1054F00010BD00007047000010B540F2F024C2F269
:10550000000420460121FEF70FFFA079022819D1DF
:105510000320A07140F2D110C2F20000817A49F656
:105520009A120131C1F69912A1FB022303EB830207
:10553000C37AA1EB4201994208BF10BD827A0223CF
:105540008354817210BD000080B540F22B30C2F24E
:105550000000007847F61811C0F6000151F820004D
:10556000804740F2D110C2F20000817A49F69A12C7
:105570000131C1F69912A1FB022303EB8302C37A26
:10558000A1EB4201994208BF80BD827A0423835473
:10559000817280BD10B540F2F024C2F200042046B2
:1055A0000121FEF7C1FEA079022819D10320A071C4
:1055B00040F2D110C2F20000817A49F69A1201310C
:1055C000C1F69912A1FB022303EB8302C37AA1EB7C
:1055D0004201994208BF10BD827A0223835481722E
:1055E00010BD0000704700007047000070470000C9
:1055F00010B540F2F024C2F2000420460121FEF76B
:1056000093FEA079022819D10320A07140F2D11095
:10561000C2F20000817A49F69A120131C1F699125C
:10562000A1FB022303EB8302C37AA1EB420199425F
:1056300008BF10BD827A01238354817210BD5FEAD6
:10564000400C08BF91F0000F4FEA8C234FEAC122B3
:1056500043EA51514FEA1C5018BF00F5F0404FEAA1
:10566000300018BF41F000415FEA6C5C00F0298017
:10567000BCF1FF3F08BF40F080407047130C06BFED
:1056800012044FF0100C4FF0000C130E04BF120266
:105690000CF1080C130F04BF12010CF1040C930F52
:1056A00004BF92000CF1020CD30F04BF52000CF1A6
:1056B000010C11464FF00002A0F11F00A0EB0C00FE
:1056C000704711F0004F08BF704731F000413FF4C0
:1056D000D5AF0B0C06BF09044FF0100C4FF0000CB7
:1056E0000B0E04BF09020CF1080C0B0F04BF0901DB
:1056F0000CF1040C8B0F04BF89000CF1020CCB0FD2
:1057000004BF49000CF1010CCCF1200322FA03F391
:1057100041EA030102FA0CF2A0EB0C0000F10100D7
:105720007047000023F07F4720F07F4C80EA0300A1
:1057300000F00040ACEB070303F57C5303F1FF03DB
:105740002DE9804909B44FEA144324EA03484FEA9B
:10575000154B25EA0B4E0FF2042606EB13273E7875
:1057600003FB0667C7F5000707FB06F64FEAD646B8
:1057700006F102064FEA543707FB066CCCF1005CD9
:105780004FEA1C472CEA074C0CFB06F507FB06F416
:1057900004EB15464FEA961649085FEA320234BF19
:1057A00000204FF000404FEAD13706FB07FC4FEADC
:1057B0001C4C0CFB0BF7D21B03FB0CF761EB070136
:1057C0000CFB0EF7B0EB074072EB17420CFB08F72F
:1057D00034BFA2EB0742B2EB074261EB17414FEA3D
:1057E0000C444FEA910706FB07FC4FEA1C4C0CFBEC
:1057F0000BF7B0EBC74072EB573203FB0CF734BF2B
:10580000A2EBC742B2EBC74261EB57310CFB0EF77C
:10581000B0EBC70072EB57720CFB08F734BFA2EB7A
:10582000C702B2EBC70261EB57714FEA816141EAEF
:1058300092114FEA826242EA90124FEA806004EBD2
:10584000CC04039F4FEAD13706FB07FC4FEA1C4C00
:105850000CFB0BF7D21B03FB0CF761EB07010CFBF6
:105860000EF7B0EB074072EB17420CFB08F734BFA2
:10587000A2EB0742B2EB074261EB17414FEA8C55AE
:1058800004EB9C244FEA910706FB07FC4FEA1C4CF3
:105890000CFB0BF7B0EBC74072EB573203FB0CF776
:1058A00034BFA2EBC742B2EBC74261EB57310CFBEE
:1058B0000EF7B0EBC70072EB57720CFB08F734BF62
:1058C000A2EBC702B2EBC70261EB57714FEA8161ED
:1058D00041EA92114FEA826242EA90124FEA8060F6
:1058E00015EB4C2544F100044FEAD13706FB07FCC9
:1058F0004FEA1C4C0CFB0BF7D21B03FB0CF761EBC4
:1059000007010CFB0EF7B0EB074072EB17420CFBE4
:1059100008F734BFA2EB0742B2EB074261EB174135
:105920004FEA813141EA92414FEA823242EA9042A3
:105930004FEA80304FEA0C7615EB1C1544F1000459
:1059400048EA03434EEA0B484FF0000EB2EB080C56
:1059500071EB030724BF624639464EEB0E0E4FF043
:10596000000B0018524149414BEB0B0BB2EB080CFA
:1059700071EB03077BF1000B24BF624639464EEB07
:105980000E0E4FF0000B0018524149414BEB0B0B30
:10599000B2EB080C71EB03077BF1000B24BF6246EE
:1059A00039464EEB0E0E51EA020718BF46F00106CB
:1059B00016EB0E7655F1000254F1000103D5BDE857
:1059C0008901BDE80088BDE88901BDE80048B61935
:1059D000524141EB0101A3F10103704780807F7EBA
:1059E0007D7C7B7A79787776767574737271717055
:1059F0006F6E6E6D6C6C6B6A6A6968686766666507
:105A00006464636362616160605F5F5E5E5D5D5C94
:105A10005C5B5B5A5A595958585757565655555505
:105A20005454535352525251515050504F4F4F4E65
:105A30004E4D4D4D4C4C4C4B4B4B4A4A4A494949B3
:105A400048484847474747464646454545444444F5
:105A50004443434343424242424141419C46002B1E
:105A600030D477002BD04FEA37071CB503B44FF082
:105A700010004FF01001BAF1000F06D0BCF1000F7A
:105A8000DCBF40F0080040F008014FF000000FBC00
:105A9000BDE810400BF1010BBBF1010F08BF5FEA3D
:105AA000170722BF12F1010211F101014FF000416D
:105AB00043F1000300F0004043EA00007047F9D3CF
:105AC0005708D0E746EA06464FEA164613F1400F5C
:105AD0001FDD13F1200FDFBF16430A4600212033DC
