:020000040800F2
:10000000E807002089010008ED340008D92F000816
:10001000E9340008650700080D37000800000000FB
:10002000000000000000000000000000A5350008EE
:10003000E907000800000000A13500081536000897
:10004000A3010008A3010008A3010008A301000800
:10005000A3010008A3010008A3010008A3010008F0
:10006000A3010008A3010008A3010008DD070008A0
:10007000A3010008A3010008A3010008A3010008D0
:10008000A3010008A3010008E5030008A30100087C
:10009000A3010008A3010008A3010008A3010008B0
:1000A000B1360008A3010008A3010008A30100085D
:1000B000BD360008A3010008A3010008A301000841
:1000C000A3010008A3010008A3010008A301000880
:1000D000A3010008A3010008A3010008A301000870
:1000E000A3010008A3010008A301000800F002F822
:1000F00000F03AF80AA090E8000C82448344AAF188
:100100000107DA4501D100F02FF8AFF2090EBAE885
:100110000F0013F0010F18BFFB1A43F0010318473B
:10012000504F0000704F0000103A24BF78C878C1CB
:10013000FAD8520724BF30C830C144BF04680C60ED
:10014000704700000023002400250026103A28BF35
:1001500078C1FBD8520728BF30C148BF0B60704739
:100160001FB51FBD10B510BD00F0D7F81146FFF741
:10017000F7FF03F0CFFA00F0F5F803B4FFF7F2FF52
:1001800003BC00F0B3F80000094880470948004765
:10019000FEE7FEE7FEE7FEE7FEE7FEE7FEE7FEE737
:1001A000FEE7FEE704480549054A064B7047000094
:1001B000AD360008ED000008E8010020E807002047
:1001C000E8030020E80300200EB5054614460E465D
:1001D00013A000F079F8284600F076F816A000F099
:1001E00073F8304600F070F815A000F06DF80021AB
:1001F0008DF80B100A210DF10A008DF80A1008E0A5
:1002000094FBF1F201FB124294FBF1F4303200F85E
:10021000012D002CF4DC00F057F800F04AF8000043
:100220002A2A2A20617373657274696F6E20666171
:10023000696C65643A2000002C2066696C652000BA
:100240002C206C696E6520004FF0000200B513464B
:1002500094469646203922BFA0E80C50A0E80C50E6
:10026000B1F12001BFF4F7AF090728BFA0E80C5097
:1002700048BF0CC05DF804EB890028BF40F8042B90
:1002800008BF704748BF20F8022B11F0804F18BFFD
:1002900000F8012B704770477047704710B500F0A9
:1002A0002BF8006810BD10B5044600F025F8046076
:1002B00010BD10B5002000F023F8FFF753FFBDE894
:1002C0001040012000F012B810B5044602E0641C92
:1002D00000F004F820780028F9D110BD08B569466F
:1002E0008DF800000320ABBE08BD000001491820B6
:1002F000ABBEFEE726000200004870472800002041
:1003000010B500F03DF8BDE8104000F034B8000032
:10031000004870472800002070477546FFF7F8FF37
:10032000AE4605006946534620F00700854618B0E2
:1003300020B5FFF737FFBDE820404FF000064FF033
:1003400000074FF000084FF0000BAC46ACE8C009C6
:10035000ACE8C009ACE8C009ACE8C00921F007016D
:100360008D46704710B50446AFF300802046BDE8C7
:100370001040FFF702BF002801D0FFF7B7BF70475A
:1003800010B5002102A000F013F8012010BD0000FC
:10039000534947414252543A2041626E6F726D6137
:1003A0006C207465726D696E6174696F6E00000017
:1003B00070B505460C460A2000E06D1CFFF78EFF65
:1003C00035B128780028F8D102E0641CFFF786FFD9
:1003D00014B120780028F8D1BDE870400A20FFF75A
:1003E0007DBF000040F2A400C2F2000000F000BD9A
:1003F000B0B5044600688168C90709D0816821F05A
:100400000101816001F0DAF921688968C90701D129
:100410000020B0BD054603E020688068C007F7D023
:1004200001F0CCF9401B0328F6D320688068C00790
:10043000F2D0A06A40F01000A062E06A40F0010033
:10044000E0620120B0BD00000146406A826A12F0FD
:10045000500F03D0006A026B084610470168826A99
:1004600042F400728262896801F46021B1F5602F64
:1004700001D1017B09B100F0A7BC816A21F4807130
:100480008162816AC90448BF00F09EBC816A41F064
:100490000101816200F098BC406A816A41F040012C
:1004A0008162C16A41F00401C16200F09FBC00009A
:1004B000406A00F099BC0000B0B582B0044600204C
:1004C000019021688A68D2073DD1886840F0010018
:1004D000886040F20000C2F2000000684DF68361BF
:1004E000C4F21B31A0FB0101880C00BF01900198F0
:1004F00010B101980138F9E701F060F921688968C5
:10050000C9071CD1054603E020688068C00719D1DF
:1005100001F054F9401B0328F6D320688068C00717
:10052000F2D1A06A40F01000A062E06A40F0010041
:10053000E062002084F82400012002B0B0BD002059
:1005400002B0B0BD002002B0B0BD0000002804BF62
:100550000020704780B504F00EF84FF60063C4F237
:10056000AF03002203F05AFE46F26663C4F20A03A8
:100570004FF0663204F012F803F062FD0021C4F27D
:10058000901104F01DFB80BD002804BF00207047BF
:1005900010B503F0F0FF4FF60063C4F2AF03002282
:1005A00003F03CFE46F26664C4F20A044FF0663281
:1005B000234603F0F3FF03F043FD04F0E7F902469E
:1005C0000B464FF06630214603F028FE0023CBF6A1
:1005D000F073002203F066FD48F60004C4F2C30481
:1005E0000022234603F0DAFF03F02AFD04F0CEF9DF
:1005F0000022234603F012FE03F074FB4DF6811235
:1006000049F26573C7F61E62C3F6307303F0C6FF86
:100610004DF6833247F6E113CDF6B542C3F66B7360
:1006200003F040FD0B4600210246C3F6F0710020A6
:1006300003F0F4FD03F004FD04F0A8F941F2662391
:10064000CCF271034FF0663203F02CFD03F0F8FC9E
:1006500010BD0000002804BF0020704780B503F0E3
:100660008AFF4FF60063C4F2AF03002203F0D6FD09
:1006700046F26663C4F20A034FF0663203F08EFF5F
:1006800003F0DEFC0021C4F2013104F099FA80BDD0
:1006900010B503F005F903F03BF8E0B103F0DCF826
:1006A000C8B103F0EBF8B0B100F0C0F8002480B19D
:1006B00003F0A4F868B140F29000C2F200000470A8
:1006C00040F26010C2F2000001684C6201F048FF85
:1006D0000124204610BD002010BD000001207047FD
:1006E000B0B503F0C5F838B342F2107003F000F96A
:1006F00010B3FF2001F05CF903F0B4F8E0B103F0AF
:100700007DF8C8B100F092F8B0B140F2BC10C2F26E
:10071000000003F0DDF840F20405C2F2000505F127
:1007200008000121012402F0C5FE05F1100001219D
:1007300002F0C0FE2046B0BD0020B0BD01207047D1
:100740000120704701207047012070470120704749
:100750000120704701207047012070470120704739
:1007600001207047FEE70000B0B540F28A00C2F2F7
:1007700000000088C8B103F0FEFE4FF60063C4F22B
:10078000AF03002203F04AFD46F26663C4F20A0397
:100790004FF0663203F002FF03F052FC0021C4F276
:1007A000013104F00DFA044600E0002448F2000193
:1007B000C4F28931204604F029F948F200010546C7
:1007C0000028C4F2AC31204618BF012504F025F9F9
:1007D000002818BF01202840B0BD000040F2D4001E
:1007E000C2F2000000F09CBD7047000040F2920C85
:1007F000C2F2000C9CF80A109CF80B30994211D000
:100800009CF80B201CF8022002709CF80B004CF6A0
:10081000CD4201304243D20C02EB8202A0EB4200F7
:100820008CF80B00C81A18BF0120704780B540F241
:100830001810C2F2000000680022C16841F0800177
:10084000C1601820002101F03BF8182001F028F8C1
:10085000012080BDEFF3108072B600BFFEE70000FC
:1008600070B582B004460020019094F8240001285D
:1008700001D1022566E0012084F824002046FFF71C
:10088000B7FD2046FFF718FE0546002857D1A06A9D
:1008900041F2021188430230A06240F20000C2F22D
:1008A00000000668022001F0E1F8B6FBF0F040001D
:1008B0000190019810B101980138F9E7206881682A
:1008C00041F00801816000F079FF21688A68120711
:1008D0000DD4886840F00400886000F06FFF216844
:1008E0008968490714D401206FF0030123E006460C
:1008F00004E000BF216888680007EAD500F05EFFC9
:10090000801B0B28F6D3206880680007F2D50EE024
:10091000064603E0206880684007E4D500F04EFFFB
:10092000801B0B28F6D3206880684007F2D501258C
:1009300010206FF01201A26A11400843A06200204B
:1009400084F82400284602B070BD0000F0B581B0E4
:100950000022009290F82420012A02D14FF0020CCC
:10096000D3E083684C68012280F82420B3B1D1F829
:1009700010E00268B4EB0E0404EB8404D2F838C033
:1009800004F10F044FF01F0303FA04F32CEA0303EE
:1009900023F4401C0DD9C2F838C015E0012C40F0FA
:1009A0008B800268936B0C686FF3150343EAC433C2
:1009B00009E000230D68CFF6F07303EB0E53A5405A
:1009C0002B4343EA0C0393634FF0000C03689A68CF
:1009D000D20706D19A6847F201058C69AA432243DF
:1009E0009A6091F815E0BEF1010F10D18D6900F108
:1009F0002804B5F5E04F4FF0200514BF4FF0010C6F
:100A00001C1D08BF4FF4806522682A4322600A7DBE
:100A1000012A0ED100F128022025BEF1000F14BFDB
:100A20004FF0010C1A1D08BF4FF480551468254380
:100A30001560D1F800E010240EEB4E02BEF1090F54
:100A400088BF1E3A88BF0C241D5907268F68964020
:100A5000B54307FA02F215432EF00102102A1D5188
:100A600003D19C6844F400049C604C68032C08D0BB
:100A7000022C09D0012C14BF03F1200403F114044B
:100A800004E003F11C0401E003F11804256840F6BA
:100A9000FF76C968B5432943102A216032D142F25A
:100AA0000041C4F201018B420DD0816A4FF0010C6C
:100AB00041F02001816225E0826A4FF0010C42F092
:100AC0002002826282E7896809021BD49968BEF11C
:100AD000100F41F40001996014D140F20001C2F2FC
:100AE000000109684DF68362C4F21B32A1FB0212B9
:100AF000910C01EB810149000091009911B100991D
:100B00000139F9E7002180F82410604601B0F0BDFA
:100B100080B5016842F20042C4F20102914218BF5E
:100B200080BD012100F006F840F28801C2F2000108
:100B3000088080BD022908D003290AD00068042952
:100B400014BF3C304830006870470068403000688F
:100B500070470068443000687047000010B50446D4
:100B600090F82400012804BF022010BD012084F861
:100B700024002046FFF7A0FC18B1002184F82410BF
:100B800010BD42F2044C2168A26AC4F2010C43F287
:100B900001039A430CF57F7302F580529942A262D9
:100BA00003D0A26A22F4801207E0DCF8002012F4DD
:100BB000702FF6D0A26A42F48012A262A26AD20515
:100BC0005CBF0022E262002284F824206FF004025D
:100BD0000A604A6842F080024A604A68520548BF8B
:100BE00010BD8A6802F4E042B2F5E04F06D19942A6
:100BF00009D1DCF8002012F4702F04D08A6842F486
:100C000000428A6010BD8A6842F402128A6010BDF8
:100C100010B5044690F82400012804BF022010BD3E
:100C2000012084F82400A06AC00512D4206840681E
:100C300040050ED42046FFF7DBFB78B921684A68EF
:100C400022F080024A60A16A41F20112914301310F
:100C500003E0A06A40F020010120A162002184F895
:100C6000241010BD80B590F82420012A04BF022072
:100C700080BD026891F808C05368BCF1010F23F0F1
:100C8000400308BF40335360D2F804C04FF6E0532E
:100C9000CFF63F730CEA030CD1E9003E43EA0C03A4
:100CA00043EA0E035360CB685362096991620021E5
:100CB00080F82410084680BDB0B581B000220092B3
:100CC00090F82420012A01D1022179E04A68012309
:100CD000062A02EB820C80F8243005D8026802F163
:100CE000340E6FF004020AE003680C2A87BF03F198
:100CF0002C0E6FF0400203F1300E6FF022026244BE
:100D0000DEF800C01F230C6893402CEA030304FAAA
:100D100002F21A43CEF80020D1F800E002680EEB90
:100D20004E041023BEF1090F88BF1E3C88BF0C2360
:100D300052F803C007258968A5402CEA0505A140A3
:100D40002943D1502EF001014FF0000C10294FF033
:100D5000000133D1016842F20042C4F20102914223
:100D600005D0816A41F020018162012126E092686C
:100D7000120222D48A68BEF1100F42F400028A6087
:100D80001BD140F20001C2F2000109684DF68362F6
:100D9000C4F21B32A1FB0212910C01EB810149004C
:100DA0000091009949B100BF009901390091009963
:100DB00000294FF00001F7D100E0002180F824C0A5
:100DC000084601B0B0BD000040F2A401C2F200012B
:100DD00000680968884218BF704740F29000C2F26C
:100DE000000001210170704770470000704700004B
:100DF00070B50446006805684668B10627D515F049
:100E0000020124D0A16AC90603D4A16A41F4007189
:100E1000A162816801F46021B1F5602F10D1217BBE
:100E200071B9416821F020014160A06A20F480700E
:100E3000A062A06AC00403D4A06A40F00100A062CE
:100E40002046FFF7C1FF20686FF0120101603006F5
:100E500033D515F0040030D0A06AC00603D4A06AD0
:100E600040F40050A0622068816801F4E041B1F5CF
:100E7000E04F0FD1416821F080014160A06A20F469
:100E80008050A062A06AC00510D4A06A40F00100A2
:100E9000A0620BE04168490508D4816801F4602133
:100EA000B1F5602F02D1217B0029E3D02046FFF766
:100EB0002FFE20686FF00C01016070060ED515F052
:100EC000010008BF70BDA06A40F48030A0622046D7
:100ED00000F0B4F820686FF00101016070BD0000FF
:100EE000B0B5002846D00446806A30B90020E062E0
:100EF00084F82400204600F0A3F820688168C90720
:100F000009D0816821F00101816000F057FC21685F
:100F10008968C90730D100200121A36AA26A31B3D0
:100F200013F0100123D141F2021122EA0101023132
:100F3000A162E169D4E9013241EA030C531EB3FA1C
:100F400083F35D091346B2F5807F18BF2B02217D24
:100F5000257B01294CEA450E31D13DB3A56A45F008
:100F60002005A562E56A45F00105E56227E042F04B
:100F70001000A0620120B0BD054603E02068806833
:100F8000C007C8D000F01AFC401B0328F6D3206825
:100F90008068C007F2D0A06A002140F01000A06273
:100FA000E06A40F00100E0620120B6E7D4F818C022
:100FB0004EF60005CFF6FF7505EB4C352B43256843
:100FC000B2F5807F696821F4694141EA03016960F3
:100FD000A9684FF2FD73CFF6E17301EA030141EA1C
:100FE0000E01A96001D0012A06D121690022CFF6A5
:100FF000F07202EB015200E00022E96A21F4700174
:101000001143E962A96840F6FE62CFF61F721140F3
:10101000714507D10021E162A16A012262F3010159
:10102000A162B0BDA06A40F0100020F00200A062F2
:10103000E06A40F00100E0620120B0BD70470000AE
:1010400070B586B0044640F60000C4F20100216885
:1010500000F5E052002691420596CDE9036602961E
:1010600001D006B070BD41F21801C4F202010A6855
:1010700042F400720A600A6802F400720192019A56
:101080000A6842F004020A60096801F00401019153
:1010900001990F2102910321039102A900F088FA1E
:1010A00040F2D4050820C2F20005C4F202004FF459
:1010B0008072C5E9000605F1100080214FF48063BD
:1010C0004FF0200C4FF4805E80E80C502846C5E9B4
:1010D000026100F0DDF9002818BFFFF7BBFB12200A
:1010E0000021002225626C6200F0EAFB122000F071
:1010F000D7FB06B070BD00002DE9F0410546006841
:1011000042F60006C4F201069046B0420F4605D0F2
:1011100042F20041C4F2010188420AD142F2044085
:10112000C4F20100006810F4702F1CBF0120BDE85C
:10113000F08195F82400012804BF0220BDE8F08169
:10114000012085F824002846FFF7B6F9044628B1A7
:10115000002085F824002046BDE8F08142F20440DA
:101160002968AA6AC4F2010040F601739A4300F5A7
:101170007F7302F580729942AA6207D0A86A20F4B0
:101180008010A8624868400518D512E0026812F481
:10119000702FF3D0AA6AB14242F48012AA6205D03D
:1011A00042F20042C4F20102914207D100684005B8
:1011B00004D5A86A012262F30D30A862AA6A002051
:1011C000D2044FF0000244BFEA6A22F00602EA624B
:1011D00085F82400286A40F24942C0F6000240F235
:1011E000B14340F2994600F1280CC0F60003C0F666
:1011F00000068CE84C006FF002020A608A684346E1
:1012000042F480728A604C313A4600F085F92868D1
:10121000816801F460228168B2F5602F0CBF41F44F
:10122000A00141F4801181602046BDE8F0810000FA
:10123000B0B5044690F82400012804BF0220B0BDD8
:101240000121206884F824108268D20703D100208D
:10125000002941D028E0816821F00101816000F07F
:10126000ADFA21688968C90703D10020012199B32B
:101270001AE0054604E000BF20688068C007F4D08B
:1012800000F09CFA401B0328F6D320688068C00752
:10129000F2D0A06A002140F01000A062E06A40F0A5
:1012A0000100E0620120B9B12268216A936823F449
:1012B0008073936091F82120022A0DD1084600F036
:1012C0000FF8A16A41F2011221EA020241F0400145
:1012D000002808BF511CA162002184F82410B0BD71
:1012E000014690F82100022813D10868D1E90FC304
:1012F000026822F00E020260026822F0010202601F
:10130000012000FA03F2CCF8042081F8210000202B
:1013100002E0042088630120002281F82020704729
:1013200010B5D0E90FCE0168DCF800300A6823FA66
:101330000EF35C0724D512F0040421D00A6892064B
:1013400003D40A6822F004020A602F22C4F20202C7
:10135000914240F20402C4F2020253DD3023C4F28F
:101360000203994266D04423C4F20203994264D036
:101370005823C4F20203994264D14FF4802369E0F8
:101380009C0727D512F0020424D00A68920606D4DE
:101390000A6822F00A020A60012280F821202F2226
:1013A000C4F20202914240F20402C4F2020235DDAC
:1013B0003023C4F20203994252D04423C4F2020300
:1013C000994250D05823C4F20203994250D14FF4AD
:1013D000003355E01B075AD512F0080208BF10BDB4
:1013E0000A6822F00E020A60012101FA0EF2CCF81E
:1013F0000420816380F82110016B002280F82020F6
:1014000059BB44E00823C4F20203994218D01C23BC
:10141000C4F20203994215D140231BE00823C4F211
:101420000203994222D01C23C4F2020399421FD125
:10143000202325E04FF480630CE04FF4804309E063
:10144000042307E002F168044FF08063A14208BF63
:101450004FF480031360C16AC9B1BDE8104008476A
:101460004FF400730CE04FF4005309E0022307E04F
:1014700002F168044FF00073A14208BF4FF400135B
:101480001360816A0022002980F82020E5D110BD78
:10149000014600284FF0010008BF70472DE9F043D6
:1014A000D1F800C04FF6F873CBF6FD734CF6CD4281
:1014B0006344CCF6CC42A3FB02236FF0030707EA98
:1014C00093030027C4F2020701F10C09C1E90F736D
:1014D0000223D1E9012E99E87002D1F81C8081F82D
:1014E0002130DCF8003043F6F077BB431A4342EA80
:1014F0000E0222432A43324342EA090242EA080228
:10150000CCF8002000228A6381F8210081F8202095
:101510000020BDE8F0437047F0B590F820C0BCF162
:10152000010F2FD04FF0010E80F820E090F821C07D
:10153000BCF1010F23D14FF0020C80F821C04FF015
:10154000000CC0F838C0D0E900C4C56AC66BDCF82E
:101550000070102C27F00107CCF80070006C0EFA18
:1015600000F070600846CCF8043004BF10460A460C
:10157000CCF80800CCF80C2035B10E200BE000218F
:1015800080F820100220F0BDDCF8000020F00400FC
:10159000CCF800000A20DCF800100843CCF800006A
:1015A000DCF8000040F00100CCF800000020F0BDA5
:1015B0002DE9F04F82B00E68002E00F0F68041F267
:1015C0000042C4F20102042340F2004E904208BFE0
:1015D00003234FF6FF7CC4F2010E00930024012385
:1015E000C1F2100C4FF0000A4FF0000943E0012750
:1015F00004F00C030F229A402BEA020207FA03F3CD
:101600004FEA9A051A4346F825204E6840F20C45E9
:10161000F202DEF8082054BF22EA080242EA080279
:10162000C4F20105CEF808202A68B30254BF22EAAA
:10163000080242EA08022A60B303DEF8042054BF1D
:1016400022EA080242EA0802F303CEF80420DEF898
:1016500000204FF0010354BF22EA080242EA0802C8
:10166000CEF800200E680AF1010A36FA0AF204F1F7
:10167000040400F09A8003FA0AFB16EA0B08F1D082
:101680004E68664510DC122E50D8DFE806F0330AAB
:1016900041454F4F4F4F4F4F4F4F4F4F4F4F4F4879
:1016A0004C00D1F80C9041E04FF6FF72C1F22102DC
:1016B00096420FDC0022C1F2110296421AD000229B
:1016C000C1F21202964215D00022C1F221029642C6
:1016D00010D02BE00022C1F2220296420AD0002252
:1016E000C1F23102964205D00022C1F23202964286
:1016F0001CD100BF8A6842B1012A14BFC0F814B0DF
:10170000C0F810B04FF0080910E04FF004090DE0E8
:10171000CA6802F1080909E04FF0000906E0CA684A
:1017200002F1040902E0CA6802F10C0922460646E9
:10173000B8F5807F24BF203A043637680F259540DE
:1017400027EA050509FA02F22A433260CA79D2066D
:101750007FF588AF41F21803C4F202031A68AEF5B0
:101760007E7642F001021A601A6802F001020192CC
:10177000019A2AF0030256F802B040F60002C4F2C1
:10178000010290420FD040F60042C4F201029042A2
:101790003FF42DAF41F20002C4F20102009F9042DB
:1017A00008BF022724E7002722E702B0BDE8F08F38
:1017B000002A08BF090401617047000040F2E010F0
:1017C000C2F200000068704740F21C0040F2E011D5
:1017D000C2F20000C2F2000100780A6810440860FA
:1017E0007047000080B542F20000C4F202000168B8
:1017F00041F010010160032000F08EF80F2000F08E
:1018000005F800F02BF8002080BD0000B0B540F2D4
:101810001C02C2F2000240F200011278C2F2000182
:101820004FF47A730968B3FBF2F20446B1FBF2F1AC
:10183000084600F0A3FC0F2C4FF001050CD858B956
:101840004FF0FF3021460022002500F039F840F229
:101850002000C2F2000004602846B0BD82B041F210
:101860001800C4F202000168022241F00101016087
:10187000016801F0010101910199416841F0805135
:101880004160406800F08050009000980420C4F24D
:101890000100016862F31A61016002B07047000044
:1018A000002848BF704700F01F01012202FA01F131
:1018B0004EF200124009CEF2000242F820107047AA
:1018C00010B54EF60C5CCEF2000CDCF80030C3F321
:1018D000022E8EF00704042C28BF0424BEF103035B
:1018E0004FF0FF3E0EFA04F438BF0023A1439940A5
:1018F0000EFA03F39A43114300F1604200F00F0324
:10190000090102F56442043B6344002848BF03F127
:101910000C02117010BD00004EF60C51CEF2000109
:101920000A684FF6FF031A4060F30A2242F0806013
:1019300040F0FD70086070474AF200214000C0F29C
:101940004A41B1FBF0F040F21811C2F200010A68FE
:10195000431E4008D362CB60506390637047000021
:1019600040F21810C2F20000006800214162704786
:1019700008280CD0042812D0002840F21810C2F217
:101980000000006814BF403034300160704740F2FE
:101990001810C2F2000000683C300160704740F24D
:1019A0001810C2F200000068383001607047000073
:1019B00040F21811C2F2000109684A6C22F0FF02DD
:1019C000104448647047000010B540F21814C2F289
:1019D00000042068002141622046002101F012FA33
:1019E0002046002100F046FC2046042101F00AFABE
:1019F00020460421BDE8104000F03CBC10B540F288
:101A00001814C2F200042046002101F05DFA2046BD
:101A1000002100F089FC2046042101F055FA2046FF
:101A20000421BDE8104000F07FBC000040F2181017
:101A3000C2F20000006841F21112016A114200D0A6
:101A40007047016A40F24442114218BF7047016872
:101A500021F001010160704740F21810C2F200004D
:101A60000068016841F001010160704780B50128FC
:101A700018D0022841D010283DD141F20401C4F20F
:101A800002010A6851F8040CC00134D5C2F3834046
:101A90002EA3185CD2033FD440F60012C0F23D02E0
:101AA000504345E041F20400C4F20200C16940F233
:101AB00002320A40B2F5817F04BF4FF4004080BD7E
:101AC00001F44071B1F5407F0DD0B1F5007F12D126
:101AD000026A920744BF49F6404080BDB1F5407F9D
:101AE0001CBF002080BD50F8040C4FF2244180033D
:101AF00001EAE07080BD002080BD00F093F941F262
:101B00000401C4F2020109680222C1F3813102EB2F
:101B10004101B0FBF1F080BD0A6810A3C2F340425E
:101B20009A5C41F20023C0F27A03B3FBF2F2504315
:101B30000968490248BF80BD4AF6AB214000CAF699
:101B4000AA21A0FB0101480880BD00BF02030405D3
:101B5000060708090A0B0C0D0E0F101001020000F9
:101B60002DE9F04182B00446007841F21C06C0071E
:101B7000C4F202064AD0306810F0805808D13068AC
:101B800040F080503060306800F080500190019843
:101B900047F20007C4F200073868C00512D438685D
:101BA00040F480703860FFF709FE05463868C005CC
:101BB00008D4FFF703FE401B6428F7D9032002B0C6
:101BC000BDE8F081706810F4407012D0616801F4D3
:101BD000407188420DD0706840F24042C4F2422207
:101BE000012320F4407113600023C007136071606B
:101BF00029D17068616820F440700843B8F1000F83
:101C0000706003D1306820F0805030602068810718
:101C100007D556F8181CA26821F44041114346F834
:101C2000181CC00603D4002002B0BDE8F08156F8AD
:101C3000180CE16820F48000084346F8180C0020D6
:101C400002B0BDE8F081FFF7B9FD054641F28837E3
:101C500070688007CDD4FFF7B1FD401BB8424FF04C
:101C60000300F5D9ECE700002DE9F04381B000282E
:101C700000F0858042F20008C4F202080446D8F859
:101C800000000D4600F0070088420CD2D8F8000092
:101C900020F007002843C8F80000D8F8000000F042
:101CA0000700A8426BD1206841F204098107C4F201
:101CB000020917D5410705D5D9F8001041F4E061B4
:101CC000C9F80010010705D5D9F8001041F460519A
:101CD000C9F80010D9F80010A26821F0F0011143F2
:101CE000C9F80010C00741D1D8F8000000F0070083
:101CF000A8420CD9D8F8000020F007002843C8F803
:101D00000000D8F8000000F00700A84237D1206892
:101D1000410707D5D9F80010E26821F4E0611143CA
:101D2000C9F80010000708D5D9F80000216920F48F
:101D3000605040EAC100C9F80000D9F8002002F064
:101D40000C00082841F20020C0F27A004ED144F67F
:101D5000A263C2F38341C0F60003595CD20339D4B5
:101D600040F60010C0F23D0048433FE060680228A2
:101D700009D0012829D159F8041C890307D401206E
:101D800001B0BDE8F08359F8041C8901F7D5D9F8F2
:101D9000001021F003010843C9F80000FFF70EFD11
:101DA000064641F2883700BFD9F80000616800F0AC
:101DB0000C00B0EB810F97D0FFF700FD801BB842FD
:101DC000F2D9032001B0BDE8F08359F8041C89075B
:101DD000D5D5DCE7D9F8002044F6A063C2F3404231
:101DE000C0F600039A5C4843B0FBF2F0D9F800104B
:101DF00044F68862C1F30311C0F60002515C40F260
:101E0000000220FA01F140F22000C2F20000006856
:101E1000C2F200021160FFF7F9FC002001B0BDE83A
:101E2000F083000040F2000041F20401C2F2000021
:101E3000C4F202010068096844F69862C1F3C22145
:101E4000C0F60002515CC840704700002DE9F04127
:101E500082B0002800F0D7800446007841F20006E6
:101E6000C007C4F2020644D0706800F00C000428D9
:101E700017D0706800F00C00082802D17068C00309
:101E80000FD465682DB1B5F5A02F10D0B5F5803F02
:101E900011D0306820F480303060306820F4802029
:101EA0000CE03068800324D5606810BBABE030687C
:101EB00040F480203060306840F480303060FFF7BC
:101EC0007DFC002D054611D03068800311D4FFF74A
:101ED00075FC401B6428F7D916E100BFFFF76EFCC4
:101EE000401B64284FF0030000F28A8030688003B2
:101EF000F4D42078800718D5706810F00C0F07D044
:101F0000706800F00C00082827D17068C00324D442
:101F10003068800702D52069012874D13068616972
:101F200020F0F80040EAC1003060207800074FD56B
:101F3000A06940B30020C4F242200121C0F88014FF
:101F4000FFF73CFC054600BF706A80072DD4FFF701
:101F500035FC401B0228F7D9D6E02069002840F262
:101F60000000C4F2422000F0A68001210160FFF7CA
:101F700025FC054630688007D0D4FFF71FFC401BC6
:101F80000228F7D9C0E00020C4F242200021C0F8A6
:101F90008014FFF713FC0546706A800718D5FFF719
:101FA0000DFC401B0228F7D9AEE040F20000C2F25F
:101FB0000000006844F6D351C1F26201A0FB0101A8
:101FC000480A019000BF0198411E00280191F9D1F3
:101FD000207840071BD4E5698DB1706800F00C00D3
:101FE000082846D1012D0ED07068216A00F4803295
:101FF0008A4208D1616A00F47010884203D100203F
:1020000002B0BDE8F081012002B0BDE8F081F069C6
:1020100010F0805808D1F06940F08050F061F0690C
:1020200000F080500090009847F20007C4F20007CB
:102030003868C0050FD4386840F480703860FFF706
:10204000BDFB05463868C00505D4FFF7B7FB401B4C
:102050006428F7D958E0E5681DB1052D3CD0012D65
:102060003ED0306A20F001003062306A20F0040077
:1020700039E00027C4F2422700203866FFF79EFBB4
:10208000022D05460CD100BF3068800154D5FFF702
:1020900095FB401B02284FF00300F5D9B0E700BFC5
:1020A00030688001ABD5FFF789FB401B02284FF059
:1020B0000300F5D9A4E700210160FFF77FFB054687
:1020C000306880077FF531AFFFF778FB401B0228AF
:1020D0004FF00300F4D993E7306A40F00400306217
:1020E000306A40F001003062FFF768FB002D0546C2
:1020F00041F2883714D000BF306A800713D4FFF74D
:102100005DFB401BB842F7D9032002B0BDE8F08167
:10211000FFF754FB401BB8424FF003003FF670AF8F
:10212000306A8007F4D4B8F1000F7FF454AFF0693F
:1021300020F08050F0614EE7206AB0F5803F05D175
:102140007168A26821F40031114371607168626A9C
:1021500021F4741111430843706001203866FFF7C1
:102160002DFB0446306880013FF549AFFFF726FBA1
:10217000001B02284FF00300F4D941E7411E002064
:10218000B0EB116F1CBF012070474EF21002CEF26F
:10219000000251604EF62351CEF20001F0230B7085
:1021A0000721906011607047704700007047000081
:1021B000B0B590F83C20012A04BF0220B0BD01F167
:1021C00008053CCDD1E900CE23F47C5322F47052B3
:1021D0001A432EF4F0431A432CF4E0431A4324F438
:1021E000C0431A432A43C96922F480420368114359
:1021F0005964002180F83C100846B0BD10B590F835
:102200003C20012A4FF0020231D0012380F83C30FB
:1022100080F83D200268D2F804E0D2F808C00C68CB
:102220002EF07003234340F2FF74C4F20004A24274
:10223000536005DCB2F1804F0ED040F2004307E05E
:1022400042F60043C4F201039A4205D040F600036F
:10225000C4F200039A4204D149682CF08003194368
:1022600091600121002280F83D1080F83C2010464A
:1022700010BD000041B1082909D0042914BF00F1A4
:10228000450200F1430204E000F1420201E000F1E6
:1022900044021278012A1CBF01207047022241B17A
:1022A000082909D0042914BF80F8452080F843206C
:1022B00004E080F8422001E080F84420006801F04A
:1022C0000F010422036A02FA01F123EA0102026209
:1022D000026A11430162416C40F2FF72C4F20002D3
:1022E00041F400419042416405DCB0F1804F0ED0D2
:1022F00040F2004107E042F60041C4F20101884289
:1023000005D040F60001C4F20001884206D1816880
:1023100001F00701062904BF00207047016841F061
:10232000010101600020704710B5026801F00F0E36
:102330004FF0040C146A0CFA0EF324EA0303136240
:10234000136A1362146A41F211131C420AD1D2F8C3
:1023500020C040F244441CEA040F03D1546C24F41E
:1023600000445464146A1C4204D1136A40F2444489
:10237000234212D0082916D0042909D000294FF091
:10238000010114BF80F8451080F84210002010BDF4
:10239000012180F84310002010BD136823F00103D1
:1023A00013600829E8D1012180F84410002010BDF5
:1023B000002804BF0120704710B5044690F83D0086
:1023C00028B9002084F83C00204600F065F802207F
:1023D00084F83D00206840F2FF730268C4F20003F5
:1023E00042F6004C9842C4F2010C05DCB0F1804F7B
:1023F0000AD040F2004103E0604505D040F60001FC
:10240000C4F20001884203D1A16822F070020A439D
:10241000984205DCB0F1804F0AD040F2004103E061
:10242000604505D040F60001C4F20001884203D1A6
:10243000216922F440720A43A36922F08001D4F892
:1024400004E0E268194360450160C262C0F828E018
:1024500002D16169CCF83010012141610269D207D3
:1024600003D0026922F001020261002084F84610C4
:1024700084F83E1084F83F1084F8401084F841102E
:1024800084F8421084F8431084F8441084F845100E
:1024900084F83D1010BD000070B586B000680021C2
:1024A000B0F1804FCDE90411039102913FD042F683
:1024B0000041C4F2010188424FD141F21800C4F238
:1024C0000200016840F6000441F400610160016807
:1024D000C4F2010401F4006101910199016802ADA7
:1024E00041F0080101600168002601F00801019136
:1024F0000199016841F0040101600068294600F07B
:102500000400019001984FF48050029004F580601F
:10251000CDE90366FFF74CF84FF44060CDE90206C1
:10252000204629460496FFF743F818240DE041F2AF
:102530001800C4F2020041681C2441F0010141600E
:10254000406800F00100019001982046002100221F
:10255000FFF7B6F92046FFF7A3F906B070BD0000FB
:1025600090F83D1001291CBF01207047022180F81E
:102570003D10006840F2FF72C168C4F20002904250
:1025800041F00101C16005DCB0F1804F0ED040F296
:10259000004107E042F60041C4F20101884205D043
:1025A00040F60001C4F20001884206D1816801F0C2
:1025B0000701062904BF00207047016841F00101AE
:1025C000016000207047000080B590F83C20012A8F
:1025D0004FF0020200F0C280012380F83C3080F806
:1025E0003D20D0F800C04FF67772DCF8083023EABF
:1025F0000202CCF808200B684F2B28DC1F2B43DD90
:10260000202B44D0302B42D0402B40F0A980D1F871
:1026100004E0C968DCF82030DCF8202022F0010258
:10262000CCF82020DCF8182022F0F00242EA011158
:1026300023F00A0242EA0E02CCF81810CCF820204F
:10264000DCF8081041F0470121F030017DE06F2BEC
:1026500025DDB3F5005F46D0B3F5805F77D0702BF2
:102660007ED1D1E901E3C968DCF8082043EA0E0312
:1026700022F47F4243EA01211143CCF80810DCF830
:10268000081041F0770160E00BB1102B68D1DCF845
:10269000081021F07001194341F0070155E0502B5B
:1026A00034D0602B5CD1D1F804E0C968DCF820306C
:1026B000DCF8202022F01002CCF82020DCF81820D2
:1026C00022F4704242EA013123F0A00242EA0E12E3
:1026D000CCF81810CCF82020DCF8081041F0670185
:1026E00021F0100131E0D1E901E3C968DCF80820EC
:1026F00043EA0E0322F47F4243EA01211143CCF85E
:102700000810DCF8081041F480411EE0D1F804E024
:10271000C968DCF82030DCF8202022F00102CCF877
:102720002020DCF8182022F0F00242EA011123F008
:102730000A0242EA0E02CCF81810CCF82020DCF88D
:10274000081041F0570121F02001CCF808100022B8
:10275000012180F83D10002180F83C10104680BD1A
:102760000122F5E770470000F0B590F83C30012BEE
:1027700004BF0220F0BD4FEAB2020123032A80F811
:102780003C3000F2A080DFE802F0021B3B590368F6
:10279000D1E900C5D1F80CE01C6A1A6A40F2FF7753
:1027A00022F001021A621A4652F8186FC4F20007AA
:1027B000BB4267DCB3F1804F70D040F2004769E064
:1027C0000368D1E900E6D1E902C11C6A1A6A36023F
:1027D00022F010021A621A4652F8185F4FF2FF07F1
:1027E000BE4325F4734561F30F3624F0A0040EF0C8
:1027F0000A0746EA050144EA071711601F623AE03A
:102800000768D1E900C5D1E902313C6A3A6A61F34F
:10281000071522F480723A623A4652F81C6F26F08D
:10282000F30645EA06014FEA5C0666F349241160A7
:102830003C62116821F00C01116040E00368D1E9AD
:1028400000E6D1E902C11C6A1A6A360222F48052FB
:102850001A621A4652F81C5F4FF2FF07BE4325F476
:10286000734561F30F364FEA5E0746EA050167F3E9
:102870004D3411601C6211684FEA0C2321F4406151
:1028800011601CE042F60047C4F20107BB4205D0CC
:1028900040F60007C4F20007BB4219D126F0030638
:1028A000354324F00A070CF00A066EF30715374487
:1028B0009D611F629F6927F00C079F618B681168FB
:1028C000194300231160002180F83C101846F0BD28
:1028D00046F00105E5E70000002804BF012070472D
:1028E00010B5044690F83D0028B9002084F83C005B
:1028F000204600F065F8022084F83D00206840F290
:10290000FF730268C4F2000342F6004C9842C4F21E
:10291000010C05DCB0F1804F0AD040F2004103E029
:10292000604505D040F60001C4F20001884203D1A1
:10293000A16822F070020A43984205DCB0F1804F92
:102940000AD040F2004103E0604505D040F60001A6
:10295000C4F20001884203D1216922F440720A4383
:10296000A36922F08001D4F804E0E26819436045CD
:102970000160C262C0F828E002D16169CCF8301071
:10298000012141610269D20703D0026922F00102EC
:102990000261002084F8461084F83E1084F83F104D
:1029A00084F8401084F8411084F8421084F84310F1
:1029B00084F8441084F8451084F83D1010BD0000E0
:1029C0007047000070B504460068C5680669B10725
:1029D00016D515F0020113D06FF00201016101213B
:1029E00021778069800703D02046FFF7BBFE05E012
:1029F000204600F08DF8204600F002FA00202077F3
:102A0000700718D515F0040015D020686FF0040188
:102A1000016102212177806910F4407F03D02046B4
:102A2000FFF7A0FE05E0204600F072F8204600F017
:102A3000E7F900202077300717D515F0080014D0EB
:102A400020686FF00801016104212177C0698007C7
:102A500003D02046FFF786FE05E0204600F058F838
:102A6000204600F0CDF900202077F00618D515F0AB
:102A7000100015D020686FF0100101610821217746
:102A8000C06910F4407F03D02046FFF76BFE05E0DD
:102A9000204600F03DF8204600F0B2F900202077F3
:102AA000F00718BF15F0010002D1300609D412E07A
:102AB00020686FF001010161204600F057FA3006EE
:102AC00009D515F0800006D020686FF08001016103
:102AD0002046FFF769FB700609D515F0400006D0C7
:102AE00020686FF040010161204600F073FAB006E3
:102AF00058BF70BD15F0200008D021686FF020028B
:102B000020460A61BDE87040FFF750BB70BD000071
:102B1000704700002DE9F04190F83C30012B04BFD4
:102B20000220BDE8F0814FEAB2020123032A80F8B7
:102B30003C3000F2E980DFE802F0023A77B3036844
:102B400042F600471E6A1A6AC4F2010722F0010227
:102B50001A621A465C6852F818CF8D6826F0020691
:102B6000BB4245EA060E06D1CD682EF00C0625F0D4
:102B7000040545EA060E0E68BB4205D1D1E90557AA
:102B800024F440742C433C432CF0730737435C60BF
:102B90009F614F6809695F63C3F820E09F6947F050
:102BA00008079F619F6927F004079F61A8E00368F9
:102BB00042F600451C6A1A6AC4F2010522F01002AE
:102BC0001A621A46D3F804C052F818EF8E6824F03F
:102BD0002004AB4244EA061407D1CE686FF04007E8
:102BE00024F0C00407EA061634430E68AB4207D14E
:102BF000D1E905872CF4406547EA080745EA870CC8
:102C00002EF4E64747EA0627C3F804C09F614F68E1
:102C100009699F631C629F6947F400679F619F6910
:102C200027F480679F616AE0036842F600451C6AEA
:102C30001A6AC4F2010522F480721A621A46D3F8A5
:102C400004C052F81CEF8E6824F40074AB4244EACE
:102C5000062407D1CE6840F2FF47360224F44064D0
:102C6000BE4334430E68AB4207D1D1E905872CF44B
:102C7000405547EA080745EA071C2EF0730737431B
:102C8000C3F804C0DF614F680969DF631C62DF6954
:102C900047F00807DF61DF6927F00407DF612FE0F5
:102CA000036842F60047D3F820C01A6AC4F201074D
:102CB00022F480521A621A465C6852F81C5FD1F8FE
:102CC00000E08E68BB4204D14F6924F4804444EA9A
:102CD00087142CF4005747EA063725F4E64646EAFF
:102CE0000E265C60DE614E6809691E641F62DF6942
:102CF00047F40067DF61DF6927F48067DF6109025D
:102D00001368194300231160002180F83C10184615
:102D1000BDE8F081002804BF0120704710B50446CB
:102D200090F83D0028B9002084F83C00204600F0CF
:102D300065F8022084F83D00206840F2FF730268C5
:102D4000C4F2000342F6004C9842C4F2010C05DCC8
:102D5000B0F1804F0AD040F2004103E0604505D059
:102D600040F60001C4F20001884203D1A16822F0BC
:102D700070020A43984205DCB0F1804F0AD040F25D
:102D8000004103E0604505D040F60001C4F20001B7
:102D9000884203D1216922F440720A43A36922F0D8
:102DA0008001D4F804E0E268194360450160C26222
:102DB000C0F828E002D16169CCF8301001214161EE
:102DC0000269D20703D0026922F0010202610020E9
:102DD00084F8461084F83E1084F83F1084F84010C0
:102DE00084F8411084F8421084F8431084F84410A9
:102DF00084F8451084F83D1010BD000070470000B5
:102E00007047000041B1082909D0042914BF00F11E
:102E1000410200F13F0204E000F13E0201E000F156
:102E200040021278012A1CBF01207047022241B1E2
:102E3000082909D0042914BF80F8412080F83F20D8
:102E400004E080F83E2001E080F84020006801F0B6
:102E50001F010122036A8A4023EA02010162036A18
:102E600042F64441C4F201011A43A1F144039842DD
:102E7000026203D10A6842F400420A6040F2FF7124
:102E8000C4F20001884205DCB0F1804F0ED040F260
:102E9000004107E042F60041C4F20101884205D03A
:102EA00040F60001C4F20001884206D1816801F0B9
:102EB0000701062904BF00207047016841F00101A5
:102EC000016000207047000080B5026801F01F0C0F
:102ED000012303FA0CFE136A42F6004C23EA0E03A8
:102EE0001362C4F2010C136A6245136211D1DCF85B
:102EF00020C041F211131CEA030F0AD1D2F820C0FE
:102F000040F244431CEA030F03D1536C23F4004303
:102F10005364D2F820C041F211131CEA030F06D10A
:102F2000D2F820C040F244431CEA030F12D0082913
:102F300016D0042909D000294FF0010114BF80F8F0
:102F4000411080F83E10002080BD012180F83F1024
:102F5000002080BD136823F0010313600829E8D125
:102F6000012180F84010002080BD00000068B0F111
:102F7000804F00D0704740F2BC12C2F2000240F213
:102F8000A000127844F6F463C2F20000C0F6000319
:102F9000016853F822204B1C9142036007D30021A3
:102FA000016040F2DC10C2F200000121017040F229
:102FB000A810C2F2000001884A1C3229028038BFE2
:102FC00070470021018040F2AA10C2F200000121E6
:102FD0000170704770470000FEE70000002908BF3D
:102FE0007047083850F8082F013990F806C09268E9
:102FF00083881A4018BF01226CF341020B048271CE
:10300000F0D1704710B590B040F2A40042F20041F8
:103010000024C2F20000C4F201014FF480724FF4A8
:103020006023C0E900140321CDE90E44CDE90C442E
:10303000CDE90A44CDE90844CDE90644CDE904448C
:10304000CDE90244CDE9004404730475C361826094
:103050000161FDF745FF002818BFFDF7FBFB40F2BB
:103060000020C0F240000A9040F6FF70CDE90D0448
:1030700040F2A4000B940124C2F200000AA98DF8CA
:103080003040FDF7EFFD002818BFFDF7E3FB0520FA
:10309000099040F2A400C2F2000007A9CDE907445C
:1030A000FDF70AFE002818BFFDF7D4FB0220CDE98A
:1030B000070040F2A400C2F2000007A9FDF7FCFDE2
:1030C000002818BFFDF7C6FB0320CDE9070040F23A
:1030D000A400C2F2000007A9FDF7EEFD002818BF0A
:1030E000FDF7B8FB0020012100900191049102211D
:1030F0000690ADF81400039040F2A4000291C2F2D1
:1031000000006946FDF722FC002818BFFDF7A2FB6E
:1031100010B010BD80B582B041F21400C4F20200BC
:103120000168002241F0010101600068002100F007
:103130000100019001980B20FEF7C2FB0B2002B0AA
:10314000BDE88040FEF7ACBB2DE9F04F85B04FF0F5
:10315000000841F21800CDE90388CDE90188C4F2E6
:103160000200016840F6004A41F010010160016868
:10317000C4F2010A01F010010091009901680AF5FA
:10318000806641F0200101600168002201F0200109
:103190000091009901684FF4005441F0040101606E
:1031A000016801F0040100910099016841F00801F3
:1031B000016000684FF4005100F008000090009892
:1031C0003046FEF7F5FAAAF58065284649F2F00187
:1031D000002249F2F009FEF7EBFA50464FF47F6106
:1031E0000022FEF7E5FA01AF01944FF0010B022433
:1031F00030463946CDF808B0CDE90344FEF7D8F99A
:1032000028463946CDE9019BCDE90344FEF7D0F9C4
:103210000320CDE9010850463946CDF80C80FEF771
:10322000C7F94FF47F60CDE9010B50463946CDE92F
:103230000344FEF7BDF905B0BDE8F08F70B5A0B04E
:1032400042F6004540F21810C4F201050021C2F216
:103250000000402240F60F638026CDE91911CDE928
:1032600017111591CDE91311CDE91111CDE90F1108
:10327000CDE90D11CDE90B11CDE90911CDE907110A
:10328000CDE90511CDE90311CDE90111C0E90051E6
:10329000C0E90223C0E904118661FFF789F800281C
:1032A00018BFFDF7D7FA4FF48050179040F218106E
:1032B000C2F2000017A9FFF787F9002818BFFDF731
:1032C000C9FA40F21810C2F20000FFF723FD0028EF
:1032D00018BFFDF7BFFA40F21810C2F20000FFF766
:1032E000FBFA002818BFFDF7B5FA402014908020A3
:1032F000159040F21810C2F2000014A9FEF77EFFEC
:10330000002818BFFDF7A6FA60200D904FF4E16089
:103310000E900020CDE90F00CDE91100139040F28E
:103320001810C2F200000DA90022FFF7F3FB0028DD
:1033300018BFFDF78FFA40F21810C2F200000DA975
:103340000422FFF7E7FB002818BFFDF783FA0020EF
:1033500001210990CDE90A100C9040F21810C2F238
:10336000000009A90822FFF7FFF9002818BFFDF7A0
:1033700071FA40F21810C2F2000009A90C22FFF7FE
:10338000F3F9002818BFFDF765FA4FF400600190CB
:103390004FF480600290FF2004904FF4805005901D
:1033A0004FF4005040F2181406904FF48040C2F2DF
:1033B00000040026089001A920460396FEF7F8FEB7
:1033C000002818BFFDF746FA2068CDE91E66A8421E
:1033D0001D961C9601D020B070BD41F21800C4F2B9
:1033E000020001681CAC41F008010160016802267E
:1033F00001F008011B911B99016841F00401016073
:103400000068214600F004001B901B984FF4C04058
:103410001C90A5F500501D961F96FEF7C9F84FF4B5
:103420004070CDE91C06A5F5105021461F96FEF709
:10343000BFF820B070BD000080B586B040F26010CB
:103440000021C2F2000040F2E73CCDE90411CDE9D1
:103450000211CDE900114FF080424723C0E9021C60
:1034600001618021C0E900238161FEF7A1FF0028EE
:1034700018BFFDF7EFF94FF48050029040F2601052
:10348000C2F2000002A9FFF79FF8002818BFFDF75D
:10349000E1F90020CDE9000040F26010C2F2000026
:1034A0006946FEF7ABFE002818BFFDF7D3F906B05A
:1034B00080BD000003460A46006899889A71FEF7AD
:1034C00077B90000B0B5002908BFB0BD0C46A0F127
:1034D000080500BF55F8080F013CA988AA79FEF736
:1034E00067F92004F6D1B0BDFEE70000FEE700005A
:1034F0002DE9F04744F6387740F2BC1540F29109C7
:10350000824600F10A080026C0F60007C2F2000554
:10351000C2F2000906E000BF0121B1B10C36B6F5D8
:103520009C7F16D0B95D2A789142F5D1BC1961789B
:103530005145F1D16068804700280EBF89F80080AE
:10354000217A297000210029E8D100F00100BDE8AE
:10355000F087002000F00100BDE8F087B0B540F230
:10356000BC10C2F200000024047040F2DC1540F2EE
:103570009200C2F20005C2F200002C708472C47284
:1035800040F26010C2F2000001684C62FEF7E8FFF2
:103590000120287040F2A000C2F200000460B0BD1B
:1035A000704700007047000070B540B340F600015E
:1035B000C4F2010140F2100E402240F2001340F22A
:1035C000004C01F5806480252026C0F2200EC0F258
:1035D0008002C0F20023C0F6000CC0F24005C0F229
:1035E0001006C0E900410021C0E902E2C0E9043C44
:1035F000C0E9065680F82010C0F8211070BD44F6CE
:10360000147044F62171C0F60000C0F600011322C8
:10361000FCF7DAFDFEF7D8B870B594B00AAC2046D6
:103620002821FCF711FE01200A900E904FF4E010C3
:1036300000254FF480310226139020460995CDE9EC
:103640000755CDE90555CDE90355CDE90155CDE93E
:103650000B15CDE91161FEF7F9FB20B1EFF31080F6
:1036600072B600BFFEE70F20CDE905064FF480607B
:10367000CDE9080505A802210795FEF7F5FA20B166
:10368000EFF3108072B600BFFEE7022001904FF406
:103690000040039001A8FEF763FA20B1EFF3108019
:1036A00072B600BFFEE714B070BD000070470000A6
:1036B00040F21810C2F20000FFF784B940F2601027
:1036C000C2F20000FFF77EB970B540F28A04C2F280
:1036D00000046088FCF758FFA18804460846FCF700
:1036E00053FF0026C4F2962605462046314601F0D7
:1036F00094F9044600282846314618BF012401F0F9
:103700008CF9002818BF0120204070BDFEE70000A2
:10371000012070478AB0FEF765F8FFF77DFFFFF7DD
:1037200013FDFFF7F7FCFFF76DFCFFF787FDFFF7D1
:1037300083FE40F20400C2F2000003210324FFF7DD
:10374000C1FEFFF70BFF40F2AC1040F60041C2F2A1
:103750000000C4F20101016001218180847168468A
:10376000FFF722FF40F29E0440F2DC1540F2AA1659
:1037700040F2BC1744F6B46944F6D46AC2F20004BD
:10378000C2F20005C2F200064FF00008C2F20007C4
:10379000C0F60009C0F6000A03E000BF2078FFF77A
:1037A000A7FE2046FDF722F80028F7D1287828B197
:1037B00085F8008038785AF8200080473078012852
:1037C000EFD1387886F8008059F820008047E8E784
:1037D00080B540F2A400C2F20000FDF729FD0028E8
:1037E0001CBF002080BD40F2A400C2F20000FDF723
:1037F0000FFAB0FA80F0400980BD000080B540F2B9
:10380000A400C2F20000FDF72BF808B1002080BD33
:1038100040F2A40040F28A01C2F20000C2F20001AC
:103820000322FDF769FC60B940F2A400C2F2000077
:10383000FDF794F968B140F2A400C2F20000FDF770
:10384000E7F940F2A400C2F20000FDF7F1FC00200D
:1038500080BD012080BD000080B5FEF7CFF80120BB
:1038600080BD000080B5FEF7AFF8012080BD0000EC
:1038700080B5FEF7F1F8012080BD000080B5FEF7AD
:10388000BDF8FEF76DF800200021FEF771F8042066
:103890000021FEF76DF8FEF7C9F8012080BD000099
:1038A00040F2BC11C2F20001C8788A7800F0FE0034
:1038B000C87002F0800001308870002201208A83E5
:1038C000C1E90122C1E903224A610A83704700006D
:1038D000014642F2107044F62062C1E904024DF63E
:1038E000FF7088834FF47A7201200A8370470000CA
:1038F00080B5FEF721F8012080BD00007047000070
:103900007047000080B540F29000C2F200000078DD
:1039100000B3FCF729FFE8B1FFF7D6FED0B1FFF7FF
:1039200057FF40F29200C2F20000817A4CF6CD427D
:103930000131CCF6CC42A1FB0223DA0802EB820271
:10394000C37AA1EB4201994208BF80BD827A03236A
:103950008354817280BD000010B540F2AC14C2F2F5
:10396000000420460121FFF739FBA07902281AD173
:103970000320A07140F29200C2F20000817A4CF65E
:10398000CD420131CCF6CC42A1FB0223DA0802EB96
:103990008202C37AA1EB4201994208BF10BD827A2C
:1039A00002238354817210BD7047000010B540F2AD
:1039B000AC14C2F2000420460121FFF70FFBA079EE
:1039C00002281AD10320A07140F29200C2F2000036
:1039D000817A4CF6CD420131CCF6CC42A1FB0223D8
:1039E000DA0802EB8202C37AA1EB4201994208BFD6
:1039F00010BD827A02238354817210BD704700008B
:103A000010B540F2AC14C2F2000420460121FFF7C9
:103A1000E5FAA07902281AD10320A07140F29200A1
:103A2000C2F20000817A4CF6CD420131CCF6CC4294
:103A3000A1FB0223DA0802EB8202C37AA1EB420166
:103A4000994208BF10BD827A02238354817210BD4F
:103A50007047000010B540F2AC14C2F200042046DA
:103A60000121FFF7BBFAA07902281AD10320A07127
:103A700040F29200C2F20000817A4CF6CD42013150
:103A8000CCF6CC42A1FB0223DA0802EB8202C37A15
:103A9000A1EB4201994208BF10BD827A02238354F0
:103AA000817210BD10B540F28A00C2F20000008899
:103AB000FCF7D0FD40F28801C2F2000140F2BC14D4
:103AC0000988C2F20004A0600846FCF73FFDA16827
:103AD000E06001F075F800F0EFFF217FB0F57A7F2C
:103AE000608303D9DF2901D2012003E0607F814296
:103AF00005D9FF2008442077C0B2FDF759FF207F89
:103B000042F2107180F0FF00484301EB5010216930
:103B100080B2814205D06169814202D32061FFF702
:103B2000E7FE207F617F88421CD8D4E904018842E7
:103B300018D340F29200C2F20000817A4CF6CD42D6
:103B40000131CCF6CC42A1FB0223DA0802EB82025F
:103B5000C37AA1EB4201994208BF10BD827A0423C7
:103B60008354817210BD000010B540F2AC14C2F253
:103B7000000420460121FFF731FAA07902281AD16A
:103B80000320A07140F29200C2F20000817A4CF64C
:103B9000CD420131CCF6CC42A1FB0223DA0802EB84
:103BA0008202C37AA1EB4201994208BF10BD827A1A
:103BB00002238354817210BD7047000070470000DB
:103BC0007047000010B540F2AC14C2F20004204669
:103BD0000121FFF703FAA07902281AD10320A0716E
:103BE00040F29200C2F20000817A4CF6CD420131DF
:103BF000CCF6CC42A1FB0223DA0802EB8202C37AA4
:103C0000A1EB4201994208BF10BD827A012383547F
:103C1000817210BD2DE9F0414F1E00EBC701044633
:103C2000D1E9000115461E4637F006020DD02A469E
:103C3000334600F0B3FC7F1E04EBC703D3E9002337
:103C400000F030FA37F00602F1D1022F25D0042F10
:103C500013D0062F18BFBDE8F0812A46334600F086
:103C60009DFCD4E90A2300F01DFA2A46334600F0F1
:103C700095FCD4E9082300F015FA2A46334600F0F3
:103C80008DFCD4E9062300F00DFA2A46334600F0F5
:103C900085FCD4E9042300F005FA2A46334600F0F7
:103CA0007DFCD4E9022300F0FDF92A46334600F0FA
:103CB00075FCD4E90023BDE8F04100F0F3B9000041
:103CC000002213461046014900F0A8BA0000F03F58
:103CD000012201F073B8002213461046114600F08D
:103CE0009DBA00002DE9F04DC84A002490B09142E1
:103CF00005DA21F00043934201D805D120B110B07C
:103D0000BDE8F04DFFF7E4BFB1F5801F1BDA53EAC1
:103D1000000209D0002911DA0120FCF7C4FA10B022
:103D2000BDE8F04DFFF7D7BF0220FCF7BCFAFFF764
:103D3000C7FF10B081F00041BDE8F08D6FF0350491
:103D4000362201F03BF804EB2152C1F31308B049CD
:103D5000A2F2FF33414401F4801282F07F6103EB51
:103D6000225281F04051009241EA08010022A94B01
:103D700000F01EFD044608F10200A74EC0F3130038
:103D80000D467E44032867D2D6E90023204600F082
:103D90009FFB1ED10098002802BFD6E9000110B099
:103DA000BDE8F08D00F0D0FB07460C469B4A9C4BCB
:103DB00000F0F4FB06460D469A4A9B4B38462146D6
:103DC00000F0ECFB10B032462B46BDE8F04D00F0A1
:103DD00069B94FF05532954B2046294600F0DEFB7D
:103DE0000022934B00F0D8FC06460F4622462B4695
:103DF0001046194600F0D2FB32463B4600F0CEFB9F
:103E0000064600980F46F0B100F09EFB80468A46B9
:103E1000824A834B00F0C2FB32463B4600F0BCFCBA
:103E200022462B4600F0C4FC05460C467D4A7E4BDC
:103E30004046514600F0B2FB10B02A462346BDE88A
:103E4000F04D00F0B5BC0B4610B032462046294676
:103E5000BDE8F04D00F0ACBC00224FF0804320469E
:103E600000F020F902460B462046294600F0D6F91C
:103E700006460F46009800F067FBCDE90401324684
:103E80003B461046394600F089FB0C9069480C9A75
:103E90004044019009910B46104600F07FFB82469A
:103EA000024665488B46C8F151080B4608F5D728ED
:103EB00003217844FFF7AEFE52465B4600F06EFBEE
:103EC0000A905E480D9152465B4604217844FFF704
:103ED000A1FE099B0C9A00F061FB844601980D9BA2
:103EE00040EA080860460A9A00F0DCF88346089128
:103EF000B8F1000F4EDD4FF0FF322046294600F0AA
:103F00005DFF22462B4600F049FB804600988A461A
:103F100060B3DDE90401414A414B00F03FFB0991E8
:103F200000905A4640465146089B00F0BBF8324686
:103F30003B4600F033FB099B009A00F0B3F8424681
:103F4000534600F029FC22462B4600F031FC044683
:103F50000D46DDE90401334A334B00F01FFB10B07E
:103F600022462B46BDE8F04D00F022BC5A464046A2
:103F7000089B00F097F832463B4600F00FFB4246A4
:103F8000534600F009FC10B022462B46BDE8F04D28
:103F900000F002BC009840B3DDE904011F4A204B49
:103FA00000F0FCFA80468A465A4620462946089B7D
:103FB00000F0FEFB32463B4600F0F0FA4246534624
:103FC00000F0F6FB22462B4600F0F2FB04460D46BD
:103FD000DDE90401134A144B00F0E0FA10B0224668
:103FE0002B46BDE8F04D00F0E3BB0B465A46204699
:103FF000294600F0DDFB32463B4600F0CFFA10B018
:1040000022462B46BDE8F04D00F0C6BB0000F07F15
:10401000645F09000000F03FFA100000763C79353B
:10402000EF39EA3D0000E0FE422EE63F5555D53F10
:104030000000E03F86EBF9FF920F0000900F0000B8
:1040400021F0004201F00043A2F16052B2F5801F5E
:1040500028BFD2F17F6C0BD95FEA001C43EAC20291
:1040600042EB507018BF704728BF20F00100704726
:10407000B2F5801FBCBF184670474FEA410C1CF5D3
:10408000001F02D2084600F062BE70B500F030FB9F
:1040900000000089FFF7F6BF4FF00040A0F5800058
:1040A0007047000010B591EA030F48BF83F000434A
:1040B00000F18683841A71EB030C05D2121943EBCD
:1040C0000C03001B61EB0C014FEA1154A4EB135CD1
:1040D000DFF81CE11EEA430F18BF9EEA445F00F0C0
:1040E000748021EA045123EA0E0343F48013DCF1C7
:1040F000200E32D322FA0CFE10EB0E0023FA0CFE37
:1041000041EB0E01CCF1200E03FA0EFE10EB0E0077
:10411000CCF1200E51F10001B1F5801F32D201EB3C
:10412000045112FA0EF2BDE8104058BF7047401C0F
:1041300038BF5FEA420218BF7047002814BF20F062
:10414000010041F100014FEA410313F5001F38BFA0
:104150007047A1F1C04100F019BB012A43EB0302F3
:10416000ACF1200CDCF11F0E32BF4FF0000E23FA31
:104170000CF310EB030041EB0451B4EB115FD0D012
:10418000A1EB045101F58011490801EB04515FEAEC
:1041900030000ED350F1000038BF12FA0EFE08D1E5
:1041A000BDE81040C9E7401C38BF5FEA4202CAD1EF
:1041B000C3E7BDE810404FEA410313F5001F38BFC5
:1041C0007047A1F1C04100F0E1BA9EEA445F08D017
:1041D00011EA5E0FBDE8104004BF01F0004100206D
:1041E0007047BDE8104070B500F082FA64FBBE3E37
:1041F0000000E0FF02494FF0000000F0ADBD00BF3D
:104200000000F87F491058BFC1F140415B1058BF12
:10421000C3F140438B42EFF3008070472DE9C0416A
:1042200030B4DFF8A4C23CEA111418BF3CEA1314FE
:1042300000F0ED801CEA111481EA030544EAD5740C
:1042400018BF1CEA131500F0C880A4EB050404F1A4
:104250007F7404F500344FF0004545EAC12145EA7A
:10426000C32341EA505143EA52534FEAC0204FEA78
:10427000C222994208BF904200F09D804FEA136528
:104280000FF24416765D4FEA134506FB05F7C7F1BA
:10429000807706FB07F74FEAD737A7FB036876421C
:1042A000A7FB06CEC8F5803838BFA8F1010807FB88
:1042B00008E6A6FB028C4FF0000EE6FB03CEDCF115
:1042C000000CCEF1004E38BFAEF1010EA6FB0C582B
:1042D0004FF00007E6FB0E87A1FB08C6A0FB07CE48
:1042E00016EB0E064FF0000545F10005E1FB0765F2
:1042F00015F1E04E7EBFA4F580345FEA46066D41BD
:1043000016F1800745F100054FEA172747EA0567D0
:104310004FEA15254FEA0666A6F1DE46B6F1805F44
:1043200020D9384605EBC47124F0010C01EB0C11C7
:10433000BCF1FE6F02D8F0BCBDE8008124425CBF36
:1043400001F5801E9EEAC47F02D4F0BCBDE8008166
:10435000244200F13980A1F1C041F0BCBDE8004128
:1043600000F014BA4FEAD02040EA41504FEAD12180
:104370004FEAD22242EA43524FEAD323A7FB0286F6
:1043800007FB036605FB02661EEA0E0F58BFA6EB8D
:104390000056B6EB00564FEA520E4EEAC37E18EBBB
:1043A0000E0E56EB530EBCD518EB02085E417F1C77
:1043B00055F10005B5E74FF480154FF000074FF0B9
:1043C00000064FF00008ACE701F1C04101F00041E8
:1043D0004FF00000F0BCBDE800810CEA131511EAB3
:1043E0000C1F00D00CE013EA0C1F00F026804FF0E9
:1043F000000081EA030101F00041F0BCBDE800814A
:10440000F0BCBDE8004181EA030100F0BFB9F0BC97
:10441000BDE8004170B500F06BF900BF097EFC3EBD
:1044200000F007B84FF0000081EA030101F00041FD
:10443000704781EA030100F0A9B9F0BCBDE8004172
:1044400022494FF000007047FFFDFBF9F7F5F4F249
:10445000F0EEEDEBE9E8E6E4E3E1E0DEDDDBDAD81F
:10446000D7D5D4D3D1D0CFCDCCCBCAC8C7C6C5C47D
:10447000C2C1C0BFBEBDBCBBBAB9B8B7B6B5B4B394
:10448000B2B1B0AFAEADACABAAA9A8A8A7A6A5A47F
:10449000A3A3A2A1A09F9F9E9D9C9C9B9A99999843
:1044A0009797969595949393929191908F8F8E8EE6
:1044B0008D8C8C8B8B8A8989888887878685858473
:1044C00084838382828181800000FF070000F87F5F
:1044D00051EA030C17D41CF5801F58BFBCF5801F90
:1044E00000F10680994218BF704708BF904270479C
:1044F00007D711F5801F58BF13F5801F19D49942B3
:104500007047894270471CF5801F08D5BCF5801F95
:10451000F7D58B4218BF704708BF824270474FF4EF
:10452000001C1CEB410F38BF1CEB430F01D28B4228
:10453000704770B500F0DCF8922449004FF000514C
:104540004FF08053FFF75EBE10F0004248BF40427C
:10455000B0FA80F310FA03F10AD0C3F11D0303F59A
:10456000806302EB03524FEA415002EBD1217047C6
:104570004FF000007047B0FA80F310FA03F10AD050
:10458000C3F11D0303F580634FEA03524FEA415024
:1045900002EBD12170474FF00000704770B5DFF893
:1045A00048C11CEA111E1EBF1CEA13159EEA0C0F1F
:1045B00095EA0C0F00F06F8081EA03044EEAD47E86
:1045C000AE4421EA4C1123EA4C1341F4801143F428
:1045D0008013AEF17F7EA1FB024CA0FB0365361970
:1045E00055EB0C05A1FB034C4CF10003A0FB021C96
:1045F00016EB0C06654153F10003094218BF46F063
:10460000010613F4007F0BD14FEA03314FEA053066
:1046100041EA155140EA165034036FF003020AE0F4
:104620004FEAC3214FEAC52041EA555140EA5650AE
:10463000F4026FF0020202EB2E4201EB025585EA12
:10464000CE710AD05FEA440C18BF24F0004450F148
:10465000000041F1000120EAD47040F2FE7C624586
:1046600000D270BDA84214BF4FF080444FF04044C8
:10467000002E08BF0024BEF1806FA8BFA1F1C04189
:10468000BDE8704080F2828001F1C04101F000413C
:104690004FF0000070470CEA13159EEA0C0F18BF8C
:1046A00095EA0C0F06D081EA030E4FF000000EF0E1
:1046B000004170BD00F01CF88900013E00F007B811
:1046C00000F009B84FEA430C5FEA5C5C08D081EA6D
:1046D000030100F05BB84FEA410C5FEA5C5CF6D185
:1046E00002494FF0000070470000FF070000F87F0C
:1046F0000EF1020E2EF0030E5EF8046B364205D466
:10470000012A43EB030515F5001F12D8012841EBE0
:10471000010C1CF5001F0CD80ED14FEAD17C0CEB1C
:104720004C0C0CF1020C15F5001F08BF4CEBD37CB0
:1047300004E04FF0080C01E04FEAD37C0CEB4C0591
:1047400026FA05F606F00706B6F1040C06D20EEBC3
:10475000860CBDE870404CF0010C6047DFE80CF0BF
:10476000090B02024FF00041A1F500214FF00000BB
:1047700070BD19461046012851EB010418BFD4F54D
:10478000001484BF002001F0004170BD0808A0F5AE
:1047900000114FEA3101704710B591EA030F81F023
:1047A00000413FF587AC83F0004300F009B80000FA
:1047B00010B591EA030F48BF83F000433FF57AAC90
:1047C000841A71EB030C07D28CF0004C121943EBE6
:1047D0000C03001B61EB0C014FEA1154A4EB135CBA
:1047E000DFF8A4E11EEA430F18BF9EEA445F00F021
:1047F000B48021EA045123EA6E035242C3EB6E03F4
:1048000038BF5B1EDCF1200E25D322FA0CFE10EB24
:104810000E0043FA0CFE41EB0E01CCF1200E03FA20
:104820000EFE10EB0E00CCF1200E51F1000129D448
:1048300001EB045112FA0EF2BDE8104058BF704768
:10484000401C1CBFB2F1004F704700280CBF491C30
:1048500020F00100704712EB020E43EB030218BF79
:104860004FF0010E4EEA4202ACF1200CDCF11E0EBC
:1048700056D943FA0CFE10EB0E00CCF11E0E51F18E
:10488000FF31D5D50EF1010E12FA0EFE404141EB7B
:10489000010101EB445C5FEA5C5C10D901EB04515F
:1048A00010EBDE7038BFBEF1004FBDE8104018BFFE
:1048B000704700280CBF491C20F00100704734D21B
:1048C0004FEAD42C24F4006411F500111BD0B1FA86
:1048D00081F20B3AA41AA41ED2F12003914030FABF
:1048E00003F31943904001EBCC7101EB0451002C10
:1048F000BDE81040A8BF704701F1C04101F0004180
:104900004FF000007047B0FA80F310FA03F102D1C3
:10491000BDE810407047E41A173C4805C90AE2E7B1
:1049200001EB0451BDE81040704749104FEA3000D8
:1049300001EB0451BDE8104002E04FF00001704768
:104940004A0008BF0042F8D0B2F5001F28BF7047E8
:1049500001F000414FF0000070479EEA445F07D02D
:1049600011EA5E0FBDE8104004BF0021002070472F
:10497000BDE8104070B5FFF7BBFE00BF40DFF63E5C
:10498000104683F0004170470000E0FF43004FEA0B
:10499000D30C4FEA3C0C43401FBF40070CF1605161
:1049A00013F0FE4F70471CF0006F03D10CF0004174
:1049B000002070470CF0004343EA507040EACC00FE
:1049C00010B500F07EF900BF000000924FEA000130
:1049D000FFF7DCBE4FF00041A1F500214FF00000D1
:1049E000704710B500F034F80CBF0120002010BD56
:1049F00010B500F02DF814BF0120002010BD10B537
:104A000000F076F88CBF0120002010BD10B500F03A
:104A10006FF82CBF0120002010BD10B500F09CF8ED
:104A200094BF0120002010BD10B500F095F834BFF0
:104A30000120002010BD401058BFC0F14040491077
:104A400058BFC1F140418142EFF300807047000040
:104A500050EA010C00F113801CF5000F58BFBCF5A3
:104A6000000F01D48842704707D710F5000F58BFD8
:104A700011F5000F15D488427047894270471CF524
:104A8000000F04D5BCF5000FF7D5814270474FF0F9
:104A9000807C1CEB400F38BF1CEB410F01D28142E0
:104AA000704710B500F00DF9922449004FF0005006
:104AB0004FF08051FFF7BFBF41000B0ED3F19E02B4
:104AC00008D950F400034FEA032323FA02F048BF49
:104AD0004042704710B500F0F4F800BF49922480BE
:104AE000002070476FF0004282EA2000704700000B
:104AF00050EA010C00F113801CF5000F58BFBCF503
:104B0000000F01D48842704707D710F5000F58BF37
:104B100011F5000F15D488427047894270471CF583
:104B2000000F04D5BCF5000FF7D5814270474FF058
:104B3000807C1CEB400F38BF1CEB410F01D281423F
:104B4000704710B500F0BDF8922449004FF0805036
:104B50004FF00051FFF76FBF50EA010C00F11380D6
:104B60001CF5000F58BFBCF5000F01D488427047F8
:104B700007D710F5000F58BF11F5000F15D4884264
:104B80007047894270471CF5000F04D5BCF5000F33
:104B9000F7D5814270474FF0807C1CEB400F38BF47
:104BA0001CEB410F01D28142704710B500F089F82B
:104BB000922449004FF000504FF08051FFF73BBF67
:104BC0004FF47F0C1CEAD0121EBF1CEAD11392EAEC
:104BD0000C0F93EA0C0F00F0478090EA010F48BFDA
:104BE00042F480724FF0004C4CEA00204CEA012164
:104BF00002EB0302A0FB0113A2F50002002918BF7B
:104C000043F001035B0028BF4FEA330342EB22422B
:104C10005FEA132C4CEBC2502EBFBCEB436FB2F5D6
:104C20007C0F70474FEA036CBCF1004F08BF20F0C7
:104C30000100B2F57C0F38BF70470BD582F0FF0240
:104C400012F5803FC8BF704700F1C040D8BF00F0E8
:104C50000040704700F5000C5FEA4C0C48BF7047FD
:104C6000B0F1C04000F073B80CEAD11390EA010F24
:104C700048BF42F48072624538BF634504D280EA7F
:104C8000010000F00040704710B500F01AF800BFB6
:104C90008900013E00F007B800F009B85FEA410C56
:104CA0005FEA1C6C08D080EA010000F050B85FEAAF
:104CB000400C5FEA1C6CF6D14FF00040A0F580007C
:104CC00070470EF1020E2EF0030E5EF8044B2442E4
:104CD00004D44FEA4102B2F17F4F11D84FEA4003AA
:104CE000B3F17F4F0CD80ED14FEAD07C0CEB4C0CBB
:104CF0000CF1020CB2F17F4F08BF4CEBD17C04E009
:104D00004FF0080C01E04FEAD17C0CEB4C0324FA85
:104D100003F404F00704B4F1040C06D20EEB840C87
:104D2000BDE810404CF0010C6047DFE80CF00708CC
:104D300002024FF00040A0F5800010BD084642007E
:104D400018BFD2F1807288BF00F0004010BDFF2173
:104D500041EAD050C00570470CF00F03092B08BF83
:104D6000082000F059800A2B0BD0082B18BF704781
:104D700008BF1CF0400F0AD04FF000004FF00001B8
:104D800070471CF0400F18BF4FF0004070471CF0F8
:104D9000100F08D000F07F4220F0704342EAD301A8
:104DA0004FEA4370704700F0604021F07F4242EAD2
:104DB000000201F07F4040EA727070474FF0FF0C34
:104DC0004CF4E06C1CEA11531CBF9CEA030C9445A4
:104DD000C2BFDA4201EB02517047002B0DD0BCF18B
:104DE000000F0FD001F00041002AA4BF41F0E041C4
:104DF00041F07F614FF00000704701F000414FF03B
:104E00000000704750EA01334FF09B0C18BF4CF084
:104E1000806C7FF4EFA970471CF4801F11D01CF444
:104E2000E02F03D06FEACC31490070474FF040507B
:104E3000EFF3008222F0704242EA000282F300881F
:104E400070474FF00000704704FA97999999D93F3D
:104E5000AF788E1DC571CC3F9FC678D0099AC33FED
:104E6000935555555555E53F599322942449D23FC2
:104E7000DE03CB966446C73F44523EDF12F1C23F89
:104E80000000000000000000000000000000000022
:104E900001020304060708090000000001020304E0
:104EA000010202030405060708090A0B0C0D0E0F88
:104EB00010100000C53B000859390008693B000884
:104EC000013A0008553A0008AD390008BD3B00081A
:104ED00001390008C13B000805390008A53A00085F
:104EE000FD390008513A0008A9390008B93B00080B
:104EF000FD38000850C30000E8030000E80300008C
:104F000050C3000050C3000050C3000050C3000055
:104F100050C300006873656720213D204E554C4CFE
:104F2000002E2E2F436F72652F5372632F73657699
:104F3000656E7365672E630000010000910600082E
:104F40000100000001030000E1060008020000006B
:104F5000010200003D0700080000000002040000FC
:104F60005D07000803000000020200005907000866
:104F700006000000021000005107000807000000B2
:104F800003060000DD06000804000000030800001E
:104F90004107000806000000030200004107000866
:104FA0000600000003100000510700080700000081
:104FB0000407000045070008040000000402000088
:104FC000590700080600000004080000490700080F
:104FD00005000000040B0000490700080500000060
:104FE000040C00004907000805000000040D000043
:104FF0004907000805000000040E000049070008EA
:1050000005000000040F0000510700080700000021
:105010000411000051070008070000000509000006
:10502000610700080400000005020000590700089D
:1050300006000000051000005107000807000000EE
:1050400005120000510700080700000005130000CA
:105050005507000802000000060500003D07000893
:1050600000000000071300004D07000800000000CA
:1050700090500008000000202800000028010008CF
:10508000B850000828000020C007000044010008B4
:1050900000127A00001001400020000000080140CA
:1050A0000010000000080140008000000100000026
:0850B0001000000000000000E8
:04000005080000ED02
:00000001FF
