:020000040800F2
:1000000098080020CD010008FD370008E531000800
:10001000F9370008FD0F0008CD3800080000000087
:10002000000000000000000000000000053800088B
:100030009D10000800000000013800080938000881
:10004000E7010008E7010008E7010008E7010008F0
:10005000E7010008E7010008E7010008E7010008E0
:10006000E7010008E7010008E70100089110000817
:10007000E7010008E7010008E7010008E7010008C0
:10008000E7010008E7010008F10F0008E701000898
:10009000E7010008E7010008E7010008E7010008A0
:1000A000A9380008E7010008E7010008B538000892
:1000B000C1380008E7010008E7010008E70100086F
:1000C000E7010008E7010008E7010008E701000870
:1000D000E7010008E7010008E7010008E701000860
:1000E000E7010008E7010008E701000800F002F856
:1000F00000F05DF814A696E8000CB244B344DA456B
:1001000001D100F054F8BAE80F000FA696E83000CD
:10011000A5EB040504EB0607AAEB0704A7F101070A
:100120004FEA15154FEA3414A4F10104AC4201D38F
:1001300000F03DF813F0010F18BFFB1A43F0010364
:1001400000F001F8DBE7184798410000B8410000D3
:10015000103A24BF78C878C1FAD8520724BF30C8F3
:1001600030C144BF04680C60704700007047000055
:100170000023002400250026103A28BF78C1FBD8B0
:10018000520728BF30C148BF0B607047642900F098
:100190004980002070471FB59DE8030000F0D8FD9E
:1001A00000F00EFB1FBD10B500F073FB10BD00F09A
:1001B000DCFB1146FFF7EFFF03F0C2FB00F096FDFA
:1001C00003B4FFF7F0FF03BC00F0FAF909488047D9
:1001D00009480047FEE7FEE7FEE7FEE7FEE7FEE729
:1001E000FEE7FEE7FEE7FEE704480549054A064B41
:1001F00070470000A5380008ED00000898020020B4
:100200009808002098040020980400200FB40449A6
:1002100010B503AA029800F0B9F910BC5DF814FB00
:100220006C0000202DE9F041064600241068752975
:10023000314616A510D0AFF30080002802DA404204
:1002400013A507E031688A0701D512A502E0490726
:1002500004D511A5012401E0AFF3008000210A229A
:1002600006F1240709E0B0FBF2FCB0FBF2F302FB5D
:100270001C00303078541846491C0028F3D123461E
:100280002A463046BDE8F04100F00EB900000000FB
:100290002D0000002B000000200000002DE9F05F81
:1002A000894604464FF0000ADFF824B1FB44C0F849
:1002B00020A02046E168884700287DD0252806D068
:1002C000D4E901219047206A401C2062F1E7002513
:1002D0005F462046E16888472028064607DB312E26
:1002E00005D2B81910F8200C08B10543F1E7A807AA
:1002F00001D525F00405C4F81CA00027C4F818A0F7
:100300002A2E09D0304603F087FB38B304EB870868
:10031000303EC8F8186019E059F8041B204604EB79
:1003200087029161E1688847012F064618D1E0698C
:10033000002820DA25F020051DE0D8F8180000EB91
:10034000800006EB40003038C8F818002046E1680D
:100350008847064603F060FB0028EED1012F0AD043
:100360002E2E08D12046E16888477F1C0646022FC2
:1003700045F02005C4DBA069002803DA404245F0BF
:100380000105A061E80701D025F01005A6B1A6F18E
:100390004100192802D8203645F400654A46314606
:1003A000204625604D46FFF7F1FE60B1012807D0D9
:1003B000ED1D25F0070000E007E000F1080978E7EF
:1003C00005F1040975E730467AE7206ABDE8F09F39
:1003D000AE3F000010B5044603E003F024FB401CD0
:1003E00009D014F8010B05490028F6D1BDE81040EA
:1003F0000A2003F018BB4FF0FF3010BD6C00002046
:1004000010B5431C02E010F8011B71B18107FAD14D
:100410004FF0013202C88C1A8C4314EAC211F9D091
:10042000C01A0A0603D0C01E10BDC01A10BD0A04AF
:1004300001D0801E10BD0902FCD0401E10BD4FF03F
:10044000000200B5134694469646203922BFA0E824
:100450000C50A0E80C50B1F12001BFF4F7AF090730
:1004600028BFA0E80C5048BF0CC05DF804EB890021
:1004700028BF40F8042B08BF704748BF20F8022B64
:1004800011F0804F18BF00F8012B7047704770477C
:10049000704710B500F09AF8006810BD10B504461A
:1004A00000F094F8046010BD2DE9F0470D46994620
:1004B0009246044600F124080168880604D5E069E4
:1004C00021F01001216000E00120A84201DD471B5E
:1004D00000E00027A1697A1902EB0900081AA0615F
:1004E0002078C00602D42046AFF30080002608E042
:1004F000D4E901211AF806009047206A401C761CB6
:1005000020624E45F4DB2078C0060AD52046AFF3C2
:10051000008006E0D4E9012130209047206A401C89
:100520002062381EA7F10107F4DC07E0D4E90121BD
:1005300018F805009047206A401C2062281EA5F18B
:100540000105F3DC2046AFF300802078000602D5D9
:100550000220BDE8F0870120FBE7000001694A1C8A
:1005600002610878704700B58FB0CDE901310021F4
:10057000059105497944CDE9031011466846FFF716
:100580008DFE0FB000BD0000E5FFFFFF074B70B50B
:100590000D467B44FFF7E7FF0446284600F01AF8B3
:1005A00010B14FF0FF3070BD204670BD9134000097
:1005B00008B569468DF800000320ABBE08BD0000F9
:1005C00001491820ABBEFEE7260002000048704734
:1005D00014010020007B00F0800070472DE9F05FDF
:1005E000054617460C46C86820F4201040F48000E9
:1005F000C860800602D5084600F0B9FAE06841F20A
:1006000082014FF0FF3A0140022903D0204600F05A
:100610004BFAB9E000F42041B1F5004F0FD1C0030F
:1006200006D56168E06A884200D80846606006E046
:100630002069E0626060606900F08BF9A061A068E9
:100640000022EEB200280DDAE1688B050AD4C0431F
:10065000A06041F490302260E0606068411C6160FD
:100660000670AAE0E0689146226040F40050E06025
:10067000206978BB606900F05EF904F124054FF051
:100680000108A8B1A08910F4407F08D0E06900F00B
:1006900091F9206118B1E06840F4006017E0C4F8F7
:1006A0001C802561E06820F4407040F480600EE01A
:1006B000E06900F07FF900282061F0D0E06840F4A4
:1006C000006010F4407FE06002D140F48070E06090
:1006D00020696060E06825696FF0010BC1051ED5D7
:1006E0006168E06A884200D80846411B04D022466F
:1006F000284600F0E3F9E8BB1FB1E562C4E90159FF
:1007000059E0681CE0626060E069401EA060E0683B
:1007100040F48030E06030462E70BDE8F09F17B1A5
:1007200000F480320AE06068411C61600670E06895
:100730000A2E40F48030E06006D00022E16A606852
:10074000814203D90B4602E00122F7E70346B4F8E1
:100750000CC05B1B5FEA4C5C04D4D4F81CC09C4505
:1007600000DD02B3814200D80146002BA1EB000856
:10077000E56200E008E0C4E9015907DD22461946B8
:10078000284600F09BF908B15046C6E7B8F1000FC3
:1007900009D0A169E5626560A1EB0800A061E0688D
:1007A00040F01000E06047B16168A069E562491B54
:1007B00008446560A0615846AFE73046ADE70000E9
:1007C00010B542485421FFF73AFE41485421FFF743
:1007D00036FE40485421FFF732FE3F493B483C4A31
:1007E0003F4B08603D490A603A491960531C036554
:1007F000481C1065012008653B48344A39A17844FB
:1008000000F0D6F920B9384878440A3800F07CFA6C
:1008100037482F4A35A1784400F0CAF920B9344846
:1008200078440A3800F070FA32482A4A2FA17844F6
:1008300000F0BEF920B92F4878440A3800F064FA75
:1008400040232248DC000021224600F009F920B1B3
:1008500025487844543800F057FA1D482246402372
:10086000002100F0FDF820B121487844543800F010
:100870004BFA184822461023002100F0F1F8002816
:1008800006D01C487844BDE81040563800F03CBA09
:1008900010BD104870B5006D20F001040B4800F049
:1008A000FFF90B4800F0FCF90A4800F0F9F909E0FB
:1008B000206D20F00105204600F0F2F9204600F0FE
:1008C000A8F82C46002CF3D170BD000018000020C1
:1008D0006C000020C0000020000000200400002068
:1008E00008000020720000006D3A00007700000050
:1008F000593A0000453A00000EB5CDE90001FFF776
:100900007FFD029069460120ABBE0EBD08B5694669
:1009100000900220ABBE08BD1FB58DE807006946F8
:100920000520ABBE04B010BD1FB58DE80F006946B1
:100930000620ABBEF6E708B5694600900920ABBEBD
:1009400008BD1CB5CDE9000169460A20ABBE1CBD3F
:10095000704708B5694600900C20ABBE08BD00008A
:10096000004870471401002070477546FFF7F8FFF4
:10097000AE4605006946534620F00700854618B08C
:1009800020B5FFF731FCBDE820404FF000064FF0E6
:1009900000074FF000084FF0000BAC46ACE8C00970
:1009A000ACE8C009ACE8C009ACE8C00921F0070117
:1009B0008D46704770B5064600F0AEF9056806F141
:1009C0000B0020F00704B4429CBF002070BD2B46F2
:1009D0006A68BAB11068A04210D304F108018842D5
:1009E0003CBF5068586007D35168101941601168C6
:1009F000091B016058601460101D70BD13465268D9
:100A0000002AE7D12146284600F08EF90028DED1E1
:100A100070BD70B50446051F00F07EF90068002C1B
:100A200014BF446870BD002C18BFAC423CBF2046C8
:100A30006468F8D301680A18AA4218BF456003D158
:100A40002A6805461144016028684119A1421CBF6B
:100A50006C6070BD6168696021680844286070BD81
:100A600070B5C468A50713D0650211D4B2F5807FB4
:100A700009D0B2F5007F06D0B2F5806F08D101230E
:100A800000F1240106E05D1E6FF07F46B54201D300
:100A9000012070BD0161C361416024F470611143A4
:100AA000C160002070BD0000C16821F4001141F058
:100AB0008001C16000218160016070472DE9F74F1E
:100AC00015460C464FF0FF3B3848D768D2F814A0C3
:100AD000074209D05046A969FFF733FF002819DB08
:100AE0003248C0430740EF604FF000496FF00048C4
:100AF0004C4501D3464600E0264600993B46504609
:100B00003246FFF709FFA96920F00042B21A1144EA
:100B1000A96128B12846FFF7C7FF5846BDE8FE8FF8
:100B2000A41BE5D10020F9E770B504460569C06A49
:100B30006168884200D80846E16821F42011E1602C
:100B4000C90312D5A84208D02246411B2846FFF708
:100B5000B5FF10B14FF0FF3070BD0020E562C4E971
:100B60000150E06820F48030E060002070BD10B5D6
:100B70000446C06820F02000E060A16AA0698842B5
:100B80000DD02046FFF7D0FFE06820F4405040F041
:100B90001000E060A06AA0612069E062606044F239
:100BA0004001E0688843E06010BD000010000200D2
:100BB0002DE9F0410C461646070047D0104600F0DC
:100BC0006FF82078611C61280AD0722802D077283B
:100BD0003CD102E00125002405E00225042402E0C6
:100BE000082448F2020511F8010B2B2806D06228D0
:100BF00009D011F8010C74280AD00BE045F0030568
:100C000044F00204EFE745F0040544F00104EAE78C
:100C100044F0100438462146FFF76EFE411C15D003
:100C20000021316171604FF40071F560F161706114
:100C3000200704D530460222002100F0BFF8306DB5
:100C400040F0010030653046BDE8F0810020FBE750
:100C50002DE9F0410D460646104C206DC10704D029
:100C6000410804D020F00104F7E722460EE05420AA
:100C7000FFF7A0FE07000ED0206D47F001010843EA
:100C8000542120653846FFF7DAFB3A4629463046BC
:100C9000BDE8F0418CE70020D6E7000018000020F6
:100CA0002DE9F04704464FF0FF380026C568D4E927
:100CB0000497A80718D02046FFF736FF3846FFF7FD
:100CC00025FE002800DA4646280502D54846FFF7EB
:100CD000A0FE4C212046FFF7B2FB206D20F0010062
:100CE00020653046BDE8F0874046FBE710B5044676
:100CF000AFF300802046BDE81040FFF761BA00283E
:100D000001D0FFF75DBC704710B500F0EDF8BDE80D
:100D10001040FFF7F4BF0000004870471C0100209E
:100D2000704770477047704738B504460A46002040
:100D30006946AFF30080002808BF38BD024600991D
:100D4000204600F0EBF8012038BD012000F021B969
:100D5000F8B5AFF30080054600200C460C2000BF1C
:100D60000646A819A0420DD9324669460020AFF3C5
:100D70000080070008BF00F00CF90098A04218BFDF
:100D80000546C419FFF7C8FF05600746F01D20F0AF
:100D900007004619284600F00AF8B44208BFF8BD1B
:100DA000A21B31463868BDE8F84000F0B7B8002112
:100DB0000160416070470C20704700002DE9F04150
:100DC000044616460D464769007B80072ED03846FC
:100DD000FFF7B1FD50BB3EB3012E02D0022E25D14C
:100DE00004E0204600F0B4F805441DE03846FFF763
:100DF000B0FDE168002841F01001E16005DA20460D
:100E0000FFF752FE0120BDE8F081C9030BD56268EF
:100E1000E16A914200D81146A26911442269891AF7
:100E2000814200DD08460544002D01DA0220EAE790
:100E3000E16A6068E268814206D29103E06203D50C
:100E400022F4003141F01002A6690027AE4213DC03
:100E5000E16A814201D90B4600E0034603EB060C30
:100E60002369ACEB030CAC4506DD814201D98C460D
:100E700000E084469C4505D1A760276042F0200031
:100E8000A5620DE0AD1BE669AE1B8142A66000D9EC
:100E90000846C01A281A20605819606022F0200005
:100EA00003490840E060002084F84870ABE7000088
:100EB000BFCFD7FF70B505460C460A2000E06D1C79
:100EC000FFF776FB35B128780028F8D102E0641CE2
:100ED000FFF76EFB14B120780028F8D1BDE8704010
:100EE0000A20FFF765BB000010B5014602A0FFF71E
:100EF000E1FF012010BD00005349475254524544C0
:100F00003A2052656469726563743A2063616E27A2
:100F100074206F70656E3A20000000000346406840
:100F20008C46002818BF88423CBF03464068F8D36F
:100F300018681844884207D00CF1030020F007001D
:100F4000001D411A521A0146081D0A60FFF761BDD3
:100F500010B50146C268900703D0900607D5886A8D
:100F60000AE0FFF733FB01210160881E10BD8B6989
:100F7000486818440B69C01A91F848301BB191F8C1
:100F80004910401A10BD1103FCD50028FADD401E9F
:100F900010BD10B500F004F8BDE81040FFF7AFBE7B
:100FA00010B5012805D0002103A0FFF783FF012021
:100FB00010BD09A1F8E7000053494752544D454D73
:100FC0003A204F7574206F662068656170206D65EA
:100FD0006D6F7279000000003A2048656170206DE5
:100FE000656D6F727920636F7272757074656400DD
:100FF00040F27410C2F2000000F0A2BAFEE7000056
:101000002DE9F04381B0044689B340F200088946D7
:1010100004F5F0770026C4F27A480025384602210C
:1010200002F020F994F8BA028007FBD594F89603F1
:101030008007F7D53846022102F02EF9384602F033
:1010400047FC414602F09AFF02F0FBFC0135A9B2D1
:1010500049450644E2D3304602F014FF06464846AE
:1010600002F010FF0146304602F0CCFD02E0002005
:10107000C7F6C0700021C4F27A4102F0C3FD02F04D
:10108000E1FE01460120216201B0BDE8F0830000CD
:1010900040F2A410C2F2000000F004BC704700004F
:1010A000EFF3108072B600BFFEE7000040F284202C
:1010B000C2F20000006844F2C023D0F8E413C0F686
:1010C00000034A1CC0F8E423027853F8222091421E
:1010D00008D30021C0F8E413D0F8DC1341F001017B
:1010E000C0F8DC13D0F8E8134CF250334A1C994294
:1010F000C0F8E82308D30021C0F8E813D0F8DC13C7
:1011000041F00201C0F8DC13D0F8EC134A1CB1F531
:101110007A6FC0F8EC2338BF70470021C0F8EC1399
:10112000D0F8DC1341F00401C0F8DC137047000074
:10113000F0B581B00022009290F82420012A02D15B
:101140004FF0020CD3E083684C68012280F8242021
:10115000B3B1D1F810E00268B4EB0E0404EB8404E0
:10116000D2F838C004F10F044FF01F0303FA04F360
:101170002CEA030323F4401C0DD9C2F838C015E053
:10118000012C40F08B800268936B0C686FF31503A1
:1011900043EAC43309E000230D68CFF6F07303EB94
:1011A0000E53A5402B4343EA0C0393634FF0000C0E
:1011B00003689A68D20706D19A6847F201058C69DC
:1011C000AA4322439A6091F815E0BEF1010F10D1B5
:1011D0008D6900F12804B5F5E04F4FF0200514BFEC
:1011E0004FF0010C1C1D08BF4FF4806522682A4394
:1011F00022600A7D012A0ED100F128022025BEF1CD
:10120000000F14BF4FF0010C1A1D08BF4FF480559A
:10121000146825431560D1F800E010240EEB4E024F
:10122000BEF1090F88BF1E3A88BF0C241D5907263E
:101230008F689640B54307FA02F215432EF001027B
:10124000102A1D5103D19C6844F400049C604C6832
:10125000032C08D0022C09D0012C14BF03F1200468
:1012600003F1140404E003F11C0401E003F1180489
:10127000256840F6FF76C968B5432943102A2160E6
:1012800032D142F20041C4F201018B420DD0816A99
:101290004FF0010C41F02001816225E0826A4FF09D
:1012A000010C42F02002826282E7896809021BD4A5
:1012B0009968BEF1100F41F40001996014D140F219
:1012C0000C01C2F2000109684DF68362C4F21B32C0
:1012D000A1FB0212910C01EB8101490000910099E0
:1012E00011B100990139F9E7002180F82410604616
:1012F00001B0F0BD006842F20041C4F20101884231
:1013000018BF704710B540F28820C2F20000046890
:10131000B4F8A801132810D840F27410C2F20000EB
:10132000012100F00DF8B4F8A81104EB4101C881C7
:10133000B4F8A8010130A4F8A801BDE81040704736
:10134000022908D003290AD00068042914BF3C30C0
:101350004830006870470068403000687047006897
:10136000443000687047000090F82420012A04BF30
:1013700002207047B0B5026891F808C05368BCF10C
:10138000010F23F0400308BF40335360D2F804E05C
:101390004FF6E05CCFF63F7CD1E900350EEA0C0455
:1013A00023432B435360CB68536209699162002148
:1013B00080F82410BDE8B04008467047B0B581B051
:1013C0000022009290F82420012A01D1022179E024
:1013D0004A680123062A02EB820C80F8243005D8E3
:1013E000026802F1340E6FF004020AE003680C2A6E
:1013F00087BF03F12C0E6FF0400203F1300E6FF047
:1014000022026244DEF800C01F230C6893402CEADD
:10141000030304FA02F21A43CEF80020D1F800E0E8
:1014200002680EEB4E041023BEF1090F88BF1E3C6C
:1014300088BF0C2352F803C007258968A5402CEA11
:101440000505A1402943D1502EF001014FF0000CB9
:1014500010294FF0000133D1016842F20042C4F27A
:101460000102914205D0816A41F02001816201218F
:1014700026E09268120222D48A68BEF1100F42F46C
:1014800000028A601BD140F20C01C2F2000109681F
:101490004DF68362C4F21B32A1FB0212910C01EBE8
:1014A000810149000091009949B100BF00990139BB
:1014B0000091009900294FF00001F7D100E00021D0
:1014C00080F824C0084601B0B0BD000040F274119D
:1014D000C2F2000100680968884218BF704710B561
:1014E00083B040F28820C2F20000D0F800E00EF194
:1014F0007201BEF8AA2100910EF1D6010191132AC2
:101500000EF59D71029116D80EF106016FF00302DF
:10151000EC4600BF0CEB020031F8023F4068BEF819
:10152000AA410432082A20F81430F3D1BEF8AA11D7
:101530000131AEF8AA1103B0BDE8104070470000B9
:1015400070B50446006805684668B10627D515F0F1
:10155000020124D0A16AC90603D4A16A41F4007132
:10156000A162816801F46021B1F5602F10D1217B67
:1015700071B9416821F020014160A06A20F48070B7
:10158000A062A06AC00403D4A06A40F00100A06277
:101590002046FFF79BFF20686FF0120101603006C4
:1015A00033D515F0040030D0A06AC00603D4A06A79
:1015B00040F40050A0622068816801F4E041B1F578
:1015C000E04F0FD1416821F080014160A06A20F412
:1015D0008050A062A06AC00510D4A06A40F001004B
:1015E000A0620BE04168490508D4816801F46021DC
:1015F000B1F5602F02D1217B0029E3D02046FFF70F
:1016000079FE20686FF00C01016070060ED515F0B0
:10161000010008BF70BDA06A40F48030A06220467F
:1016200000F0B6F820686FF00101016070BD0000A5
:10163000002804BF01207047B0B50446806A30B965
:101640000020E06284F82400204600F0CFF82068F3
:101650008168C90709D0816821F00101816000F02B
:1016600033FB21688968C90730D100200121A36AB2
:10167000A26A31B313F0100123D141F2021122EA20
:1016800001010231A162E169D4E9013241EA030CAE
:10169000531EB3FA83F35D091346B2F5807F18BF7A
:1016A0002B02217D257B01294CEA450E31D13DB32A
:1016B000A56A45F02005A562E56A45F00105E562E9
:1016C00027E042F01000A0620120B0BD054603E013
:1016D00020688068C007C8D000F0F6FA401B0328D5
:1016E000F6D320688068C007F2D0A06A002140F0DD
:1016F0001000A062E06A40F00100E0620120B6E75D
:10170000D4F818C04EF60005CFF6FF7505EB4C3542
:101710002B432568B2F5807F696821F4694141EA6D
:1017200003016960A9684FF2FD73CFF6E17301EA26
:10173000030141EA0E01A96001D0012A06D1216905
:101740000022CFF6F07202EB015200E00022E96ABB
:1017500021F470011143E962A96840F6FE62CFF6F8
:101760001F721140714507D10021E162A16A012277
:1017700062F30101A162B0BDA06A40F0100020F048
:101780000200A062E06A40F00100E0620120B0BD0A
:10179000B0B50446006842F20041C4F2010188423B
:1017A00000D0B0BD40F28820C2F20000056820469B
:1017B0000121FFF7C5FD216880B24A6A92B29042CA
:1017C00009D995F8AC010130C1B2022988BF0020C7
:1017D00085F8AC01B0BD496A14306FF31F318842FF
:1017E00028BFB0BD002085F8AC01B0BD70B586B093
:1017F000044640F60000C4F20100216800F5E05202
:10180000002691420596CDE90366029601D006B006
:1018100070BD41F21801C4F202010A6842F400727C
:101820000A600A6802F400720192019A0A6842F0A2
:1018300004020A60096801F00401019101990F2175
:1018400002910321039102A900F038F940F2A41596
:101850000820C2F20005C4F202004FF48072C5E90C
:10186000000605F1100080214FF480634FF0200C3A
:101870004FF4805E80E80C502846C5E9026100F014
:10188000C5F8002818BFFFF70BFC1220002100222A
:1018900025626C6200F0CAFA122000F0B7FA06B0B6
:1018A00070BD000010B5D0E90FCE0168DCF8003043
:1018B0000A6823FA0EF35C0724D512F0040421D041
:1018C0000A68920603D40A6822F004020A602F22F2
:1018D000C4F20202914240F20402C4F202024FDD5D
:1018E0003023C4F20203994262D04423C4F20203BB
:1018F000994260D05823C4F20203994260D14FF458
:10190000802365E09C0727D512F0020424D00A68E2
:10191000920606D40A6822F00A020A60012280F8C0
:1019200021202F22C4F20202914240F20402C4F2AA
:10193000020231DD3023C4F2020399424ED0442327
:10194000C4F2020399424CD05823C4F202039942D4
:101950004CD14FF4003351E01B0756D512F008026A
:1019600008BF10BD0A6822F00E020A60012101FAC8
:101970000EF2CCF80420816380F82110016B3FE067
:101980000823C4F20203994218D01C23C4F20203B4
:10199000994215D140231BE00823C4F20203994267
:1019A00022D01C23C4F2020399421FD1202325E038
:1019B0004FF480630CE04FF4804309E0042307E018
:1019C00002F168044FF08063A14208BF4FF4800326
:1019D0001360C16AC9B1BDE8104008474FF40073F5
:1019E0000CE04FF4005309E0022307E002F1680421
:1019F0004FF00073A14208BF4FF400131360816AD7
:101A00000022002980F82020E5D110BD01460028E1
:101A10004FF0010008BF70472DE9F0470A684FF604
:101A2000F873CBF6FD7302EB030C4CF6CD43CCF60A
:101A3000CC43ACFB033C6FF00307002607EA9C078E
:101A4000C4F2020601F10C0AC1E90F670227D1E9CD
:101A5000013E9AE83004D1E9069881F821701768B0
:101A600043F6F076B7433B4343EA0E0323432B434D
:101A700043EA0A0343EA090343EA08031360002226
:101A80008A6381F8210081F820200020BDE8F0471A
:101A900070470000B0B5044600F016F9054640F264
:101AA0001000C2F200000078611C18BF044400BF9F
:101AB00000F00AF9401BA042FAD3B0BD2DE9F04F67
:101AC00082B00E68002E00F0F68041F20042C4F2AF
:101AD0000102042340F2004E904208BF03234FF658
:101AE000FF7CC4F2010E009300240123C1F2100C0C
:101AF0004FF0000A4FF0000943E0012704F00C0307
:101B00000F229A402BEA020207FA03F34FEA9A05E2
:101B10001A4346F825204E6840F20C45F202DEF8E2
:101B2000082054BF22EA080242EA0802C4F2010572
:101B3000CEF808202A68B30254BF22EA080242EA1B
:101B400008022A60B303DEF8042054BF22EA080228
:101B500042EA0802F303CEF80420DEF800204FF03A
:101B6000010354BF22EA080242EA0802CEF800202C
:101B70000E680AF1010A36FA0AF204F1040400F0D0
:101B80009A8003FA0AFB16EA0B08F1D04E68664504
:101B900010DC122E50D8DFE806F0330A41454F4FD3
:101BA0004F4F4F4F4F4F4F4F4F4F4F484C00D1F873
:101BB0000C9041E04FF6FF72C1F2210296420FDC19
:101BC0000022C1F2110296421AD00022C1F2120282
:101BD000964215D00022C1F22102964210D02BE08D
:101BE0000022C1F2220296420AD00022C1F2310242
:101BF000964205D00022C1F2320296421CD100BFAB
:101C00008A6842B1012A14BFC0F814B0C0F810B0FD
:101C10004FF0080910E04FF004090DE0CA6802F126
:101C2000080909E04FF0000906E0CA6802F104095A
:101C300002E0CA6802F10C0922460646B8F5807F28
:101C400024BF203A043637680F25954027EA05055A
:101C500009FA02F22A433260CA79D2067FF588AFC8
:101C600041F21803C4F202031A68AEF57E7642F020
:101C700001021A601A6802F001020192019A2AF028
:101C8000030256F802B040F60002C4F2010290428C
:101C90000FD040F60042C4F2010290423FF42DAF53
:101CA00041F20002C4F20102009F904208BF0227E5
:101CB00024E7002722E702B0BDE8F08F002A08BF22
:101CC000090401617047000040F29020C2F2000058
:101CD00000687047002804BF0120704770B50446B3
:101CE0000068D4E901124CF6CC43036045F2555329
:101CF000036041608260FFF7E7FF2168CA689207CE
:101D000013D0054641F23D3604E000BF2168C868A3
:101D100080070AD0FFF7D8FF401BB042F6D32068F7
:101D2000C0688007F2D0032070BD4AF6AA20086080
:101D3000002070BD40F2100040F29021C2F200007D
:101D4000C2F2000100780A68104408607047000081
:101D500080B542F20000C4F20200016841F01001B7
:101D60000160032000F08EF80F2000F005F800F06D
:101D70002BF8002080BD0000B0B540F21002C2F286
:101D8000000240F20C011278C2F200014FF47A73A3
:101D90000968B3FBF2F20446B1FBF2F1084600F029
:101DA0007FFB0F2C4FF001050CD858B94FF0FF30D6
:101DB00021460022002500F039F840F21400C2F25A
:101DC000000004602846B0BD82B041F21800C4F2A1
:101DD00002000168022241F001010160016801F086
:101DE000010101910199416841F0805141604068D1
:101DF00000F08050009000980420C4F201000168B7
:101E000062F31A61016002B070470000002848BF09
:101E1000704700F01F01012202FA01F14EF2001298
:101E20004009CEF2000242F82010704710B54EF67D
:101E30000C5CCEF2000CDCF80030C3F3022E8EF006
:101E40000704042C28BF0424BEF103034FF0FF3E17
:101E50000EFA04F438BF0023A14399400EFA03F3AD
:101E60009A43114300F1604200F00F03090102F5AB
:101E70006442043B6344002848BF03F10C02117024
:101E800010BD00004EF60C51CEF200010A684FF66C
:101E9000FF031A4060F30A2242F0806040F0FD70B8
:101EA000086070472DE9F04182B00446007841F2A5
:101EB0001C06C007C4F202064AD030685FEAC008B8
:101EC00008D4306840F080503060306800F08050B6
:101ED0000190019847F20007C4F200073868C00576
:101EE00012D4386840F480703860FFF7EDFE054684
:101EF0003868C00508D4FFF7E7FE401B6428F7D90F
:101F0000032002B0BDE8F081706810F4407012D078
:101F1000616801F4407188420DD0706840F240421F
:101F2000C4F24222012320F4407113600023C00751
:101F30001360716025D17068616820F440700843B7
:101F4000B8F1000F706003D4306820F0805030602A
:101F50002068810707D556F8181CA26821F4404173
:101F6000114346F8181CC00607D556F8180CE1684E
:101F700020F48000084346F8180C002002B0BDE8A9
:101F8000F081FFF7A1FE054641F2883770688007AF
:101F9000D1D4FFF799FE401BB8424FF00300F5D9AA
:101FA000ECE70000002804BF012070472DE9F04352
:101FB00081B042F20008C4F202080446D8F80000DA
:101FC0000D4600F0070088420CD2D8F8000020F03F
:101FD00007002843C8F80000D8F8000000F0070008
:101FE000A8426BD1206841F204098107C4F20209BA
:101FF00017D5410705D5D9F8001041F4E061C9F8BB
:102000000010010705D5D9F8001041F46051C9F856
:102010000010D9F80010A26821F0F0011143C9F8AE
:102020000010C00741D1D8F8000000F00700A84216
:102030000CD9D8F8000020F007002843C8F80000A9
:10204000D8F8000000F00700A84237D12068410707
:1020500007D5D9F80010E26821F4E0611143C9F80E
:102060000010000708D5D9F80000216920F460505D
:1020700040EAC100C9F80000D9F8002002F00C00C5
:10208000082841F20020C0F27A004DD144F28D239D
:10209000C2F38341C0F60003595CD20338D440F642
:1020A0000010C0F23D0048433EE06068022809D0BD
:1020B000012828D159F8041C890307D4012001B054
:1020C000BDE8F08359F8041C8901F7D5D9F8001050
:1020D00021F003010843C9F80000FFF7F5FD0646AB
:1020E00041F28837D9F80000616800F00C00B0EBCD
:1020F000810F98D0FFF7E8FD801BB842F2D903208A
:1021000001B0BDE8F08359F8041C8907D6D5DDE796
:10211000D9F8002044F28B23C2F34042C0F60003FA
:102120009A5C4843B0FBF2F0D9F8001044F27B22ED
:10213000C1F30311C0F60002515C40F20C0220FA18
:1021400001F140F21400C2F200000068C2F2000285
:102150001160FFF711FE002001B0BDE8F083000020
:10216000002804BF012070472DE9F04182B00446E9
:10217000007841F20006C007C4F2020649D0706838
:1021800000F00C00042809D13068800341D5606854
:1021900000283ED1012002B0BDE8F081706800F057
:1021A0000C00082802D17068C003EDD465682DB119
:1021B000B5F5A02F0AD0B5F5803F0BD0306820F4DC
:1021C00080303060306820F4802006E0306840F4D1
:1021D00080203060306840F480303060FFF774FD5C
:1021E000002D054612D000BF3068800311D4FFF7E0
:1021F0006BFD401B6428F7D918E100BFFFF764FDB1
:10220000401B64284FF0030000F2D8803068800340
:10221000F4D42078800719D5706810F00C0F07D01F
:10222000706800F00C00082827D17068C00324D41F
:102230003068800703D52069012840F0A680306807
:10224000616920F0F80040EAC100306020780007A2
:102250004ED5A06938B30020C4F242200121C0F855
:102260008014FFF731FD0546706A80072DD4FFF713
:102270002BFD401B0228F7D9D8E02069002840F246
:102280000000C4F2422000F0A88001210160FFF7A5
:102290001BFD054630688007D1D4FFF715FD401BB4
:1022A0000228F7D9C2E00020C4F242200021C0F881
:1022B0008014FFF709FD0546706A800718D5FFF7FF
:1022C00003FD401B0228F7D9B0E040F20C00C2F237
:1022D0000000006844F6D351C1F26201A0FB010185
:1022E000480A019000BF0198411E00280191F9D1D0
:1022F0002078400717D4E5698DB1706800F00C00B4
:10230000082846D1012D40D07068216A00F480323F
:102310008A423AD1616A00F47010884235D10020B7
:1023200002B0BDE8F081F0695FEAC00808D4F06946
:1023300040F08050F061F06900F08050009000980B
:1023400047F20007C4F200073868C0050FD43868A8
:1023500040F480703860FFF7B7FC05463868C00568
:1023600005D4FFF7B1FC401B6428F7D95EE0E568AF
:102370001DB1052D42D0012D44D0306A20F001005E
:102380003062306A20F004003FE0012002B0BDE876
:10239000F0810027C4F2422700203866FFF794FC42
:1023A000022D05460ED100BF3068800155D5FFF7DC
:1023B0008BFC401B02284FF00300F5D902B0BDE8AA
:1023C000F08100BF30688001A9D5FFF77DFC401B7C
:1023D00002284FF00300F5D9F0E700210160FFF774
:1023E00073FC0546306880077FF530AFFFF76CFC63
:1023F000401B02284FF00300F4D9DFE7306A40F0B9
:1024000004003062306A40F001003062FFF75CFC8B
:10241000002D054641F2883713D000BF306A80078F
:1024200012D4FFF751FC401BB842F7D9032002B089
:10243000BDE8F081FFF748FC401BB8424FF00300B5
:10244000BCD8306A8007F5D4B8F1000F3FF553AF20
:10245000F06920F08050F0614DE7206AB0F5803FD0
:1024600005D17168A26821F400311143716071686F
:10247000626A21F4741111430843706001203866C8
:10248000FFF722FC044600BF306880013FF547AFEC
:10249000FFF71AFC001B02284FF00300F4D98DE768
:1024A000411E0020B0EB116F1CBF012070474EF29F
:1024B0001002CEF2000251604EF62351CEF200011E
:1024C000F0230B7007219060116070477047000087
:1024D0007047000090F83C20012A04BF022070479A
:1024E000B0B501F108053CCDD1E900CE23F47C5311
:1024F00022F470521A432EF4F0431A432CF4E043B2
:102500001A4324F4C0431A432A43C96922F480427F
:10251000036811435964002180F83C10BDE8B040C5
:102520000846704790F83C20012A4FF0020234D050
:1025300010B5012380F83C3080F83D200268D2F8C5
:1025400004E0D2F808C00C682EF07003234340F278
:10255000FF74C4F20004A242536005DCB2F1804F64
:102560000ED040F2004307E042F60043C4F20103FC
:102570009A4205D040F60003C4F200039A4204D107
:1025800049682CF08003194391600121002280F8F2
:102590003D1080F83C20BDE8104010467047000018
:1025A000002804BF0120704710B5044690F83D0094
:1025B00028B9002084F83C00204600F065F802208D
:1025C00084F83D00206840F2FF730268C4F2000303
:1025D00042F6004C9842C4F2010C05DCB0F1804F89
:1025E0000AD040F2004103E0604505D040F600010A
:1025F000C4F20001884203D1A16822F070020A43AC
:10260000984205DCB0F1804F0AD040F2004103E06F
:10261000604505D040F60001C4F20001884203D1B4
:10262000216922F440720A43A36922F08001D4F8A0
:1026300004E0E268194360450160C262C0F828E026
:1026400002D16169CCF83010012141610269D207E1
:1026500003D0026922F001020261002084F84610D2
:1026600084F83E1084F83F1084F8401084F841103C
:1026700084F8421084F8431084F8441084F845101C
:1026800084F83D1010BD000070B586B000680021D0
:10269000B0F1804FCDE904110391029147D042F689
:1026A0000041C4F20101884257D141F21800C4F23E
:1026B0000200016840F6000441F400610160016815
:1026C000C4F2010401F4006101910199016802ADB5
:1026D00041F0080101600168002601F00801019144
:1026E0000199016841F0040101600068294600F089
:1026F0000400019001984FF48050029004F580602E
:10270000CDE90366FFF7DAF94FF44060CDE9020640
:10271000204629460496FFF7D1F91820002100220F
:10272000FFF784FB1820FFF771FB1B240DE041F23B
:102730001800C4F2020041681C2441F0010141600C
:10274000406800F00100019001982046002100221D
:10275000FFF76CFB2046FFF759FB06B070BD000089
:1027600090F83C20012A4FF0020200F0C68080B5AC
:10277000012380F83C3080F83D20D0F800C04FF6AF
:102780007772DCF8083023EA0202CCF808200B68E4
:102790004F2B28DC1F2B44DD202B45D0302B43D082
:1027A000402B40F0AC80D1F804E0C968DCF8203060
:1027B000DCF8202022F00102CCF82020DCF81820E0
:1027C00022F0F00242EA011123F00A0242EA0E026C
:1027D000CCF81810CCF82020DCF8081041F04701A4
:1027E00021F030017EE06F2B26DDB3F5005F47D08E
:1027F000B3F5805F78D0702B40F08180D1E901E3A0
:10280000C968DCF8082043EA0E0322F47F4243EA59
:1028100001211143CCF80810DCF8081041F07701D1
:1028200060E00BB1102B6AD1DCF8081021F07001C8
:10283000194341F0070155E0502B34D0602B5ED195
:10284000D1F804E0C968DCF82030DCF8202022F060
:102850001002CCF82020DCF8182022F4704242EA62
:10286000013123F0A00242EA0E12CCF81810CCF885
:102870002020DCF8081041F0670121F0100131E060
:10288000D1E901E3C968DCF8082043EA0E0322F429
:102890007F4243EA01211143CCF80810DCF808100C
:1028A00041F480411EE0D1F804E0C968DCF8203032
:1028B000DCF8202022F00102CCF82020DCF81820DF
:1028C00022F0F00242EA011123F00A0242EA0E026B
:1028D000CCF81810CCF82020DCF8081041F0570193
:1028E00021F02001CCF808100022012180F83D10D1
:1028F000002180F83C10BDE880401046704701225E
:10290000F3E7000070B50446006842F60041C4F2E7
:102910000101884200D070BD207F40F28C25042840
:10292000C2F2000527D12E6896F8DA00C00722D03F
:10293000B6F8D80013281ED82046082100F036FC2F
:10294000B6F8D8104A1C06EB8101A6F8D82088609A
:10295000B6F8D80014280ED396F8DA0000F0FE007E
:1029600086F8DA0096F8DA0040F0020086F8DA001D
:102970000020A6F8D800207F0828CCD12D6895F833
:10298000B601C007C7D0B5F8B4011328C3D8204694
:102990000C2100F00BFCB5F8B4114A1C05EB8101C9
:1029A000A5F8B421C1F8E400B5F8B401142838BF83
:1029B00070BD95F8B60100F0FE0085F8B60195F8F7
:1029C000B60140F0020085F8B6010020A5F8B40178
:1029D00070BD000090F83C30012B04BF022070470E
:1029E0004FEAB2020123032A80F83C3000F2A380B0
:1029F000F0B5DFE802F0021B3B590368D1E900C5DE
:102A0000D1F80CE01C6A1A6A40F2FF7722F001024A
:102A10001A621A4652F8186FC4F20007BB4267DC0C
:102A2000B3F1804F70D040F2004769E00368D1E90C
:102A300000E6D1E902C11C6A1A6A360222F01002CD
:102A40001A621A4652F8185F4FF2FF07BE4325F488
:102A5000734561F30F3624F0A0040EF00A0746EA2E
:102A6000050144EA071711601F623AE00768D1E9DF
:102A700000C5D1E902313C6A3A6A61F3071522F4D4
:102A800080723A623A4652F81C6F26F0F30645EA25
:102A900006014FEA5C0666F3492411603C62116846
:102AA00021F00C01116040E00368D1E900E6D1E9B2
:102AB00002C11C6A1A6A360222F480521A621A464D
:102AC00052F81C5F4FF2FF07BE4325F4734561F3D4
:102AD0000F364FEA5E0746EA050167F34D34116091
:102AE0001C6211684FEA0C2321F4406111601CE064
:102AF00042F60047C4F20107BB4205D040F600078A
:102B0000C4F20007BB421BD126F00306354324F074
:102B10000A070CF00A066EF3071537449D611F6221
:102B20009F6927F00C079F618B6811681943002388
:102B30001160BDE8F040002180F83C101846704755
:102B400046F00105E3E70000002804BF01207047BC
:102B500010B5044690F83D0028B9002084F83C00E8
:102B6000204600F065F8022084F83D00206840F21D
:102B7000FF730268C4F2000342F6004C9842C4F2AC
:102B8000010C05DCB0F1804F0AD040F2004103E0B7
:102B9000604505D040F60001C4F20001884203D12F
:102BA000A16822F070020A43984205DCB0F1804F20
:102BB0000AD040F2004103E0604505D040F6000134
:102BC000C4F20001884203D1216922F440720A4311
:102BD000A36922F08001D4F804E0E268194360455B
:102BE0000160C262C0F828E002D16169CCF83010FF
:102BF000012141610269D20703D0026922F001027A
:102C00000261002084F8461084F83E1084F83F10DA
:102C100084F8401084F8411084F8421084F843107E
:102C200084F8441084F8451084F83D1010BD00006D
:102C30007047000041B1082909D0042914BF00F1F0
:102C4000410200F13F0204E000F13E0201E000F128
:102C50004002127841B1082909D0042914BF00F1BB
:102C6000450300F1430304E000F1420301E000F1F9
:102C7000440380B5012A4FF001021B7808BF012BE5
:102C800001D0104680BD022249B1082913D0042981
:102C900014BF80F8412080F83F2019B90FE080F878
:102CA0003E2061B108290DD0042914BF80F84520C9
:102CB00080F8432008E080F840200029F2D180F815
:102CC000422001E080F844204FEAB103032B11D8E1
:102CD00044F2A02CD0F800E0C0F6000C5CF823C051
:102CE000DEF80C2042EA0C02CEF80C200022032B66
:102CF000C7D802E00122032BC3D8006801F01F01EE
:102D00004FF0010C036A0CFA01F18B430362036A72
:102D1000194340F2FF73C4F200039842016205DCDC
:102D2000B0F1804F0ED040F2004107E042F6004182
:102D3000C4F20101884205D040F60001C4F200014E
:102D4000884204D1816801F00701062999D0016801
:102D500041F001010160104680BD000070B50446DD
:102D60000068C5680669B10716D515F0020113D0D1
:102D70006FF002010161012121778069800703D092
:102D80002046FFF7BFFD05E0204600F08DF8204605
:102D900000F002FA00202077700718D515F0040023
:102DA00015D020686FF0040101610221217780694C
:102DB00010F4407F03D02046FFF7A4FD05E0204635
:102DC00000F072F8204600F0E7F900202077300785
:102DD00017D515F0080014D020686FF008010161C4
:102DE00004212177C069800703D02046FFF78AFDC0
:102DF00005E0204600F058F8204600F0CDF900200C
:102E00002077F00618D515F0100015D020686FF067
:102E10001001016108212177C06910F4407F03D0BF
:102E20002046FFF76FFD05E0204600F03DF8204604
:102E300000F0B2F900202077F00718BF15F001006C
:102E400002D1300609D412E020686FF0010101615F
:102E5000204600F0A3F9300609D515F0800006D011
:102E600020686FF0800101612046FFF72FFB70069C
:102E700009D515F0400006D020686FF040010161CF
:102E8000204600F0ADF9B00658BF70BD15F0200027
:102E900008D021686FF0200220460A61BDE870402A
:102EA000FFF716BB70BD00007047000090F83C3083
:102EB000012B04BF022070474FEAB2020123032A0C
:102EC00080F83C3000F2EC802DE9F041DFE802F0C0
:102ED000023B77B2036842F600451C6A1A6AC4F2E4
:102EE000010522F001021A621A46D3F804C052F812
:102EF00018EF8E6824F00204AB4244EA060405D1C0
:102F0000CE6824F00C0426F0040634430E68AB426D
:102F100006D1D1E905582CF440772F4347EA080C35
:102F20002EF073073743C3F804C09F614F680969E7
:102F30005F631C629F6947F008079F619F6927F0E4
:102F400004079F61A6E0036842F600451C6A1A6AFE
:102F5000C4F2010522F010021A621A46D3F804C026
:102F600052F818EF8E6824F02004AB4244EA0614AD
:102F700007D1CE686FF0400724F0C00407EA0616B8
:102F800034430E68AB4206D1D1E905572CF4406CAE
:102F90003D434CEA850C2EF4E64747EA0627C3F882
:102FA00004C09F614F6809699F631C629F6947F471
:102FB00000679F619F6927F480679F6169E00368EC
:102FC00042F600451C6A1A6AC4F2010522F48072B6
:102FD0001A621A46D3F804C052F81CEF8E6824F423
:102FE0000074AB4244EA062407D1CE6840F2FF47A2
:102FF000360224F44064BE4334430E68AB4206D12B
:10300000D1E905572CF4405C3D434CEA051C2EF0F9
:1030100073073743C3F804C0DF614F680969DF6392
:103020001C62DF6947F00807DF61DF6927F00407EA
:10303000DF612FE0036842F60047D3F820C01A6A28
:10304000C4F2010722F480521A621A465C6852F8F0
:103050001C5FD1F800E08E68BB4204D14F6924F4B4
:10306000804444EA87142CF4005747EA063725F4D5
:10307000E64646EA0E265C60DE614E6809691E641B
:103080001F62DF6947F40067DF61DF6927F480674B
:10309000DF6109021368194300231160BDE8F041A4
:1030A000002180F83C10184670470000002804BF3B
:1030B0000120704710B5044690F83D0028B9002063
:1030C00084F83C00204600F065F8022084F83D00BA
:1030D000206840F2FF730268C4F2000342F6004C1D
:1030E0009842C4F2010C05DCB0F1804F0AD040F2E6
:1030F000004103E0604505D040F60001C4F2000144
:10310000884203D1A16822F070020A43984205DC8C
:10311000B0F1804F0AD040F2004103E0604505D095
:1031200040F60001C4F20001884203D1216922F473
:1031300040720A43A36922F08001D4F804E0E268F7
:10314000194360450160C262C0F828E002D161699C
:10315000CCF83010012141610269D20703D0026925
:1031600022F001020261002084F8461084F83E102B
:1031700084F83F1084F8401084F8411084F842101D
:1031800084F8431084F8441084F8451084F83D1006
:1031900010BD000070470000704700000168B1F1E9
:1031A000804F18BF7047FDF781BF00004FEAB101A3
:1031B000032984BF00207047DFE801F0020E060AF1
:1031C000006834300068704700683C300068704721
:1031D0000068403000687047006838300068704709
:1031E00070470000FEE7000040F28C21C2F20001AF
:1031F0000860704770B540F2F4150446C2F200054D
:103200000820C4E9005094F8DA00002640F00100DC
:1032100084F8DA0094F8DA00C82100F0FD0084F8A0
:10322000DA0004F10800A4F8D860C4F8D060FDF713
:1032300006F90C20C4E9375094F8B601C82140F0D3
:10324000010084F8B60194F8B60100F0FD0084F89E
:10325000B60104F1E400A4F8B461C4F8AC61FDF770
:10326000EEF870BD002908BF7047DC38002200BFAF
:10327000A0F8B42190F8B631013943F0010380F889
:10328000B63190F8B63103F0FD0380F8B6310B0487
:1032900000F1DC00ECD17047002908BF7047B0B5E1
:1032A00046F6CB3CCAF6287C16E000BFA3FB0C25F3
:1032B0005A1B05EB52021209C0F8D020426D0139A9
:1032C000C0F8D42090F8DA2002F0FD0280F8DA206D
:1032D0000A0400F1DC0018D0002200230BE000BF3C
:1032E0000568AEEB0404ED68254405F1010E0132DA
:1032F000132A7344DAD000EB8204D4F80CE0A468FB
:10330000A645EDD9AEEB040EF1E7BDE8B04070473D
:10331000B0B590B040F2741042F200410024C2F205
:103320000000C4F201014FF4807201254FF46023C4
:10333000C0E900140321CDE90E44CDE90C44CDE9E8
:103340000A44CDE90844CDE90644CDE90444CDE979
:103350000244CDE9004405730475C36182600161D4
:10336000FEF766F9002818BFFDF79AFE40F200202C
:10337000C0F240000A9040F6FF70CDE90D0440F223
:103380007410C2F200000AA90B948DF83050FDF7BA
:10339000EBFF002818BFFDF783FE0120CDE90700F1
:1033A0000520099040F27410C2F2000007A9FEF750
:1033B00005F8002818BFFDF773FE0220CDE90700CD
:1033C00040F27410C2F2000007A9FDF7F7FF0028D1
:1033D00018BFFDF765FE0320CDE9070040F2741029
:1033E000C2F2000007A9FDF7E9FF002818BFFDF7AA
:1033F00057FE0020009001210690039040F27410C7
:10340000019104910222ADF81410C2F20000694645
:103410000292FDF78DFE002818BFFDF741FE10B0A7
:10342000B0BD000080B582B041F21400C4F20200C9
:103430000168002241F0010101600068002100F0F4
:103440000100019001980B20FEF7F0FC0B2002B068
:10345000BDE88040FEF7DABC2DE9F04F85B04FF0B3
:10346000000841F21800CDE90388CDE90188C4F2D3
:103470000200016840F6004A41F010010160016855
:10348000C4F2010A01F010010091009901680AF5E7
:10349000806641F0200101600168002201F02001F6
:1034A0000091009901684FF4005441F0040101605B
:1034B000016801F0040100910099016841F00801E0
:1034C000016000684FF4005100F00800009000987F
:1034D0003046FEF7F3FBAAF58065284649F2F00175
:1034E000002249F2F009FEF7E9FB50464FF47F61F4
:1034F0000022FEF7E3FB01AF01944FF0010B022421
:1035000030463946CDF808B0CDE90344FEF7D6FA87
:1035100028463946CDE9019BCDE90344FEF7CEFAB2
:1035200048F20300CDE9010850463946CDF80C8039
:10353000FEF7C4FA4FF47F60CDE9010B50463946DF
:10354000CDE90344FEF7BAFA05B0BDE8F08F0000FC
:1035500080B540F2E81043F20001C2F20000C4F26C
:10356000000104224FF41C7380E80E00FEF7B2FB4A
:10357000002808BF80BDBDE88040FDF791BD000078
:1035800070B5A0B042F6004540F2F410C4F2010557
:103590000021C2F20000402240F60F638026CDE9F0
:1035A0001911CDE917111591CDE91311CDE91111BB
:1035B000CDE90F11CDE90D11CDE90B11CDE90911BF
:1035C000CDE90711CDE90511CDE90311CDE90111CF
:1035D000C0E90051C0E90223C0E904118661FEF789
:1035E000DFFF002818BFFDF75BFD4FF480501790F8
:1035F00040F2F410C2F2000017A9FFF7B1F800285A
:1036000018BFFDF74DFD40F2F410C2F20000FFF7C5
:103610004DFD002818BFFDF743FD40F2F410C2F243
:103620000000FFF791FA002818BFFDF739FD402090
:1036300014908020159040F2F410C2F2000014A9FA
:10364000FEF770FF002818BFFDF72AFD60200D90DF
:103650004FF4E1600E900020CDE90F00CDE911009C
:10366000139040F2F410C2F200000DA90022FFF7FF
:103670001DFC002818BFFDF713FD40F2F410C2F244
:1036800000000DA90422FFF711FC002818BFFDF768
:1036900007FD002001210990CDE90A100C9040F2AD
:1036A000F410C2F2000009A90822FFF793F90028DC
:1036B00018BFFDF7F5FC40F2F410C2F2000009A9B2
:1036C0000C22FFF787F9002818BFFDF7E9FC4FF43B
:1036D000006001904FF480600290FF2004904FF44E
:1036E000805005904FF4005040F2F41406904FF4CF
:1036F0008040C2F200040026089001A920460396EB
:10370000FEF7E8FE002818BFFDF7CAFC2068CDE9E7
:103710001E66A8421D961C9601D020B070BD41F2D5
:103720001800C4F2020001681CAC41F008010160FD
:103730000168022601F008011B911B99016841F004
:10374000040101600068214600F004001B901B98F2
:103750004FF4C0401C90A5F500501D961F96FEF733
:10376000ADF94FF44070CDE91C06A5F51050214687
:103770001F96FEF7A3F920B070BD000080B586B09B
:1037800040F23C200021C2F2000040F2E73CCDE9CB
:103790000411CDE90211CDE900114FF08042472319
:1037A000C0E9021C01618021C0E900238161FEF7AC
:1037B000F7FE002818BFFDF773FC4FF4805002900D
:1037C00040F23C20C2F2000002A9FEF7C9FF002827
:1037D00018BFFDF765FC0020CDE9000040F23C2059
:1037E000C2F200006946FEF79DFE002818BFFDF7F3
:1037F00057FC06B080BD0000FEE70000FEE70000B9
:103800007047000070470000FEF794BA70B594B09E
:103810000AAC20462821FCF712FE092000250A9058
:103820004FF480300226CDE90B05CDE911604FF44D
:10383000E0100121139020460995CDE90755CDE907
:103840000555CDE90355CDE901550E911091FEF7CF
:1038500087FC20B1EFF3108072B600BFFEE70F20A7
:10386000CDE905064FF48060CDE9080505A80221E1
:103870000795FEF797FB20B1EFF3108072B600BFFB
:10388000FEE7022001904FF40040039001A8FEF7EC
:1038900009FB20B1EFF3108072B600BFFEE714B051
:1038A00070BD00007047000040F2F410C2F200004A
:1038B000FFF754BA40F2F410C2F20000FFF74EBA1C
:1038C00040F23C20C2F20000FFF748BAFEE70000D9
:1038D000B0B5D0F8DC10D0F8AC41C968D0F8B02150
:1038E000D0F8D400101A014438BF481C00F0CAFABE
:1038F0000546204600F0C6FA0146284600F082F947
:103900000021C4F2B43100F039FB0021C4F234319B
:10391000044600F05DF918B90021CCF2B43109E099
:103920000021CCF23431204600F04BF930B90021AF
:10393000C4F2B431204600F0CDF804462046B0BDB4
:10394000ADF57C7D6C4620464FF47C71FCF777FD2D
:10395000FEF7FEF9FFF75AFF0A20FEF79BF8FFF784
:103960007BFDFFF75FFDFFF7D3FCFFF709FEFFF7D5
:1039700005FFFFF7EDFD20464FF47C71FCF75FFD7E
:1039800004F5F0752846FFF72FFC2846FFF732FCB8
:1039900040F2F415C2F2000528460821FFF74AF963
:1039A00028460C21FFF746F92046C821FDF728FBE1
:1039B00070B1089800F066FA0021C4F27A4100F074
:1039C000DDFA00F03EF801460CA0FCF71FFC03E016
:1039D00002A0FCF7FFFC00BFFEE700BF43616C697B
:1039E00062726174696F6E206661696C656420281B
:1039F00074696D656F75743F290D000043616C69D2
:103A000062203A206F6666736574203D202564202D
:103A10006465670D0A00000030380A2801D20120D1
:103A20007047002070478A68002A02DC0022FCF7F9
:103A3000D5BD521E8A604A68C0B2531C4B601070DC
:103A4000704770B5054600F065FB04460146284600
:103A500000F090FB15F0004F4FF07F450ED0B0F115
:103A60003F4F28BFB5EB400F0ED2B0F17C5F1DDD9C
:103A7000B5EB400F1AD313E0044617E0B0F13F4F07
:103A800008D9B5EB400F05D34FF07E51204600F02A
:103A900071FBF1E7B0F17C5F08DBB5EB400F05D3BC
:103AA0004FF07E51204600F015F8E5E7B4F19E4F47
:103AB00002DBB5EB440F05D2B4F14F4F05D9B5EB9E
:103AC000440F02D30120FCF7E9FC2046BDE870401A
:103AD00000F08EB990EA010F48BF81F0004100F17B
:103AE0005083421A3CBF801A89184FEAD052A2EB89
:103AF000D1534FF07F4C1CEA410F18BF9CEA026F74
:103B000000F03B804FF0004C4CEA00204CEA0121D1
:103B100021FA03FC10EB0C0C1ED202F1FF325FEA1B
:103B20001C2040EBC25038BF70471CF07F0F4FEA9B
:103B3000400C18BFBCF17F4F38BF7047C3F1200362
:103B4000994008BF20F00100BCF17F4F38BF70479B
:103B5000A0F1C04000F0D9BA4FEA3C00000A40EBA7
:103B6000C25028BF1CF0FF0F4FEA400CE6D018BF30
:103B7000BCF17F4F38BF7047EAE79CEA026F05D07F
:103B800010EA5C0F08BF00F00040704710B500F06D
:103B900076FA00BF64FBBE3E10B500F0F5F80CBF2E
:103BA0000120002010BD10B500F0EEF814BF012078
:103BB000002010BD10B500F079F98CBF0120002065
:103BC00010BD10B500F072F92CBF0120002010BD0F
:103BD00010B500F09FF994BF0120002010BD10B572
:103BE00000F098F934BF0120002010BD401058BFEC
:103BF000C0F14040491058BFC1F140418142EFF34C
:103C0000008070474FF47F0C1CEAD0121EBF1CEAE4
:103C1000D11392EA0C0F93EA0C0F00F0858090EA22
:103C2000010F48BF42F4807240F4000C41F40000E0
:103C30002CF07F4120F07F4000B5A2EB03028142CF
:103C40000FF2081CACEB504E9EF800E0C0F10000F3
:103C50004FEA4E0E00FB0EFC38BF49004FEA2C1C09
:103C60000CFB0EF34FEACE1E0EEB635E4FEA112CF7
:103C70000EFB0CFC4FEAC1214FEA1C5300FB031161
:103C800002F5FA024FEA112C0EFB0CFC4FEA01314F
:103C90004FEADC4C00FB0C1142EB2242C14228BF30
:103CA00009184CEB03335DF804EB10EB410143EBD7
:103CB000C250B2F57C0F38BF704729D512F0F00F13
:103CC0001CBF00F1C04000F00040704700818283BB
:103CD0008485868788898B8C8D8E8F91929395961B
:103CE00097999A9C9D9FA0A2A3A5A7A8AAACAEB0A5
:103CF000B2B3B5B7B9BCBEC0C2C5C7C9CCCED1D4AA
:103D0000D7D9DCDFE2E6E9ECF0F3F7FAFE000000D9
:103D10004FEA400C0CF1807CBCF17E4F28BF70470D
:103D2000B0F1C04000F0F1B90CEAD11390EA010FF4
:103D300048BF42F48072624538BF634507D213F42E
:103D40007F0F16D080EA010000F00040704710B5E8
:103D500000F095F9097EFC3E00F005B880EA01000C
:103D600000F00040704780EA010000F0004000F0E1
:103D7000CCB912F47F0F04BF0248704780EA0100FB
:103D800000F0C3B90000C07F50EA010C00F11380BD
:103D90001CF5000F58BFBCF5000F01D488427047D6
:103DA00007D710F5000F58BF11F5000F15D4884242
:103DB0007047894270471CF5000F04D5BCF5000F11
:103DC000F7D5814270474FF0807C1CEB400F38BF25
:103DD0001CEB410F01D28142704710B500F04FF942
:103DE000922449004FF000504FF08051FFF7FEBE83
:103DF00041000B0ED3F19E0216D950F400034FEA96
:103E0000032333FA02FC0AD363FA02F383EA0C03B6
:103E10000CF1010C93F0004F08BF2CF0010C5CEA90
:103E2000100028BF4042704710B500F028F900BFCD
:103E300049922480002070476FF0004282EA2000FF
:103E400070470000C10DD1F19E0206DB4FEA00234E
:103E500043F0004323FA02F07047004207D54FEACF
:103E60004001B1F1FE4F02D24FF00000704710B593
:103E700000F005F949922480002070476FEA200085
:103E800070470000B0FA80F310FA03F2C3F19D030B
:103E90000AD0D90501EB1220530638BF704700F154
:103EA000010008BF20F001007047000050EA010C3B
:103EB00000F113801CF5000F58BFBCF5000F01D4B2
:103EC0008842704707D710F5000F58BF11F5000F53
:103ED00015D488427047894270471CF5000F04D5FD
:103EE000BCF5000FF7D5814270474FF0807C1CEB8A
:103EF000400F38BF1CEB410F01D28142704710B513
:103F000000F0BDF8922449004FF080504FF000516E
:103F1000FFF76CBE50EA010C00F113801CF5000F96
:103F200058BFBCF5000F01D48842704707D710F581
:103F3000000F58BF11F5000F15D488427047894211
:103F400070471CF5000F04D5BCF5000FF7D5814272
:103F500070474FF0807C1CEB400F38BF1CEB410FCB
:103F600001D28142704710B500F089F892244900CF
:103F70004FF000504FF08051FFF738BE4FF47F0CE8
:103F80001CEAD0121EBF1CEAD11392EA0C0F93EA6E
:103F90000C0F00F0478090EA010F48BF42F4807296
:103FA0004FF0004C4CEA00204CEA012102EB0302E6
:103FB000A0FB0113A2F50002002918BF43F0010382
:103FC0005B0028BF4FEA330342EB22425FEA132C27
:103FD0004CEBC2502EBFBCEB436FB2F57C0F704769
:103FE0004FEA036CBCF1004F08BF20F00100B2F5AE
:103FF0007C0F38BF70470BD582F0FF0212F5803F6F
:10400000C8BF704700F1C040D8BF00F00040704703
:1040100000F5000C5FEA4C0C48BF7047B0F1C0409F
:1040200000F073B80CEAD11390EA010F48BF42F4D4
:104030008072624538BF634504D280EA010000F017
:104040000040704710B500F01AF800BF8900013E2B
:1040500000F007B800F009B85FEA410C5FEA1C6C99
:1040600008D080EA010000F050B85FEA400C5FEA37
:104070001C6CF6D14FF00040A0F5800070470EF1A7
:10408000020E2EF0030E5EF8044B244204D44FEAD5
:104090004102B2F17F4F11D84FEA4003B3F17F4F95
:1040A0000CD80ED14FEAD07C0CEB4C0C0CF1020C6E
:1040B000B2F17F4F08BF4CEBD17C04E04FF0080C0D
:1040C00001E04FEAD17C0CEB4C0324FA03F404F03A
:1040D0000704B4F1040C06D20EEB840CBDE81040CA
:1040E0004CF0010C6047DFE80CF0070802024FF0CB
:1040F0000040A0F5800010BD0846420018BFD2F174
:10410000807288BF00F0004010BDFF2141EAD0500E
:10411000C00570475FEA400C5FEA1C6CBCF17F038E
:1041200014D4D3F1170240F31C804FF0010C0CFAA9
:1041300002FCACF10103034020EA0300B3EB5C0294
:1041400008BF10EA0C0F88BF60447047B3F1FF3F0F
:1041500028BF5FEA002C00F0004088BF40F07E508E
:104160007047BCF1FF0FB8BF704710B5FFF787FF6E
:1041700040DBB6BE90EA010F48BF81F000413FF539
:10418000B0AC421A04D882F00042A0EB0200114405
:104190004FEAD052A2EBD1534FF07F4C1CEA410FB3
:1041A00018BF9CEA026F4AD04FF0004C4CEA002046
:1041B0004CEA012121FA03FCB0EB0C0C0FD412F0F5
:1041C000FE0F36D05FEA4C001DD5001240EBC25006
:1041D00038BF70471CF03F0F18BF70470BE05FEA15
:1041E0001C20A2F1010240EBC25038BF70471CF006
:1041F0007F0F18BF7047C3F12003994014BF401EC2
:1042000020F0010070474FEA1223800808BF704772
:10421000B0FA80FCA2EB0C02CCF1280C60FA0CF096
:1042200093EA122F04BF00EBC25070474FEAC370ED
:104230007047130A5FEADC1008BF7047F6E79CEA94
:10424000026F04D010EA5C0F08BF0020704710B561
:10425000FFF715FF40DFF63E81F000407047040095
:104260000008000000000000000200010000103AF9
:104270007474003A7474003A747400000000000012
:1042800000000001020304060708090102020304FA
:1042900005060708090A0B0C0D0E0F101000000090
:1042A00002000000040000000800000010000000F0
:1042B000FDFFFFFFFBFFFFFFF7FFFFFFEFFFFFFF2C
:1042C00001000000010000000100000050C30000D8
:1042D00050C3000050C3000050C3000050C3000092
:1042E00000430008000000201800000050010008F2
:1042F0001843000818000020800800007001000822
:1043000000000000000000000000000000127A0021
:08431000010000001000000094
:04000005080000ED02
:00000001FF
